Archive member included to satisfy reference by file (symbol)

D:/Program Files/STM32CubeIDE_1.10.1/STM32CubeIDE/plugins/com.st.stm32cube.ide.mcu.externaltools.gnu-tools-for-stm32.11.3.rel1.win32_1.1.1.202309131626/tools/bin/../lib/gcc/arm-none-eabi/11.3.1/../../../../arm-none-eabi/lib/thumb/v7-m/nofp\libm.a(libm_a-s_atan.o)
                              ./Src/System/sensors.o (atan)
D:/Program Files/STM32CubeIDE_1.10.1/STM32CubeIDE/plugins/com.st.stm32cube.ide.mcu.externaltools.gnu-tools-for-stm32.11.3.rel1.win32_1.1.1.202309131626/tools/bin/../lib/gcc/arm-none-eabi/11.3.1/../../../../arm-none-eabi/lib/thumb/v7-m/nofp\libm.a(libm_a-s_fabs.o)
                              D:/Program Files/STM32CubeIDE_1.10.1/STM32CubeIDE/plugins/com.st.stm32cube.ide.mcu.externaltools.gnu-tools-for-stm32.11.3.rel1.win32_1.1.1.202309131626/tools/bin/../lib/gcc/arm-none-eabi/11.3.1/../../../../arm-none-eabi/lib/thumb/v7-m/nofp\libm.a(libm_a-s_atan.o) (fabs)
D:/Program Files/STM32CubeIDE_1.10.1/STM32CubeIDE/plugins/com.st.stm32cube.ide.mcu.externaltools.gnu-tools-for-stm32.11.3.rel1.win32_1.1.1.202309131626/tools/bin/../lib/gcc/arm-none-eabi/11.3.1/../../../../arm-none-eabi/lib/thumb/v7-m/nofp\libm.a(libm_a-wf_sqrt.o)
                              ./Src/EKF/matrix.o (sqrtf)
D:/Program Files/STM32CubeIDE_1.10.1/STM32CubeIDE/plugins/com.st.stm32cube.ide.mcu.externaltools.gnu-tools-for-stm32.11.3.rel1.win32_1.1.1.202309131626/tools/bin/../lib/gcc/arm-none-eabi/11.3.1/../../../../arm-none-eabi/lib/thumb/v7-m/nofp\libm.a(libm_a-sf_tan.o)
                              ./Src/System/filter.o (tanf)
D:/Program Files/STM32CubeIDE_1.10.1/STM32CubeIDE/plugins/com.st.stm32cube.ide.mcu.externaltools.gnu-tools-for-stm32.11.3.rel1.win32_1.1.1.202309131626/tools/bin/../lib/gcc/arm-none-eabi/11.3.1/../../../../arm-none-eabi/lib/thumb/v7-m/nofp\libm.a(libm_a-ef_sqrt.o)
                              D:/Program Files/STM32CubeIDE_1.10.1/STM32CubeIDE/plugins/com.st.stm32cube.ide.mcu.externaltools.gnu-tools-for-stm32.11.3.rel1.win32_1.1.1.202309131626/tools/bin/../lib/gcc/arm-none-eabi/11.3.1/../../../../arm-none-eabi/lib/thumb/v7-m/nofp\libm.a(libm_a-wf_sqrt.o) (__ieee754_sqrtf)
D:/Program Files/STM32CubeIDE_1.10.1/STM32CubeIDE/plugins/com.st.stm32cube.ide.mcu.externaltools.gnu-tools-for-stm32.11.3.rel1.win32_1.1.1.202309131626/tools/bin/../lib/gcc/arm-none-eabi/11.3.1/../../../../arm-none-eabi/lib/thumb/v7-m/nofp\libm.a(libm_a-kf_tan.o)
                              D:/Program Files/STM32CubeIDE_1.10.1/STM32CubeIDE/plugins/com.st.stm32cube.ide.mcu.externaltools.gnu-tools-for-stm32.11.3.rel1.win32_1.1.1.202309131626/tools/bin/../lib/gcc/arm-none-eabi/11.3.1/../../../../arm-none-eabi/lib/thumb/v7-m/nofp\libm.a(libm_a-sf_tan.o) (__kernel_tanf)
D:/Program Files/STM32CubeIDE_1.10.1/STM32CubeIDE/plugins/com.st.stm32cube.ide.mcu.externaltools.gnu-tools-for-stm32.11.3.rel1.win32_1.1.1.202309131626/tools/bin/../lib/gcc/arm-none-eabi/11.3.1/../../../../arm-none-eabi/lib/thumb/v7-m/nofp\libm.a(libm_a-ef_rem_pio2.o)
                              D:/Program Files/STM32CubeIDE_1.10.1/STM32CubeIDE/plugins/com.st.stm32cube.ide.mcu.externaltools.gnu-tools-for-stm32.11.3.rel1.win32_1.1.1.202309131626/tools/bin/../lib/gcc/arm-none-eabi/11.3.1/../../../../arm-none-eabi/lib/thumb/v7-m/nofp\libm.a(libm_a-sf_tan.o) (__ieee754_rem_pio2f)
D:/Program Files/STM32CubeIDE_1.10.1/STM32CubeIDE/plugins/com.st.stm32cube.ide.mcu.externaltools.gnu-tools-for-stm32.11.3.rel1.win32_1.1.1.202309131626/tools/bin/../lib/gcc/arm-none-eabi/11.3.1/../../../../arm-none-eabi/lib/thumb/v7-m/nofp\libm.a(libm_a-sf_fabs.o)
                              D:/Program Files/STM32CubeIDE_1.10.1/STM32CubeIDE/plugins/com.st.stm32cube.ide.mcu.externaltools.gnu-tools-for-stm32.11.3.rel1.win32_1.1.1.202309131626/tools/bin/../lib/gcc/arm-none-eabi/11.3.1/../../../../arm-none-eabi/lib/thumb/v7-m/nofp\libm.a(libm_a-kf_tan.o) (fabsf)
D:/Program Files/STM32CubeIDE_1.10.1/STM32CubeIDE/plugins/com.st.stm32cube.ide.mcu.externaltools.gnu-tools-for-stm32.11.3.rel1.win32_1.1.1.202309131626/tools/bin/../lib/gcc/arm-none-eabi/11.3.1/../../../../arm-none-eabi/lib/thumb/v7-m/nofp\libm.a(libm_a-kf_rem_pio2.o)
                              D:/Program Files/STM32CubeIDE_1.10.1/STM32CubeIDE/plugins/com.st.stm32cube.ide.mcu.externaltools.gnu-tools-for-stm32.11.3.rel1.win32_1.1.1.202309131626/tools/bin/../lib/gcc/arm-none-eabi/11.3.1/../../../../arm-none-eabi/lib/thumb/v7-m/nofp\libm.a(libm_a-ef_rem_pio2.o) (__kernel_rem_pio2f)
D:/Program Files/STM32CubeIDE_1.10.1/STM32CubeIDE/plugins/com.st.stm32cube.ide.mcu.externaltools.gnu-tools-for-stm32.11.3.rel1.win32_1.1.1.202309131626/tools/bin/../lib/gcc/arm-none-eabi/11.3.1/../../../../arm-none-eabi/lib/thumb/v7-m/nofp\libm.a(libm_a-sf_scalbn.o)
                              D:/Program Files/STM32CubeIDE_1.10.1/STM32CubeIDE/plugins/com.st.stm32cube.ide.mcu.externaltools.gnu-tools-for-stm32.11.3.rel1.win32_1.1.1.202309131626/tools/bin/../lib/gcc/arm-none-eabi/11.3.1/../../../../arm-none-eabi/lib/thumb/v7-m/nofp\libm.a(libm_a-kf_rem_pio2.o) (scalbnf)
D:/Program Files/STM32CubeIDE_1.10.1/STM32CubeIDE/plugins/com.st.stm32cube.ide.mcu.externaltools.gnu-tools-for-stm32.11.3.rel1.win32_1.1.1.202309131626/tools/bin/../lib/gcc/arm-none-eabi/11.3.1/../../../../arm-none-eabi/lib/thumb/v7-m/nofp\libm.a(libm_a-sf_floor.o)
                              D:/Program Files/STM32CubeIDE_1.10.1/STM32CubeIDE/plugins/com.st.stm32cube.ide.mcu.externaltools.gnu-tools-for-stm32.11.3.rel1.win32_1.1.1.202309131626/tools/bin/../lib/gcc/arm-none-eabi/11.3.1/../../../../arm-none-eabi/lib/thumb/v7-m/nofp\libm.a(libm_a-kf_rem_pio2.o) (floorf)
D:/Program Files/STM32CubeIDE_1.10.1/STM32CubeIDE/plugins/com.st.stm32cube.ide.mcu.externaltools.gnu-tools-for-stm32.11.3.rel1.win32_1.1.1.202309131626/tools/bin/../lib/gcc/arm-none-eabi/11.3.1/../../../../arm-none-eabi/lib/thumb/v7-m/nofp\libc_nano.a(libc_a-exit.o)
                              D:/Program Files/STM32CubeIDE_1.10.1/STM32CubeIDE/plugins/com.st.stm32cube.ide.mcu.externaltools.gnu-tools-for-stm32.11.3.rel1.win32_1.1.1.202309131626/tools/bin/../lib/gcc/arm-none-eabi/11.3.1/../../../../arm-none-eabi/lib/thumb/v7-m/nofp/crt0.o (exit)
D:/Program Files/STM32CubeIDE_1.10.1/STM32CubeIDE/plugins/com.st.stm32cube.ide.mcu.externaltools.gnu-tools-for-stm32.11.3.rel1.win32_1.1.1.202309131626/tools/bin/../lib/gcc/arm-none-eabi/11.3.1/../../../../arm-none-eabi/lib/thumb/v7-m/nofp\libc_nano.a(libc_a-nano-vfprintf_float.o)
                              (_printf_float)
D:/Program Files/STM32CubeIDE_1.10.1/STM32CubeIDE/plugins/com.st.stm32cube.ide.mcu.externaltools.gnu-tools-for-stm32.11.3.rel1.win32_1.1.1.202309131626/tools/bin/../lib/gcc/arm-none-eabi/11.3.1/../../../../arm-none-eabi/lib/thumb/v7-m/nofp\libc_nano.a(libc_a-nano-vfprintf_i.o)
                              D:/Program Files/STM32CubeIDE_1.10.1/STM32CubeIDE/plugins/com.st.stm32cube.ide.mcu.externaltools.gnu-tools-for-stm32.11.3.rel1.win32_1.1.1.202309131626/tools/bin/../lib/gcc/arm-none-eabi/11.3.1/../../../../arm-none-eabi/lib/thumb/v7-m/nofp\libc_nano.a(libc_a-nano-vfprintf_float.o) (_printf_common)
D:/Program Files/STM32CubeIDE_1.10.1/STM32CubeIDE/plugins/com.st.stm32cube.ide.mcu.externaltools.gnu-tools-for-stm32.11.3.rel1.win32_1.1.1.202309131626/tools/bin/../lib/gcc/arm-none-eabi/11.3.1/../../../../arm-none-eabi/lib/thumb/v7-m/nofp\libc_nano.a(libc_a-nano-vfscanf_float.o)
                              (_scanf_float)
D:/Program Files/STM32CubeIDE_1.10.1/STM32CubeIDE/plugins/com.st.stm32cube.ide.mcu.externaltools.gnu-tools-for-stm32.11.3.rel1.win32_1.1.1.202309131626/tools/bin/../lib/gcc/arm-none-eabi/11.3.1/../../../../arm-none-eabi/lib/thumb/v7-m/nofp\libc_nano.a(libc_a-findfp.o)
                              D:/Program Files/STM32CubeIDE_1.10.1/STM32CubeIDE/plugins/com.st.stm32cube.ide.mcu.externaltools.gnu-tools-for-stm32.11.3.rel1.win32_1.1.1.202309131626/tools/bin/../lib/gcc/arm-none-eabi/11.3.1/../../../../arm-none-eabi/lib/thumb/v7-m/nofp\libc_nano.a(libc_a-exit.o) (__stdio_exit_handler)
D:/Program Files/STM32CubeIDE_1.10.1/STM32CubeIDE/plugins/com.st.stm32cube.ide.mcu.externaltools.gnu-tools-for-stm32.11.3.rel1.win32_1.1.1.202309131626/tools/bin/../lib/gcc/arm-none-eabi/11.3.1/../../../../arm-none-eabi/lib/thumb/v7-m/nofp\libc_nano.a(libc_a-fwalk.o)
                              D:/Program Files/STM32CubeIDE_1.10.1/STM32CubeIDE/plugins/com.st.stm32cube.ide.mcu.externaltools.gnu-tools-for-stm32.11.3.rel1.win32_1.1.1.202309131626/tools/bin/../lib/gcc/arm-none-eabi/11.3.1/../../../../arm-none-eabi/lib/thumb/v7-m/nofp\libc_nano.a(libc_a-findfp.o) (_fwalk_sglue)
D:/Program Files/STM32CubeIDE_1.10.1/STM32CubeIDE/plugins/com.st.stm32cube.ide.mcu.externaltools.gnu-tools-for-stm32.11.3.rel1.win32_1.1.1.202309131626/tools/bin/../lib/gcc/arm-none-eabi/11.3.1/../../../../arm-none-eabi/lib/thumb/v7-m/nofp\libc_nano.a(libc_a-printf.o)
                              ./Src/BSP/ak8963.o (printf)
D:/Program Files/STM32CubeIDE_1.10.1/STM32CubeIDE/plugins/com.st.stm32cube.ide.mcu.externaltools.gnu-tools-for-stm32.11.3.rel1.win32_1.1.1.202309131626/tools/bin/../lib/gcc/arm-none-eabi/11.3.1/../../../../arm-none-eabi/lib/thumb/v7-m/nofp\libc_nano.a(libc_a-puts.o)
                              ./Src/BSP/ak8963.o (puts)
D:/Program Files/STM32CubeIDE_1.10.1/STM32CubeIDE/plugins/com.st.stm32cube.ide.mcu.externaltools.gnu-tools-for-stm32.11.3.rel1.win32_1.1.1.202309131626/tools/bin/../lib/gcc/arm-none-eabi/11.3.1/../../../../arm-none-eabi/lib/thumb/v7-m/nofp\libc_nano.a(libc_a-sprintf.o)
                              ./Src/BSP/i2c_oled.o (sprintf)
D:/Program Files/STM32CubeIDE_1.10.1/STM32CubeIDE/plugins/com.st.stm32cube.ide.mcu.externaltools.gnu-tools-for-stm32.11.3.rel1.win32_1.1.1.202309131626/tools/bin/../lib/gcc/arm-none-eabi/11.3.1/../../../../arm-none-eabi/lib/thumb/v7-m/nofp\libc_nano.a(libc_a-stdio.o)
                              D:/Program Files/STM32CubeIDE_1.10.1/STM32CubeIDE/plugins/com.st.stm32cube.ide.mcu.externaltools.gnu-tools-for-stm32.11.3.rel1.win32_1.1.1.202309131626/tools/bin/../lib/gcc/arm-none-eabi/11.3.1/../../../../arm-none-eabi/lib/thumb/v7-m/nofp\libc_nano.a(libc_a-findfp.o) (__sread)
D:/Program Files/STM32CubeIDE_1.10.1/STM32CubeIDE/plugins/com.st.stm32cube.ide.mcu.externaltools.gnu-tools-for-stm32.11.3.rel1.win32_1.1.1.202309131626/tools/bin/../lib/gcc/arm-none-eabi/11.3.1/../../../../arm-none-eabi/lib/thumb/v7-m/nofp\libc_nano.a(libc_a-wbuf.o)
                              D:/Program Files/STM32CubeIDE_1.10.1/STM32CubeIDE/plugins/com.st.stm32cube.ide.mcu.externaltools.gnu-tools-for-stm32.11.3.rel1.win32_1.1.1.202309131626/tools/bin/../lib/gcc/arm-none-eabi/11.3.1/../../../../arm-none-eabi/lib/thumb/v7-m/nofp\libc_nano.a(libc_a-puts.o) (__swbuf_r)
D:/Program Files/STM32CubeIDE_1.10.1/STM32CubeIDE/plugins/com.st.stm32cube.ide.mcu.externaltools.gnu-tools-for-stm32.11.3.rel1.win32_1.1.1.202309131626/tools/bin/../lib/gcc/arm-none-eabi/11.3.1/../../../../arm-none-eabi/lib/thumb/v7-m/nofp\libc_nano.a(libc_a-wsetup.o)
                              D:/Program Files/STM32CubeIDE_1.10.1/STM32CubeIDE/plugins/com.st.stm32cube.ide.mcu.externaltools.gnu-tools-for-stm32.11.3.rel1.win32_1.1.1.202309131626/tools/bin/../lib/gcc/arm-none-eabi/11.3.1/../../../../arm-none-eabi/lib/thumb/v7-m/nofp\libc_nano.a(libc_a-puts.o) (__swsetup_r)
D:/Program Files/STM32CubeIDE_1.10.1/STM32CubeIDE/plugins/com.st.stm32cube.ide.mcu.externaltools.gnu-tools-for-stm32.11.3.rel1.win32_1.1.1.202309131626/tools/bin/../lib/gcc/arm-none-eabi/11.3.1/../../../../arm-none-eabi/lib/thumb/v7-m/nofp\libc_nano.a(libc_a-memset.o)
                              D:/Program Files/STM32CubeIDE_1.10.1/STM32CubeIDE/plugins/com.st.stm32cube.ide.mcu.externaltools.gnu-tools-for-stm32.11.3.rel1.win32_1.1.1.202309131626/tools/bin/../lib/gcc/arm-none-eabi/11.3.1/../../../../arm-none-eabi/lib/thumb/v7-m/nofp/crt0.o (memset)
D:/Program Files/STM32CubeIDE_1.10.1/STM32CubeIDE/plugins/com.st.stm32cube.ide.mcu.externaltools.gnu-tools-for-stm32.11.3.rel1.win32_1.1.1.202309131626/tools/bin/../lib/gcc/arm-none-eabi/11.3.1/../../../../arm-none-eabi/lib/thumb/v7-m/nofp\libc_nano.a(libc_a-localeconv.o)
                              D:/Program Files/STM32CubeIDE_1.10.1/STM32CubeIDE/plugins/com.st.stm32cube.ide.mcu.externaltools.gnu-tools-for-stm32.11.3.rel1.win32_1.1.1.202309131626/tools/bin/../lib/gcc/arm-none-eabi/11.3.1/../../../../arm-none-eabi/lib/thumb/v7-m/nofp\libc_nano.a(libc_a-nano-vfprintf_float.o) (_localeconv_r)
D:/Program Files/STM32CubeIDE_1.10.1/STM32CubeIDE/plugins/com.st.stm32cube.ide.mcu.externaltools.gnu-tools-for-stm32.11.3.rel1.win32_1.1.1.202309131626/tools/bin/../lib/gcc/arm-none-eabi/11.3.1/../../../../arm-none-eabi/lib/thumb/v7-m/nofp\libc_nano.a(libc_a-closer.o)
                              D:/Program Files/STM32CubeIDE_1.10.1/STM32CubeIDE/plugins/com.st.stm32cube.ide.mcu.externaltools.gnu-tools-for-stm32.11.3.rel1.win32_1.1.1.202309131626/tools/bin/../lib/gcc/arm-none-eabi/11.3.1/../../../../arm-none-eabi/lib/thumb/v7-m/nofp\libc_nano.a(libc_a-stdio.o) (_close_r)
D:/Program Files/STM32CubeIDE_1.10.1/STM32CubeIDE/plugins/com.st.stm32cube.ide.mcu.externaltools.gnu-tools-for-stm32.11.3.rel1.win32_1.1.1.202309131626/tools/bin/../lib/gcc/arm-none-eabi/11.3.1/../../../../arm-none-eabi/lib/thumb/v7-m/nofp\libc_nano.a(libc_a-reent.o)
                              D:/Program Files/STM32CubeIDE_1.10.1/STM32CubeIDE/plugins/com.st.stm32cube.ide.mcu.externaltools.gnu-tools-for-stm32.11.3.rel1.win32_1.1.1.202309131626/tools/bin/../lib/gcc/arm-none-eabi/11.3.1/../../../../arm-none-eabi/lib/thumb/v7-m/nofp\libc_nano.a(libc_a-closer.o) (errno)
D:/Program Files/STM32CubeIDE_1.10.1/STM32CubeIDE/plugins/com.st.stm32cube.ide.mcu.externaltools.gnu-tools-for-stm32.11.3.rel1.win32_1.1.1.202309131626/tools/bin/../lib/gcc/arm-none-eabi/11.3.1/../../../../arm-none-eabi/lib/thumb/v7-m/nofp\libc_nano.a(libc_a-impure.o)
                              D:/Program Files/STM32CubeIDE_1.10.1/STM32CubeIDE/plugins/com.st.stm32cube.ide.mcu.externaltools.gnu-tools-for-stm32.11.3.rel1.win32_1.1.1.202309131626/tools/bin/../lib/gcc/arm-none-eabi/11.3.1/../../../../arm-none-eabi/lib/thumb/v7-m/nofp\libc_nano.a(libc_a-printf.o) (_impure_ptr)
D:/Program Files/STM32CubeIDE_1.10.1/STM32CubeIDE/plugins/com.st.stm32cube.ide.mcu.externaltools.gnu-tools-for-stm32.11.3.rel1.win32_1.1.1.202309131626/tools/bin/../lib/gcc/arm-none-eabi/11.3.1/../../../../arm-none-eabi/lib/thumb/v7-m/nofp\libc_nano.a(libc_a-lseekr.o)
                              D:/Program Files/STM32CubeIDE_1.10.1/STM32CubeIDE/plugins/com.st.stm32cube.ide.mcu.externaltools.gnu-tools-for-stm32.11.3.rel1.win32_1.1.1.202309131626/tools/bin/../lib/gcc/arm-none-eabi/11.3.1/../../../../arm-none-eabi/lib/thumb/v7-m/nofp\libc_nano.a(libc_a-stdio.o) (_lseek_r)
D:/Program Files/STM32CubeIDE_1.10.1/STM32CubeIDE/plugins/com.st.stm32cube.ide.mcu.externaltools.gnu-tools-for-stm32.11.3.rel1.win32_1.1.1.202309131626/tools/bin/../lib/gcc/arm-none-eabi/11.3.1/../../../../arm-none-eabi/lib/thumb/v7-m/nofp\libc_nano.a(libc_a-readr.o)
                              D:/Program Files/STM32CubeIDE_1.10.1/STM32CubeIDE/plugins/com.st.stm32cube.ide.mcu.externaltools.gnu-tools-for-stm32.11.3.rel1.win32_1.1.1.202309131626/tools/bin/../lib/gcc/arm-none-eabi/11.3.1/../../../../arm-none-eabi/lib/thumb/v7-m/nofp\libc_nano.a(libc_a-stdio.o) (_read_r)
D:/Program Files/STM32CubeIDE_1.10.1/STM32CubeIDE/plugins/com.st.stm32cube.ide.mcu.externaltools.gnu-tools-for-stm32.11.3.rel1.win32_1.1.1.202309131626/tools/bin/../lib/gcc/arm-none-eabi/11.3.1/../../../../arm-none-eabi/lib/thumb/v7-m/nofp\libc_nano.a(libc_a-writer.o)
                              D:/Program Files/STM32CubeIDE_1.10.1/STM32CubeIDE/plugins/com.st.stm32cube.ide.mcu.externaltools.gnu-tools-for-stm32.11.3.rel1.win32_1.1.1.202309131626/tools/bin/../lib/gcc/arm-none-eabi/11.3.1/../../../../arm-none-eabi/lib/thumb/v7-m/nofp\libc_nano.a(libc_a-stdio.o) (_write_r)
D:/Program Files/STM32CubeIDE_1.10.1/STM32CubeIDE/plugins/com.st.stm32cube.ide.mcu.externaltools.gnu-tools-for-stm32.11.3.rel1.win32_1.1.1.202309131626/tools/bin/../lib/gcc/arm-none-eabi/11.3.1/../../../../arm-none-eabi/lib/thumb/v7-m/nofp\libc_nano.a(libc_a-errno.o)
                              ./Src/BSP/usart1.o (__errno)
D:/Program Files/STM32CubeIDE_1.10.1/STM32CubeIDE/plugins/com.st.stm32cube.ide.mcu.externaltools.gnu-tools-for-stm32.11.3.rel1.win32_1.1.1.202309131626/tools/bin/../lib/gcc/arm-none-eabi/11.3.1/../../../../arm-none-eabi/lib/thumb/v7-m/nofp\libc_nano.a(libc_a-init.o)
                              D:/Program Files/STM32CubeIDE_1.10.1/STM32CubeIDE/plugins/com.st.stm32cube.ide.mcu.externaltools.gnu-tools-for-stm32.11.3.rel1.win32_1.1.1.202309131626/tools/bin/../lib/gcc/arm-none-eabi/11.3.1/../../../../arm-none-eabi/lib/thumb/v7-m/nofp/crt0.o (__libc_init_array)
D:/Program Files/STM32CubeIDE_1.10.1/STM32CubeIDE/plugins/com.st.stm32cube.ide.mcu.externaltools.gnu-tools-for-stm32.11.3.rel1.win32_1.1.1.202309131626/tools/bin/../lib/gcc/arm-none-eabi/11.3.1/../../../../arm-none-eabi/lib/thumb/v7-m/nofp\libc_nano.a(libc_a-lock.o)
                              D:/Program Files/STM32CubeIDE_1.10.1/STM32CubeIDE/plugins/com.st.stm32cube.ide.mcu.externaltools.gnu-tools-for-stm32.11.3.rel1.win32_1.1.1.202309131626/tools/bin/../lib/gcc/arm-none-eabi/11.3.1/../../../../arm-none-eabi/lib/thumb/v7-m/nofp\libc_nano.a(libc_a-findfp.o) (__retarget_lock_init_recursive)
D:/Program Files/STM32CubeIDE_1.10.1/STM32CubeIDE/plugins/com.st.stm32cube.ide.mcu.externaltools.gnu-tools-for-stm32.11.3.rel1.win32_1.1.1.202309131626/tools/bin/../lib/gcc/arm-none-eabi/11.3.1/../../../../arm-none-eabi/lib/thumb/v7-m/nofp\libc_nano.a(libc_a-strcpy.o)
                              ./Src/FreeRTOS/tasks.o (strcpy)
D:/Program Files/STM32CubeIDE_1.10.1/STM32CubeIDE/plugins/com.st.stm32cube.ide.mcu.externaltools.gnu-tools-for-stm32.11.3.rel1.win32_1.1.1.202309131626/tools/bin/../lib/gcc/arm-none-eabi/11.3.1/../../../../arm-none-eabi/lib/thumb/v7-m/nofp\libc_nano.a(libc_a-memchr-stub.o)
                              D:/Program Files/STM32CubeIDE_1.10.1/STM32CubeIDE/plugins/com.st.stm32cube.ide.mcu.externaltools.gnu-tools-for-stm32.11.3.rel1.win32_1.1.1.202309131626/tools/bin/../lib/gcc/arm-none-eabi/11.3.1/../../../../arm-none-eabi/lib/thumb/v7-m/nofp\libc_nano.a(libc_a-nano-vfprintf_i.o) (memchr)
D:/Program Files/STM32CubeIDE_1.10.1/STM32CubeIDE/plugins/com.st.stm32cube.ide.mcu.externaltools.gnu-tools-for-stm32.11.3.rel1.win32_1.1.1.202309131626/tools/bin/../lib/gcc/arm-none-eabi/11.3.1/../../../../arm-none-eabi/lib/thumb/v7-m/nofp\libc_nano.a(libc_a-memcpy-stub.o)
                              ./Src/BSP/can.o (memcpy)
D:/Program Files/STM32CubeIDE_1.10.1/STM32CubeIDE/plugins/com.st.stm32cube.ide.mcu.externaltools.gnu-tools-for-stm32.11.3.rel1.win32_1.1.1.202309131626/tools/bin/../lib/gcc/arm-none-eabi/11.3.1/../../../../arm-none-eabi/lib/thumb/v7-m/nofp\libc_nano.a(libc_a-strlen.o)
                              ./Src/FreeRTOS/tasks.o (strlen)
D:/Program Files/STM32CubeIDE_1.10.1/STM32CubeIDE/plugins/com.st.stm32cube.ide.mcu.externaltools.gnu-tools-for-stm32.11.3.rel1.win32_1.1.1.202309131626/tools/bin/../lib/gcc/arm-none-eabi/11.3.1/../../../../arm-none-eabi/lib/thumb/v7-m/nofp\libc_nano.a(libm_a-sf_nan.o)
                              D:/Program Files/STM32CubeIDE_1.10.1/STM32CubeIDE/plugins/com.st.stm32cube.ide.mcu.externaltools.gnu-tools-for-stm32.11.3.rel1.win32_1.1.1.202309131626/tools/bin/../lib/gcc/arm-none-eabi/11.3.1/../../../../arm-none-eabi/lib/thumb/v7-m/nofp\libc_nano.a(libc_a-nano-vfscanf_float.o) (nanf)
D:/Program Files/STM32CubeIDE_1.10.1/STM32CubeIDE/plugins/com.st.stm32cube.ide.mcu.externaltools.gnu-tools-for-stm32.11.3.rel1.win32_1.1.1.202309131626/tools/bin/../lib/gcc/arm-none-eabi/11.3.1/../../../../arm-none-eabi/lib/thumb/v7-m/nofp\libc_nano.a(libc_a-dtoa.o)
                              D:/Program Files/STM32CubeIDE_1.10.1/STM32CubeIDE/plugins/com.st.stm32cube.ide.mcu.externaltools.gnu-tools-for-stm32.11.3.rel1.win32_1.1.1.202309131626/tools/bin/../lib/gcc/arm-none-eabi/11.3.1/../../../../arm-none-eabi/lib/thumb/v7-m/nofp\libc_nano.a(libc_a-nano-vfprintf_float.o) (_dtoa_r)
D:/Program Files/STM32CubeIDE_1.10.1/STM32CubeIDE/plugins/com.st.stm32cube.ide.mcu.externaltools.gnu-tools-for-stm32.11.3.rel1.win32_1.1.1.202309131626/tools/bin/../lib/gcc/arm-none-eabi/11.3.1/../../../../arm-none-eabi/lib/thumb/v7-m/nofp\libc_nano.a(libc_a-freer.o)
                              D:/Program Files/STM32CubeIDE_1.10.1/STM32CubeIDE/plugins/com.st.stm32cube.ide.mcu.externaltools.gnu-tools-for-stm32.11.3.rel1.win32_1.1.1.202309131626/tools/bin/../lib/gcc/arm-none-eabi/11.3.1/../../../../arm-none-eabi/lib/thumb/v7-m/nofp\libc_nano.a(libc_a-wsetup.o) (_free_r)
D:/Program Files/STM32CubeIDE_1.10.1/STM32CubeIDE/plugins/com.st.stm32cube.ide.mcu.externaltools.gnu-tools-for-stm32.11.3.rel1.win32_1.1.1.202309131626/tools/bin/../lib/gcc/arm-none-eabi/11.3.1/../../../../arm-none-eabi/lib/thumb/v7-m/nofp\libc_nano.a(libc_a-malloc.o)
                              D:/Program Files/STM32CubeIDE_1.10.1/STM32CubeIDE/plugins/com.st.stm32cube.ide.mcu.externaltools.gnu-tools-for-stm32.11.3.rel1.win32_1.1.1.202309131626/tools/bin/../lib/gcc/arm-none-eabi/11.3.1/../../../../arm-none-eabi/lib/thumb/v7-m/nofp\libc_nano.a(libc_a-dtoa.o) (malloc)
D:/Program Files/STM32CubeIDE_1.10.1/STM32CubeIDE/plugins/com.st.stm32cube.ide.mcu.externaltools.gnu-tools-for-stm32.11.3.rel1.win32_1.1.1.202309131626/tools/bin/../lib/gcc/arm-none-eabi/11.3.1/../../../../arm-none-eabi/lib/thumb/v7-m/nofp\libc_nano.a(libc_a-mallocr.o)
                              D:/Program Files/STM32CubeIDE_1.10.1/STM32CubeIDE/plugins/com.st.stm32cube.ide.mcu.externaltools.gnu-tools-for-stm32.11.3.rel1.win32_1.1.1.202309131626/tools/bin/../lib/gcc/arm-none-eabi/11.3.1/../../../../arm-none-eabi/lib/thumb/v7-m/nofp\libc_nano.a(libc_a-findfp.o) (_malloc_r)
D:/Program Files/STM32CubeIDE_1.10.1/STM32CubeIDE/plugins/com.st.stm32cube.ide.mcu.externaltools.gnu-tools-for-stm32.11.3.rel1.win32_1.1.1.202309131626/tools/bin/../lib/gcc/arm-none-eabi/11.3.1/../../../../arm-none-eabi/lib/thumb/v7-m/nofp\libc_nano.a(libc_a-mlock.o)
                              D:/Program Files/STM32CubeIDE_1.10.1/STM32CubeIDE/plugins/com.st.stm32cube.ide.mcu.externaltools.gnu-tools-for-stm32.11.3.rel1.win32_1.1.1.202309131626/tools/bin/../lib/gcc/arm-none-eabi/11.3.1/../../../../arm-none-eabi/lib/thumb/v7-m/nofp\libc_nano.a(libc_a-freer.o) (__malloc_lock)
D:/Program Files/STM32CubeIDE_1.10.1/STM32CubeIDE/plugins/com.st.stm32cube.ide.mcu.externaltools.gnu-tools-for-stm32.11.3.rel1.win32_1.1.1.202309131626/tools/bin/../lib/gcc/arm-none-eabi/11.3.1/../../../../arm-none-eabi/lib/thumb/v7-m/nofp\libc_nano.a(libc_a-mprec.o)
                              D:/Program Files/STM32CubeIDE_1.10.1/STM32CubeIDE/plugins/com.st.stm32cube.ide.mcu.externaltools.gnu-tools-for-stm32.11.3.rel1.win32_1.1.1.202309131626/tools/bin/../lib/gcc/arm-none-eabi/11.3.1/../../../../arm-none-eabi/lib/thumb/v7-m/nofp\libc_nano.a(libc_a-dtoa.o) (_Balloc)
D:/Program Files/STM32CubeIDE_1.10.1/STM32CubeIDE/plugins/com.st.stm32cube.ide.mcu.externaltools.gnu-tools-for-stm32.11.3.rel1.win32_1.1.1.202309131626/tools/bin/../lib/gcc/arm-none-eabi/11.3.1/../../../../arm-none-eabi/lib/thumb/v7-m/nofp\libc_nano.a(libc_a-strtod.o)
                              D:/Program Files/STM32CubeIDE_1.10.1/STM32CubeIDE/plugins/com.st.stm32cube.ide.mcu.externaltools.gnu-tools-for-stm32.11.3.rel1.win32_1.1.1.202309131626/tools/bin/../lib/gcc/arm-none-eabi/11.3.1/../../../../arm-none-eabi/lib/thumb/v7-m/nofp\libc_nano.a(libc_a-nano-vfscanf_float.o) (_strtod_r)
D:/Program Files/STM32CubeIDE_1.10.1/STM32CubeIDE/plugins/com.st.stm32cube.ide.mcu.externaltools.gnu-tools-for-stm32.11.3.rel1.win32_1.1.1.202309131626/tools/bin/../lib/gcc/arm-none-eabi/11.3.1/../../../../arm-none-eabi/lib/thumb/v7-m/nofp\libc_nano.a(libc_a-strtol.o)
                              D:/Program Files/STM32CubeIDE_1.10.1/STM32CubeIDE/plugins/com.st.stm32cube.ide.mcu.externaltools.gnu-tools-for-stm32.11.3.rel1.win32_1.1.1.202309131626/tools/bin/../lib/gcc/arm-none-eabi/11.3.1/../../../../arm-none-eabi/lib/thumb/v7-m/nofp\libc_nano.a(libc_a-nano-vfscanf_float.o) (_strtol_r)
D:/Program Files/STM32CubeIDE_1.10.1/STM32CubeIDE/plugins/com.st.stm32cube.ide.mcu.externaltools.gnu-tools-for-stm32.11.3.rel1.win32_1.1.1.202309131626/tools/bin/../lib/gcc/arm-none-eabi/11.3.1/../../../../arm-none-eabi/lib/thumb/v7-m/nofp\libc_nano.a(libc_a-ctype_.o)
                              D:/Program Files/STM32CubeIDE_1.10.1/STM32CubeIDE/plugins/com.st.stm32cube.ide.mcu.externaltools.gnu-tools-for-stm32.11.3.rel1.win32_1.1.1.202309131626/tools/bin/../lib/gcc/arm-none-eabi/11.3.1/../../../../arm-none-eabi/lib/thumb/v7-m/nofp\libc_nano.a(libc_a-strtol.o) (_ctype_)
D:/Program Files/STM32CubeIDE_1.10.1/STM32CubeIDE/plugins/com.st.stm32cube.ide.mcu.externaltools.gnu-tools-for-stm32.11.3.rel1.win32_1.1.1.202309131626/tools/bin/../lib/gcc/arm-none-eabi/11.3.1/../../../../arm-none-eabi/lib/thumb/v7-m/nofp\libc_nano.a(libc_a-nano-svfprintf.o)
                              D:/Program Files/STM32CubeIDE_1.10.1/STM32CubeIDE/plugins/com.st.stm32cube.ide.mcu.externaltools.gnu-tools-for-stm32.11.3.rel1.win32_1.1.1.202309131626/tools/bin/../lib/gcc/arm-none-eabi/11.3.1/../../../../arm-none-eabi/lib/thumb/v7-m/nofp\libc_nano.a(libc_a-sprintf.o) (_svfprintf_r)
D:/Program Files/STM32CubeIDE_1.10.1/STM32CubeIDE/plugins/com.st.stm32cube.ide.mcu.externaltools.gnu-tools-for-stm32.11.3.rel1.win32_1.1.1.202309131626/tools/bin/../lib/gcc/arm-none-eabi/11.3.1/../../../../arm-none-eabi/lib/thumb/v7-m/nofp\libc_nano.a(libc_a-nano-vfprintf.o)
                              D:/Program Files/STM32CubeIDE_1.10.1/STM32CubeIDE/plugins/com.st.stm32cube.ide.mcu.externaltools.gnu-tools-for-stm32.11.3.rel1.win32_1.1.1.202309131626/tools/bin/../lib/gcc/arm-none-eabi/11.3.1/../../../../arm-none-eabi/lib/thumb/v7-m/nofp\libc_nano.a(libc_a-printf.o) (_vfprintf_r)
D:/Program Files/STM32CubeIDE_1.10.1/STM32CubeIDE/plugins/com.st.stm32cube.ide.mcu.externaltools.gnu-tools-for-stm32.11.3.rel1.win32_1.1.1.202309131626/tools/bin/../lib/gcc/arm-none-eabi/11.3.1/../../../../arm-none-eabi/lib/thumb/v7-m/nofp\libc_nano.a(libc_a-fflush.o)
                              D:/Program Files/STM32CubeIDE_1.10.1/STM32CubeIDE/plugins/com.st.stm32cube.ide.mcu.externaltools.gnu-tools-for-stm32.11.3.rel1.win32_1.1.1.202309131626/tools/bin/../lib/gcc/arm-none-eabi/11.3.1/../../../../arm-none-eabi/lib/thumb/v7-m/nofp\libc_nano.a(libc_a-findfp.o) (_fflush_r)
D:/Program Files/STM32CubeIDE_1.10.1/STM32CubeIDE/plugins/com.st.stm32cube.ide.mcu.externaltools.gnu-tools-for-stm32.11.3.rel1.win32_1.1.1.202309131626/tools/bin/../lib/gcc/arm-none-eabi/11.3.1/../../../../arm-none-eabi/lib/thumb/v7-m/nofp\libc_nano.a(libc_a-fvwrite.o)
                              D:/Program Files/STM32CubeIDE_1.10.1/STM32CubeIDE/plugins/com.st.stm32cube.ide.mcu.externaltools.gnu-tools-for-stm32.11.3.rel1.win32_1.1.1.202309131626/tools/bin/../lib/gcc/arm-none-eabi/11.3.1/../../../../arm-none-eabi/lib/thumb/v7-m/nofp\libc_nano.a(libc_a-nano-vfprintf.o) (__sfvwrite_r)
D:/Program Files/STM32CubeIDE_1.10.1/STM32CubeIDE/plugins/com.st.stm32cube.ide.mcu.externaltools.gnu-tools-for-stm32.11.3.rel1.win32_1.1.1.202309131626/tools/bin/../lib/gcc/arm-none-eabi/11.3.1/../../../../arm-none-eabi/lib/thumb/v7-m/nofp\libc_nano.a(libc_a-makebuf.o)
                              D:/Program Files/STM32CubeIDE_1.10.1/STM32CubeIDE/plugins/com.st.stm32cube.ide.mcu.externaltools.gnu-tools-for-stm32.11.3.rel1.win32_1.1.1.202309131626/tools/bin/../lib/gcc/arm-none-eabi/11.3.1/../../../../arm-none-eabi/lib/thumb/v7-m/nofp\libc_nano.a(libc_a-wsetup.o) (__smakebuf_r)
D:/Program Files/STM32CubeIDE_1.10.1/STM32CubeIDE/plugins/com.st.stm32cube.ide.mcu.externaltools.gnu-tools-for-stm32.11.3.rel1.win32_1.1.1.202309131626/tools/bin/../lib/gcc/arm-none-eabi/11.3.1/../../../../arm-none-eabi/lib/thumb/v7-m/nofp\libc_nano.a(libc_a-memmove.o)
                              D:/Program Files/STM32CubeIDE_1.10.1/STM32CubeIDE/plugins/com.st.stm32cube.ide.mcu.externaltools.gnu-tools-for-stm32.11.3.rel1.win32_1.1.1.202309131626/tools/bin/../lib/gcc/arm-none-eabi/11.3.1/../../../../arm-none-eabi/lib/thumb/v7-m/nofp\libc_nano.a(libc_a-nano-svfprintf.o) (memmove)
D:/Program Files/STM32CubeIDE_1.10.1/STM32CubeIDE/plugins/com.st.stm32cube.ide.mcu.externaltools.gnu-tools-for-stm32.11.3.rel1.win32_1.1.1.202309131626/tools/bin/../lib/gcc/arm-none-eabi/11.3.1/../../../../arm-none-eabi/lib/thumb/v7-m/nofp\libc_nano.a(libc_a-strncmp.o)
                              D:/Program Files/STM32CubeIDE_1.10.1/STM32CubeIDE/plugins/com.st.stm32cube.ide.mcu.externaltools.gnu-tools-for-stm32.11.3.rel1.win32_1.1.1.202309131626/tools/bin/../lib/gcc/arm-none-eabi/11.3.1/../../../../arm-none-eabi/lib/thumb/v7-m/nofp\libc_nano.a(libc_a-strtod.o) (strncmp)
D:/Program Files/STM32CubeIDE_1.10.1/STM32CubeIDE/plugins/com.st.stm32cube.ide.mcu.externaltools.gnu-tools-for-stm32.11.3.rel1.win32_1.1.1.202309131626/tools/bin/../lib/gcc/arm-none-eabi/11.3.1/../../../../arm-none-eabi/lib/thumb/v7-m/nofp\libc_nano.a(libc_a-locale.o)
                              D:/Program Files/STM32CubeIDE_1.10.1/STM32CubeIDE/plugins/com.st.stm32cube.ide.mcu.externaltools.gnu-tools-for-stm32.11.3.rel1.win32_1.1.1.202309131626/tools/bin/../lib/gcc/arm-none-eabi/11.3.1/../../../../arm-none-eabi/lib/thumb/v7-m/nofp\libc_nano.a(libc_a-localeconv.o) (__global_locale)
D:/Program Files/STM32CubeIDE_1.10.1/STM32CubeIDE/plugins/com.st.stm32cube.ide.mcu.externaltools.gnu-tools-for-stm32.11.3.rel1.win32_1.1.1.202309131626/tools/bin/../lib/gcc/arm-none-eabi/11.3.1/../../../../arm-none-eabi/lib/thumb/v7-m/nofp\libc_nano.a(libc_a-fstatr.o)
                              D:/Program Files/STM32CubeIDE_1.10.1/STM32CubeIDE/plugins/com.st.stm32cube.ide.mcu.externaltools.gnu-tools-for-stm32.11.3.rel1.win32_1.1.1.202309131626/tools/bin/../lib/gcc/arm-none-eabi/11.3.1/../../../../arm-none-eabi/lib/thumb/v7-m/nofp\libc_nano.a(libc_a-makebuf.o) (_fstat_r)
D:/Program Files/STM32CubeIDE_1.10.1/STM32CubeIDE/plugins/com.st.stm32cube.ide.mcu.externaltools.gnu-tools-for-stm32.11.3.rel1.win32_1.1.1.202309131626/tools/bin/../lib/gcc/arm-none-eabi/11.3.1/../../../../arm-none-eabi/lib/thumb/v7-m/nofp\libc_nano.a(libc_a-isattyr.o)
                              D:/Program Files/STM32CubeIDE_1.10.1/STM32CubeIDE/plugins/com.st.stm32cube.ide.mcu.externaltools.gnu-tools-for-stm32.11.3.rel1.win32_1.1.1.202309131626/tools/bin/../lib/gcc/arm-none-eabi/11.3.1/../../../../arm-none-eabi/lib/thumb/v7-m/nofp\libc_nano.a(libc_a-makebuf.o) (_isatty_r)
D:/Program Files/STM32CubeIDE_1.10.1/STM32CubeIDE/plugins/com.st.stm32cube.ide.mcu.externaltools.gnu-tools-for-stm32.11.3.rel1.win32_1.1.1.202309131626/tools/bin/../lib/gcc/arm-none-eabi/11.3.1/../../../../arm-none-eabi/lib/thumb/v7-m/nofp\libc_nano.a(libc_a-sbrkr.o)
                              D:/Program Files/STM32CubeIDE_1.10.1/STM32CubeIDE/plugins/com.st.stm32cube.ide.mcu.externaltools.gnu-tools-for-stm32.11.3.rel1.win32_1.1.1.202309131626/tools/bin/../lib/gcc/arm-none-eabi/11.3.1/../../../../arm-none-eabi/lib/thumb/v7-m/nofp\libc_nano.a(libc_a-mallocr.o) (_sbrk_r)
D:/Program Files/STM32CubeIDE_1.10.1/STM32CubeIDE/plugins/com.st.stm32cube.ide.mcu.externaltools.gnu-tools-for-stm32.11.3.rel1.win32_1.1.1.202309131626/tools/bin/../lib/gcc/arm-none-eabi/11.3.1/../../../../arm-none-eabi/lib/thumb/v7-m/nofp\libc_nano.a(libc_a-strcmp.o)
                              D:/Program Files/STM32CubeIDE_1.10.1/STM32CubeIDE/plugins/com.st.stm32cube.ide.mcu.externaltools.gnu-tools-for-stm32.11.3.rel1.win32_1.1.1.202309131626/tools/bin/../lib/gcc/arm-none-eabi/11.3.1/../../../../arm-none-eabi/lib/thumb/v7-m/nofp\libc_nano.a(libc_a-locale.o) (strcmp)
D:/Program Files/STM32CubeIDE_1.10.1/STM32CubeIDE/plugins/com.st.stm32cube.ide.mcu.externaltools.gnu-tools-for-stm32.11.3.rel1.win32_1.1.1.202309131626/tools/bin/../lib/gcc/arm-none-eabi/11.3.1/../../../../arm-none-eabi/lib/thumb/v7-m/nofp\libc_nano.a(libm_a-s_nan.o)
                              D:/Program Files/STM32CubeIDE_1.10.1/STM32CubeIDE/plugins/com.st.stm32cube.ide.mcu.externaltools.gnu-tools-for-stm32.11.3.rel1.win32_1.1.1.202309131626/tools/bin/../lib/gcc/arm-none-eabi/11.3.1/../../../../arm-none-eabi/lib/thumb/v7-m/nofp\libc_nano.a(libc_a-strtod.o) (nan)
D:/Program Files/STM32CubeIDE_1.10.1/STM32CubeIDE/plugins/com.st.stm32cube.ide.mcu.externaltools.gnu-tools-for-stm32.11.3.rel1.win32_1.1.1.202309131626/tools/bin/../lib/gcc/arm-none-eabi/11.3.1/../../../../arm-none-eabi/lib/thumb/v7-m/nofp\libc_nano.a(libc_a-assert.o)
                              D:/Program Files/STM32CubeIDE_1.10.1/STM32CubeIDE/plugins/com.st.stm32cube.ide.mcu.externaltools.gnu-tools-for-stm32.11.3.rel1.win32_1.1.1.202309131626/tools/bin/../lib/gcc/arm-none-eabi/11.3.1/../../../../arm-none-eabi/lib/thumb/v7-m/nofp\libc_nano.a(libc_a-dtoa.o) (__assert_func)
D:/Program Files/STM32CubeIDE_1.10.1/STM32CubeIDE/plugins/com.st.stm32cube.ide.mcu.externaltools.gnu-tools-for-stm32.11.3.rel1.win32_1.1.1.202309131626/tools/bin/../lib/gcc/arm-none-eabi/11.3.1/../../../../arm-none-eabi/lib/thumb/v7-m/nofp\libc_nano.a(libc_a-callocr.o)
                              D:/Program Files/STM32CubeIDE_1.10.1/STM32CubeIDE/plugins/com.st.stm32cube.ide.mcu.externaltools.gnu-tools-for-stm32.11.3.rel1.win32_1.1.1.202309131626/tools/bin/../lib/gcc/arm-none-eabi/11.3.1/../../../../arm-none-eabi/lib/thumb/v7-m/nofp\libc_nano.a(libc_a-mprec.o) (_calloc_r)
D:/Program Files/STM32CubeIDE_1.10.1/STM32CubeIDE/plugins/com.st.stm32cube.ide.mcu.externaltools.gnu-tools-for-stm32.11.3.rel1.win32_1.1.1.202309131626/tools/bin/../lib/gcc/arm-none-eabi/11.3.1/../../../../arm-none-eabi/lib/thumb/v7-m/nofp\libc_nano.a(libc_a-gdtoa-gethex.o)
                              D:/Program Files/STM32CubeIDE_1.10.1/STM32CubeIDE/plugins/com.st.stm32cube.ide.mcu.externaltools.gnu-tools-for-stm32.11.3.rel1.win32_1.1.1.202309131626/tools/bin/../lib/gcc/arm-none-eabi/11.3.1/../../../../arm-none-eabi/lib/thumb/v7-m/nofp\libc_nano.a(libc_a-strtod.o) (__gethex)
D:/Program Files/STM32CubeIDE_1.10.1/STM32CubeIDE/plugins/com.st.stm32cube.ide.mcu.externaltools.gnu-tools-for-stm32.11.3.rel1.win32_1.1.1.202309131626/tools/bin/../lib/gcc/arm-none-eabi/11.3.1/../../../../arm-none-eabi/lib/thumb/v7-m/nofp\libc_nano.a(libc_a-gdtoa-hexnan.o)
                              D:/Program Files/STM32CubeIDE_1.10.1/STM32CubeIDE/plugins/com.st.stm32cube.ide.mcu.externaltools.gnu-tools-for-stm32.11.3.rel1.win32_1.1.1.202309131626/tools/bin/../lib/gcc/arm-none-eabi/11.3.1/../../../../arm-none-eabi/lib/thumb/v7-m/nofp\libc_nano.a(libc_a-strtod.o) (__match)
D:/Program Files/STM32CubeIDE_1.10.1/STM32CubeIDE/plugins/com.st.stm32cube.ide.mcu.externaltools.gnu-tools-for-stm32.11.3.rel1.win32_1.1.1.202309131626/tools/bin/../lib/gcc/arm-none-eabi/11.3.1/../../../../arm-none-eabi/lib/thumb/v7-m/nofp\libc_nano.a(libc_a-mbtowc_r.o)
                              D:/Program Files/STM32CubeIDE_1.10.1/STM32CubeIDE/plugins/com.st.stm32cube.ide.mcu.externaltools.gnu-tools-for-stm32.11.3.rel1.win32_1.1.1.202309131626/tools/bin/../lib/gcc/arm-none-eabi/11.3.1/../../../../arm-none-eabi/lib/thumb/v7-m/nofp\libc_nano.a(libc_a-locale.o) (__ascii_mbtowc)
D:/Program Files/STM32CubeIDE_1.10.1/STM32CubeIDE/plugins/com.st.stm32cube.ide.mcu.externaltools.gnu-tools-for-stm32.11.3.rel1.win32_1.1.1.202309131626/tools/bin/../lib/gcc/arm-none-eabi/11.3.1/../../../../arm-none-eabi/lib/thumb/v7-m/nofp\libc_nano.a(libc_a-reallocr.o)
                              D:/Program Files/STM32CubeIDE_1.10.1/STM32CubeIDE/plugins/com.st.stm32cube.ide.mcu.externaltools.gnu-tools-for-stm32.11.3.rel1.win32_1.1.1.202309131626/tools/bin/../lib/gcc/arm-none-eabi/11.3.1/../../../../arm-none-eabi/lib/thumb/v7-m/nofp\libc_nano.a(libc_a-nano-svfprintf.o) (_realloc_r)
D:/Program Files/STM32CubeIDE_1.10.1/STM32CubeIDE/plugins/com.st.stm32cube.ide.mcu.externaltools.gnu-tools-for-stm32.11.3.rel1.win32_1.1.1.202309131626/tools/bin/../lib/gcc/arm-none-eabi/11.3.1/../../../../arm-none-eabi/lib/thumb/v7-m/nofp\libc_nano.a(libc_a-wctomb_r.o)
                              D:/Program Files/STM32CubeIDE_1.10.1/STM32CubeIDE/plugins/com.st.stm32cube.ide.mcu.externaltools.gnu-tools-for-stm32.11.3.rel1.win32_1.1.1.202309131626/tools/bin/../lib/gcc/arm-none-eabi/11.3.1/../../../../arm-none-eabi/lib/thumb/v7-m/nofp\libc_nano.a(libc_a-locale.o) (__ascii_wctomb)
D:/Program Files/STM32CubeIDE_1.10.1/STM32CubeIDE/plugins/com.st.stm32cube.ide.mcu.externaltools.gnu-tools-for-stm32.11.3.rel1.win32_1.1.1.202309131626/tools/bin/../lib/gcc/arm-none-eabi/11.3.1/../../../../arm-none-eabi/lib/thumb/v7-m/nofp\libc_nano.a(libc_a-fprintf.o)
                              D:/Program Files/STM32CubeIDE_1.10.1/STM32CubeIDE/plugins/com.st.stm32cube.ide.mcu.externaltools.gnu-tools-for-stm32.11.3.rel1.win32_1.1.1.202309131626/tools/bin/../lib/gcc/arm-none-eabi/11.3.1/../../../../arm-none-eabi/lib/thumb/v7-m/nofp\libc_nano.a(libc_a-assert.o) (fiprintf)
D:/Program Files/STM32CubeIDE_1.10.1/STM32CubeIDE/plugins/com.st.stm32cube.ide.mcu.externaltools.gnu-tools-for-stm32.11.3.rel1.win32_1.1.1.202309131626/tools/bin/../lib/gcc/arm-none-eabi/11.3.1/../../../../arm-none-eabi/lib/thumb/v7-m/nofp\libc_nano.a(libc_a-abort.o)
                              D:/Program Files/STM32CubeIDE_1.10.1/STM32CubeIDE/plugins/com.st.stm32cube.ide.mcu.externaltools.gnu-tools-for-stm32.11.3.rel1.win32_1.1.1.202309131626/tools/bin/../lib/gcc/arm-none-eabi/11.3.1/../../../../arm-none-eabi/lib/thumb/v7-m/nofp\libc_nano.a(libc_a-assert.o) (abort)
D:/Program Files/STM32CubeIDE_1.10.1/STM32CubeIDE/plugins/com.st.stm32cube.ide.mcu.externaltools.gnu-tools-for-stm32.11.3.rel1.win32_1.1.1.202309131626/tools/bin/../lib/gcc/arm-none-eabi/11.3.1/../../../../arm-none-eabi/lib/thumb/v7-m/nofp\libc_nano.a(libc_a-msizer.o)
                              D:/Program Files/STM32CubeIDE_1.10.1/STM32CubeIDE/plugins/com.st.stm32cube.ide.mcu.externaltools.gnu-tools-for-stm32.11.3.rel1.win32_1.1.1.202309131626/tools/bin/../lib/gcc/arm-none-eabi/11.3.1/../../../../arm-none-eabi/lib/thumb/v7-m/nofp\libc_nano.a(libc_a-reallocr.o) (_malloc_usable_size_r)
D:/Program Files/STM32CubeIDE_1.10.1/STM32CubeIDE/plugins/com.st.stm32cube.ide.mcu.externaltools.gnu-tools-for-stm32.11.3.rel1.win32_1.1.1.202309131626/tools/bin/../lib/gcc/arm-none-eabi/11.3.1/../../../../arm-none-eabi/lib/thumb/v7-m/nofp\libc_nano.a(libc_a-signal.o)
                              D:/Program Files/STM32CubeIDE_1.10.1/STM32CubeIDE/plugins/com.st.stm32cube.ide.mcu.externaltools.gnu-tools-for-stm32.11.3.rel1.win32_1.1.1.202309131626/tools/bin/../lib/gcc/arm-none-eabi/11.3.1/../../../../arm-none-eabi/lib/thumb/v7-m/nofp\libc_nano.a(libc_a-abort.o) (raise)
D:/Program Files/STM32CubeIDE_1.10.1/STM32CubeIDE/plugins/com.st.stm32cube.ide.mcu.externaltools.gnu-tools-for-stm32.11.3.rel1.win32_1.1.1.202309131626/tools/bin/../lib/gcc/arm-none-eabi/11.3.1/../../../../arm-none-eabi/lib/thumb/v7-m/nofp\libc_nano.a(libc_a-signalr.o)
                              D:/Program Files/STM32CubeIDE_1.10.1/STM32CubeIDE/plugins/com.st.stm32cube.ide.mcu.externaltools.gnu-tools-for-stm32.11.3.rel1.win32_1.1.1.202309131626/tools/bin/../lib/gcc/arm-none-eabi/11.3.1/../../../../arm-none-eabi/lib/thumb/v7-m/nofp\libc_nano.a(libc_a-signal.o) (_kill_r)
D:/Program Files/STM32CubeIDE_1.10.1/STM32CubeIDE/plugins/com.st.stm32cube.ide.mcu.externaltools.gnu-tools-for-stm32.11.3.rel1.win32_1.1.1.202309131626/tools/bin/../lib/gcc/arm-none-eabi/11.3.1/thumb/v7-m/nofp\libgcc.a(_arm_muldf3.o)
                              ./Src/BSP/motor.o (__aeabi_dmul)
D:/Program Files/STM32CubeIDE_1.10.1/STM32CubeIDE/plugins/com.st.stm32cube.ide.mcu.externaltools.gnu-tools-for-stm32.11.3.rel1.win32_1.1.1.202309131626/tools/bin/../lib/gcc/arm-none-eabi/11.3.1/thumb/v7-m/nofp\libgcc.a(_arm_mulsf3.o)
                              ./Src/BSP/mpu9250.o (__aeabi_fmul)
D:/Program Files/STM32CubeIDE_1.10.1/STM32CubeIDE/plugins/com.st.stm32cube.ide.mcu.externaltools.gnu-tools-for-stm32.11.3.rel1.win32_1.1.1.202309131626/tools/bin/../lib/gcc/arm-none-eabi/11.3.1/thumb/v7-m/nofp\libgcc.a(_arm_addsubdf3.o)
                              ./Src/System/radio.o (__aeabi_dsub)
D:/Program Files/STM32CubeIDE_1.10.1/STM32CubeIDE/plugins/com.st.stm32cube.ide.mcu.externaltools.gnu-tools-for-stm32.11.3.rel1.win32_1.1.1.202309131626/tools/bin/../lib/gcc/arm-none-eabi/11.3.1/thumb/v7-m/nofp\libgcc.a(_arm_muldivdf3.o)
                              ./Src/BSP/motor.o (__aeabi_ddiv)
D:/Program Files/STM32CubeIDE_1.10.1/STM32CubeIDE/plugins/com.st.stm32cube.ide.mcu.externaltools.gnu-tools-for-stm32.11.3.rel1.win32_1.1.1.202309131626/tools/bin/../lib/gcc/arm-none-eabi/11.3.1/thumb/v7-m/nofp\libgcc.a(_arm_cmpdf2.o)
                              D:/Program Files/STM32CubeIDE_1.10.1/STM32CubeIDE/plugins/com.st.stm32cube.ide.mcu.externaltools.gnu-tools-for-stm32.11.3.rel1.win32_1.1.1.202309131626/tools/bin/../lib/gcc/arm-none-eabi/11.3.1/../../../../arm-none-eabi/lib/thumb/v7-m/nofp\libc_nano.a(libc_a-nano-vfprintf_float.o) (__aeabi_dcmpeq)
D:/Program Files/STM32CubeIDE_1.10.1/STM32CubeIDE/plugins/com.st.stm32cube.ide.mcu.externaltools.gnu-tools-for-stm32.11.3.rel1.win32_1.1.1.202309131626/tools/bin/../lib/gcc/arm-none-eabi/11.3.1/thumb/v7-m/nofp\libgcc.a(_arm_unorddf2.o)
                              D:/Program Files/STM32CubeIDE_1.10.1/STM32CubeIDE/plugins/com.st.stm32cube.ide.mcu.externaltools.gnu-tools-for-stm32.11.3.rel1.win32_1.1.1.202309131626/tools/bin/../lib/gcc/arm-none-eabi/11.3.1/../../../../arm-none-eabi/lib/thumb/v7-m/nofp\libc_nano.a(libc_a-nano-vfprintf_float.o) (__aeabi_dcmpun)
D:/Program Files/STM32CubeIDE_1.10.1/STM32CubeIDE/plugins/com.st.stm32cube.ide.mcu.externaltools.gnu-tools-for-stm32.11.3.rel1.win32_1.1.1.202309131626/tools/bin/../lib/gcc/arm-none-eabi/11.3.1/thumb/v7-m/nofp\libgcc.a(_arm_fixdfsi.o)
                              ./Src/BSP/motor.o (__aeabi_d2iz)
D:/Program Files/STM32CubeIDE_1.10.1/STM32CubeIDE/plugins/com.st.stm32cube.ide.mcu.externaltools.gnu-tools-for-stm32.11.3.rel1.win32_1.1.1.202309131626/tools/bin/../lib/gcc/arm-none-eabi/11.3.1/thumb/v7-m/nofp\libgcc.a(_arm_fixunsdfsi.o)
                              ./Src/BSP/watchdog.o (__aeabi_d2uiz)
D:/Program Files/STM32CubeIDE_1.10.1/STM32CubeIDE/plugins/com.st.stm32cube.ide.mcu.externaltools.gnu-tools-for-stm32.11.3.rel1.win32_1.1.1.202309131626/tools/bin/../lib/gcc/arm-none-eabi/11.3.1/thumb/v7-m/nofp\libgcc.a(_arm_truncdfsf2.o)
                              ./Src/BSP/power_control.o (__aeabi_d2f)
D:/Program Files/STM32CubeIDE_1.10.1/STM32CubeIDE/plugins/com.st.stm32cube.ide.mcu.externaltools.gnu-tools-for-stm32.11.3.rel1.win32_1.1.1.202309131626/tools/bin/../lib/gcc/arm-none-eabi/11.3.1/thumb/v7-m/nofp\libgcc.a(_arm_addsubsf3.o)
                              ./Src/EKF/ekf.o (__aeabi_fsub)
D:/Program Files/STM32CubeIDE_1.10.1/STM32CubeIDE/plugins/com.st.stm32cube.ide.mcu.externaltools.gnu-tools-for-stm32.11.3.rel1.win32_1.1.1.202309131626/tools/bin/../lib/gcc/arm-none-eabi/11.3.1/thumb/v7-m/nofp\libgcc.a(_arm_muldivsf3.o)
                              ./Src/BSP/motor.o (__aeabi_fdiv)
D:/Program Files/STM32CubeIDE_1.10.1/STM32CubeIDE/plugins/com.st.stm32cube.ide.mcu.externaltools.gnu-tools-for-stm32.11.3.rel1.win32_1.1.1.202309131626/tools/bin/../lib/gcc/arm-none-eabi/11.3.1/thumb/v7-m/nofp\libgcc.a(_arm_cmpsf2.o)
                              ./Src/EKF/ekf.o (__aeabi_fcmpeq)
D:/Program Files/STM32CubeIDE_1.10.1/STM32CubeIDE/plugins/com.st.stm32cube.ide.mcu.externaltools.gnu-tools-for-stm32.11.3.rel1.win32_1.1.1.202309131626/tools/bin/../lib/gcc/arm-none-eabi/11.3.1/thumb/v7-m/nofp\libgcc.a(_arm_unordsf2.o)
                              ./Src/System/filter.o (__aeabi_fcmpun)
D:/Program Files/STM32CubeIDE_1.10.1/STM32CubeIDE/plugins/com.st.stm32cube.ide.mcu.externaltools.gnu-tools-for-stm32.11.3.rel1.win32_1.1.1.202309131626/tools/bin/../lib/gcc/arm-none-eabi/11.3.1/thumb/v7-m/nofp\libgcc.a(_arm_fixsfsi.o)
                              ./Src/EKF/fast_math.o (__aeabi_f2iz)
D:/Program Files/STM32CubeIDE_1.10.1/STM32CubeIDE/plugins/com.st.stm32cube.ide.mcu.externaltools.gnu-tools-for-stm32.11.3.rel1.win32_1.1.1.202309131626/tools/bin/../lib/gcc/arm-none-eabi/11.3.1/thumb/v7-m/nofp\libgcc.a(_arm_fixunssfsi.o)
                              ./Src/BSP/servo.o (__aeabi_f2uiz)
D:/Program Files/STM32CubeIDE_1.10.1/STM32CubeIDE/plugins/com.st.stm32cube.ide.mcu.externaltools.gnu-tools-for-stm32.11.3.rel1.win32_1.1.1.202309131626/tools/bin/../lib/gcc/arm-none-eabi/11.3.1/thumb/v7-m/nofp\libgcc.a(_fixdfdi.o)
                              D:/Program Files/STM32CubeIDE_1.10.1/STM32CubeIDE/plugins/com.st.stm32cube.ide.mcu.externaltools.gnu-tools-for-stm32.11.3.rel1.win32_1.1.1.202309131626/tools/bin/../lib/gcc/arm-none-eabi/11.3.1/../../../../arm-none-eabi/lib/thumb/v7-m/nofp\libc_nano.a(libc_a-strtod.o) (__aeabi_d2lz)
D:/Program Files/STM32CubeIDE_1.10.1/STM32CubeIDE/plugins/com.st.stm32cube.ide.mcu.externaltools.gnu-tools-for-stm32.11.3.rel1.win32_1.1.1.202309131626/tools/bin/../lib/gcc/arm-none-eabi/11.3.1/thumb/v7-m/nofp\libgcc.a(_fixunsdfdi.o)
                              D:/Program Files/STM32CubeIDE_1.10.1/STM32CubeIDE/plugins/com.st.stm32cube.ide.mcu.externaltools.gnu-tools-for-stm32.11.3.rel1.win32_1.1.1.202309131626/tools/bin/../lib/gcc/arm-none-eabi/11.3.1/thumb/v7-m/nofp\libgcc.a(_fixdfdi.o) (__aeabi_d2ulz)
D:/Program Files/STM32CubeIDE_1.10.1/STM32CubeIDE/plugins/com.st.stm32cube.ide.mcu.externaltools.gnu-tools-for-stm32.11.3.rel1.win32_1.1.1.202309131626/tools/bin/../lib/gcc/arm-none-eabi/11.3.1/../../../../arm-none-eabi/lib/thumb/v7-m/nofp\libnosys.a(sbrk.o)
                              D:/Program Files/STM32CubeIDE_1.10.1/STM32CubeIDE/plugins/com.st.stm32cube.ide.mcu.externaltools.gnu-tools-for-stm32.11.3.rel1.win32_1.1.1.202309131626/tools/bin/../lib/gcc/arm-none-eabi/11.3.1/../../../../arm-none-eabi/lib/thumb/v7-m/nofp\libc_nano.a(libc_a-sbrkr.o) (_sbrk)
D:/Program Files/STM32CubeIDE_1.10.1/STM32CubeIDE/plugins/com.st.stm32cube.ide.mcu.externaltools.gnu-tools-for-stm32.11.3.rel1.win32_1.1.1.202309131626/tools/bin/../lib/gcc/arm-none-eabi/11.3.1/../../../../arm-none-eabi/lib/thumb/v7-m/nofp\libnosys.a(_exit.o)
                              D:/Program Files/STM32CubeIDE_1.10.1/STM32CubeIDE/plugins/com.st.stm32cube.ide.mcu.externaltools.gnu-tools-for-stm32.11.3.rel1.win32_1.1.1.202309131626/tools/bin/../lib/gcc/arm-none-eabi/11.3.1/../../../../arm-none-eabi/lib/thumb/v7-m/nofp\libc_nano.a(libc_a-exit.o) (_exit)

Discarded input sections

 .text          0x0000000000000000        0x0 D:/Program Files/STM32CubeIDE_1.10.1/STM32CubeIDE/plugins/com.st.stm32cube.ide.mcu.externaltools.gnu-tools-for-stm32.11.3.rel1.win32_1.1.1.202309131626/tools/bin/../lib/gcc/arm-none-eabi/11.3.1/thumb/v7-m/nofp/crti.o
 .data          0x0000000000000000        0x0 D:/Program Files/STM32CubeIDE_1.10.1/STM32CubeIDE/plugins/com.st.stm32cube.ide.mcu.externaltools.gnu-tools-for-stm32.11.3.rel1.win32_1.1.1.202309131626/tools/bin/../lib/gcc/arm-none-eabi/11.3.1/thumb/v7-m/nofp/crti.o
 .bss           0x0000000000000000        0x0 D:/Program Files/STM32CubeIDE_1.10.1/STM32CubeIDE/plugins/com.st.stm32cube.ide.mcu.externaltools.gnu-tools-for-stm32.11.3.rel1.win32_1.1.1.202309131626/tools/bin/../lib/gcc/arm-none-eabi/11.3.1/thumb/v7-m/nofp/crti.o
 .data          0x0000000000000000        0x4 D:/Program Files/STM32CubeIDE_1.10.1/STM32CubeIDE/plugins/com.st.stm32cube.ide.mcu.externaltools.gnu-tools-for-stm32.11.3.rel1.win32_1.1.1.202309131626/tools/bin/../lib/gcc/arm-none-eabi/11.3.1/thumb/v7-m/nofp/crtbegin.o
 .rodata        0x0000000000000000       0x24 D:/Program Files/STM32CubeIDE_1.10.1/STM32CubeIDE/plugins/com.st.stm32cube.ide.mcu.externaltools.gnu-tools-for-stm32.11.3.rel1.win32_1.1.1.202309131626/tools/bin/../lib/gcc/arm-none-eabi/11.3.1/thumb/v7-m/nofp/crtbegin.o
 .text          0x0000000000000000       0x7c D:/Program Files/STM32CubeIDE_1.10.1/STM32CubeIDE/plugins/com.st.stm32cube.ide.mcu.externaltools.gnu-tools-for-stm32.11.3.rel1.win32_1.1.1.202309131626/tools/bin/../lib/gcc/arm-none-eabi/11.3.1/../../../../arm-none-eabi/lib/thumb/v7-m/nofp/crt0.o
 .data          0x0000000000000000        0x0 D:/Program Files/STM32CubeIDE_1.10.1/STM32CubeIDE/plugins/com.st.stm32cube.ide.mcu.externaltools.gnu-tools-for-stm32.11.3.rel1.win32_1.1.1.202309131626/tools/bin/../lib/gcc/arm-none-eabi/11.3.1/../../../../arm-none-eabi/lib/thumb/v7-m/nofp/crt0.o
 .bss           0x0000000000000000        0x0 D:/Program Files/STM32CubeIDE_1.10.1/STM32CubeIDE/plugins/com.st.stm32cube.ide.mcu.externaltools.gnu-tools-for-stm32.11.3.rel1.win32_1.1.1.202309131626/tools/bin/../lib/gcc/arm-none-eabi/11.3.1/../../../../arm-none-eabi/lib/thumb/v7-m/nofp/crt0.o
 .ARM.extab     0x0000000000000000        0x0 D:/Program Files/STM32CubeIDE_1.10.1/STM32CubeIDE/plugins/com.st.stm32cube.ide.mcu.externaltools.gnu-tools-for-stm32.11.3.rel1.win32_1.1.1.202309131626/tools/bin/../lib/gcc/arm-none-eabi/11.3.1/../../../../arm-none-eabi/lib/thumb/v7-m/nofp/crt0.o
 .ARM.exidx     0x0000000000000000       0x10 D:/Program Files/STM32CubeIDE_1.10.1/STM32CubeIDE/plugins/com.st.stm32cube.ide.mcu.externaltools.gnu-tools-for-stm32.11.3.rel1.win32_1.1.1.202309131626/tools/bin/../lib/gcc/arm-none-eabi/11.3.1/../../../../arm-none-eabi/lib/thumb/v7-m/nofp/crt0.o
 .debug_line    0x0000000000000000       0x76 D:/Program Files/STM32CubeIDE_1.10.1/STM32CubeIDE/plugins/com.st.stm32cube.ide.mcu.externaltools.gnu-tools-for-stm32.11.3.rel1.win32_1.1.1.202309131626/tools/bin/../lib/gcc/arm-none-eabi/11.3.1/../../../../arm-none-eabi/lib/thumb/v7-m/nofp/crt0.o
 .debug_line_str
                0x0000000000000000       0xd9 D:/Program Files/STM32CubeIDE_1.10.1/STM32CubeIDE/plugins/com.st.stm32cube.ide.mcu.externaltools.gnu-tools-for-stm32.11.3.rel1.win32_1.1.1.202309131626/tools/bin/../lib/gcc/arm-none-eabi/11.3.1/../../../../arm-none-eabi/lib/thumb/v7-m/nofp/crt0.o
 .debug_info    0x0000000000000000       0x24 D:/Program Files/STM32CubeIDE_1.10.1/STM32CubeIDE/plugins/com.st.stm32cube.ide.mcu.externaltools.gnu-tools-for-stm32.11.3.rel1.win32_1.1.1.202309131626/tools/bin/../lib/gcc/arm-none-eabi/11.3.1/../../../../arm-none-eabi/lib/thumb/v7-m/nofp/crt0.o
 .debug_abbrev  0x0000000000000000       0x14 D:/Program Files/STM32CubeIDE_1.10.1/STM32CubeIDE/plugins/com.st.stm32cube.ide.mcu.externaltools.gnu-tools-for-stm32.11.3.rel1.win32_1.1.1.202309131626/tools/bin/../lib/gcc/arm-none-eabi/11.3.1/../../../../arm-none-eabi/lib/thumb/v7-m/nofp/crt0.o
 .debug_aranges
                0x0000000000000000       0x20 D:/Program Files/STM32CubeIDE_1.10.1/STM32CubeIDE/plugins/com.st.stm32cube.ide.mcu.externaltools.gnu-tools-for-stm32.11.3.rel1.win32_1.1.1.202309131626/tools/bin/../lib/gcc/arm-none-eabi/11.3.1/../../../../arm-none-eabi/lib/thumb/v7-m/nofp/crt0.o
 .debug_str     0x0000000000000000       0xde D:/Program Files/STM32CubeIDE_1.10.1/STM32CubeIDE/plugins/com.st.stm32cube.ide.mcu.externaltools.gnu-tools-for-stm32.11.3.rel1.win32_1.1.1.202309131626/tools/bin/../lib/gcc/arm-none-eabi/11.3.1/../../../../arm-none-eabi/lib/thumb/v7-m/nofp/crt0.o
Memory Configuration

Name             Origin             Length             Attributes
RAM              0x0000000020000000 0x000000000000c000 xrw
FLASH            0x0000000008000000 0x0000000000040000 xr
*default*        0x0000000000000000 0xffffffffffffffff

Linker script and memory map

LOAD D:/Program Files/STM32CubeIDE_1.10.1/STM32CubeIDE/plugins/com.st.stm32cube.ide.mcu.externaltools.gnu-tools-for-stm32.11.3.rel1.win32_1.1.1.202309131626/tools/bin/../lib/gcc/arm-none-eabi/11.3.1/thumb/v7-m/nofp/crti.o
LOAD D:/Program Files/STM32CubeIDE_1.10.1/STM32CubeIDE/plugins/com.st.stm32cube.ide.mcu.externaltools.gnu-tools-for-stm32.11.3.rel1.win32_1.1.1.202309131626/tools/bin/../lib/gcc/arm-none-eabi/11.3.1/thumb/v7-m/nofp/crtbegin.o
LOAD D:/Program Files/STM32CubeIDE_1.10.1/STM32CubeIDE/plugins/com.st.stm32cube.ide.mcu.externaltools.gnu-tools-for-stm32.11.3.rel1.win32_1.1.1.202309131626/tools/bin/../lib/gcc/arm-none-eabi/11.3.1/../../../../arm-none-eabi/lib/thumb/v7-m/nofp/crt0.o
LOAD ./Src/BSP/CMSIS/CM3/CoreSupport/core_cm3.o
LOAD ./Src/BSP/CMSIS/CM3/DeviceSupport/ST/STM32F10x/startup/startup_stm32f10x_hd.o
LOAD ./Src/BSP/CMSIS/CM3/DeviceSupport/ST/STM32F10x/system_stm32f10x.o
LOAD ./Src/BSP/adc.o
LOAD ./Src/BSP/ak8963.o
LOAD ./Src/BSP/buzzer.o
LOAD ./Src/BSP/can.o
LOAD ./Src/BSP/delay.o
LOAD ./Src/BSP/flash.o
LOAD ./Src/BSP/i2c_device.o
LOAD ./Src/BSP/i2c_driver.o
LOAD ./Src/BSP/i2c_oled.o
LOAD ./Src/BSP/key.o
LOAD ./Src/BSP/led.o
LOAD ./Src/BSP/motor.o
LOAD ./Src/BSP/mpu9250.o
LOAD ./Src/BSP/nrf24l01.o
LOAD ./Src/BSP/power_control.o
LOAD ./Src/BSP/servo.o
LOAD ./Src/BSP/spi_flash.o
LOAD ./Src/BSP/uart4.o
LOAD ./Src/BSP/uart5.o
LOAD ./Src/BSP/usart1.o
LOAD ./Src/BSP/watchdog.o
LOAD ./Src/EKF/double_matrix.o
LOAD ./Src/EKF/ekf.o
LOAD ./Src/EKF/ekf2.o
LOAD ./Src/EKF/fast_math.o
LOAD ./Src/EKF/matrix.o
LOAD ./Src/EKF/mini_matrix.o
LOAD ./Src/EKF/quaternion.o
LOAD ./Src/FatFs/diskio.o
LOAD ./Src/FatFs/ff.o
LOAD ./Src/FatFs/option/cc936.o
LOAD ./Src/FatFs/option/syscall.o
LOAD ./Src/FreeRTOS/croutine.o
LOAD ./Src/FreeRTOS/event_groups.o
LOAD ./Src/FreeRTOS/list.o
LOAD ./Src/FreeRTOS/queue.o
LOAD ./Src/FreeRTOS/tasks.o
LOAD ./Src/FreeRTOS/timers.o
LOAD ./Src/FreeRTOS/portable/GCC/ARM_CM3/port.o
LOAD ./Src/FreeRTOS/portable/MemMang/heap_4.o
LOAD ./Src/STM32F10x_StdPeriph_Driver/src/misc.o
LOAD ./Src/STM32F10x_StdPeriph_Driver/src/stm32f10x_adc.o
LOAD ./Src/STM32F10x_StdPeriph_Driver/src/stm32f10x_bkp.o
LOAD ./Src/STM32F10x_StdPeriph_Driver/src/stm32f10x_can.o
LOAD ./Src/STM32F10x_StdPeriph_Driver/src/stm32f10x_cec.o
LOAD ./Src/STM32F10x_StdPeriph_Driver/src/stm32f10x_crc.o
LOAD ./Src/STM32F10x_StdPeriph_Driver/src/stm32f10x_dac.o
LOAD ./Src/STM32F10x_StdPeriph_Driver/src/stm32f10x_dbgmcu.o
LOAD ./Src/STM32F10x_StdPeriph_Driver/src/stm32f10x_dma.o
LOAD ./Src/STM32F10x_StdPeriph_Driver/src/stm32f10x_exti.o
LOAD ./Src/STM32F10x_StdPeriph_Driver/src/stm32f10x_flash.o
LOAD ./Src/STM32F10x_StdPeriph_Driver/src/stm32f10x_fsmc.o
LOAD ./Src/STM32F10x_StdPeriph_Driver/src/stm32f10x_gpio.o
LOAD ./Src/STM32F10x_StdPeriph_Driver/src/stm32f10x_i2c.o
LOAD ./Src/STM32F10x_StdPeriph_Driver/src/stm32f10x_iwdg.o
LOAD ./Src/STM32F10x_StdPeriph_Driver/src/stm32f10x_pwr.o
LOAD ./Src/STM32F10x_StdPeriph_Driver/src/stm32f10x_rcc.o
LOAD ./Src/STM32F10x_StdPeriph_Driver/src/stm32f10x_rtc.o
LOAD ./Src/STM32F10x_StdPeriph_Driver/src/stm32f10x_sdio.o
LOAD ./Src/STM32F10x_StdPeriph_Driver/src/stm32f10x_spi.o
LOAD ./Src/STM32F10x_StdPeriph_Driver/src/stm32f10x_tim.o
LOAD ./Src/STM32F10x_StdPeriph_Driver/src/stm32f10x_usart.o
LOAD ./Src/STM32F10x_StdPeriph_Driver/src/stm32f10x_wwdg.o
LOAD ./Src/System/filter.o
LOAD ./Src/System/obstacle.o
LOAD ./Src/System/radio.o
LOAD ./Src/System/sensors.o
LOAD ./Src/System/utils.o
LOAD ./Src/User/main.o
LOAD ./Src/User/stm32f10x_it.o
START GROUP
LOAD D:/Program Files/STM32CubeIDE_1.10.1/STM32CubeIDE/plugins/com.st.stm32cube.ide.mcu.externaltools.gnu-tools-for-stm32.11.3.rel1.win32_1.1.1.202309131626/tools/bin/../lib/gcc/arm-none-eabi/11.3.1/../../../../arm-none-eabi/lib/thumb/v7-m/nofp\libstdc++_nano.a
LOAD D:/Program Files/STM32CubeIDE_1.10.1/STM32CubeIDE/plugins/com.st.stm32cube.ide.mcu.externaltools.gnu-tools-for-stm32.11.3.rel1.win32_1.1.1.202309131626/tools/bin/../lib/gcc/arm-none-eabi/11.3.1/../../../../arm-none-eabi/lib/thumb/v7-m/nofp\libsupc++_nano.a
END GROUP
LOAD D:/Program Files/STM32CubeIDE_1.10.1/STM32CubeIDE/plugins/com.st.stm32cube.ide.mcu.externaltools.gnu-tools-for-stm32.11.3.rel1.win32_1.1.1.202309131626/tools/bin/../lib/gcc/arm-none-eabi/11.3.1/../../../../arm-none-eabi/lib/thumb/v7-m/nofp\libstdc++_nano.a
LOAD D:/Program Files/STM32CubeIDE_1.10.1/STM32CubeIDE/plugins/com.st.stm32cube.ide.mcu.externaltools.gnu-tools-for-stm32.11.3.rel1.win32_1.1.1.202309131626/tools/bin/../lib/gcc/arm-none-eabi/11.3.1/../../../../arm-none-eabi/lib/thumb/v7-m/nofp\libm.a
LOAD D:/Program Files/STM32CubeIDE_1.10.1/STM32CubeIDE/plugins/com.st.stm32cube.ide.mcu.externaltools.gnu-tools-for-stm32.11.3.rel1.win32_1.1.1.202309131626/tools/bin/../lib/gcc/arm-none-eabi/11.3.1/../../../../arm-none-eabi/lib/thumb/v7-m/nofp\libc_nano.a
START GROUP
LOAD D:/Program Files/STM32CubeIDE_1.10.1/STM32CubeIDE/plugins/com.st.stm32cube.ide.mcu.externaltools.gnu-tools-for-stm32.11.3.rel1.win32_1.1.1.202309131626/tools/bin/../lib/gcc/arm-none-eabi/11.3.1/thumb/v7-m/nofp\libgcc.a
LOAD D:/Program Files/STM32CubeIDE_1.10.1/STM32CubeIDE/plugins/com.st.stm32cube.ide.mcu.externaltools.gnu-tools-for-stm32.11.3.rel1.win32_1.1.1.202309131626/tools/bin/../lib/gcc/arm-none-eabi/11.3.1/../../../../arm-none-eabi/lib/thumb/v7-m/nofp\libc_nano.a
END GROUP
START GROUP
LOAD D:/Program Files/STM32CubeIDE_1.10.1/STM32CubeIDE/plugins/com.st.stm32cube.ide.mcu.externaltools.gnu-tools-for-stm32.11.3.rel1.win32_1.1.1.202309131626/tools/bin/../lib/gcc/arm-none-eabi/11.3.1/thumb/v7-m/nofp\libgcc.a
LOAD D:/Program Files/STM32CubeIDE_1.10.1/STM32CubeIDE/plugins/com.st.stm32cube.ide.mcu.externaltools.gnu-tools-for-stm32.11.3.rel1.win32_1.1.1.202309131626/tools/bin/../lib/gcc/arm-none-eabi/11.3.1/../../../../arm-none-eabi/lib/thumb/v7-m/nofp\libc_nano.a
LOAD D:/Program Files/STM32CubeIDE_1.10.1/STM32CubeIDE/plugins/com.st.stm32cube.ide.mcu.externaltools.gnu-tools-for-stm32.11.3.rel1.win32_1.1.1.202309131626/tools/bin/../lib/gcc/arm-none-eabi/11.3.1/../../../../arm-none-eabi/lib/thumb/v7-m/nofp\libnosys.a
END GROUP
START GROUP
LOAD D:/Program Files/STM32CubeIDE_1.10.1/STM32CubeIDE/plugins/com.st.stm32cube.ide.mcu.externaltools.gnu-tools-for-stm32.11.3.rel1.win32_1.1.1.202309131626/tools/bin/../lib/gcc/arm-none-eabi/11.3.1/thumb/v7-m/nofp\libgcc.a
LOAD D:/Program Files/STM32CubeIDE_1.10.1/STM32CubeIDE/plugins/com.st.stm32cube.ide.mcu.externaltools.gnu-tools-for-stm32.11.3.rel1.win32_1.1.1.202309131626/tools/bin/../lib/gcc/arm-none-eabi/11.3.1/../../../../arm-none-eabi/lib/thumb/v7-m/nofp\libc_nano.a
LOAD D:/Program Files/STM32CubeIDE_1.10.1/STM32CubeIDE/plugins/com.st.stm32cube.ide.mcu.externaltools.gnu-tools-for-stm32.11.3.rel1.win32_1.1.1.202309131626/tools/bin/../lib/gcc/arm-none-eabi/11.3.1/../../../../arm-none-eabi/lib/thumb/v7-m/nofp\libnosys.a
END GROUP
LOAD D:/Program Files/STM32CubeIDE_1.10.1/STM32CubeIDE/plugins/com.st.stm32cube.ide.mcu.externaltools.gnu-tools-for-stm32.11.3.rel1.win32_1.1.1.202309131626/tools/bin/../lib/gcc/arm-none-eabi/11.3.1/thumb/v7-m/nofp/crtend.o
LOAD D:/Program Files/STM32CubeIDE_1.10.1/STM32CubeIDE/plugins/com.st.stm32cube.ide.mcu.externaltools.gnu-tools-for-stm32.11.3.rel1.win32_1.1.1.202309131626/tools/bin/../lib/gcc/arm-none-eabi/11.3.1/thumb/v7-m/nofp/crtn.o
                0x000000002000c000                _estack = (ORIGIN (RAM) + LENGTH (RAM))
                0x0000000000000200                _Min_Heap_Size = 0x200
                0x0000000000000400                _Min_Stack_Size = 0x400

.isr_vector     0x0000000008000000      0x1e4
                0x0000000008000000                . = ALIGN (0x4)
 *(.isr_vector)
 .isr_vector    0x0000000008000000      0x1e4 ./Src/BSP/CMSIS/CM3/DeviceSupport/ST/STM32F10x/startup/startup_stm32f10x_hd.o
                0x0000000008000000                g_pfnVectors
                0x00000000080001e4                . = ALIGN (0x4)

.text           0x00000000080001f0     0xfab8
                0x00000000080001f0                . = ALIGN (0x4)
 *(.text)
 .text          0x00000000080001f0       0x40 D:/Program Files/STM32CubeIDE_1.10.1/STM32CubeIDE/plugins/com.st.stm32cube.ide.mcu.externaltools.gnu-tools-for-stm32.11.3.rel1.win32_1.1.1.202309131626/tools/bin/../lib/gcc/arm-none-eabi/11.3.1/thumb/v7-m/nofp/crtbegin.o
 .text          0x0000000008000230       0x10 D:/Program Files/STM32CubeIDE_1.10.1/STM32CubeIDE/plugins/com.st.stm32cube.ide.mcu.externaltools.gnu-tools-for-stm32.11.3.rel1.win32_1.1.1.202309131626/tools/bin/../lib/gcc/arm-none-eabi/11.3.1/../../../../arm-none-eabi/lib/thumb/v7-m/nofp\libc_nano.a(libc_a-strlen.o)
                0x0000000008000230                strlen
 .text          0x0000000008000240      0x378 D:/Program Files/STM32CubeIDE_1.10.1/STM32CubeIDE/plugins/com.st.stm32cube.ide.mcu.externaltools.gnu-tools-for-stm32.11.3.rel1.win32_1.1.1.202309131626/tools/bin/../lib/gcc/arm-none-eabi/11.3.1/thumb/v7-m/nofp\libgcc.a(_arm_addsubdf3.o)
                0x0000000008000240                __aeabi_drsub
                0x0000000008000248                __aeabi_dsub
                0x0000000008000248                __subdf3
                0x000000000800024c                __aeabi_dadd
                0x000000000800024c                __adddf3
                0x00000000080004c4                __floatunsidf
                0x00000000080004c4                __aeabi_ui2d
                0x00000000080004e4                __floatsidf
                0x00000000080004e4                __aeabi_i2d
                0x0000000008000508                __aeabi_f2d
                0x0000000008000508                __extendsfdf2
                0x000000000800054c                __floatundidf
                0x000000000800054c                __aeabi_ul2d
                0x000000000800055c                __floatdidf
                0x000000000800055c                __aeabi_l2d
 .text          0x00000000080005b8      0x424 D:/Program Files/STM32CubeIDE_1.10.1/STM32CubeIDE/plugins/com.st.stm32cube.ide.mcu.externaltools.gnu-tools-for-stm32.11.3.rel1.win32_1.1.1.202309131626/tools/bin/../lib/gcc/arm-none-eabi/11.3.1/thumb/v7-m/nofp\libgcc.a(_arm_muldivdf3.o)
                0x00000000080005b8                __aeabi_dmul
                0x00000000080005b8                __muldf3
                0x000000000800080c                __divdf3
                0x000000000800080c                __aeabi_ddiv
 .text          0x00000000080009dc      0x110 D:/Program Files/STM32CubeIDE_1.10.1/STM32CubeIDE/plugins/com.st.stm32cube.ide.mcu.externaltools.gnu-tools-for-stm32.11.3.rel1.win32_1.1.1.202309131626/tools/bin/../lib/gcc/arm-none-eabi/11.3.1/thumb/v7-m/nofp\libgcc.a(_arm_cmpdf2.o)
                0x00000000080009dc                __gtdf2
                0x00000000080009dc                __gedf2
                0x00000000080009e4                __ltdf2
                0x00000000080009e4                __ledf2
                0x00000000080009ec                __nedf2
                0x00000000080009ec                __eqdf2
                0x00000000080009ec                __cmpdf2
                0x0000000008000a68                __aeabi_cdrcmple
                0x0000000008000a78                __aeabi_cdcmpeq
                0x0000000008000a78                __aeabi_cdcmple
                0x0000000008000a88                __aeabi_dcmpeq
                0x0000000008000a9c                __aeabi_dcmplt
                0x0000000008000ab0                __aeabi_dcmple
                0x0000000008000ac4                __aeabi_dcmpge
                0x0000000008000ad8                __aeabi_dcmpgt
 .text          0x0000000008000aec       0x2c D:/Program Files/STM32CubeIDE_1.10.1/STM32CubeIDE/plugins/com.st.stm32cube.ide.mcu.externaltools.gnu-tools-for-stm32.11.3.rel1.win32_1.1.1.202309131626/tools/bin/../lib/gcc/arm-none-eabi/11.3.1/thumb/v7-m/nofp\libgcc.a(_arm_unorddf2.o)
                0x0000000008000aec                __unorddf2
                0x0000000008000aec                __aeabi_dcmpun
 .text          0x0000000008000b18       0x50 D:/Program Files/STM32CubeIDE_1.10.1/STM32CubeIDE/plugins/com.st.stm32cube.ide.mcu.externaltools.gnu-tools-for-stm32.11.3.rel1.win32_1.1.1.202309131626/tools/bin/../lib/gcc/arm-none-eabi/11.3.1/thumb/v7-m/nofp\libgcc.a(_arm_fixdfsi.o)
                0x0000000008000b18                __aeabi_d2iz
                0x0000000008000b18                __fixdfsi
 .text          0x0000000008000b68       0x40 D:/Program Files/STM32CubeIDE_1.10.1/STM32CubeIDE/plugins/com.st.stm32cube.ide.mcu.externaltools.gnu-tools-for-stm32.11.3.rel1.win32_1.1.1.202309131626/tools/bin/../lib/gcc/arm-none-eabi/11.3.1/thumb/v7-m/nofp\libgcc.a(_arm_fixunsdfsi.o)
                0x0000000008000b68                __aeabi_d2uiz
                0x0000000008000b68                __fixunsdfsi
 .text          0x0000000008000ba8       0xa0 D:/Program Files/STM32CubeIDE_1.10.1/STM32CubeIDE/plugins/com.st.stm32cube.ide.mcu.externaltools.gnu-tools-for-stm32.11.3.rel1.win32_1.1.1.202309131626/tools/bin/../lib/gcc/arm-none-eabi/11.3.1/thumb/v7-m/nofp\libgcc.a(_arm_truncdfsf2.o)
                0x0000000008000ba8                __truncdfsf2
                0x0000000008000ba8                __aeabi_d2f
 .text          0x0000000008000c48      0x21c D:/Program Files/STM32CubeIDE_1.10.1/STM32CubeIDE/plugins/com.st.stm32cube.ide.mcu.externaltools.gnu-tools-for-stm32.11.3.rel1.win32_1.1.1.202309131626/tools/bin/../lib/gcc/arm-none-eabi/11.3.1/thumb/v7-m/nofp\libgcc.a(_arm_addsubsf3.o)
                0x0000000008000c48                __aeabi_frsub
                0x0000000008000c50                __subsf3
                0x0000000008000c50                __aeabi_fsub
                0x0000000008000c54                __aeabi_fadd
                0x0000000008000c54                __addsf3
                0x0000000008000db4                __aeabi_ui2f
                0x0000000008000db4                __floatunsisf
                0x0000000008000dbc                __aeabi_i2f
                0x0000000008000dbc                __floatsisf
                0x0000000008000dd8                __aeabi_ul2f
                0x0000000008000dd8                __floatundisf
                0x0000000008000de8                __aeabi_l2f
                0x0000000008000de8                __floatdisf
 .text          0x0000000008000e64      0x2a0 D:/Program Files/STM32CubeIDE_1.10.1/STM32CubeIDE/plugins/com.st.stm32cube.ide.mcu.externaltools.gnu-tools-for-stm32.11.3.rel1.win32_1.1.1.202309131626/tools/bin/../lib/gcc/arm-none-eabi/11.3.1/thumb/v7-m/nofp\libgcc.a(_arm_muldivsf3.o)
                0x0000000008000e64                __mulsf3
                0x0000000008000e64                __aeabi_fmul
                0x0000000008000fcc                __aeabi_fdiv
                0x0000000008000fcc                __divsf3
 .text          0x0000000008001104       0xec D:/Program Files/STM32CubeIDE_1.10.1/STM32CubeIDE/plugins/com.st.stm32cube.ide.mcu.externaltools.gnu-tools-for-stm32.11.3.rel1.win32_1.1.1.202309131626/tools/bin/../lib/gcc/arm-none-eabi/11.3.1/thumb/v7-m/nofp\libgcc.a(_arm_cmpsf2.o)
                0x0000000008001104                __gesf2
                0x0000000008001104                __gtsf2
                0x000000000800110c                __lesf2
                0x000000000800110c                __ltsf2
                0x0000000008001114                __nesf2
                0x0000000008001114                __eqsf2
                0x0000000008001114                __cmpsf2
                0x0000000008001174                __aeabi_cfrcmple
                0x000000000800117c                __aeabi_cfcmpeq
                0x000000000800117c                __aeabi_cfcmple
                0x000000000800118c                __aeabi_fcmpeq
                0x00000000080011a0                __aeabi_fcmplt
                0x00000000080011b4                __aeabi_fcmple
                0x00000000080011c8                __aeabi_fcmpge
                0x00000000080011dc                __aeabi_fcmpgt
 .text          0x00000000080011f0       0x4c D:/Program Files/STM32CubeIDE_1.10.1/STM32CubeIDE/plugins/com.st.stm32cube.ide.mcu.externaltools.gnu-tools-for-stm32.11.3.rel1.win32_1.1.1.202309131626/tools/bin/../lib/gcc/arm-none-eabi/11.3.1/thumb/v7-m/nofp\libgcc.a(_arm_fixsfsi.o)
                0x00000000080011f0                __aeabi_f2iz
                0x00000000080011f0                __fixsfsi
 .text          0x000000000800123c       0x40 D:/Program Files/STM32CubeIDE_1.10.1/STM32CubeIDE/plugins/com.st.stm32cube.ide.mcu.externaltools.gnu-tools-for-stm32.11.3.rel1.win32_1.1.1.202309131626/tools/bin/../lib/gcc/arm-none-eabi/11.3.1/thumb/v7-m/nofp\libgcc.a(_arm_fixunssfsi.o)
                0x000000000800123c                __fixunssfsi
                0x000000000800123c                __aeabi_f2uiz
 .text          0x000000000800127c       0x34 D:/Program Files/STM32CubeIDE_1.10.1/STM32CubeIDE/plugins/com.st.stm32cube.ide.mcu.externaltools.gnu-tools-for-stm32.11.3.rel1.win32_1.1.1.202309131626/tools/bin/../lib/gcc/arm-none-eabi/11.3.1/thumb/v7-m/nofp\libgcc.a(_fixdfdi.o)
                0x000000000800127c                __fixdfdi
                0x000000000800127c                __aeabi_d2lz
 .text          0x00000000080012b0       0x3c D:/Program Files/STM32CubeIDE_1.10.1/STM32CubeIDE/plugins/com.st.stm32cube.ide.mcu.externaltools.gnu-tools-for-stm32.11.3.rel1.win32_1.1.1.202309131626/tools/bin/../lib/gcc/arm-none-eabi/11.3.1/thumb/v7-m/nofp\libgcc.a(_fixunsdfdi.o)
                0x00000000080012b0                __fixunsdfdi
                0x00000000080012b0                __aeabi_d2ulz
 *(.text*)
 .text.__set_FAULTMASK
                0x00000000080012ec        0x6 ./Src/BSP/CMSIS/CM3/CoreSupport/core_cm3.o
                0x00000000080012ec                __set_FAULTMASK
 *fill*         0x00000000080012f2        0x2 
 .text.Reset_Handler
                0x00000000080012f4       0x44 ./Src/BSP/CMSIS/CM3/DeviceSupport/ST/STM32F10x/startup/startup_stm32f10x_hd.o
                0x00000000080012f4                Reset_Handler
 .text.Default_Handler
                0x0000000008001338        0x2 ./Src/BSP/CMSIS/CM3/DeviceSupport/ST/STM32F10x/startup/startup_stm32f10x_hd.o
                0x0000000008001338                TIM8_TRG_COM_IRQHandler
                0x0000000008001338                TIM8_CC_IRQHandler
                0x0000000008001338                TIM1_CC_IRQHandler
                0x0000000008001338                HardFault_Handler
                0x0000000008001338                PVD_IRQHandler
                0x0000000008001338                SDIO_IRQHandler
                0x0000000008001338                EXTI3_IRQHandler
                0x0000000008001338                EXTI0_IRQHandler
                0x0000000008001338                ADC1_2_IRQHandler
                0x0000000008001338                SPI1_IRQHandler
                0x0000000008001338                TAMPER_IRQHandler
                0x0000000008001338                TIM8_UP_IRQHandler
                0x0000000008001338                DMA2_Channel2_IRQHandler
                0x0000000008001338                DMA1_Channel4_IRQHandler
                0x0000000008001338                USART3_IRQHandler
                0x0000000008001338                RTC_IRQHandler
                0x0000000008001338                DMA1_Channel7_IRQHandler
                0x0000000008001338                CAN1_RX1_IRQHandler
                0x0000000008001338                ADC3_IRQHandler
                0x0000000008001338                DMA2_Channel1_IRQHandler
                0x0000000008001338                I2C1_EV_IRQHandler
                0x0000000008001338                DMA1_Channel6_IRQHandler
                0x0000000008001338                TIM3_IRQHandler
                0x0000000008001338                RCC_IRQHandler
                0x0000000008001338                TIM1_TRG_COM_IRQHandler
                0x0000000008001338                DMA1_Channel1_IRQHandler
                0x0000000008001338                Default_Handler
                0x0000000008001338                TIM7_IRQHandler
                0x0000000008001338                EXTI9_5_IRQHandler
                0x0000000008001338                SPI2_IRQHandler
                0x0000000008001338                EXTI4_IRQHandler
                0x0000000008001338                USB_LP_CAN1_RX0_IRQHandler
                0x0000000008001338                USB_HP_CAN1_TX_IRQHandler
                0x0000000008001338                DMA1_Channel3_IRQHandler
                0x0000000008001338                FSMC_IRQHandler
                0x0000000008001338                TIM1_UP_IRQHandler
                0x0000000008001338                WWDG_IRQHandler
                0x0000000008001338                TIM2_IRQHandler
                0x0000000008001338                TIM1_BRK_IRQHandler
                0x0000000008001338                EXTI1_IRQHandler
                0x0000000008001338                RTCAlarm_IRQHandler
                0x0000000008001338                DMA2_Channel4_5_IRQHandler
                0x0000000008001338                USART2_IRQHandler
                0x0000000008001338                DMA1_Channel2_IRQHandler
                0x0000000008001338                TIM8_BRK_IRQHandler
                0x0000000008001338                CAN1_SCE_IRQHandler
                0x0000000008001338                FLASH_IRQHandler
                0x0000000008001338                SPI3_IRQHandler
                0x0000000008001338                I2C1_ER_IRQHandler
                0x0000000008001338                USBWakeUp_IRQHandler
                0x0000000008001338                DMA2_Channel3_IRQHandler
 *fill*         0x000000000800133a        0x2 
 .text.SystemInit
                0x000000000800133c       0xf0 ./Src/BSP/CMSIS/CM3/DeviceSupport/ST/STM32F10x/system_stm32f10x.o
                0x000000000800133c                SystemInit
 .text.ADCx_Init
                0x000000000800142c      0x108 ./Src/BSP/adc.o
                0x000000000800142c                ADCx_Init
 .text.ak8963Init
                0x0000000008001534       0x14 ./Src/BSP/ak8963.o
                0x0000000008001534                ak8963Init
 .text.ak8963TestConnection
                0x0000000008001548       0x30 ./Src/BSP/ak8963.o
                0x0000000008001548                ak8963TestConnection
 .text.ak8963SetMode
                0x0000000008001578       0x18 ./Src/BSP/ak8963.o
                0x0000000008001578                ak8963SetMode
 .text.TIM6_IRQHandler
                0x0000000008001590       0x28 ./Src/BSP/buzzer.o
                0x0000000008001590                TIM6_IRQHandler
 .text.CAN_Mode_Init
                0x00000000080015b8       0xa0 ./Src/BSP/can.o
                0x00000000080015b8                CAN_Mode_Init
 .text.CanSendMsg
                0x0000000008001658       0x58 ./Src/BSP/can.o
                0x0000000008001658                CanSendMsg
 .text.Delay_Init
                0x00000000080016b0       0x3c ./Src/BSP/delay.o
                0x00000000080016b0                Delay_Init
 .text.delay_us
                0x00000000080016ec       0x34 ./Src/BSP/delay.o
                0x00000000080016ec                delay_us
 .text.delay_ms
                0x0000000008001720       0x3c ./Src/BSP/delay.o
                0x0000000008001720                delay_ms
 .text.SaveConfigData
                0x000000000800175c       0xc0 ./Src/BSP/flash.o
                0x000000000800175c                SaveConfigData
 .text.LoadConfigData
                0x000000000800181c       0x84 ./Src/BSP/flash.o
                0x000000000800181c                LoadConfigData
 .text.i2cdevInit
                0x00000000080018a0        0xa ./Src/BSP/i2c_device.o
                0x00000000080018a0                i2cdevInit
 .text.i2cdevRead
                0x00000000080018aa       0x36 ./Src/BSP/i2c_device.o
                0x00000000080018aa                i2cdevRead
 .text.i2cdevReadByte
                0x00000000080018e0       0x10 ./Src/BSP/i2c_device.o
                0x00000000080018e0                i2cdevReadByte
 .text.i2cdevWrite
                0x00000000080018f0       0x36 ./Src/BSP/i2c_device.o
                0x00000000080018f0                i2cdevWrite
 .text.i2cdevWriteByte
                0x0000000008001926       0x18 ./Src/BSP/i2c_device.o
                0x0000000008001926                i2cdevWriteByte
 .text.i2cdevWriteBit
                0x000000000800193e       0x46 ./Src/BSP/i2c_device.o
                0x000000000800193e                i2cdevWriteBit
 .text.i2cdevWriteBits
                0x0000000008001984       0x52 ./Src/BSP/i2c_device.o
                0x0000000008001984                i2cdevWriteBits
 .text.i2cdrvClearDMA
                0x00000000080019d6       0x3a ./Src/BSP/i2c_driver.o
 .text.i2cNotifyClient.constprop.0
                0x0000000008001a10       0x34 ./Src/BSP/i2c_driver.o
 .text.i2cTryNextMessage.constprop.0
                0x0000000008001a44       0x20 ./Src/BSP/i2c_driver.o
 .text.i2cdrvRoughLoopDelay.constprop.0
                0x0000000008001a64       0x1e ./Src/BSP/i2c_driver.o
 *fill*         0x0000000008001a82        0x2 
 .text.i2cdrvInitBus
                0x0000000008001a84      0x1f0 ./Src/BSP/i2c_driver.o
 .text.i2cdrvInit
                0x0000000008001c74        0x4 ./Src/BSP/i2c_driver.o
                0x0000000008001c74                i2cdrvInit
 .text.i2cdrvCreateMessage
                0x0000000008001c78       0x1c ./Src/BSP/i2c_driver.o
                0x0000000008001c78                i2cdrvCreateMessage
 .text.i2cdrvCreateMessageIntAddr
                0x0000000008001c94       0x1e ./Src/BSP/i2c_driver.o
                0x0000000008001c94                i2cdrvCreateMessageIntAddr
 *fill*         0x0000000008001cb2        0x2 
 .text.i2cdrvMessageTransfer
                0x0000000008001cb4       0xb8 ./Src/BSP/i2c_driver.o
                0x0000000008001cb4                i2cdrvMessageTransfer
 .text.I2C2_ER_IRQHandler
                0x0000000008001d6c       0x98 ./Src/BSP/i2c_driver.o
                0x0000000008001d6c                I2C2_ER_IRQHandler
 .text.I2C2_EV_IRQHandler
                0x0000000008001e04      0x178 ./Src/BSP/i2c_driver.o
                0x0000000008001e04                I2C2_EV_IRQHandler
 .text.DMA1_Channel5_IRQHandler
                0x0000000008001f7c       0x44 ./Src/BSP/i2c_driver.o
                0x0000000008001f7c                DMA1_Channel5_IRQHandler
 .text.OLED_WriteCmd
                0x0000000008001fc0       0x10 ./Src/BSP/i2c_oled.o
                0x0000000008001fc0                OLED_WriteCmd
 .text.OLED_Init
                0x0000000008001fd0       0xbe ./Src/BSP/i2c_oled.o
                0x0000000008001fd0                OLED_Init
 .text.OLED_SetPos
                0x000000000800208e       0x24 ./Src/BSP/i2c_oled.o
                0x000000000800208e                OLED_SetPos
 *fill*         0x00000000080020b2        0x2 
 .text.OLED_CLS
                0x00000000080020b4       0x48 ./Src/BSP/i2c_oled.o
                0x00000000080020b4                OLED_CLS
 .text.OLED_ShowStr
                0x00000000080020fc       0xe0 ./Src/BSP/i2c_oled.o
                0x00000000080020fc                OLED_ShowStr
 .text.OLED_DrawBMP
                0x00000000080021dc       0x3c ./Src/BSP/i2c_oled.o
                0x00000000080021dc                OLED_DrawBMP
 .text.OLED_ShowParm
                0x0000000008002218       0xd8 ./Src/BSP/i2c_oled.o
                0x0000000008002218                OLED_ShowParm
 .text.MenuTask
                0x00000000080022f0      0x170 ./Src/BSP/i2c_oled.o
                0x00000000080022f0                MenuTask
 .text.UserKey_Init
                0x0000000008002460       0x24 ./Src/BSP/key.o
                0x0000000008002460                UserKey_Init
 .text.PowerKey_Init
                0x0000000008002484       0x24 ./Src/BSP/key.o
                0x0000000008002484                PowerKey_Init
 .text.LED_Init
                0x00000000080024a8       0x2c ./Src/BSP/led.o
                0x00000000080024a8                LED_Init
 .text.TIM1_Init
                0x00000000080024d4       0x88 ./Src/BSP/motor.o
                0x00000000080024d4                TIM1_Init
 .text.TIM2_Init
                0x000000000800255c       0x8c ./Src/BSP/motor.o
                0x000000000800255c                TIM2_Init
 .text.Motor1_Encoder_Init
                0x00000000080025e8       0x94 ./Src/BSP/motor.o
                0x00000000080025e8                Motor1_Encoder_Init
 .text.Motor2_Encoder_Init
                0x000000000800267c       0x94 ./Src/BSP/motor.o
                0x000000000800267c                Motor2_Encoder_Init
 .text.TIM5_IRQHandler
                0x0000000008002710       0x20 ./Src/BSP/motor.o
                0x0000000008002710                TIM5_IRQHandler
 .text.TIM4_IRQHandler
                0x0000000008002730       0x20 ./Src/BSP/motor.o
                0x0000000008002730                TIM4_IRQHandler
 .text.Read_Encoder
                0x0000000008002750       0x24 ./Src/BSP/motor.o
                0x0000000008002750                Read_Encoder
 .text.Set_Motor1_PWM
                0x0000000008002774       0x3c ./Src/BSP/motor.o
                0x0000000008002774                Set_Motor1_PWM
 .text.Set_Motor2_PWM
                0x00000000080027b0       0x40 ./Src/BSP/motor.o
                0x00000000080027b0                Set_Motor2_PWM
 .text.Motor_Init
                0x00000000080027f0       0x22 ./Src/BSP/motor.o
                0x00000000080027f0                Motor_Init
 *fill*         0x0000000008002812        0x2 
 .text.Motor1_Brake
                0x0000000008002814       0x14 ./Src/BSP/motor.o
                0x0000000008002814                Motor1_Brake
 .text.Motor2_Brake
                0x0000000008002828       0x10 ./Src/BSP/motor.o
                0x0000000008002828                Motor2_Brake
 .text.Motor1_Speed_Control
                0x0000000008002838       0xc8 ./Src/BSP/motor.o
                0x0000000008002838                Motor1_Speed_Control
 .text.Motor2_Speed_Control
                0x0000000008002900       0xc8 ./Src/BSP/motor.o
                0x0000000008002900                Motor2_Speed_Control
 .text.Motor_Speed_Calculate
                0x00000000080029c8       0xa8 ./Src/BSP/motor.o
                0x00000000080029c8                Motor_Speed_Calculate
 .text.MotorTask
                0x0000000008002a70       0xd4 ./Src/BSP/motor.o
                0x0000000008002a70                MotorTask
 .text.mpu6500Init
                0x0000000008002b44       0x24 ./Src/BSP/mpu9250.o
                0x0000000008002b44                mpu6500Init
 .text.mpu6500SetRate
                0x0000000008002b68       0x18 ./Src/BSP/mpu9250.o
                0x0000000008002b68                mpu6500SetRate
 .text.mpu6500SetDLPFMode
                0x0000000008002b80       0x28 ./Src/BSP/mpu9250.o
                0x0000000008002b80                mpu6500SetDLPFMode
 .text.mpu6500SetFullScaleGyroRange
                0x0000000008002ba8       0x28 ./Src/BSP/mpu9250.o
                0x0000000008002ba8                mpu6500SetFullScaleGyroRange
 .text.mpu6500SetFullScaleAccelRange
                0x0000000008002bd0       0x28 ./Src/BSP/mpu9250.o
                0x0000000008002bd0                mpu6500SetFullScaleAccelRange
 .text.mpu6500SetAccelDLPF
                0x0000000008002bf8       0x28 ./Src/BSP/mpu9250.o
                0x0000000008002bf8                mpu6500SetAccelDLPF
 .text.mpu6500SetWaitForExternalSensorEnabled
                0x0000000008002c20       0x24 ./Src/BSP/mpu9250.o
                0x0000000008002c20                mpu6500SetWaitForExternalSensorEnabled
 .text.mpu6500SetSlaveReadWriteTransitionEnabled
                0x0000000008002c44       0x24 ./Src/BSP/mpu9250.o
                0x0000000008002c44                mpu6500SetSlaveReadWriteTransitionEnabled
 .text.mpu6500SetMasterClockSpeed
                0x0000000008002c68       0x28 ./Src/BSP/mpu9250.o
                0x0000000008002c68                mpu6500SetMasterClockSpeed
 .text.mpu6500SetSlaveAddress
                0x0000000008002c90       0x28 ./Src/BSP/mpu9250.o
                0x0000000008002c90                mpu6500SetSlaveAddress
 .text.mpu6500SetSlaveRegister
                0x0000000008002cb8       0x28 ./Src/BSP/mpu9250.o
                0x0000000008002cb8                mpu6500SetSlaveRegister
 .text.mpu6500SetSlaveEnabled
                0x0000000008002ce0       0x30 ./Src/BSP/mpu9250.o
                0x0000000008002ce0                mpu6500SetSlaveEnabled
 .text.mpu6500SetSlaveDataLength
                0x0000000008002d10       0x34 ./Src/BSP/mpu9250.o
                0x0000000008002d10                mpu6500SetSlaveDataLength
 .text.mpu6500SetSlave4MasterDelay
                0x0000000008002d44       0x28 ./Src/BSP/mpu9250.o
                0x0000000008002d44                mpu6500SetSlave4MasterDelay
 .text.mpu6500SetInterruptMode
                0x0000000008002d6c       0x24 ./Src/BSP/mpu9250.o
                0x0000000008002d6c                mpu6500SetInterruptMode
 .text.mpu6500SetInterruptDrive
                0x0000000008002d90       0x24 ./Src/BSP/mpu9250.o
                0x0000000008002d90                mpu6500SetInterruptDrive
 .text.mpu6500SetInterruptLatch
                0x0000000008002db4       0x24 ./Src/BSP/mpu9250.o
                0x0000000008002db4                mpu6500SetInterruptLatch
 .text.mpu6500SetInterruptLatchClear
                0x0000000008002dd8       0x24 ./Src/BSP/mpu9250.o
                0x0000000008002dd8                mpu6500SetInterruptLatchClear
 .text.mpu6500SetI2CBypassEnabled
                0x0000000008002dfc       0x24 ./Src/BSP/mpu9250.o
                0x0000000008002dfc                mpu6500SetI2CBypassEnabled
 .text.mpu6500SetIntEnabled
                0x0000000008002e20       0x18 ./Src/BSP/mpu9250.o
                0x0000000008002e20                mpu6500SetIntEnabled
 .text.mpu6500SetIntDataReadyEnabled
                0x0000000008002e38       0x24 ./Src/BSP/mpu9250.o
                0x0000000008002e38                mpu6500SetIntDataReadyEnabled
 .text.mpu6500SetSlaveDelayEnabled
                0x0000000008002e5c       0x24 ./Src/BSP/mpu9250.o
                0x0000000008002e5c                mpu6500SetSlaveDelayEnabled
 .text.mpu6500SetI2CMasterModeEnabled
                0x0000000008002e80       0x24 ./Src/BSP/mpu9250.o
                0x0000000008002e80                mpu6500SetI2CMasterModeEnabled
 .text.mpu6500Reset
                0x0000000008002ea4       0x24 ./Src/BSP/mpu9250.o
                0x0000000008002ea4                mpu6500Reset
 .text.mpu6500SetSleepEnabled
                0x0000000008002ec8       0x24 ./Src/BSP/mpu9250.o
                0x0000000008002ec8                mpu6500SetSleepEnabled
 .text.mpu6500SetTempSensorEnabled
                0x0000000008002eec       0x28 ./Src/BSP/mpu9250.o
                0x0000000008002eec                mpu6500SetTempSensorEnabled
 .text.mpu6500SetClockSource
                0x0000000008002f14       0x28 ./Src/BSP/mpu9250.o
                0x0000000008002f14                mpu6500SetClockSource
 .text.mpu6500GetDeviceID
                0x0000000008002f3c       0x24 ./Src/BSP/mpu9250.o
                0x0000000008002f3c                mpu6500GetDeviceID
 .text.NRF_LowLevel_Init
                0x0000000008002f60      0x100 ./Src/BSP/nrf24l01.o
 .text.SPI_RWByte.constprop.0
                0x0000000008003060       0x34 ./Src/BSP/nrf24l01.o
 .text.writeReg
                0x0000000008003094       0x34 ./Src/BSP/nrf24l01.o
 .text.readReg  0x00000000080030c8       0x30 ./Src/BSP/nrf24l01.o
 .text.writeBuf
                0x00000000080030f8       0x3c ./Src/BSP/nrf24l01.o
 .text.readBuf.isra.0
                0x0000000008003134       0x3c ./Src/BSP/nrf24l01.o
 .text.nrf_txPacket_AP
                0x0000000008003170       0x2c ./Src/BSP/nrf24l01.o
                0x0000000008003170                nrf_txPacket_AP
 .text.nrf_setAddress
                0x000000000800319c       0x24 ./Src/BSP/nrf24l01.o
                0x000000000800319c                nrf_setAddress
 .text.nrf_setChannel
                0x00000000080031c0        0xe ./Src/BSP/nrf24l01.o
                0x00000000080031c0                nrf_setChannel
 .text.nrf_setDataRate
                0x00000000080031ce       0x2a ./Src/BSP/nrf24l01.o
                0x00000000080031ce                nrf_setDataRate
 .text.nrf_setPower
                0x00000000080031f8       0x34 ./Src/BSP/nrf24l01.o
                0x00000000080031f8                nrf_setPower
 .text.nrf_setArd
                0x000000000800322c       0x28 ./Src/BSP/nrf24l01.o
                0x000000000800322c                nrf_setArd
 .text.NRF_Init
                0x0000000008003254       0x90 ./Src/BSP/nrf24l01.o
                0x0000000008003254                NRF_Init
 .text.nrf_check
                0x00000000080032e4       0x50 ./Src/BSP/nrf24l01.o
                0x00000000080032e4                nrf_check
 .text.nrf_rxPacket
                0x0000000008003334       0x44 ./Src/BSP/nrf24l01.o
                0x0000000008003334                nrf_rxPacket
 .text.nrf_checkEventandRxPacket
                0x0000000008003378       0x48 ./Src/BSP/nrf24l01.o
                0x0000000008003378                nrf_checkEventandRxPacket
 .text.nrf_setIterruptCallback
                0x00000000080033c0        0xc ./Src/BSP/nrf24l01.o
                0x00000000080033c0                nrf_setIterruptCallback
 .text.EXTI15_10_IRQHandler
                0x00000000080033cc       0x28 ./Src/BSP/nrf24l01.o
                0x00000000080033cc                EXTI15_10_IRQHandler
 .text.ADJ_Outpt_Init
                0x00000000080033f4       0x30 ./Src/BSP/power_control.o
                0x00000000080033f4                ADJ_Outpt_Init
 .text.MAIN_Output_Init
                0x0000000008003424       0x30 ./Src/BSP/power_control.o
                0x0000000008003424                MAIN_Output_Init
 .text.PowerControl_Init
                0x0000000008003454       0x24 ./Src/BSP/power_control.o
                0x0000000008003454                PowerControl_Init
 .text.PowerTask
                0x0000000008003478      0x208 ./Src/BSP/power_control.o
                0x0000000008003478                PowerTask
 .text.TIM3_Init
                0x0000000008003680       0xd0 ./Src/BSP/servo.o
                0x0000000008003680                TIM3_Init
 .text.TIM8_Init
                0x0000000008003750       0xb4 ./Src/BSP/servo.o
                0x0000000008003750                TIM8_Init
 .text.Servo_Init
                0x0000000008003804        0xe ./Src/BSP/servo.o
                0x0000000008003804                Servo_Init
 *fill*         0x0000000008003812        0x2 
 .text.Duty_to_PWM
                0x0000000008003814       0x20 ./Src/BSP/servo.o
                0x0000000008003814                Duty_to_PWM
 .text.Set_Servo_PWM
                0x0000000008003834       0x48 ./Src/BSP/servo.o
                0x0000000008003834                Set_Servo_PWM
 .text.PWM      0x000000000800387c       0x28 ./Src/BSP/servo.o
                0x000000000800387c                PWM
 .text.SPI_FLASH_Init
                0x00000000080038a4       0xa4 ./Src/BSP/spi_flash.o
                0x00000000080038a4                SPI_FLASH_Init
 .text.SPI_FLASH_SendByte
                0x0000000008003948       0x70 ./Src/BSP/spi_flash.o
                0x0000000008003948                SPI_FLASH_SendByte
 .text.SPI_FLASH_BufferRead
                0x00000000080039b8       0x54 ./Src/BSP/spi_flash.o
                0x00000000080039b8                SPI_FLASH_BufferRead
 .text.SPI_FLASH_ReadID
                0x0000000008003a0c       0x48 ./Src/BSP/spi_flash.o
                0x0000000008003a0c                SPI_FLASH_ReadID
 .text.SPI_FLASH_WriteEnable
                0x0000000008003a54       0x28 ./Src/BSP/spi_flash.o
                0x0000000008003a54                SPI_FLASH_WriteEnable
 .text.SPI_FLASH_WaitForWriteEnd
                0x0000000008003a7c       0x30 ./Src/BSP/spi_flash.o
                0x0000000008003a7c                SPI_FLASH_WaitForWriteEnd
 .text.SPI_FLASH_SectorErase
                0x0000000008003aac       0x4c ./Src/BSP/spi_flash.o
                0x0000000008003aac                SPI_FLASH_SectorErase
 .text.SPI_FLASH_PageWrite
                0x0000000008003af8       0x6c ./Src/BSP/spi_flash.o
                0x0000000008003af8                SPI_FLASH_PageWrite
 .text.SPI_FLASH_BufferWrite
                0x0000000008003b64       0xb0 ./Src/BSP/spi_flash.o
                0x0000000008003b64                SPI_FLASH_BufferWrite
 .text.SPI_Flash_WAKEUP
                0x0000000008003c14       0x28 ./Src/BSP/spi_flash.o
                0x0000000008003c14                SPI_Flash_WAKEUP
 .text.UART4_Init
                0x0000000008003c3c       0x98 ./Src/BSP/uart4.o
                0x0000000008003c3c                UART4_Init
 .text.Uart4Task
                0x0000000008003cd4       0x6c ./Src/BSP/uart4.o
                0x0000000008003cd4                Uart4Task
 .text.UART4_IRQHandler
                0x0000000008003d40       0x58 ./Src/BSP/uart4.o
                0x0000000008003d40                UART4_IRQHandler
 .text.UART5_Init
                0x0000000008003d98       0x98 ./Src/BSP/uart5.o
                0x0000000008003d98                UART5_Init
 .text.Uart5Task
                0x0000000008003e30       0x6c ./Src/BSP/uart5.o
                0x0000000008003e30                Uart5Task
 .text.UART5_IRQHandler
                0x0000000008003e9c       0x58 ./Src/BSP/uart5.o
                0x0000000008003e9c                UART5_IRQHandler
 .text.USART1_Init
                0x0000000008003ef4       0x80 ./Src/BSP/usart1.o
                0x0000000008003ef4                USART1_Init
 .text.USART1_IRQHandler
                0x0000000008003f74       0xac ./Src/BSP/usart1.o
                0x0000000008003f74                USART1_IRQHandler
 .text.Usart1LinkStatus
                0x0000000008004020        0xc ./Src/BSP/usart1.o
                0x0000000008004020                Usart1LinkStatus
 .text.ProcessMsg
                0x000000000800402c      0x2ec ./Src/BSP/usart1.o
                0x000000000800402c                ProcessMsg
 .text.Usart1Task
                0x0000000008004318       0x64 ./Src/BSP/usart1.o
                0x0000000008004318                Usart1Task
 .text._isatty  0x000000000800437c       0x16 ./Src/BSP/usart1.o
                0x000000000800437c                _isatty
 .text._getpid  0x0000000008004392        0x4 ./Src/BSP/usart1.o
                0x0000000008004392                _getpid
 .text._kill    0x0000000008004396       0x10 ./Src/BSP/usart1.o
                0x0000000008004396                _kill
 *fill*         0x00000000080043a6        0x2 
 .text._write   0x00000000080043a8       0x30 ./Src/BSP/usart1.o
                0x00000000080043a8                _write
 .text._read    0x00000000080043d8       0x30 ./Src/BSP/usart1.o
                0x00000000080043d8                _read
 .text._close   0x0000000008004408       0x18 ./Src/BSP/usart1.o
                0x0000000008004408                _close
 .text._lseek   0x0000000008004420       0x10 ./Src/BSP/usart1.o
                0x0000000008004420                _lseek
 .text._fstat   0x0000000008004430       0x1a ./Src/BSP/usart1.o
                0x0000000008004430                _fstat
 *fill*         0x000000000800444a        0x2 
 .text.EKF_AHRSInit
                0x000000000800444c      0x1d0 ./Src/EKF/ekf.o
                0x000000000800444c                EKF_AHRSInit
 .text.FastSqrtI
                0x000000000800461c       0x38 ./Src/EKF/fast_math.o
                0x000000000800461c                FastSqrtI
 .text.FastSqrt
                0x0000000008004654       0x10 ./Src/EKF/fast_math.o
                0x0000000008004654                FastSqrt
 .text.Quaternion_FromRotationMatrix
                0x0000000008004664      0x1e0 ./Src/EKF/quaternion.o
                0x0000000008004664                Quaternion_FromRotationMatrix
 .text.disk_status
                0x0000000008004844       0x1c ./Src/FatFs/diskio.o
                0x0000000008004844                disk_status
 .text.disk_initialize
                0x0000000008004860       0x24 ./Src/FatFs/diskio.o
                0x0000000008004860                disk_initialize
 .text.disk_read
                0x0000000008004884       0x20 ./Src/FatFs/diskio.o
                0x0000000008004884                disk_read
 .text.disk_write
                0x00000000080048a4       0x2a ./Src/FatFs/diskio.o
                0x00000000080048a4                disk_write
 .text.disk_ioctl
                0x00000000080048ce       0x2a ./Src/FatFs/diskio.o
                0x00000000080048ce                disk_ioctl
 .text.get_fattime
                0x00000000080048f8        0x8 ./Src/FatFs/diskio.o
                0x00000000080048f8                get_fattime
 .text.mem_cpy  0x0000000008004900       0x14 ./Src/FatFs/ff.o
 .text.mem_set  0x0000000008004914        0xe ./Src/FatFs/ff.o
 .text.sum_sfn  0x0000000008004922       0x1e ./Src/FatFs/ff.o
 .text.get_ldnumber
                0x0000000008004940       0x3a ./Src/FatFs/ff.o
 .text.validate
                0x000000000800497a       0x24 ./Src/FatFs/ff.o
 .text.get_fileinfo
                0x000000000800499e       0xc2 ./Src/FatFs/ff.o
 .text.sync_window.part.0
                0x0000000008004a60       0x4c ./Src/FatFs/ff.o
 .text.sync_window
                0x0000000008004aac        0xc ./Src/FatFs/ff.o
 .text.move_window
                0x0000000008004ab8       0x32 ./Src/FatFs/ff.o
 *fill*         0x0000000008004aea        0x2 
 .text.check_fs
                0x0000000008004aec       0x4c ./Src/FatFs/ff.o
 .text.find_volume
                0x0000000008004b38      0x244 ./Src/FatFs/ff.o
 .text.sync_fs  0x0000000008004d7c       0x74 ./Src/FatFs/ff.o
 .text.ld_clust.isra.0
                0x0000000008004df0       0x10 ./Src/FatFs/ff.o
 .text.clust2sect
                0x0000000008004e00       0x16 ./Src/FatFs/ff.o
                0x0000000008004e00                clust2sect
 .text.get_fat  0x0000000008004e16       0xf4 ./Src/FatFs/ff.o
                0x0000000008004e16                get_fat
 .text.dir_sdi  0x0000000008004f0a       0x94 ./Src/FatFs/ff.o
 .text.put_fat  0x0000000008004f9e      0x124 ./Src/FatFs/ff.o
                0x0000000008004f9e                put_fat
 .text.create_chain
                0x00000000080050c2       0xa0 ./Src/FatFs/ff.o
 .text.dir_next
                0x0000000008005162      0x100 ./Src/FatFs/ff.o
 *fill*         0x0000000008005262        0x2 
 .text.dir_find
                0x0000000008005264      0x138 ./Src/FatFs/ff.o
 .text.follow_path
                0x000000000800539c      0x2a8 ./Src/FatFs/ff.o
 .text.dir_register
                0x0000000008005644      0x264 ./Src/FatFs/ff.o
 .text.dir_read.constprop.0
                0x00000000080058a8       0xf8 ./Src/FatFs/ff.o
 .text.remove_chain
                0x00000000080059a0       0x5a ./Src/FatFs/ff.o
 *fill*         0x00000000080059fa        0x2 
 .text.f_mount  0x00000000080059fc       0x4c ./Src/FatFs/ff.o
                0x00000000080059fc                f_mount
 .text.f_open   0x0000000008005a48      0x144 ./Src/FatFs/ff.o
                0x0000000008005a48                f_open
 .text.f_read   0x0000000008005b8c      0x162 ./Src/FatFs/ff.o
                0x0000000008005b8c                f_read
 .text.f_sync   0x0000000008005cee       0xa2 ./Src/FatFs/ff.o
                0x0000000008005cee                f_sync
 .text.f_close  0x0000000008005d90       0x16 ./Src/FatFs/ff.o
                0x0000000008005d90                f_close
 .text.f_lseek  0x0000000008005da6      0x136 ./Src/FatFs/ff.o
                0x0000000008005da6                f_lseek
 .text.f_opendir
                0x0000000008005edc       0x6c ./Src/FatFs/ff.o
                0x0000000008005edc                f_opendir
 .text.f_readdir
                0x0000000008005f48       0x60 ./Src/FatFs/ff.o
                0x0000000008005f48                f_readdir
 .text.f_getfree
                0x0000000008005fa8       0xbe ./Src/FatFs/ff.o
                0x0000000008005fa8                f_getfree
 *fill*         0x0000000008006066        0x2 
 .text.f_mkfs   0x0000000008006068      0x5a8 ./Src/FatFs/ff.o
                0x0000000008006068                f_mkfs
 .text.ff_convert
                0x0000000008006610       0x48 ./Src/FatFs/option/cc936.o
                0x0000000008006610                ff_convert
 .text.ff_wtoupper
                0x0000000008006658       0x48 ./Src/FatFs/option/cc936.o
                0x0000000008006658                ff_wtoupper
 .text.vListInitialise
                0x00000000080066a0       0x16 ./Src/FreeRTOS/list.o
                0x00000000080066a0                vListInitialise
 .text.vListInitialiseItem
                0x00000000080066b6        0x6 ./Src/FreeRTOS/list.o
                0x00000000080066b6                vListInitialiseItem
 .text.vListInsertEnd
                0x00000000080066bc       0x16 ./Src/FreeRTOS/list.o
                0x00000000080066bc                vListInsertEnd
 .text.vListInsert
                0x00000000080066d2       0x2e ./Src/FreeRTOS/list.o
                0x00000000080066d2                vListInsert
 .text.uxListRemove
                0x0000000008006700       0x22 ./Src/FreeRTOS/list.o
                0x0000000008006700                uxListRemove
 .text.prvCopyDataToQueue
                0x0000000008006722       0x6a ./Src/FreeRTOS/queue.o
 .text.prvNotifyQueueSetContainer
                0x000000000800678c       0x7c ./Src/FreeRTOS/queue.o
 .text.prvCopyDataFromQueue
                0x0000000008006808       0x28 ./Src/FreeRTOS/queue.o
 .text.prvUnlockQueue
                0x0000000008006830       0x7e ./Src/FreeRTOS/queue.o
 *fill*         0x00000000080068ae        0x2 
 .text.xQueueGenericReset
                0x00000000080068b0       0x80 ./Src/FreeRTOS/queue.o
                0x00000000080068b0                xQueueGenericReset
 .text.xQueueGenericCreate
                0x0000000008006930       0x50 ./Src/FreeRTOS/queue.o
                0x0000000008006930                xQueueGenericCreate
 .text.xQueueGenericSend
                0x0000000008006980      0x174 ./Src/FreeRTOS/queue.o
                0x0000000008006980                xQueueGenericSend
 .text.xQueueCreateMutex
                0x0000000008006af4       0x24 ./Src/FreeRTOS/queue.o
                0x0000000008006af4                xQueueCreateMutex
 .text.xQueueGenericSendFromISR
                0x0000000008006b18       0xd4 ./Src/FreeRTOS/queue.o
                0x0000000008006b18                xQueueGenericSendFromISR
 .text.xQueueGiveFromISR
                0x0000000008006bec       0xb4 ./Src/FreeRTOS/queue.o
                0x0000000008006bec                xQueueGiveFromISR
 .text.xQueueGenericReceive
                0x0000000008006ca0      0x180 ./Src/FreeRTOS/queue.o
                0x0000000008006ca0                xQueueGenericReceive
 .text.vQueueAddToRegistry
                0x0000000008006e20       0x24 ./Src/FreeRTOS/queue.o
                0x0000000008006e20                vQueueAddToRegistry
 .text.vQueueWaitForMessageRestricted
                0x0000000008006e44       0x46 ./Src/FreeRTOS/queue.o
                0x0000000008006e44                vQueueWaitForMessageRestricted
 *fill*         0x0000000008006e8a        0x2 
 .text.prvAddCurrentTaskToDelayedList
                0x0000000008006e8c       0x88 ./Src/FreeRTOS/tasks.o
 .text.prvResetNextTaskUnblockTime
                0x0000000008006f14       0x24 ./Src/FreeRTOS/tasks.o
 .text.xTaskCreate
                0x0000000008006f38      0x1b0 ./Src/FreeRTOS/tasks.o
                0x0000000008006f38                xTaskCreate
 .text.vTaskDelete
                0x00000000080070e8       0xdc ./Src/FreeRTOS/tasks.o
                0x00000000080070e8                vTaskDelete
 .text.vTaskStartScheduler
                0x00000000080071c4       0x88 ./Src/FreeRTOS/tasks.o
                0x00000000080071c4                vTaskStartScheduler
 .text.vTaskSuspendAll
                0x000000000800724c       0x10 ./Src/FreeRTOS/tasks.o
                0x000000000800724c                vTaskSuspendAll
 .text.xTaskGetTickCount
                0x000000000800725c        0xc ./Src/FreeRTOS/tasks.o
                0x000000000800725c                xTaskGetTickCount
 .text.xTaskIncrementTick
                0x0000000008007268      0x124 ./Src/FreeRTOS/tasks.o
                0x0000000008007268                xTaskIncrementTick
 .text.xTaskResumeAll
                0x000000000800738c       0xf0 ./Src/FreeRTOS/tasks.o
                0x000000000800738c                xTaskResumeAll
 .text.vTaskDelay
                0x000000000800747c       0x50 ./Src/FreeRTOS/tasks.o
                0x000000000800747c                vTaskDelay
 .text.prvIdleTask
                0x00000000080074cc       0x58 ./Src/FreeRTOS/tasks.o
 .text.vTaskSwitchContext
                0x0000000008007524       0x90 ./Src/FreeRTOS/tasks.o
                0x0000000008007524                vTaskSwitchContext
 .text.vTaskPlaceOnEventList
                0x00000000080075b4       0x38 ./Src/FreeRTOS/tasks.o
                0x00000000080075b4                vTaskPlaceOnEventList
 .text.vTaskPlaceOnEventListRestricted
                0x00000000080075ec       0x44 ./Src/FreeRTOS/tasks.o
                0x00000000080075ec                vTaskPlaceOnEventListRestricted
 .text.xTaskRemoveFromEventList
                0x0000000008007630       0x84 ./Src/FreeRTOS/tasks.o
                0x0000000008007630                xTaskRemoveFromEventList
 .text.vTaskSetTimeOutState
                0x00000000080076b4       0x30 ./Src/FreeRTOS/tasks.o
                0x00000000080076b4                vTaskSetTimeOutState
 .text.xTaskCheckForTimeOut
                0x00000000080076e4       0x74 ./Src/FreeRTOS/tasks.o
                0x00000000080076e4                xTaskCheckForTimeOut
 .text.vTaskMissedYield
                0x0000000008007758        0xc ./Src/FreeRTOS/tasks.o
                0x0000000008007758                vTaskMissedYield
 .text.xTaskGetSchedulerState
                0x0000000008007764       0x20 ./Src/FreeRTOS/tasks.o
                0x0000000008007764                xTaskGetSchedulerState
 .text.vTaskPriorityInherit
                0x0000000008007784       0x94 ./Src/FreeRTOS/tasks.o
                0x0000000008007784                vTaskPriorityInherit
 .text.xTaskPriorityDisinherit
                0x0000000008007818       0xa4 ./Src/FreeRTOS/tasks.o
                0x0000000008007818                xTaskPriorityDisinherit
 .text.pvTaskIncrementMutexHeldCount
                0x00000000080078bc       0x18 ./Src/FreeRTOS/tasks.o
                0x00000000080078bc                pvTaskIncrementMutexHeldCount
 .text.prvCheckForValidListAndQueue
                0x00000000080078d4       0x58 ./Src/FreeRTOS/timers.o
 .text.prvInsertTimerInActiveList
                0x000000000800792c       0x3c ./Src/FreeRTOS/timers.o
 .text.xTimerCreateTimerTask
                0x0000000008007968       0x54 ./Src/FreeRTOS/timers.o
                0x0000000008007968                xTimerCreateTimerTask
 .text.xTimerGenericCommand
                0x00000000080079bc       0x60 ./Src/FreeRTOS/timers.o
                0x00000000080079bc                xTimerGenericCommand
 .text.prvSampleTimeNow
                0x0000000008007a1c       0xb0 ./Src/FreeRTOS/timers.o
 .text.prvTimerTask
                0x0000000008007acc      0x1a8 ./Src/FreeRTOS/timers.o
 .text.prvPortStartFirstTask
                0x0000000008007c74       0x20 ./Src/FreeRTOS/portable/GCC/ARM_CM3/port.o
 .text.prvTaskExitError
                0x0000000008007c94       0x40 ./Src/FreeRTOS/portable/GCC/ARM_CM3/port.o
 .text.pxPortInitialiseStack
                0x0000000008007cd4       0x24 ./Src/FreeRTOS/portable/GCC/ARM_CM3/port.o
                0x0000000008007cd4                pxPortInitialiseStack
 *fill*         0x0000000008007cf8        0x8 
 .text.SVC_Handler
                0x0000000008007d00       0x24 ./Src/FreeRTOS/portable/GCC/ARM_CM3/port.o
                0x0000000008007d00                SVC_Handler
 .text.vPortEnterCritical
                0x0000000008007d24       0x44 ./Src/FreeRTOS/portable/GCC/ARM_CM3/port.o
                0x0000000008007d24                vPortEnterCritical
 .text.vPortExitCritical
                0x0000000008007d68       0x30 ./Src/FreeRTOS/portable/GCC/ARM_CM3/port.o
                0x0000000008007d68                vPortExitCritical
 *fill*         0x0000000008007d98        0x8 
 .text.PendSV_Handler
                0x0000000008007da0       0x44 ./Src/FreeRTOS/portable/GCC/ARM_CM3/port.o
                0x0000000008007da0                PendSV_Handler
 .text.xPortSysTickHandler
                0x0000000008007de4       0x2c ./Src/FreeRTOS/portable/GCC/ARM_CM3/port.o
                0x0000000008007de4                xPortSysTickHandler
 .text.vPortSetupTimerInterrupt
                0x0000000008007e10       0x18 ./Src/FreeRTOS/portable/GCC/ARM_CM3/port.o
                0x0000000008007e10                vPortSetupTimerInterrupt
 .text.xPortStartScheduler
                0x0000000008007e28       0xd4 ./Src/FreeRTOS/portable/GCC/ARM_CM3/port.o
                0x0000000008007e28                xPortStartScheduler
 .text.vPortValidateInterruptPriority
                0x0000000008007efc       0x60 ./Src/FreeRTOS/portable/GCC/ARM_CM3/port.o
                0x0000000008007efc                vPortValidateInterruptPriority
 .text.prvInsertBlockIntoFreeList
                0x0000000008007f5c       0x4c ./Src/FreeRTOS/portable/MemMang/heap_4.o
 .text.pvPortMalloc
                0x0000000008007fa8      0x138 ./Src/FreeRTOS/portable/MemMang/heap_4.o
                0x0000000008007fa8                pvPortMalloc
 .text.vPortFree
                0x00000000080080e0       0x80 ./Src/FreeRTOS/portable/MemMang/heap_4.o
                0x00000000080080e0                vPortFree
 .text.xPortGetFreeHeapSize
                0x0000000008008160        0xc ./Src/FreeRTOS/portable/MemMang/heap_4.o
                0x0000000008008160                xPortGetFreeHeapSize
 .text.NVIC_PriorityGroupConfig
                0x000000000800816c       0x14 ./Src/STM32F10x_StdPeriph_Driver/src/misc.o
                0x000000000800816c                NVIC_PriorityGroupConfig
 .text.NVIC_Init
                0x0000000008008180       0x64 ./Src/STM32F10x_StdPeriph_Driver/src/misc.o
                0x0000000008008180                NVIC_Init
 .text.SysTick_CLKSourceConfig
                0x00000000080081e4       0x16 ./Src/STM32F10x_StdPeriph_Driver/src/misc.o
                0x00000000080081e4                SysTick_CLKSourceConfig
 *fill*         0x00000000080081fa        0x2 
 .text.ADC_Init
                0x00000000080081fc       0x48 ./Src/STM32F10x_StdPeriph_Driver/src/stm32f10x_adc.o
                0x00000000080081fc                ADC_Init
 .text.ADC_Cmd  0x0000000008008244       0x12 ./Src/STM32F10x_StdPeriph_Driver/src/stm32f10x_adc.o
                0x0000000008008244                ADC_Cmd
 .text.ADC_DMACmd
                0x0000000008008256       0x12 ./Src/STM32F10x_StdPeriph_Driver/src/stm32f10x_adc.o
                0x0000000008008256                ADC_DMACmd
 .text.ADC_ResetCalibration
                0x0000000008008268        0xa ./Src/STM32F10x_StdPeriph_Driver/src/stm32f10x_adc.o
                0x0000000008008268                ADC_ResetCalibration
 .text.ADC_GetResetCalibrationStatus
                0x0000000008008272        0x8 ./Src/STM32F10x_StdPeriph_Driver/src/stm32f10x_adc.o
                0x0000000008008272                ADC_GetResetCalibrationStatus
 .text.ADC_StartCalibration
                0x000000000800827a        0xa ./Src/STM32F10x_StdPeriph_Driver/src/stm32f10x_adc.o
                0x000000000800827a                ADC_StartCalibration
 .text.ADC_GetCalibrationStatus
                0x0000000008008284        0x8 ./Src/STM32F10x_StdPeriph_Driver/src/stm32f10x_adc.o
                0x0000000008008284                ADC_GetCalibrationStatus
 .text.ADC_SoftwareStartConvCmd
                0x000000000800828c       0x12 ./Src/STM32F10x_StdPeriph_Driver/src/stm32f10x_adc.o
                0x000000000800828c                ADC_SoftwareStartConvCmd
 .text.ADC_RegularChannelConfig
                0x000000000800829e       0x8a ./Src/STM32F10x_StdPeriph_Driver/src/stm32f10x_adc.o
                0x000000000800829e                ADC_RegularChannelConfig
 .text.CAN_Init
                0x0000000008008328       0xd2 ./Src/STM32F10x_StdPeriph_Driver/src/stm32f10x_can.o
                0x0000000008008328                CAN_Init
 *fill*         0x00000000080083fa        0x2 
 .text.CAN_FilterInit
                0x00000000080083fc       0xe4 ./Src/STM32F10x_StdPeriph_Driver/src/stm32f10x_can.o
                0x00000000080083fc                CAN_FilterInit
 .text.CAN_Transmit
                0x00000000080084e0       0xa2 ./Src/STM32F10x_StdPeriph_Driver/src/stm32f10x_can.o
                0x00000000080084e0                CAN_Transmit
 *fill*         0x0000000008008582        0x2 
 .text.CAN_TransmitStatus
                0x0000000008008584       0x58 ./Src/STM32F10x_StdPeriph_Driver/src/stm32f10x_can.o
                0x0000000008008584                CAN_TransmitStatus
 .text.DMA_DeInit
                0x00000000080085dc       0xf4 ./Src/STM32F10x_StdPeriph_Driver/src/stm32f10x_dma.o
                0x00000000080085dc                DMA_DeInit
 .text.DMA_Init
                0x00000000080086d0       0x3c ./Src/STM32F10x_StdPeriph_Driver/src/stm32f10x_dma.o
                0x00000000080086d0                DMA_Init
 .text.DMA_Cmd  0x000000000800870c       0x16 ./Src/STM32F10x_StdPeriph_Driver/src/stm32f10x_dma.o
                0x000000000800870c                DMA_Cmd
 .text.DMA_ITConfig
                0x0000000008008722       0x10 ./Src/STM32F10x_StdPeriph_Driver/src/stm32f10x_dma.o
                0x0000000008008722                DMA_ITConfig
 *fill*         0x0000000008008732        0x2 
 .text.DMA_GetFlagStatus
                0x0000000008008734       0x1c ./Src/STM32F10x_StdPeriph_Driver/src/stm32f10x_dma.o
                0x0000000008008734                DMA_GetFlagStatus
 .text.DMA_ClearFlag
                0x0000000008008750       0x14 ./Src/STM32F10x_StdPeriph_Driver/src/stm32f10x_dma.o
                0x0000000008008750                DMA_ClearFlag
 .text.DMA_ClearITPendingBit
                0x0000000008008764        0x4 ./Src/STM32F10x_StdPeriph_Driver/src/stm32f10x_dma.o
                0x0000000008008764                DMA_ClearITPendingBit
 .text.EXTI_Init
                0x0000000008008768       0x80 ./Src/STM32F10x_StdPeriph_Driver/src/stm32f10x_exti.o
                0x0000000008008768                EXTI_Init
 .text.EXTI_GetITStatus
                0x00000000080087e8       0x1c ./Src/STM32F10x_StdPeriph_Driver/src/stm32f10x_exti.o
                0x00000000080087e8                EXTI_GetITStatus
 .text.EXTI_ClearITPendingBit
                0x0000000008008804        0xc ./Src/STM32F10x_StdPeriph_Driver/src/stm32f10x_exti.o
                0x0000000008008804                EXTI_ClearITPendingBit
 .text.FLASH_Unlock
                0x0000000008008810       0x18 ./Src/STM32F10x_StdPeriph_Driver/src/stm32f10x_flash.o
                0x0000000008008810                FLASH_Unlock
 .text.FLASH_Lock
                0x0000000008008828       0x10 ./Src/STM32F10x_StdPeriph_Driver/src/stm32f10x_flash.o
                0x0000000008008828                FLASH_Lock
 .text.FLASH_ClearFlag
                0x0000000008008838        0xc ./Src/STM32F10x_StdPeriph_Driver/src/stm32f10x_flash.o
                0x0000000008008838                FLASH_ClearFlag
 .text.FLASH_GetBank1Status
                0x0000000008008844       0x28 ./Src/STM32F10x_StdPeriph_Driver/src/stm32f10x_flash.o
                0x0000000008008844                FLASH_GetBank1Status
 .text.FLASH_WaitForLastOperation
                0x000000000800886c       0x22 ./Src/STM32F10x_StdPeriph_Driver/src/stm32f10x_flash.o
                0x000000000800886c                FLASH_WaitForLastOperation
 *fill*         0x000000000800888e        0x2 
 .text.FLASH_ErasePage
                0x0000000008008890       0x40 ./Src/STM32F10x_StdPeriph_Driver/src/stm32f10x_flash.o
                0x0000000008008890                FLASH_ErasePage
 .text.FLASH_ProgramWord
                0x00000000080088d0       0x58 ./Src/STM32F10x_StdPeriph_Driver/src/stm32f10x_flash.o
                0x00000000080088d0                FLASH_ProgramWord
 .text.GPIO_Init
                0x0000000008008928       0x9e ./Src/STM32F10x_StdPeriph_Driver/src/stm32f10x_gpio.o
                0x0000000008008928                GPIO_Init
 .text.GPIO_StructInit
                0x00000000080089c6        0xe ./Src/STM32F10x_StdPeriph_Driver/src/stm32f10x_gpio.o
                0x00000000080089c6                GPIO_StructInit
 .text.GPIO_ReadInputDataBit
                0x00000000080089d4        0xc ./Src/STM32F10x_StdPeriph_Driver/src/stm32f10x_gpio.o
                0x00000000080089d4                GPIO_ReadInputDataBit
 .text.GPIO_SetBits
                0x00000000080089e0        0x4 ./Src/STM32F10x_StdPeriph_Driver/src/stm32f10x_gpio.o
                0x00000000080089e0                GPIO_SetBits
 .text.GPIO_ResetBits
                0x00000000080089e4        0x4 ./Src/STM32F10x_StdPeriph_Driver/src/stm32f10x_gpio.o
                0x00000000080089e4                GPIO_ResetBits
 .text.GPIO_PinRemapConfig
                0x00000000080089e8       0x60 ./Src/STM32F10x_StdPeriph_Driver/src/stm32f10x_gpio.o
                0x00000000080089e8                GPIO_PinRemapConfig
 .text.GPIO_EXTILineConfig
                0x0000000008008a48       0x2a ./Src/STM32F10x_StdPeriph_Driver/src/stm32f10x_gpio.o
                0x0000000008008a48                GPIO_EXTILineConfig
 *fill*         0x0000000008008a72        0x2 
 .text.I2C_DeInit
                0x0000000008008a74       0x34 ./Src/STM32F10x_StdPeriph_Driver/src/stm32f10x_i2c.o
                0x0000000008008a74                I2C_DeInit
 .text.I2C_Init
                0x0000000008008aa8       0xd4 ./Src/STM32F10x_StdPeriph_Driver/src/stm32f10x_i2c.o
                0x0000000008008aa8                I2C_Init
 .text.I2C_DMACmd
                0x0000000008008b7c       0x18 ./Src/STM32F10x_StdPeriph_Driver/src/stm32f10x_i2c.o
                0x0000000008008b7c                I2C_DMACmd
 .text.I2C_DMALastTransferCmd
                0x0000000008008b94       0x18 ./Src/STM32F10x_StdPeriph_Driver/src/stm32f10x_i2c.o
                0x0000000008008b94                I2C_DMALastTransferCmd
 .text.I2C_AcknowledgeConfig
                0x0000000008008bac       0x18 ./Src/STM32F10x_StdPeriph_Driver/src/stm32f10x_i2c.o
                0x0000000008008bac                I2C_AcknowledgeConfig
 .text.I2C_ITConfig
                0x0000000008008bc4       0x12 ./Src/STM32F10x_StdPeriph_Driver/src/stm32f10x_i2c.o
                0x0000000008008bc4                I2C_ITConfig
 .text.I2C_SendData
                0x0000000008008bd6        0x4 ./Src/STM32F10x_StdPeriph_Driver/src/stm32f10x_i2c.o
                0x0000000008008bd6                I2C_SendData
 .text.I2C_ReceiveData
                0x0000000008008bda        0x6 ./Src/STM32F10x_StdPeriph_Driver/src/stm32f10x_i2c.o
                0x0000000008008bda                I2C_ReceiveData
 .text.I2C_Send7bitAddress
                0x0000000008008be0       0x12 ./Src/STM32F10x_StdPeriph_Driver/src/stm32f10x_i2c.o
                0x0000000008008be0                I2C_Send7bitAddress
 .text.I2C_GetFlagStatus
                0x0000000008008bf2       0x34 ./Src/STM32F10x_StdPeriph_Driver/src/stm32f10x_i2c.o
                0x0000000008008bf2                I2C_GetFlagStatus
 .text.I2C_ClearFlag
                0x0000000008008c26        0x8 ./Src/STM32F10x_StdPeriph_Driver/src/stm32f10x_i2c.o
                0x0000000008008c26                I2C_ClearFlag
 *fill*         0x0000000008008c2e        0x2 
 .text.IWDG_ReloadCounter
                0x0000000008008c30       0x10 ./Src/STM32F10x_StdPeriph_Driver/src/stm32f10x_iwdg.o
                0x0000000008008c30                IWDG_ReloadCounter
 .text.RCC_ADCCLKConfig
                0x0000000008008c40       0x14 ./Src/STM32F10x_StdPeriph_Driver/src/stm32f10x_rcc.o
                0x0000000008008c40                RCC_ADCCLKConfig
 .text.RCC_GetClocksFreq
                0x0000000008008c54       0x80 ./Src/STM32F10x_StdPeriph_Driver/src/stm32f10x_rcc.o
                0x0000000008008c54                RCC_GetClocksFreq
 .text.RCC_AHBPeriphClockCmd
                0x0000000008008cd4       0x18 ./Src/STM32F10x_StdPeriph_Driver/src/stm32f10x_rcc.o
                0x0000000008008cd4                RCC_AHBPeriphClockCmd
 .text.RCC_APB2PeriphClockCmd
                0x0000000008008cec       0x18 ./Src/STM32F10x_StdPeriph_Driver/src/stm32f10x_rcc.o
                0x0000000008008cec                RCC_APB2PeriphClockCmd
 .text.RCC_APB1PeriphClockCmd
                0x0000000008008d04       0x18 ./Src/STM32F10x_StdPeriph_Driver/src/stm32f10x_rcc.o
                0x0000000008008d04                RCC_APB1PeriphClockCmd
 .text.RCC_APB1PeriphResetCmd
                0x0000000008008d1c       0x18 ./Src/STM32F10x_StdPeriph_Driver/src/stm32f10x_rcc.o
                0x0000000008008d1c                RCC_APB1PeriphResetCmd
 .text.SPI_Init
                0x0000000008008d34       0x3e ./Src/STM32F10x_StdPeriph_Driver/src/stm32f10x_spi.o
                0x0000000008008d34                SPI_Init
 .text.SPI_Cmd  0x0000000008008d72       0x18 ./Src/STM32F10x_StdPeriph_Driver/src/stm32f10x_spi.o
                0x0000000008008d72                SPI_Cmd
 .text.SPI_I2S_SendData
                0x0000000008008d8a        0x4 ./Src/STM32F10x_StdPeriph_Driver/src/stm32f10x_spi.o
                0x0000000008008d8a                SPI_I2S_SendData
 .text.SPI_I2S_ReceiveData
                0x0000000008008d8e        0x6 ./Src/STM32F10x_StdPeriph_Driver/src/stm32f10x_spi.o
                0x0000000008008d8e                SPI_I2S_ReceiveData
 .text.SPI_I2S_GetFlagStatus
                0x0000000008008d94        0xc ./Src/STM32F10x_StdPeriph_Driver/src/stm32f10x_spi.o
                0x0000000008008d94                SPI_I2S_GetFlagStatus
 .text.TI1_Config
                0x0000000008008da0       0x6c ./Src/STM32F10x_StdPeriph_Driver/src/stm32f10x_tim.o
 .text.TI2_Config
                0x0000000008008e0c       0x78 ./Src/STM32F10x_StdPeriph_Driver/src/stm32f10x_tim.o
 .text.TIM_TimeBaseInit
                0x0000000008008e84       0x94 ./Src/STM32F10x_StdPeriph_Driver/src/stm32f10x_tim.o
                0x0000000008008e84                TIM_TimeBaseInit
 .text.TIM_OC1Init
                0x0000000008008f18       0x88 ./Src/STM32F10x_StdPeriph_Driver/src/stm32f10x_tim.o
                0x0000000008008f18                TIM_OC1Init
 .text.TIM_OC2Init
                0x0000000008008fa0       0x80 ./Src/STM32F10x_StdPeriph_Driver/src/stm32f10x_tim.o
                0x0000000008008fa0                TIM_OC2Init
 .text.TIM_OC3Init
                0x0000000008009020       0x7c ./Src/STM32F10x_StdPeriph_Driver/src/stm32f10x_tim.o
                0x0000000008009020                TIM_OC3Init
 .text.TIM_OC4Init
                0x000000000800909c       0x68 ./Src/STM32F10x_StdPeriph_Driver/src/stm32f10x_tim.o
                0x000000000800909c                TIM_OC4Init
 .text.TIM_TimeBaseStructInit
                0x0000000008009104       0x12 ./Src/STM32F10x_StdPeriph_Driver/src/stm32f10x_tim.o
                0x0000000008009104                TIM_TimeBaseStructInit
 .text.TIM_ICStructInit
                0x0000000008009116       0x10 ./Src/STM32F10x_StdPeriph_Driver/src/stm32f10x_tim.o
                0x0000000008009116                TIM_ICStructInit
 .text.TIM_Cmd  0x0000000008009126       0x18 ./Src/STM32F10x_StdPeriph_Driver/src/stm32f10x_tim.o
                0x0000000008009126                TIM_Cmd
 .text.TIM_CtrlPWMOutputs
                0x000000000800913e       0x1c ./Src/STM32F10x_StdPeriph_Driver/src/stm32f10x_tim.o
                0x000000000800913e                TIM_CtrlPWMOutputs
 .text.TIM_ITConfig
                0x000000000800915a       0x12 ./Src/STM32F10x_StdPeriph_Driver/src/stm32f10x_tim.o
                0x000000000800915a                TIM_ITConfig
 .text.TIM_EncoderInterfaceConfig
                0x000000000800916c       0x3e ./Src/STM32F10x_StdPeriph_Driver/src/stm32f10x_tim.o
                0x000000000800916c                TIM_EncoderInterfaceConfig
 .text.TIM_OC1PreloadConfig
                0x00000000080091aa       0x10 ./Src/STM32F10x_StdPeriph_Driver/src/stm32f10x_tim.o
                0x00000000080091aa                TIM_OC1PreloadConfig
 .text.TIM_OC2PreloadConfig
                0x00000000080091ba       0x14 ./Src/STM32F10x_StdPeriph_Driver/src/stm32f10x_tim.o
                0x00000000080091ba                TIM_OC2PreloadConfig
 .text.TIM_OC3PreloadConfig
                0x00000000080091ce       0x10 ./Src/STM32F10x_StdPeriph_Driver/src/stm32f10x_tim.o
                0x00000000080091ce                TIM_OC3PreloadConfig
 .text.TIM_OC4PreloadConfig
                0x00000000080091de       0x14 ./Src/STM32F10x_StdPeriph_Driver/src/stm32f10x_tim.o
                0x00000000080091de                TIM_OC4PreloadConfig
 .text.TIM_SetCounter
                0x00000000080091f2        0x4 ./Src/STM32F10x_StdPeriph_Driver/src/stm32f10x_tim.o
                0x00000000080091f2                TIM_SetCounter
 .text.TIM_SetIC1Prescaler
                0x00000000080091f6       0x16 ./Src/STM32F10x_StdPeriph_Driver/src/stm32f10x_tim.o
                0x00000000080091f6                TIM_SetIC1Prescaler
 .text.TIM_SetIC2Prescaler
                0x000000000800920c       0x1a ./Src/STM32F10x_StdPeriph_Driver/src/stm32f10x_tim.o
                0x000000000800920c                TIM_SetIC2Prescaler
 .text.TIM_SetIC3Prescaler
                0x0000000008009226       0x16 ./Src/STM32F10x_StdPeriph_Driver/src/stm32f10x_tim.o
                0x0000000008009226                TIM_SetIC3Prescaler
 .text.TIM_SetIC4Prescaler
                0x000000000800923c       0x1a ./Src/STM32F10x_StdPeriph_Driver/src/stm32f10x_tim.o
                0x000000000800923c                TIM_SetIC4Prescaler
 *fill*         0x0000000008009256        0x2 
 .text.TIM_ICInit
                0x0000000008009258      0x12c ./Src/STM32F10x_StdPeriph_Driver/src/stm32f10x_tim.o
                0x0000000008009258                TIM_ICInit
 .text.TIM_ClearFlag
                0x0000000008009384        0x8 ./Src/STM32F10x_StdPeriph_Driver/src/stm32f10x_tim.o
                0x0000000008009384                TIM_ClearFlag
 .text.TIM_GetITStatus
                0x000000000800938c       0x16 ./Src/STM32F10x_StdPeriph_Driver/src/stm32f10x_tim.o
                0x000000000800938c                TIM_GetITStatus
 .text.TIM_ClearITPendingBit
                0x00000000080093a2        0x8 ./Src/STM32F10x_StdPeriph_Driver/src/stm32f10x_tim.o
                0x00000000080093a2                TIM_ClearITPendingBit
 *fill*         0x00000000080093aa        0x2 
 .text.USART_Init
                0x00000000080093ac       0xa4 ./Src/STM32F10x_StdPeriph_Driver/src/stm32f10x_usart.o
                0x00000000080093ac                USART_Init
 .text.USART_ClockInit
                0x0000000008009450       0x20 ./Src/STM32F10x_StdPeriph_Driver/src/stm32f10x_usart.o
                0x0000000008009450                USART_ClockInit
 .text.USART_Cmd
                0x0000000008009470       0x18 ./Src/STM32F10x_StdPeriph_Driver/src/stm32f10x_usart.o
                0x0000000008009470                USART_Cmd
 .text.USART_ITConfig
                0x0000000008009488       0x32 ./Src/STM32F10x_StdPeriph_Driver/src/stm32f10x_usart.o
                0x0000000008009488                USART_ITConfig
 .text.USART_SendData
                0x00000000080094ba        0x8 ./Src/STM32F10x_StdPeriph_Driver/src/stm32f10x_usart.o
                0x00000000080094ba                USART_SendData
 .text.USART_ReceiveData
                0x00000000080094c2        0x8 ./Src/STM32F10x_StdPeriph_Driver/src/stm32f10x_usart.o
                0x00000000080094c2                USART_ReceiveData
 .text.USART_GetFlagStatus
                0x00000000080094ca        0xc ./Src/STM32F10x_StdPeriph_Driver/src/stm32f10x_usart.o
                0x00000000080094ca                USART_GetFlagStatus
 .text.USART_GetITStatus
                0x00000000080094d6       0x3c ./Src/STM32F10x_StdPeriph_Driver/src/stm32f10x_usart.o
                0x00000000080094d6                USART_GetITStatus
 *fill*         0x0000000008009512        0x2 
 .text.lpf2pSetCutoffFreq
                0x0000000008009514       0x98 ./Src/System/filter.o
                0x0000000008009514                lpf2pSetCutoffFreq
 .text.lpf2pInit
                0x00000000080095ac       0x24 ./Src/System/filter.o
                0x00000000080095ac                lpf2pInit
 .text.nrf_interruptCallback
                0x00000000080095d0       0x1c ./Src/System/radio.o
 .text.radiolinkInit
                0x00000000080095ec       0x64 ./Src/System/radio.o
                0x00000000080095ec                radiolinkInit
 .text.ParseRadioMsg
                0x0000000008009650      0x2e4 ./Src/System/radio.o
                0x0000000008009650                ParseRadioMsg
 .text.RadioTask
                0x0000000008009934      0x100 ./Src/System/radio.o
                0x0000000008009934                RadioTask
 .text.radiolinkConnectStatus
                0x0000000008009a34        0xc ./Src/System/radio.o
                0x0000000008009a34                radiolinkConnectStatus
 .text.sensorsReadGyro
                0x0000000008009a40       0x1c ./Src/System/sensors.o
                0x0000000008009a40                sensorsReadGyro
 .text.sensorsReadAcc
                0x0000000008009a5c       0x1c ./Src/System/sensors.o
                0x0000000008009a5c                sensorsReadAcc
 .text.sensorsReadMag
                0x0000000008009a78       0x1c ./Src/System/sensors.o
                0x0000000008009a78                sensorsReadMag
 .text.sensorsInterruptInit
                0x0000000008009a94       0x70 ./Src/System/sensors.o
                0x0000000008009a94                sensorsInterruptInit
 .text.sensorsDeviceInit
                0x0000000008009b04      0x128 ./Src/System/sensors.o
                0x0000000008009b04                sensorsDeviceInit
 .text.sensorsInit
                0x0000000008009c2c       0x3c ./Src/System/sensors.o
                0x0000000008009c2c                sensorsInit
 .text.sensorsSetupSlaveRead
                0x0000000008009c68       0x7c ./Src/System/sensors.o
                0x0000000008009c68                sensorsSetupSlaveRead
 .text.Get_AccGyroData
                0x0000000008009ce4       0xdc ./Src/System/sensors.o
                0x0000000008009ce4                Get_AccGyroData
 .text.Get_MagData
                0x0000000008009dc0       0x40 ./Src/System/sensors.o
                0x0000000008009dc0                Get_MagData
 .text.sensorsAcquire
                0x0000000008009e00       0x1c ./Src/System/sensors.o
                0x0000000008009e00                sensorsAcquire
 *fill*         0x0000000008009e1c        0x4 
 .text.SensorTask
                0x0000000008009e20      0x278 ./Src/System/sensors.o
                0x0000000008009e20                SensorTask
 .text.EXTI2_IRQHandler
                0x000000000800a098       0x44 ./Src/System/sensors.o
                0x000000000800a098                EXTI2_IRQHandler
 .text.scan_files
                0x000000000800a0dc       0x88 ./Src/System/utils.o
                0x000000000800a0dc                scan_files
 .text.FileSystem_Init
                0x000000000800a164      0x134 ./Src/System/utils.o
                0x000000000800a164                FileSystem_Init
 .text.assertFail
                0x000000000800a298       0x30 ./Src/System/utils.o
                0x000000000800a298                assertFail
 .text.CRC_Table
                0x000000000800a2c8       0x2c ./Src/System/utils.o
                0x000000000800a2c8                CRC_Table
 .text.startTask
                0x000000000800a2f4      0x104 ./Src/User/main.o
 .text.startup.main
                0x000000000800a3f8       0xac ./Src/User/main.o
                0x000000000800a3f8                main
 .text.vApplicationIdleHook
                0x000000000800a4a4       0x1c ./Src/User/main.o
                0x000000000800a4a4                vApplicationIdleHook
 .text.vApplicationMallocFailedHook
                0x000000000800a4c0       0x2c ./Src/User/main.o
                0x000000000800a4c0                vApplicationMallocFailedHook
 .text.vApplicationStackOverflowHook
                0x000000000800a4ec       0x2c ./Src/User/main.o
                0x000000000800a4ec                vApplicationStackOverflowHook
 .text.NMI_Handler
                0x000000000800a518        0x2 ./Src/User/stm32f10x_it.o
                0x000000000800a518                NMI_Handler
 .text.MemManage_Handler
                0x000000000800a51a        0x2 ./Src/User/stm32f10x_it.o
                0x000000000800a51a                MemManage_Handler
 .text.BusFault_Handler
                0x000000000800a51c        0x2 ./Src/User/stm32f10x_it.o
                0x000000000800a51c                BusFault_Handler
 .text.UsageFault_Handler
                0x000000000800a51e        0x2 ./Src/User/stm32f10x_it.o
                0x000000000800a51e                UsageFault_Handler
 .text.DebugMon_Handler
                0x000000000800a520        0x2 ./Src/User/stm32f10x_it.o
                0x000000000800a520                DebugMon_Handler
 *fill*         0x000000000800a522        0x2 
 .text.SysTick_Handler
                0x000000000800a524       0x20 ./Src/User/stm32f10x_it.o
                0x000000000800a524                SysTick_Handler
 .text.getSysTickCnt
                0x000000000800a544       0x1c ./Src/User/stm32f10x_it.o
                0x000000000800a544                getSysTickCnt
 .text.atan     0x000000000800a560      0x314 D:/Program Files/STM32CubeIDE_1.10.1/STM32CubeIDE/plugins/com.st.stm32cube.ide.mcu.externaltools.gnu-tools-for-stm32.11.3.rel1.win32_1.1.1.202309131626/tools/bin/../lib/gcc/arm-none-eabi/11.3.1/../../../../arm-none-eabi/lib/thumb/v7-m/nofp\libm.a(libm_a-s_atan.o)
                0x000000000800a560                atan
 .text.fabs     0x000000000800a874        0x8 D:/Program Files/STM32CubeIDE_1.10.1/STM32CubeIDE/plugins/com.st.stm32cube.ide.mcu.externaltools.gnu-tools-for-stm32.11.3.rel1.win32_1.1.1.202309131626/tools/bin/../lib/gcc/arm-none-eabi/11.3.1/../../../../arm-none-eabi/lib/thumb/v7-m/nofp\libm.a(libm_a-s_fabs.o)
                0x000000000800a874                fabs
 .text.tanf     0x000000000800a87c       0x4c D:/Program Files/STM32CubeIDE_1.10.1/STM32CubeIDE/plugins/com.st.stm32cube.ide.mcu.externaltools.gnu-tools-for-stm32.11.3.rel1.win32_1.1.1.202309131626/tools/bin/../lib/gcc/arm-none-eabi/11.3.1/../../../../arm-none-eabi/lib/thumb/v7-m/nofp\libm.a(libm_a-sf_tan.o)
                0x000000000800a87c                tanf
 .text.__kernel_tanf
                0x000000000800a8c8      0x258 D:/Program Files/STM32CubeIDE_1.10.1/STM32CubeIDE/plugins/com.st.stm32cube.ide.mcu.externaltools.gnu-tools-for-stm32.11.3.rel1.win32_1.1.1.202309131626/tools/bin/../lib/gcc/arm-none-eabi/11.3.1/../../../../arm-none-eabi/lib/thumb/v7-m/nofp\libm.a(libm_a-kf_tan.o)
                0x000000000800a8c8                __kernel_tanf
 .text.__ieee754_rem_pio2f
                0x000000000800ab20      0x2bc D:/Program Files/STM32CubeIDE_1.10.1/STM32CubeIDE/plugins/com.st.stm32cube.ide.mcu.externaltools.gnu-tools-for-stm32.11.3.rel1.win32_1.1.1.202309131626/tools/bin/../lib/gcc/arm-none-eabi/11.3.1/../../../../arm-none-eabi/lib/thumb/v7-m/nofp\libm.a(libm_a-ef_rem_pio2.o)
                0x000000000800ab20                __ieee754_rem_pio2f
 .text.fabsf    0x000000000800addc        0x6 D:/Program Files/STM32CubeIDE_1.10.1/STM32CubeIDE/plugins/com.st.stm32cube.ide.mcu.externaltools.gnu-tools-for-stm32.11.3.rel1.win32_1.1.1.202309131626/tools/bin/../lib/gcc/arm-none-eabi/11.3.1/../../../../arm-none-eabi/lib/thumb/v7-m/nofp\libm.a(libm_a-sf_fabs.o)
                0x000000000800addc                fabsf
 *fill*         0x000000000800ade2        0x2 
 .text.__kernel_rem_pio2f
                0x000000000800ade4      0x568 D:/Program Files/STM32CubeIDE_1.10.1/STM32CubeIDE/plugins/com.st.stm32cube.ide.mcu.externaltools.gnu-tools-for-stm32.11.3.rel1.win32_1.1.1.202309131626/tools/bin/../lib/gcc/arm-none-eabi/11.3.1/../../../../arm-none-eabi/lib/thumb/v7-m/nofp\libm.a(libm_a-kf_rem_pio2.o)
                0x000000000800ade4                __kernel_rem_pio2f
 .text.scalbnf  0x000000000800b34c       0x98 D:/Program Files/STM32CubeIDE_1.10.1/STM32CubeIDE/plugins/com.st.stm32cube.ide.mcu.externaltools.gnu-tools-for-stm32.11.3.rel1.win32_1.1.1.202309131626/tools/bin/../lib/gcc/arm-none-eabi/11.3.1/../../../../arm-none-eabi/lib/thumb/v7-m/nofp\libm.a(libm_a-sf_scalbn.o)
                0x000000000800b34c                scalbnf
 .text.floorf   0x000000000800b3e4       0x80 D:/Program Files/STM32CubeIDE_1.10.1/STM32CubeIDE/plugins/com.st.stm32cube.ide.mcu.externaltools.gnu-tools-for-stm32.11.3.rel1.win32_1.1.1.202309131626/tools/bin/../lib/gcc/arm-none-eabi/11.3.1/../../../../arm-none-eabi/lib/thumb/v7-m/nofp\libm.a(libm_a-sf_floor.o)
                0x000000000800b3e4                floorf
 .text.__cvt    0x000000000800b464       0xbe D:/Program Files/STM32CubeIDE_1.10.1/STM32CubeIDE/plugins/com.st.stm32cube.ide.mcu.externaltools.gnu-tools-for-stm32.11.3.rel1.win32_1.1.1.202309131626/tools/bin/../lib/gcc/arm-none-eabi/11.3.1/../../../../arm-none-eabi/lib/thumb/v7-m/nofp\libc_nano.a(libc_a-nano-vfprintf_float.o)
                0x000000000800b464                __cvt
 .text.__exponent
                0x000000000800b522       0x7a D:/Program Files/STM32CubeIDE_1.10.1/STM32CubeIDE/plugins/com.st.stm32cube.ide.mcu.externaltools.gnu-tools-for-stm32.11.3.rel1.win32_1.1.1.202309131626/tools/bin/../lib/gcc/arm-none-eabi/11.3.1/../../../../arm-none-eabi/lib/thumb/v7-m/nofp\libc_nano.a(libc_a-nano-vfprintf_float.o)
                0x000000000800b522                __exponent
 .text._printf_float
                0x000000000800b59c      0x45c D:/Program Files/STM32CubeIDE_1.10.1/STM32CubeIDE/plugins/com.st.stm32cube.ide.mcu.externaltools.gnu-tools-for-stm32.11.3.rel1.win32_1.1.1.202309131626/tools/bin/../lib/gcc/arm-none-eabi/11.3.1/../../../../arm-none-eabi/lib/thumb/v7-m/nofp\libc_nano.a(libc_a-nano-vfprintf_float.o)
                0x000000000800b59c                _printf_float
 .text._printf_common
                0x000000000800b9f8       0xe4 D:/Program Files/STM32CubeIDE_1.10.1/STM32CubeIDE/plugins/com.st.stm32cube.ide.mcu.externaltools.gnu-tools-for-stm32.11.3.rel1.win32_1.1.1.202309131626/tools/bin/../lib/gcc/arm-none-eabi/11.3.1/../../../../arm-none-eabi/lib/thumb/v7-m/nofp\libc_nano.a(libc_a-nano-vfprintf_i.o)
                0x000000000800b9f8                _printf_common
 .text._printf_i
                0x000000000800badc      0x244 D:/Program Files/STM32CubeIDE_1.10.1/STM32CubeIDE/plugins/com.st.stm32cube.ide.mcu.externaltools.gnu-tools-for-stm32.11.3.rel1.win32_1.1.1.202309131626/tools/bin/../lib/gcc/arm-none-eabi/11.3.1/../../../../arm-none-eabi/lib/thumb/v7-m/nofp\libc_nano.a(libc_a-nano-vfprintf_i.o)
                0x000000000800badc                _printf_i
 .text._scanf_float
                0x000000000800bd20      0x41c D:/Program Files/STM32CubeIDE_1.10.1/STM32CubeIDE/plugins/com.st.stm32cube.ide.mcu.externaltools.gnu-tools-for-stm32.11.3.rel1.win32_1.1.1.202309131626/tools/bin/../lib/gcc/arm-none-eabi/11.3.1/../../../../arm-none-eabi/lib/thumb/v7-m/nofp\libc_nano.a(libc_a-nano-vfscanf_float.o)
                0x000000000800bd20                _scanf_float
 .text.std      0x000000000800c13c       0x6c D:/Program Files/STM32CubeIDE_1.10.1/STM32CubeIDE/plugins/com.st.stm32cube.ide.mcu.externaltools.gnu-tools-for-stm32.11.3.rel1.win32_1.1.1.202309131626/tools/bin/../lib/gcc/arm-none-eabi/11.3.1/../../../../arm-none-eabi/lib/thumb/v7-m/nofp\libc_nano.a(libc_a-findfp.o)
 .text.stdio_exit_handler
                0x000000000800c1a8       0x18 D:/Program Files/STM32CubeIDE_1.10.1/STM32CubeIDE/plugins/com.st.stm32cube.ide.mcu.externaltools.gnu-tools-for-stm32.11.3.rel1.win32_1.1.1.202309131626/tools/bin/../lib/gcc/arm-none-eabi/11.3.1/../../../../arm-none-eabi/lib/thumb/v7-m/nofp\libc_nano.a(libc_a-findfp.o)
 .text.cleanup_stdio
                0x000000000800c1c0       0x40 D:/Program Files/STM32CubeIDE_1.10.1/STM32CubeIDE/plugins/com.st.stm32cube.ide.mcu.externaltools.gnu-tools-for-stm32.11.3.rel1.win32_1.1.1.202309131626/tools/bin/../lib/gcc/arm-none-eabi/11.3.1/../../../../arm-none-eabi/lib/thumb/v7-m/nofp\libc_nano.a(libc_a-findfp.o)
 .text.global_stdio_init.part.0
                0x000000000800c200       0x3c D:/Program Files/STM32CubeIDE_1.10.1/STM32CubeIDE/plugins/com.st.stm32cube.ide.mcu.externaltools.gnu-tools-for-stm32.11.3.rel1.win32_1.1.1.202309131626/tools/bin/../lib/gcc/arm-none-eabi/11.3.1/../../../../arm-none-eabi/lib/thumb/v7-m/nofp\libc_nano.a(libc_a-findfp.o)
 .text.__sfp_lock_acquire
                0x000000000800c23c        0xc D:/Program Files/STM32CubeIDE_1.10.1/STM32CubeIDE/plugins/com.st.stm32cube.ide.mcu.externaltools.gnu-tools-for-stm32.11.3.rel1.win32_1.1.1.202309131626/tools/bin/../lib/gcc/arm-none-eabi/11.3.1/../../../../arm-none-eabi/lib/thumb/v7-m/nofp\libc_nano.a(libc_a-findfp.o)
                0x000000000800c23c                __sfp_lock_acquire
 .text.__sfp_lock_release
                0x000000000800c248        0xc D:/Program Files/STM32CubeIDE_1.10.1/STM32CubeIDE/plugins/com.st.stm32cube.ide.mcu.externaltools.gnu-tools-for-stm32.11.3.rel1.win32_1.1.1.202309131626/tools/bin/../lib/gcc/arm-none-eabi/11.3.1/../../../../arm-none-eabi/lib/thumb/v7-m/nofp\libc_nano.a(libc_a-findfp.o)
                0x000000000800c248                __sfp_lock_release
 .text.__sinit  0x000000000800c254       0x30 D:/Program Files/STM32CubeIDE_1.10.1/STM32CubeIDE/plugins/com.st.stm32cube.ide.mcu.externaltools.gnu-tools-for-stm32.11.3.rel1.win32_1.1.1.202309131626/tools/bin/../lib/gcc/arm-none-eabi/11.3.1/../../../../arm-none-eabi/lib/thumb/v7-m/nofp\libc_nano.a(libc_a-findfp.o)
                0x000000000800c254                __sinit
 .text._fwalk_sglue
                0x000000000800c284       0x3c D:/Program Files/STM32CubeIDE_1.10.1/STM32CubeIDE/plugins/com.st.stm32cube.ide.mcu.externaltools.gnu-tools-for-stm32.11.3.rel1.win32_1.1.1.202309131626/tools/bin/../lib/gcc/arm-none-eabi/11.3.1/../../../../arm-none-eabi/lib/thumb/v7-m/nofp\libc_nano.a(libc_a-fwalk.o)
                0x000000000800c284                _fwalk_sglue
 .text.printf   0x000000000800c2c0       0x24 D:/Program Files/STM32CubeIDE_1.10.1/STM32CubeIDE/plugins/com.st.stm32cube.ide.mcu.externaltools.gnu-tools-for-stm32.11.3.rel1.win32_1.1.1.202309131626/tools/bin/../lib/gcc/arm-none-eabi/11.3.1/../../../../arm-none-eabi/lib/thumb/v7-m/nofp\libc_nano.a(libc_a-printf.o)
                0x000000000800c2c0                iprintf
                0x000000000800c2c0                printf
 .text._puts_r  0x000000000800c2e4       0xa8 D:/Program Files/STM32CubeIDE_1.10.1/STM32CubeIDE/plugins/com.st.stm32cube.ide.mcu.externaltools.gnu-tools-for-stm32.11.3.rel1.win32_1.1.1.202309131626/tools/bin/../lib/gcc/arm-none-eabi/11.3.1/../../../../arm-none-eabi/lib/thumb/v7-m/nofp\libc_nano.a(libc_a-puts.o)
                0x000000000800c2e4                _puts_r
 .text.puts     0x000000000800c38c       0x10 D:/Program Files/STM32CubeIDE_1.10.1/STM32CubeIDE/plugins/com.st.stm32cube.ide.mcu.externaltools.gnu-tools-for-stm32.11.3.rel1.win32_1.1.1.202309131626/tools/bin/../lib/gcc/arm-none-eabi/11.3.1/../../../../arm-none-eabi/lib/thumb/v7-m/nofp\libc_nano.a(libc_a-puts.o)
                0x000000000800c38c                puts
 .text.sprintf  0x000000000800c39c       0x40 D:/Program Files/STM32CubeIDE_1.10.1/STM32CubeIDE/plugins/com.st.stm32cube.ide.mcu.externaltools.gnu-tools-for-stm32.11.3.rel1.win32_1.1.1.202309131626/tools/bin/../lib/gcc/arm-none-eabi/11.3.1/../../../../arm-none-eabi/lib/thumb/v7-m/nofp\libc_nano.a(libc_a-sprintf.o)
                0x000000000800c39c                siprintf
                0x000000000800c39c                sprintf
 .text.__sread  0x000000000800c3dc       0x22 D:/Program Files/STM32CubeIDE_1.10.1/STM32CubeIDE/plugins/com.st.stm32cube.ide.mcu.externaltools.gnu-tools-for-stm32.11.3.rel1.win32_1.1.1.202309131626/tools/bin/../lib/gcc/arm-none-eabi/11.3.1/../../../../arm-none-eabi/lib/thumb/v7-m/nofp\libc_nano.a(libc_a-stdio.o)
                0x000000000800c3dc                __sread
 .text.__swrite
                0x000000000800c3fe       0x38 D:/Program Files/STM32CubeIDE_1.10.1/STM32CubeIDE/plugins/com.st.stm32cube.ide.mcu.externaltools.gnu-tools-for-stm32.11.3.rel1.win32_1.1.1.202309131626/tools/bin/../lib/gcc/arm-none-eabi/11.3.1/../../../../arm-none-eabi/lib/thumb/v7-m/nofp\libc_nano.a(libc_a-stdio.o)
                0x000000000800c3fe                __swrite
 .text.__sseek  0x000000000800c436       0x24 D:/Program Files/STM32CubeIDE_1.10.1/STM32CubeIDE/plugins/com.st.stm32cube.ide.mcu.externaltools.gnu-tools-for-stm32.11.3.rel1.win32_1.1.1.202309131626/tools/bin/../lib/gcc/arm-none-eabi/11.3.1/../../../../arm-none-eabi/lib/thumb/v7-m/nofp\libc_nano.a(libc_a-stdio.o)
                0x000000000800c436                __sseek
 .text.__sclose
                0x000000000800c45a        0x8 D:/Program Files/STM32CubeIDE_1.10.1/STM32CubeIDE/plugins/com.st.stm32cube.ide.mcu.externaltools.gnu-tools-for-stm32.11.3.rel1.win32_1.1.1.202309131626/tools/bin/../lib/gcc/arm-none-eabi/11.3.1/../../../../arm-none-eabi/lib/thumb/v7-m/nofp\libc_nano.a(libc_a-stdio.o)
                0x000000000800c45a                __sclose
 .text.__swbuf_r
                0x000000000800c462       0x7a D:/Program Files/STM32CubeIDE_1.10.1/STM32CubeIDE/plugins/com.st.stm32cube.ide.mcu.externaltools.gnu-tools-for-stm32.11.3.rel1.win32_1.1.1.202309131626/tools/bin/../lib/gcc/arm-none-eabi/11.3.1/../../../../arm-none-eabi/lib/thumb/v7-m/nofp\libc_nano.a(libc_a-wbuf.o)
                0x000000000800c462                __swbuf_r
 .text.__swsetup_r
                0x000000000800c4dc       0xb0 D:/Program Files/STM32CubeIDE_1.10.1/STM32CubeIDE/plugins/com.st.stm32cube.ide.mcu.externaltools.gnu-tools-for-stm32.11.3.rel1.win32_1.1.1.202309131626/tools/bin/../lib/gcc/arm-none-eabi/11.3.1/../../../../arm-none-eabi/lib/thumb/v7-m/nofp\libc_nano.a(libc_a-wsetup.o)
                0x000000000800c4dc                __swsetup_r
 .text.memset   0x000000000800c58c       0x10 D:/Program Files/STM32CubeIDE_1.10.1/STM32CubeIDE/plugins/com.st.stm32cube.ide.mcu.externaltools.gnu-tools-for-stm32.11.3.rel1.win32_1.1.1.202309131626/tools/bin/../lib/gcc/arm-none-eabi/11.3.1/../../../../arm-none-eabi/lib/thumb/v7-m/nofp\libc_nano.a(libc_a-memset.o)
                0x000000000800c58c                memset
 .text._localeconv_r
                0x000000000800c59c        0x8 D:/Program Files/STM32CubeIDE_1.10.1/STM32CubeIDE/plugins/com.st.stm32cube.ide.mcu.externaltools.gnu-tools-for-stm32.11.3.rel1.win32_1.1.1.202309131626/tools/bin/../lib/gcc/arm-none-eabi/11.3.1/../../../../arm-none-eabi/lib/thumb/v7-m/nofp\libc_nano.a(libc_a-localeconv.o)
                0x000000000800c59c                _localeconv_r
 .text._close_r
                0x000000000800c5a4       0x20 D:/Program Files/STM32CubeIDE_1.10.1/STM32CubeIDE/plugins/com.st.stm32cube.ide.mcu.externaltools.gnu-tools-for-stm32.11.3.rel1.win32_1.1.1.202309131626/tools/bin/../lib/gcc/arm-none-eabi/11.3.1/../../../../arm-none-eabi/lib/thumb/v7-m/nofp\libc_nano.a(libc_a-closer.o)
                0x000000000800c5a4                _close_r
 .text._lseek_r
                0x000000000800c5c4       0x24 D:/Program Files/STM32CubeIDE_1.10.1/STM32CubeIDE/plugins/com.st.stm32cube.ide.mcu.externaltools.gnu-tools-for-stm32.11.3.rel1.win32_1.1.1.202309131626/tools/bin/../lib/gcc/arm-none-eabi/11.3.1/../../../../arm-none-eabi/lib/thumb/v7-m/nofp\libc_nano.a(libc_a-lseekr.o)
                0x000000000800c5c4                _lseek_r
 .text._read_r  0x000000000800c5e8       0x24 D:/Program Files/STM32CubeIDE_1.10.1/STM32CubeIDE/plugins/com.st.stm32cube.ide.mcu.externaltools.gnu-tools-for-stm32.11.3.rel1.win32_1.1.1.202309131626/tools/bin/../lib/gcc/arm-none-eabi/11.3.1/../../../../arm-none-eabi/lib/thumb/v7-m/nofp\libc_nano.a(libc_a-readr.o)
                0x000000000800c5e8                _read_r
 .text._write_r
                0x000000000800c60c       0x24 D:/Program Files/STM32CubeIDE_1.10.1/STM32CubeIDE/plugins/com.st.stm32cube.ide.mcu.externaltools.gnu-tools-for-stm32.11.3.rel1.win32_1.1.1.202309131626/tools/bin/../lib/gcc/arm-none-eabi/11.3.1/../../../../arm-none-eabi/lib/thumb/v7-m/nofp\libc_nano.a(libc_a-writer.o)
                0x000000000800c60c                _write_r
 .text.__errno  0x000000000800c630        0xc D:/Program Files/STM32CubeIDE_1.10.1/STM32CubeIDE/plugins/com.st.stm32cube.ide.mcu.externaltools.gnu-tools-for-stm32.11.3.rel1.win32_1.1.1.202309131626/tools/bin/../lib/gcc/arm-none-eabi/11.3.1/../../../../arm-none-eabi/lib/thumb/v7-m/nofp\libc_nano.a(libc_a-errno.o)
                0x000000000800c630                __errno
 .text.__retarget_lock_init_recursive
                0x000000000800c63c        0x2 D:/Program Files/STM32CubeIDE_1.10.1/STM32CubeIDE/plugins/com.st.stm32cube.ide.mcu.externaltools.gnu-tools-for-stm32.11.3.rel1.win32_1.1.1.202309131626/tools/bin/../lib/gcc/arm-none-eabi/11.3.1/../../../../arm-none-eabi/lib/thumb/v7-m/nofp\libc_nano.a(libc_a-lock.o)
                0x000000000800c63c                __retarget_lock_init_recursive
 .text.__retarget_lock_acquire_recursive
                0x000000000800c63e        0x2 D:/Program Files/STM32CubeIDE_1.10.1/STM32CubeIDE/plugins/com.st.stm32cube.ide.mcu.externaltools.gnu-tools-for-stm32.11.3.rel1.win32_1.1.1.202309131626/tools/bin/../lib/gcc/arm-none-eabi/11.3.1/../../../../arm-none-eabi/lib/thumb/v7-m/nofp\libc_nano.a(libc_a-lock.o)
                0x000000000800c63e                __retarget_lock_acquire_recursive
 .text.__retarget_lock_release_recursive
                0x000000000800c640        0x2 D:/Program Files/STM32CubeIDE_1.10.1/STM32CubeIDE/plugins/com.st.stm32cube.ide.mcu.externaltools.gnu-tools-for-stm32.11.3.rel1.win32_1.1.1.202309131626/tools/bin/../lib/gcc/arm-none-eabi/11.3.1/../../../../arm-none-eabi/lib/thumb/v7-m/nofp\libc_nano.a(libc_a-lock.o)
                0x000000000800c640                __retarget_lock_release_recursive
 .text.strcpy   0x000000000800c642       0x10 D:/Program Files/STM32CubeIDE_1.10.1/STM32CubeIDE/plugins/com.st.stm32cube.ide.mcu.externaltools.gnu-tools-for-stm32.11.3.rel1.win32_1.1.1.202309131626/tools/bin/../lib/gcc/arm-none-eabi/11.3.1/../../../../arm-none-eabi/lib/thumb/v7-m/nofp\libc_nano.a(libc_a-strcpy.o)
                0x000000000800c642                strcpy
 .text.memchr   0x000000000800c652       0x1c D:/Program Files/STM32CubeIDE_1.10.1/STM32CubeIDE/plugins/com.st.stm32cube.ide.mcu.externaltools.gnu-tools-for-stm32.11.3.rel1.win32_1.1.1.202309131626/tools/bin/../lib/gcc/arm-none-eabi/11.3.1/../../../../arm-none-eabi/lib/thumb/v7-m/nofp\libc_nano.a(libc_a-memchr-stub.o)
                0x000000000800c652                memchr
 .text.memcpy   0x000000000800c66e       0x1c D:/Program Files/STM32CubeIDE_1.10.1/STM32CubeIDE/plugins/com.st.stm32cube.ide.mcu.externaltools.gnu-tools-for-stm32.11.3.rel1.win32_1.1.1.202309131626/tools/bin/../lib/gcc/arm-none-eabi/11.3.1/../../../../arm-none-eabi/lib/thumb/v7-m/nofp\libc_nano.a(libc_a-memcpy-stub.o)
                0x000000000800c66e                memcpy
 *fill*         0x000000000800c68a        0x2 
 .text.nanf     0x000000000800c68c        0x8 D:/Program Files/STM32CubeIDE_1.10.1/STM32CubeIDE/plugins/com.st.stm32cube.ide.mcu.externaltools.gnu-tools-for-stm32.11.3.rel1.win32_1.1.1.202309131626/tools/bin/../lib/gcc/arm-none-eabi/11.3.1/../../../../arm-none-eabi/lib/thumb/v7-m/nofp\libc_nano.a(libm_a-sf_nan.o)
                0x000000000800c68c                nanf
 .text.quorem   0x000000000800c694      0x112 D:/Program Files/STM32CubeIDE_1.10.1/STM32CubeIDE/plugins/com.st.stm32cube.ide.mcu.externaltools.gnu-tools-for-stm32.11.3.rel1.win32_1.1.1.202309131626/tools/bin/../lib/gcc/arm-none-eabi/11.3.1/../../../../arm-none-eabi/lib/thumb/v7-m/nofp\libc_nano.a(libc_a-dtoa.o)
 *fill*         0x000000000800c7a6        0x2 
 .text._dtoa_r  0x000000000800c7a8      0xbc8 D:/Program Files/STM32CubeIDE_1.10.1/STM32CubeIDE/plugins/com.st.stm32cube.ide.mcu.externaltools.gnu-tools-for-stm32.11.3.rel1.win32_1.1.1.202309131626/tools/bin/../lib/gcc/arm-none-eabi/11.3.1/../../../../arm-none-eabi/lib/thumb/v7-m/nofp\libc_nano.a(libc_a-dtoa.o)
                0x000000000800c7a8                _dtoa_r
 .text._free_r  0x000000000800d370       0x90 D:/Program Files/STM32CubeIDE_1.10.1/STM32CubeIDE/plugins/com.st.stm32cube.ide.mcu.externaltools.gnu-tools-for-stm32.11.3.rel1.win32_1.1.1.202309131626/tools/bin/../lib/gcc/arm-none-eabi/11.3.1/../../../../arm-none-eabi/lib/thumb/v7-m/nofp\libc_nano.a(libc_a-freer.o)
                0x000000000800d370                _free_r
 .text.malloc   0x000000000800d400       0x10 D:/Program Files/STM32CubeIDE_1.10.1/STM32CubeIDE/plugins/com.st.stm32cube.ide.mcu.externaltools.gnu-tools-for-stm32.11.3.rel1.win32_1.1.1.202309131626/tools/bin/../lib/gcc/arm-none-eabi/11.3.1/../../../../arm-none-eabi/lib/thumb/v7-m/nofp\libc_nano.a(libc_a-malloc.o)
                0x000000000800d400                malloc
 .text.sbrk_aligned
                0x000000000800d410       0x40 D:/Program Files/STM32CubeIDE_1.10.1/STM32CubeIDE/plugins/com.st.stm32cube.ide.mcu.externaltools.gnu-tools-for-stm32.11.3.rel1.win32_1.1.1.202309131626/tools/bin/../lib/gcc/arm-none-eabi/11.3.1/../../../../arm-none-eabi/lib/thumb/v7-m/nofp\libc_nano.a(libc_a-mallocr.o)
 .text._malloc_r
                0x000000000800d450      0x100 D:/Program Files/STM32CubeIDE_1.10.1/STM32CubeIDE/plugins/com.st.stm32cube.ide.mcu.externaltools.gnu-tools-for-stm32.11.3.rel1.win32_1.1.1.202309131626/tools/bin/../lib/gcc/arm-none-eabi/11.3.1/../../../../arm-none-eabi/lib/thumb/v7-m/nofp\libc_nano.a(libc_a-mallocr.o)
                0x000000000800d450                _malloc_r
 .text.__malloc_lock
                0x000000000800d550        0xc D:/Program Files/STM32CubeIDE_1.10.1/STM32CubeIDE/plugins/com.st.stm32cube.ide.mcu.externaltools.gnu-tools-for-stm32.11.3.rel1.win32_1.1.1.202309131626/tools/bin/../lib/gcc/arm-none-eabi/11.3.1/../../../../arm-none-eabi/lib/thumb/v7-m/nofp\libc_nano.a(libc_a-mlock.o)
                0x000000000800d550                __malloc_lock
 .text.__malloc_unlock
                0x000000000800d55c        0xc D:/Program Files/STM32CubeIDE_1.10.1/STM32CubeIDE/plugins/com.st.stm32cube.ide.mcu.externaltools.gnu-tools-for-stm32.11.3.rel1.win32_1.1.1.202309131626/tools/bin/../lib/gcc/arm-none-eabi/11.3.1/../../../../arm-none-eabi/lib/thumb/v7-m/nofp\libc_nano.a(libc_a-mlock.o)
                0x000000000800d55c                __malloc_unlock
 .text._Balloc  0x000000000800d568       0x80 D:/Program Files/STM32CubeIDE_1.10.1/STM32CubeIDE/plugins/com.st.stm32cube.ide.mcu.externaltools.gnu-tools-for-stm32.11.3.rel1.win32_1.1.1.202309131626/tools/bin/../lib/gcc/arm-none-eabi/11.3.1/../../../../arm-none-eabi/lib/thumb/v7-m/nofp\libc_nano.a(libc_a-mprec.o)
                0x000000000800d568                _Balloc
 .text._Bfree   0x000000000800d5e8       0x44 D:/Program Files/STM32CubeIDE_1.10.1/STM32CubeIDE/plugins/com.st.stm32cube.ide.mcu.externaltools.gnu-tools-for-stm32.11.3.rel1.win32_1.1.1.202309131626/tools/bin/../lib/gcc/arm-none-eabi/11.3.1/../../../../arm-none-eabi/lib/thumb/v7-m/nofp\libc_nano.a(libc_a-mprec.o)
                0x000000000800d5e8                _Bfree
 .text.__multadd
                0x000000000800d62c       0x8c D:/Program Files/STM32CubeIDE_1.10.1/STM32CubeIDE/plugins/com.st.stm32cube.ide.mcu.externaltools.gnu-tools-for-stm32.11.3.rel1.win32_1.1.1.202309131626/tools/bin/../lib/gcc/arm-none-eabi/11.3.1/../../../../arm-none-eabi/lib/thumb/v7-m/nofp\libc_nano.a(libc_a-mprec.o)
                0x000000000800d62c                __multadd
 .text.__s2b    0x000000000800d6b8       0x94 D:/Program Files/STM32CubeIDE_1.10.1/STM32CubeIDE/plugins/com.st.stm32cube.ide.mcu.externaltools.gnu-tools-for-stm32.11.3.rel1.win32_1.1.1.202309131626/tools/bin/../lib/gcc/arm-none-eabi/11.3.1/../../../../arm-none-eabi/lib/thumb/v7-m/nofp\libc_nano.a(libc_a-mprec.o)
                0x000000000800d6b8                __s2b
 .text.__hi0bits
                0x000000000800d74c       0x40 D:/Program Files/STM32CubeIDE_1.10.1/STM32CubeIDE/plugins/com.st.stm32cube.ide.mcu.externaltools.gnu-tools-for-stm32.11.3.rel1.win32_1.1.1.202309131626/tools/bin/../lib/gcc/arm-none-eabi/11.3.1/../../../../arm-none-eabi/lib/thumb/v7-m/nofp\libc_nano.a(libc_a-mprec.o)
                0x000000000800d74c                __hi0bits
 .text.__lo0bits
                0x000000000800d78c       0x5a D:/Program Files/STM32CubeIDE_1.10.1/STM32CubeIDE/plugins/com.st.stm32cube.ide.mcu.externaltools.gnu-tools-for-stm32.11.3.rel1.win32_1.1.1.202309131626/tools/bin/../lib/gcc/arm-none-eabi/11.3.1/../../../../arm-none-eabi/lib/thumb/v7-m/nofp\libc_nano.a(libc_a-mprec.o)
                0x000000000800d78c                __lo0bits
 *fill*         0x000000000800d7e6        0x2 
 .text.__i2b    0x000000000800d7e8       0x2c D:/Program Files/STM32CubeIDE_1.10.1/STM32CubeIDE/plugins/com.st.stm32cube.ide.mcu.externaltools.gnu-tools-for-stm32.11.3.rel1.win32_1.1.1.202309131626/tools/bin/../lib/gcc/arm-none-eabi/11.3.1/../../../../arm-none-eabi/lib/thumb/v7-m/nofp\libc_nano.a(libc_a-mprec.o)
                0x000000000800d7e8                __i2b
 .text.__multiply
                0x000000000800d814      0x150 D:/Program Files/STM32CubeIDE_1.10.1/STM32CubeIDE/plugins/com.st.stm32cube.ide.mcu.externaltools.gnu-tools-for-stm32.11.3.rel1.win32_1.1.1.202309131626/tools/bin/../lib/gcc/arm-none-eabi/11.3.1/../../../../arm-none-eabi/lib/thumb/v7-m/nofp\libc_nano.a(libc_a-mprec.o)
                0x000000000800d814                __multiply
 .text.__pow5mult
                0x000000000800d964       0xb4 D:/Program Files/STM32CubeIDE_1.10.1/STM32CubeIDE/plugins/com.st.stm32cube.ide.mcu.externaltools.gnu-tools-for-stm32.11.3.rel1.win32_1.1.1.202309131626/tools/bin/../lib/gcc/arm-none-eabi/11.3.1/../../../../arm-none-eabi/lib/thumb/v7-m/nofp\libc_nano.a(libc_a-mprec.o)
                0x000000000800d964                __pow5mult
 .text.__lshift
                0x000000000800da18       0xd8 D:/Program Files/STM32CubeIDE_1.10.1/STM32CubeIDE/plugins/com.st.stm32cube.ide.mcu.externaltools.gnu-tools-for-stm32.11.3.rel1.win32_1.1.1.202309131626/tools/bin/../lib/gcc/arm-none-eabi/11.3.1/../../../../arm-none-eabi/lib/thumb/v7-m/nofp\libc_nano.a(libc_a-mprec.o)
                0x000000000800da18                __lshift
 .text.__mcmp   0x000000000800daf0       0x36 D:/Program Files/STM32CubeIDE_1.10.1/STM32CubeIDE/plugins/com.st.stm32cube.ide.mcu.externaltools.gnu-tools-for-stm32.11.3.rel1.win32_1.1.1.202309131626/tools/bin/../lib/gcc/arm-none-eabi/11.3.1/../../../../arm-none-eabi/lib/thumb/v7-m/nofp\libc_nano.a(libc_a-mprec.o)
                0x000000000800daf0                __mcmp
 *fill*         0x000000000800db26        0x2 
 .text.__mdiff  0x000000000800db28      0x118 D:/Program Files/STM32CubeIDE_1.10.1/STM32CubeIDE/plugins/com.st.stm32cube.ide.mcu.externaltools.gnu-tools-for-stm32.11.3.rel1.win32_1.1.1.202309131626/tools/bin/../lib/gcc/arm-none-eabi/11.3.1/../../../../arm-none-eabi/lib/thumb/v7-m/nofp\libc_nano.a(libc_a-mprec.o)
                0x000000000800db28                __mdiff
 .text.__ulp    0x000000000800dc40       0x40 D:/Program Files/STM32CubeIDE_1.10.1/STM32CubeIDE/plugins/com.st.stm32cube.ide.mcu.externaltools.gnu-tools-for-stm32.11.3.rel1.win32_1.1.1.202309131626/tools/bin/../lib/gcc/arm-none-eabi/11.3.1/../../../../arm-none-eabi/lib/thumb/v7-m/nofp\libc_nano.a(libc_a-mprec.o)
                0x000000000800dc40                __ulp
 .text.__b2d    0x000000000800dc80       0x90 D:/Program Files/STM32CubeIDE_1.10.1/STM32CubeIDE/plugins/com.st.stm32cube.ide.mcu.externaltools.gnu-tools-for-stm32.11.3.rel1.win32_1.1.1.202309131626/tools/bin/../lib/gcc/arm-none-eabi/11.3.1/../../../../arm-none-eabi/lib/thumb/v7-m/nofp\libc_nano.a(libc_a-mprec.o)
                0x000000000800dc80                __b2d
 .text.__d2b    0x000000000800dd10       0xac D:/Program Files/STM32CubeIDE_1.10.1/STM32CubeIDE/plugins/com.st.stm32cube.ide.mcu.externaltools.gnu-tools-for-stm32.11.3.rel1.win32_1.1.1.202309131626/tools/bin/../lib/gcc/arm-none-eabi/11.3.1/../../../../arm-none-eabi/lib/thumb/v7-m/nofp\libc_nano.a(libc_a-mprec.o)
                0x000000000800dd10                __d2b
 .text.__ratio  0x000000000800ddbc       0x5c D:/Program Files/STM32CubeIDE_1.10.1/STM32CubeIDE/plugins/com.st.stm32cube.ide.mcu.externaltools.gnu-tools-for-stm32.11.3.rel1.win32_1.1.1.202309131626/tools/bin/../lib/gcc/arm-none-eabi/11.3.1/../../../../arm-none-eabi/lib/thumb/v7-m/nofp\libc_nano.a(libc_a-mprec.o)
                0x000000000800ddbc                __ratio
 .text.__copybits
                0x000000000800de18       0x46 D:/Program Files/STM32CubeIDE_1.10.1/STM32CubeIDE/plugins/com.st.stm32cube.ide.mcu.externaltools.gnu-tools-for-stm32.11.3.rel1.win32_1.1.1.202309131626/tools/bin/../lib/gcc/arm-none-eabi/11.3.1/../../../../arm-none-eabi/lib/thumb/v7-m/nofp\libc_nano.a(libc_a-mprec.o)
                0x000000000800de18                __copybits
 .text.__any_on
                0x000000000800de5e       0x42 D:/Program Files/STM32CubeIDE_1.10.1/STM32CubeIDE/plugins/com.st.stm32cube.ide.mcu.externaltools.gnu-tools-for-stm32.11.3.rel1.win32_1.1.1.202309131626/tools/bin/../lib/gcc/arm-none-eabi/11.3.1/../../../../arm-none-eabi/lib/thumb/v7-m/nofp\libc_nano.a(libc_a-mprec.o)
                0x000000000800de5e                __any_on
 .text.sulp     0x000000000800dea0       0x42 D:/Program Files/STM32CubeIDE_1.10.1/STM32CubeIDE/plugins/com.st.stm32cube.ide.mcu.externaltools.gnu-tools-for-stm32.11.3.rel1.win32_1.1.1.202309131626/tools/bin/../lib/gcc/arm-none-eabi/11.3.1/../../../../arm-none-eabi/lib/thumb/v7-m/nofp\libc_nano.a(libc_a-strtod.o)
 *fill*         0x000000000800dee2        0x6 
 .text._strtod_l
                0x000000000800dee8      0xbe8 D:/Program Files/STM32CubeIDE_1.10.1/STM32CubeIDE/plugins/com.st.stm32cube.ide.mcu.externaltools.gnu-tools-for-stm32.11.3.rel1.win32_1.1.1.202309131626/tools/bin/../lib/gcc/arm-none-eabi/11.3.1/../../../../arm-none-eabi/lib/thumb/v7-m/nofp\libc_nano.a(libc_a-strtod.o)
                0x000000000800dee8                _strtod_l
 .text._strtod_r
                0x000000000800ead0        0xc D:/Program Files/STM32CubeIDE_1.10.1/STM32CubeIDE/plugins/com.st.stm32cube.ide.mcu.externaltools.gnu-tools-for-stm32.11.3.rel1.win32_1.1.1.202309131626/tools/bin/../lib/gcc/arm-none-eabi/11.3.1/../../../../arm-none-eabi/lib/thumb/v7-m/nofp\libc_nano.a(libc_a-strtod.o)
                0x000000000800ead0                _strtod_r
 .text._strtol_l.constprop.0
                0x000000000800eadc       0xfc D:/Program Files/STM32CubeIDE_1.10.1/STM32CubeIDE/plugins/com.st.stm32cube.ide.mcu.externaltools.gnu-tools-for-stm32.11.3.rel1.win32_1.1.1.202309131626/tools/bin/../lib/gcc/arm-none-eabi/11.3.1/../../../../arm-none-eabi/lib/thumb/v7-m/nofp\libc_nano.a(libc_a-strtol.o)
 .text._strtol_r
                0x000000000800ebd8        0x4 D:/Program Files/STM32CubeIDE_1.10.1/STM32CubeIDE/plugins/com.st.stm32cube.ide.mcu.externaltools.gnu-tools-for-stm32.11.3.rel1.win32_1.1.1.202309131626/tools/bin/../lib/gcc/arm-none-eabi/11.3.1/../../../../arm-none-eabi/lib/thumb/v7-m/nofp\libc_nano.a(libc_a-strtol.o)
                0x000000000800ebd8                _strtol_r
 .text.__ssputs_r
                0x000000000800ebdc       0xb4 D:/Program Files/STM32CubeIDE_1.10.1/STM32CubeIDE/plugins/com.st.stm32cube.ide.mcu.externaltools.gnu-tools-for-stm32.11.3.rel1.win32_1.1.1.202309131626/tools/bin/../lib/gcc/arm-none-eabi/11.3.1/../../../../arm-none-eabi/lib/thumb/v7-m/nofp\libc_nano.a(libc_a-nano-svfprintf.o)
                0x000000000800ebdc                __ssputs_r
 .text._svfprintf_r
                0x000000000800ec90      0x1fc D:/Program Files/STM32CubeIDE_1.10.1/STM32CubeIDE/plugins/com.st.stm32cube.ide.mcu.externaltools.gnu-tools-for-stm32.11.3.rel1.win32_1.1.1.202309131626/tools/bin/../lib/gcc/arm-none-eabi/11.3.1/../../../../arm-none-eabi/lib/thumb/v7-m/nofp\libc_nano.a(libc_a-nano-svfprintf.o)
                0x000000000800ec90                _svfiprintf_r
                0x000000000800ec90                _svfprintf_r
 .text.__sfputc_r
                0x000000000800ee8c       0x2a D:/Program Files/STM32CubeIDE_1.10.1/STM32CubeIDE/plugins/com.st.stm32cube.ide.mcu.externaltools.gnu-tools-for-stm32.11.3.rel1.win32_1.1.1.202309131626/tools/bin/../lib/gcc/arm-none-eabi/11.3.1/../../../../arm-none-eabi/lib/thumb/v7-m/nofp\libc_nano.a(libc_a-nano-vfprintf.o)
 .text.__sfputs_r
                0x000000000800eeb6       0x24 D:/Program Files/STM32CubeIDE_1.10.1/STM32CubeIDE/plugins/com.st.stm32cube.ide.mcu.externaltools.gnu-tools-for-stm32.11.3.rel1.win32_1.1.1.202309131626/tools/bin/../lib/gcc/arm-none-eabi/11.3.1/../../../../arm-none-eabi/lib/thumb/v7-m/nofp\libc_nano.a(libc_a-nano-vfprintf.o)
                0x000000000800eeb6                __sfputs_r
 *fill*         0x000000000800eeda        0x2 
 .text._vfprintf_r
                0x000000000800eedc      0x234 D:/Program Files/STM32CubeIDE_1.10.1/STM32CubeIDE/plugins/com.st.stm32cube.ide.mcu.externaltools.gnu-tools-for-stm32.11.3.rel1.win32_1.1.1.202309131626/tools/bin/../lib/gcc/arm-none-eabi/11.3.1/../../../../arm-none-eabi/lib/thumb/v7-m/nofp\libc_nano.a(libc_a-nano-vfprintf.o)
                0x000000000800eedc                _vfprintf_r
                0x000000000800eedc                _vfiprintf_r
 .text.__sflush_r
                0x000000000800f110      0x104 D:/Program Files/STM32CubeIDE_1.10.1/STM32CubeIDE/plugins/com.st.stm32cube.ide.mcu.externaltools.gnu-tools-for-stm32.11.3.rel1.win32_1.1.1.202309131626/tools/bin/../lib/gcc/arm-none-eabi/11.3.1/../../../../arm-none-eabi/lib/thumb/v7-m/nofp\libc_nano.a(libc_a-fflush.o)
                0x000000000800f110                __sflush_r
 .text._fflush_r
                0x000000000800f214       0x50 D:/Program Files/STM32CubeIDE_1.10.1/STM32CubeIDE/plugins/com.st.stm32cube.ide.mcu.externaltools.gnu-tools-for-stm32.11.3.rel1.win32_1.1.1.202309131626/tools/bin/../lib/gcc/arm-none-eabi/11.3.1/../../../../arm-none-eabi/lib/thumb/v7-m/nofp\libc_nano.a(libc_a-fflush.o)
                0x000000000800f214                _fflush_r
 .text.__swhatbuf_r
                0x000000000800f264       0x4a D:/Program Files/STM32CubeIDE_1.10.1/STM32CubeIDE/plugins/com.st.stm32cube.ide.mcu.externaltools.gnu-tools-for-stm32.11.3.rel1.win32_1.1.1.202309131626/tools/bin/../lib/gcc/arm-none-eabi/11.3.1/../../../../arm-none-eabi/lib/thumb/v7-m/nofp\libc_nano.a(libc_a-makebuf.o)
                0x000000000800f264                __swhatbuf_r
 .text.__smakebuf_r
                0x000000000800f2ae       0x78 D:/Program Files/STM32CubeIDE_1.10.1/STM32CubeIDE/plugins/com.st.stm32cube.ide.mcu.externaltools.gnu-tools-for-stm32.11.3.rel1.win32_1.1.1.202309131626/tools/bin/../lib/gcc/arm-none-eabi/11.3.1/../../../../arm-none-eabi/lib/thumb/v7-m/nofp\libc_nano.a(libc_a-makebuf.o)
                0x000000000800f2ae                __smakebuf_r
 .text.memmove  0x000000000800f326       0x34 D:/Program Files/STM32CubeIDE_1.10.1/STM32CubeIDE/plugins/com.st.stm32cube.ide.mcu.externaltools.gnu-tools-for-stm32.11.3.rel1.win32_1.1.1.202309131626/tools/bin/../lib/gcc/arm-none-eabi/11.3.1/../../../../arm-none-eabi/lib/thumb/v7-m/nofp\libc_nano.a(libc_a-memmove.o)
                0x000000000800f326                memmove
 .text.strncmp  0x000000000800f35a       0x24 D:/Program Files/STM32CubeIDE_1.10.1/STM32CubeIDE/plugins/com.st.stm32cube.ide.mcu.externaltools.gnu-tools-for-stm32.11.3.rel1.win32_1.1.1.202309131626/tools/bin/../lib/gcc/arm-none-eabi/11.3.1/../../../../arm-none-eabi/lib/thumb/v7-m/nofp\libc_nano.a(libc_a-strncmp.o)
                0x000000000800f35a                strncmp
 *fill*         0x000000000800f37e        0x2 
 .text._fstat_r
                0x000000000800f380       0x24 D:/Program Files/STM32CubeIDE_1.10.1/STM32CubeIDE/plugins/com.st.stm32cube.ide.mcu.externaltools.gnu-tools-for-stm32.11.3.rel1.win32_1.1.1.202309131626/tools/bin/../lib/gcc/arm-none-eabi/11.3.1/../../../../arm-none-eabi/lib/thumb/v7-m/nofp\libc_nano.a(libc_a-fstatr.o)
                0x000000000800f380                _fstat_r
 .text._isatty_r
                0x000000000800f3a4       0x20 D:/Program Files/STM32CubeIDE_1.10.1/STM32CubeIDE/plugins/com.st.stm32cube.ide.mcu.externaltools.gnu-tools-for-stm32.11.3.rel1.win32_1.1.1.202309131626/tools/bin/../lib/gcc/arm-none-eabi/11.3.1/../../../../arm-none-eabi/lib/thumb/v7-m/nofp\libc_nano.a(libc_a-isattyr.o)
                0x000000000800f3a4                _isatty_r
 .text._sbrk_r  0x000000000800f3c4       0x20 D:/Program Files/STM32CubeIDE_1.10.1/STM32CubeIDE/plugins/com.st.stm32cube.ide.mcu.externaltools.gnu-tools-for-stm32.11.3.rel1.win32_1.1.1.202309131626/tools/bin/../lib/gcc/arm-none-eabi/11.3.1/../../../../arm-none-eabi/lib/thumb/v7-m/nofp\libc_nano.a(libc_a-sbrkr.o)
                0x000000000800f3c4                _sbrk_r
 .text.nan      0x000000000800f3e4        0xc D:/Program Files/STM32CubeIDE_1.10.1/STM32CubeIDE/plugins/com.st.stm32cube.ide.mcu.externaltools.gnu-tools-for-stm32.11.3.rel1.win32_1.1.1.202309131626/tools/bin/../lib/gcc/arm-none-eabi/11.3.1/../../../../arm-none-eabi/lib/thumb/v7-m/nofp\libc_nano.a(libm_a-s_nan.o)
                0x000000000800f3e4                nan
 .text.__assert_func
                0x000000000800f3f0       0x3c D:/Program Files/STM32CubeIDE_1.10.1/STM32CubeIDE/plugins/com.st.stm32cube.ide.mcu.externaltools.gnu-tools-for-stm32.11.3.rel1.win32_1.1.1.202309131626/tools/bin/../lib/gcc/arm-none-eabi/11.3.1/../../../../arm-none-eabi/lib/thumb/v7-m/nofp\libc_nano.a(libc_a-assert.o)
                0x000000000800f3f0                __assert_func
 .text._calloc_r
                0x000000000800f42c       0x28 D:/Program Files/STM32CubeIDE_1.10.1/STM32CubeIDE/plugins/com.st.stm32cube.ide.mcu.externaltools.gnu-tools-for-stm32.11.3.rel1.win32_1.1.1.202309131626/tools/bin/../lib/gcc/arm-none-eabi/11.3.1/../../../../arm-none-eabi/lib/thumb/v7-m/nofp\libc_nano.a(libc_a-callocr.o)
                0x000000000800f42c                _calloc_r
 .text.rshift   0x000000000800f454       0xa6 D:/Program Files/STM32CubeIDE_1.10.1/STM32CubeIDE/plugins/com.st.stm32cube.ide.mcu.externaltools.gnu-tools-for-stm32.11.3.rel1.win32_1.1.1.202309131626/tools/bin/../lib/gcc/arm-none-eabi/11.3.1/../../../../arm-none-eabi/lib/thumb/v7-m/nofp\libc_nano.a(libc_a-gdtoa-gethex.o)
 .text.__hexdig_fun
                0x000000000800f4fa       0x2a D:/Program Files/STM32CubeIDE_1.10.1/STM32CubeIDE/plugins/com.st.stm32cube.ide.mcu.externaltools.gnu-tools-for-stm32.11.3.rel1.win32_1.1.1.202309131626/tools/bin/../lib/gcc/arm-none-eabi/11.3.1/../../../../arm-none-eabi/lib/thumb/v7-m/nofp\libc_nano.a(libc_a-gdtoa-gethex.o)
                0x000000000800f4fa                __hexdig_fun
 .text.__gethex
                0x000000000800f524      0x460 D:/Program Files/STM32CubeIDE_1.10.1/STM32CubeIDE/plugins/com.st.stm32cube.ide.mcu.externaltools.gnu-tools-for-stm32.11.3.rel1.win32_1.1.1.202309131626/tools/bin/../lib/gcc/arm-none-eabi/11.3.1/../../../../arm-none-eabi/lib/thumb/v7-m/nofp\libc_nano.a(libc_a-gdtoa-gethex.o)
                0x000000000800f524                __gethex
 .text.L_shift  0x000000000800f984       0x24 D:/Program Files/STM32CubeIDE_1.10.1/STM32CubeIDE/plugins/com.st.stm32cube.ide.mcu.externaltools.gnu-tools-for-stm32.11.3.rel1.win32_1.1.1.202309131626/tools/bin/../lib/gcc/arm-none-eabi/11.3.1/../../../../arm-none-eabi/lib/thumb/v7-m/nofp\libc_nano.a(libc_a-gdtoa-hexnan.o)
 .text.__match  0x000000000800f9a8       0x28 D:/Program Files/STM32CubeIDE_1.10.1/STM32CubeIDE/plugins/com.st.stm32cube.ide.mcu.externaltools.gnu-tools-for-stm32.11.3.rel1.win32_1.1.1.202309131626/tools/bin/../lib/gcc/arm-none-eabi/11.3.1/../../../../arm-none-eabi/lib/thumb/v7-m/nofp\libc_nano.a(libc_a-gdtoa-hexnan.o)
                0x000000000800f9a8                __match
 .text.__hexnan
                0x000000000800f9d0      0x136 D:/Program Files/STM32CubeIDE_1.10.1/STM32CubeIDE/plugins/com.st.stm32cube.ide.mcu.externaltools.gnu-tools-for-stm32.11.3.rel1.win32_1.1.1.202309131626/tools/bin/../lib/gcc/arm-none-eabi/11.3.1/../../../../arm-none-eabi/lib/thumb/v7-m/nofp\libc_nano.a(libc_a-gdtoa-hexnan.o)
                0x000000000800f9d0                __hexnan
 .text.__ascii_mbtowc
                0x000000000800fb06       0x24 D:/Program Files/STM32CubeIDE_1.10.1/STM32CubeIDE/plugins/com.st.stm32cube.ide.mcu.externaltools.gnu-tools-for-stm32.11.3.rel1.win32_1.1.1.202309131626/tools/bin/../lib/gcc/arm-none-eabi/11.3.1/../../../../arm-none-eabi/lib/thumb/v7-m/nofp\libc_nano.a(libc_a-mbtowc_r.o)
                0x000000000800fb06                __ascii_mbtowc
 .text._realloc_r
                0x000000000800fb2a       0x5e D:/Program Files/STM32CubeIDE_1.10.1/STM32CubeIDE/plugins/com.st.stm32cube.ide.mcu.externaltools.gnu-tools-for-stm32.11.3.rel1.win32_1.1.1.202309131626/tools/bin/../lib/gcc/arm-none-eabi/11.3.1/../../../../arm-none-eabi/lib/thumb/v7-m/nofp\libc_nano.a(libc_a-reallocr.o)
                0x000000000800fb2a                _realloc_r
 .text.__ascii_wctomb
                0x000000000800fb88       0x1a D:/Program Files/STM32CubeIDE_1.10.1/STM32CubeIDE/plugins/com.st.stm32cube.ide.mcu.externaltools.gnu-tools-for-stm32.11.3.rel1.win32_1.1.1.202309131626/tools/bin/../lib/gcc/arm-none-eabi/11.3.1/../../../../arm-none-eabi/lib/thumb/v7-m/nofp\libc_nano.a(libc_a-wctomb_r.o)
                0x000000000800fb88                __ascii_wctomb
 *fill*         0x000000000800fba2        0x2 
 .text.fprintf  0x000000000800fba4       0x24 D:/Program Files/STM32CubeIDE_1.10.1/STM32CubeIDE/plugins/com.st.stm32cube.ide.mcu.externaltools.gnu-tools-for-stm32.11.3.rel1.win32_1.1.1.202309131626/tools/bin/../lib/gcc/arm-none-eabi/11.3.1/../../../../arm-none-eabi/lib/thumb/v7-m/nofp\libc_nano.a(libc_a-fprintf.o)
                0x000000000800fba4                fiprintf
                0x000000000800fba4                fprintf
 .text.abort    0x000000000800fbc8        0xe D:/Program Files/STM32CubeIDE_1.10.1/STM32CubeIDE/plugins/com.st.stm32cube.ide.mcu.externaltools.gnu-tools-for-stm32.11.3.rel1.win32_1.1.1.202309131626/tools/bin/../lib/gcc/arm-none-eabi/11.3.1/../../../../arm-none-eabi/lib/thumb/v7-m/nofp\libc_nano.a(libc_a-abort.o)
                0x000000000800fbc8                abort
 .text._malloc_usable_size_r
                0x000000000800fbd6       0x10 D:/Program Files/STM32CubeIDE_1.10.1/STM32CubeIDE/plugins/com.st.stm32cube.ide.mcu.externaltools.gnu-tools-for-stm32.11.3.rel1.win32_1.1.1.202309131626/tools/bin/../lib/gcc/arm-none-eabi/11.3.1/../../../../arm-none-eabi/lib/thumb/v7-m/nofp\libc_nano.a(libc_a-msizer.o)
                0x000000000800fbd6                _malloc_usable_size_r
 .text._raise_r
                0x000000000800fbe6       0x50 D:/Program Files/STM32CubeIDE_1.10.1/STM32CubeIDE/plugins/com.st.stm32cube.ide.mcu.externaltools.gnu-tools-for-stm32.11.3.rel1.win32_1.1.1.202309131626/tools/bin/../lib/gcc/arm-none-eabi/11.3.1/../../../../arm-none-eabi/lib/thumb/v7-m/nofp\libc_nano.a(libc_a-signal.o)
                0x000000000800fbe6                _raise_r
 *fill*         0x000000000800fc36        0x2 
 .text.raise    0x000000000800fc38       0x10 D:/Program Files/STM32CubeIDE_1.10.1/STM32CubeIDE/plugins/com.st.stm32cube.ide.mcu.externaltools.gnu-tools-for-stm32.11.3.rel1.win32_1.1.1.202309131626/tools/bin/../lib/gcc/arm-none-eabi/11.3.1/../../../../arm-none-eabi/lib/thumb/v7-m/nofp\libc_nano.a(libc_a-signal.o)
                0x000000000800fc38                raise
 .text._kill_r  0x000000000800fc48       0x24 D:/Program Files/STM32CubeIDE_1.10.1/STM32CubeIDE/plugins/com.st.stm32cube.ide.mcu.externaltools.gnu-tools-for-stm32.11.3.rel1.win32_1.1.1.202309131626/tools/bin/../lib/gcc/arm-none-eabi/11.3.1/../../../../arm-none-eabi/lib/thumb/v7-m/nofp\libc_nano.a(libc_a-signalr.o)
                0x000000000800fc48                _kill_r
 .text._getpid_r
                0x000000000800fc6c        0x4 D:/Program Files/STM32CubeIDE_1.10.1/STM32CubeIDE/plugins/com.st.stm32cube.ide.mcu.externaltools.gnu-tools-for-stm32.11.3.rel1.win32_1.1.1.202309131626/tools/bin/../lib/gcc/arm-none-eabi/11.3.1/../../../../arm-none-eabi/lib/thumb/v7-m/nofp\libc_nano.a(libc_a-signalr.o)
                0x000000000800fc6c                _getpid_r
 .text._sbrk    0x000000000800fc70       0x1c D:/Program Files/STM32CubeIDE_1.10.1/STM32CubeIDE/plugins/com.st.stm32cube.ide.mcu.externaltools.gnu-tools-for-stm32.11.3.rel1.win32_1.1.1.202309131626/tools/bin/../lib/gcc/arm-none-eabi/11.3.1/../../../../arm-none-eabi/lib/thumb/v7-m/nofp\libnosys.a(sbrk.o)
                0x000000000800fc70                _sbrk
 .text._exit    0x000000000800fc8c        0x2 D:/Program Files/STM32CubeIDE_1.10.1/STM32CubeIDE/plugins/com.st.stm32cube.ide.mcu.externaltools.gnu-tools-for-stm32.11.3.rel1.win32_1.1.1.202309131626/tools/bin/../lib/gcc/arm-none-eabi/11.3.1/../../../../arm-none-eabi/lib/thumb/v7-m/nofp\libnosys.a(_exit.o)
                0x000000000800fc8c                _exit
 *(.glue_7)
 .glue_7        0x000000000800fc8e        0x0 linker stubs
 *(.glue_7t)
 .glue_7t       0x000000000800fc8e        0x0 linker stubs
 *(.eh_frame)
 *fill*         0x000000000800fc8e        0x2 
 .eh_frame      0x000000000800fc90        0x0 D:/Program Files/STM32CubeIDE_1.10.1/STM32CubeIDE/plugins/com.st.stm32cube.ide.mcu.externaltools.gnu-tools-for-stm32.11.3.rel1.win32_1.1.1.202309131626/tools/bin/../lib/gcc/arm-none-eabi/11.3.1/thumb/v7-m/nofp/crtbegin.o
 *(.init)
 .init          0x000000000800fc90        0x4 D:/Program Files/STM32CubeIDE_1.10.1/STM32CubeIDE/plugins/com.st.stm32cube.ide.mcu.externaltools.gnu-tools-for-stm32.11.3.rel1.win32_1.1.1.202309131626/tools/bin/../lib/gcc/arm-none-eabi/11.3.1/thumb/v7-m/nofp/crti.o
                0x000000000800fc90                _init
 .init          0x000000000800fc94        0x8 D:/Program Files/STM32CubeIDE_1.10.1/STM32CubeIDE/plugins/com.st.stm32cube.ide.mcu.externaltools.gnu-tools-for-stm32.11.3.rel1.win32_1.1.1.202309131626/tools/bin/../lib/gcc/arm-none-eabi/11.3.1/thumb/v7-m/nofp/crtn.o
 *(.fini)
 .fini          0x000000000800fc9c        0x4 D:/Program Files/STM32CubeIDE_1.10.1/STM32CubeIDE/plugins/com.st.stm32cube.ide.mcu.externaltools.gnu-tools-for-stm32.11.3.rel1.win32_1.1.1.202309131626/tools/bin/../lib/gcc/arm-none-eabi/11.3.1/thumb/v7-m/nofp/crti.o
                0x000000000800fc9c                _fini
 .fini          0x000000000800fca0        0x8 D:/Program Files/STM32CubeIDE_1.10.1/STM32CubeIDE/plugins/com.st.stm32cube.ide.mcu.externaltools.gnu-tools-for-stm32.11.3.rel1.win32_1.1.1.202309131626/tools/bin/../lib/gcc/arm-none-eabi/11.3.1/thumb/v7-m/nofp/crtn.o
                0x000000000800fca8                . = ALIGN (0x4)
                0x000000000800fca8                _etext = .

.vfp11_veneer   0x000000000800fca8        0x0
 .vfp11_veneer  0x000000000800fca8        0x0 linker stubs

.v4_bx          0x000000000800fca8        0x0
 .v4_bx         0x000000000800fca8        0x0 linker stubs

.iplt           0x000000000800fca8        0x0
 .iplt          0x000000000800fca8        0x0 D:/Program Files/STM32CubeIDE_1.10.1/STM32CubeIDE/plugins/com.st.stm32cube.ide.mcu.externaltools.gnu-tools-for-stm32.11.3.rel1.win32_1.1.1.202309131626/tools/bin/../lib/gcc/arm-none-eabi/11.3.1/thumb/v7-m/nofp/crtbegin.o

.rodata         0x000000000800fca8    0x2cf80
                0x000000000800fca8                . = ALIGN (0x4)
 *(.rodata)
 *(.rodata*)
 .rodata.LoadConfigData.str1.1
                0x000000000800fca8       0x63 ./Src/BSP/flash.o
 .rodata.i2cdrvMessageTransfer.str1.1
                0x000000000800fd0b       0x10 ./Src/BSP/i2c_driver.o
 *fill*         0x000000000800fd1b        0x1 
 .rodata.sensorsBusDef
                0x000000000800fd1c       0x60 ./Src/BSP/i2c_driver.o
 .rodata.PlayAnimation.str1.1
                0x000000000800fd7c       0x51 ./Src/BSP/i2c_oled.o
 .rodata.OLED_ShowParm.str1.1
                0x000000000800fdcd       0x66 ./Src/BSP/i2c_oled.o
 .rodata.MenuTask.str1.1
                0x000000000800fe33       0x2d ./Src/BSP/i2c_oled.o
 .rodata.F6x8   0x000000000800fe60      0x228 ./Src/BSP/i2c_oled.o
                0x000000000800fe60                F6x8
 .rodata.F8X16  0x0000000008010088      0x5f0 ./Src/BSP/i2c_oled.o
                0x0000000008010088                F8X16
 .rodata.nrf_check.str1.1
                0x0000000008010678        0x6 ./Src/BSP/nrf24l01.o
 .rodata.SPI_FLASH_SendByte.str1.1
                0x000000000801067e       0x2f ./Src/BSP/spi_flash.o
 .rodata.SPI_FLASH_PageWrite.str1.1
                0x00000000080106ad       0x31 ./Src/BSP/spi_flash.o
 .rodata.Uart4Task.str1.1
                0x00000000080106de       0x1c ./Src/BSP/uart4.o
 .rodata.Uart5Task.str1.1
                0x00000000080106fa       0x1c ./Src/BSP/uart5.o
 .rodata.Usart1Task.str1.1
                0x00000000080106fa       0x53 ./Src/BSP/usart1.o
 .rodata.follow_path.str1.1
                0x000000000801074d       0x10 ./Src/FatFs/ff.o
 .rodata.f_mkfs.str1.1
                0x000000000801075d       0x34 ./Src/FatFs/ff.o
 .rodata.LfnOfs
                0x0000000008010791        0xd ./Src/FatFs/ff.o
 .rodata.cst.0  0x000000000801079e       0x16 ./Src/FatFs/ff.o
 .rodata.vst.1  0x00000000080107b4       0x16 ./Src/FatFs/ff.o
 .rodata.lower.1
                0x00000000080107ca      0x3dc ./Src/FatFs/option/cc936.o
 .rodata.oem2uni
                0x0000000008010ba6    0x15484 ./Src/FatFs/option/cc936.o
 .rodata.uni2oem
                0x000000000802602a    0x15484 ./Src/FatFs/option/cc936.o
 .rodata.upper.0
                0x000000000803b4ae      0x3dc ./Src/FatFs/option/cc936.o
 .rodata.prvNotifyQueueSetContainer.str1.1
                0x000000000803b88a       0x73 ./Src/FreeRTOS/queue.o
 .rodata.xQueueGenericReset.str1.1
                0x000000000803b8fd        0x8 ./Src/FreeRTOS/queue.o
 .rodata.xQueueGenericCreate.str1.1
                0x000000000803b905       0x22 ./Src/FreeRTOS/queue.o
 .rodata.xQueueGenericSend.str1.1
                0x000000000803b927       0xed ./Src/FreeRTOS/queue.o
 .rodata.xQueueGiveFromISR.str1.1
                0x000000000803ba14       0x74 ./Src/FreeRTOS/queue.o
 .rodata.xQueueGenericReceive.str1.1
                0x000000000803ba88       0x4b ./Src/FreeRTOS/queue.o
 .rodata.prvTaskIsTaskSuspended.str1.1
                0x000000000803bad3       0x1e ./Src/FreeRTOS/tasks.o
 .rodata.vTaskDelete.str1.1
                0x000000000803baf1       0x1a ./Src/FreeRTOS/tasks.o
 .rodata.vTaskStartScheduler.str1.1
                0x000000000803bb0b       0x36 ./Src/FreeRTOS/tasks.o
 .rodata.xTaskIncrementTick.str1.1
                0x000000000803bb41       0x2b ./Src/FreeRTOS/tasks.o
 .rodata.xTaskResumeAll.str1.1
                0x000000000803bb6c       0x15 ./Src/FreeRTOS/tasks.o
 .rodata.vTaskSwitchContext.str1.1
                0x000000000803bb81       0x47 ./Src/FreeRTOS/tasks.o
 .rodata.vTaskPlaceOnEventList.str1.1
                0x000000000803bbc8        0xc ./Src/FreeRTOS/tasks.o
 .rodata.xTaskRemoveFromEventList.str1.1
                0x000000000803bbd4        0xf ./Src/FreeRTOS/tasks.o
 .rodata.vTaskSetTimeOutState.str1.1
                0x000000000803bbe3        0xa ./Src/FreeRTOS/tasks.o
 .rodata.xTaskCheckForTimeOut.str1.1
                0x000000000803bbed        0xe ./Src/FreeRTOS/tasks.o
 .rodata.xTaskPriorityDisinherit.str1.1
                0x000000000803bbfb       0x2b ./Src/FreeRTOS/tasks.o
 .rodata.prvCheckForValidListAndQueue.str1.1
                0x000000000803bc26        0x5 ./Src/FreeRTOS/timers.o
 .rodata.xTimerCreateTimerTask.str1.1
                0x000000000803bc2b       0x29 ./Src/FreeRTOS/timers.o
 .rodata.xTimerGenericCommand.str1.1
                0x000000000803bc54        0x7 ./Src/FreeRTOS/timers.o
 .rodata.prvSampleTimeNow.str1.1
                0x000000000803bc5b        0x8 ./Src/FreeRTOS/timers.o
 .rodata.prvTimerTask.str1.1
                0x000000000803bc63       0x25 ./Src/FreeRTOS/timers.o
 .rodata.prvTaskExitError.str1.1
                0x000000000803bc88       0x46 ./Src/FreeRTOS/portable/GCC/ARM_CM3/port.o
 .rodata.vPortEnterCritical.str1.1
                0x000000000803bcce       0x35 ./Src/FreeRTOS/portable/GCC/ARM_CM3/port.o
 .rodata.vPortExitCritical.str1.1
                0x000000000803bd03       0x12 ./Src/FreeRTOS/portable/GCC/ARM_CM3/port.o
 .rodata.xPortStartScheduler.str1.1
                0x000000000803bd15       0x85 ./Src/FreeRTOS/portable/GCC/ARM_CM3/port.o
 .rodata.vPortValidateInterruptPriority.str1.1
                0x000000000803bd9a       0x6c ./Src/FreeRTOS/portable/GCC/ARM_CM3/port.o
 .rodata.pvPortMalloc.str1.1
                0x000000000803be06       0xb1 ./Src/FreeRTOS/portable/MemMang/heap_4.o
 .rodata.vPortFree.str1.1
                0x000000000803beb7       0x51 ./Src/FreeRTOS/portable/MemMang/heap_4.o
 .rodata.radiolinkInit.str1.1
                0x000000000803bf08       0x37 ./Src/System/radio.o
 .rodata.sensorsDeviceInit.str1.1
                0x000000000803bf3f       0x76 ./Src/System/sensors.o
 .rodata.scan_files.str1.1
                0x000000000803bfb5        0xc ./Src/System/utils.o
 .rodata.FileSystem_Init.str1.1
                0x000000000803bfc1      0x15e ./Src/System/utils.o
 .rodata.assertFail.str1.1
                0x000000000803c11f       0x15 ./Src/System/utils.o
 .rodata.str1.1
                0x000000000803c134       0x15 ./Src/System/utils.o
                                          0x1 (size before relaxing)
 .rodata.crcTableHigh
                0x000000000803c134      0x100 ./Src/System/utils.o
                0x000000000803c134                crcTableHigh
 .rodata.crcTableLow
                0x000000000803c234      0x100 ./Src/System/utils.o
                0x000000000803c234                crcTableLow
 .rodata.startTask.str1.1
                0x000000000803c334       0x7b ./Src/User/main.o
 .rodata.main.str1.1
                0x000000000803c3af       0x1b ./Src/User/main.o
                                         0x1e (size before relaxing)
 .rodata.vApplicationMallocFailedHook.str1.1
                0x000000000803c3ca       0x10 ./Src/User/main.o
 .rodata.vApplicationStackOverflowHook.str1.1
                0x000000000803c3da       0x11 ./Src/User/main.o
 *fill*         0x000000000803c3eb        0x5 
 .rodata.atanhi
                0x000000000803c3f0       0x20 D:/Program Files/STM32CubeIDE_1.10.1/STM32CubeIDE/plugins/com.st.stm32cube.ide.mcu.externaltools.gnu-tools-for-stm32.11.3.rel1.win32_1.1.1.202309131626/tools/bin/../lib/gcc/arm-none-eabi/11.3.1/../../../../arm-none-eabi/lib/thumb/v7-m/nofp\libm.a(libm_a-s_atan.o)
 .rodata.atanlo
                0x000000000803c410       0x20 D:/Program Files/STM32CubeIDE_1.10.1/STM32CubeIDE/plugins/com.st.stm32cube.ide.mcu.externaltools.gnu-tools-for-stm32.11.3.rel1.win32_1.1.1.202309131626/tools/bin/../lib/gcc/arm-none-eabi/11.3.1/../../../../arm-none-eabi/lib/thumb/v7-m/nofp\libm.a(libm_a-s_atan.o)
 .rodata.npio2_hw
                0x000000000803c430       0x80 D:/Program Files/STM32CubeIDE_1.10.1/STM32CubeIDE/plugins/com.st.stm32cube.ide.mcu.externaltools.gnu-tools-for-stm32.11.3.rel1.win32_1.1.1.202309131626/tools/bin/../lib/gcc/arm-none-eabi/11.3.1/../../../../arm-none-eabi/lib/thumb/v7-m/nofp\libm.a(libm_a-ef_rem_pio2.o)
 .rodata.two_over_pi
                0x000000000803c4b0      0x318 D:/Program Files/STM32CubeIDE_1.10.1/STM32CubeIDE/plugins/com.st.stm32cube.ide.mcu.externaltools.gnu-tools-for-stm32.11.3.rel1.win32_1.1.1.202309131626/tools/bin/../lib/gcc/arm-none-eabi/11.3.1/../../../../arm-none-eabi/lib/thumb/v7-m/nofp\libm.a(libm_a-ef_rem_pio2.o)
 .rodata.PIo2   0x000000000803c7c8       0x2c D:/Program Files/STM32CubeIDE_1.10.1/STM32CubeIDE/plugins/com.st.stm32cube.ide.mcu.externaltools.gnu-tools-for-stm32.11.3.rel1.win32_1.1.1.202309131626/tools/bin/../lib/gcc/arm-none-eabi/11.3.1/../../../../arm-none-eabi/lib/thumb/v7-m/nofp\libm.a(libm_a-kf_rem_pio2.o)
 .rodata.init_jk
                0x000000000803c7f4        0xc D:/Program Files/STM32CubeIDE_1.10.1/STM32CubeIDE/plugins/com.st.stm32cube.ide.mcu.externaltools.gnu-tools-for-stm32.11.3.rel1.win32_1.1.1.202309131626/tools/bin/../lib/gcc/arm-none-eabi/11.3.1/../../../../arm-none-eabi/lib/thumb/v7-m/nofp\libm.a(libm_a-kf_rem_pio2.o)
 .rodata._printf_float.str1.1
                0x000000000803c800       0x10 D:/Program Files/STM32CubeIDE_1.10.1/STM32CubeIDE/plugins/com.st.stm32cube.ide.mcu.externaltools.gnu-tools-for-stm32.11.3.rel1.win32_1.1.1.202309131626/tools/bin/../lib/gcc/arm-none-eabi/11.3.1/../../../../arm-none-eabi/lib/thumb/v7-m/nofp\libc_nano.a(libc_a-nano-vfprintf_float.o)
                                         0x12 (size before relaxing)
 .rodata._printf_i.str1.1
                0x000000000803c810       0x22 D:/Program Files/STM32CubeIDE_1.10.1/STM32CubeIDE/plugins/com.st.stm32cube.ide.mcu.externaltools.gnu-tools-for-stm32.11.3.rel1.win32_1.1.1.202309131626/tools/bin/../lib/gcc/arm-none-eabi/11.3.1/../../../../arm-none-eabi/lib/thumb/v7-m/nofp\libc_nano.a(libc_a-nano-vfprintf_i.o)
 .rodata._scanf_float.str1.1
                0x000000000803c832        0x5 D:/Program Files/STM32CubeIDE_1.10.1/STM32CubeIDE/plugins/com.st.stm32cube.ide.mcu.externaltools.gnu-tools-for-stm32.11.3.rel1.win32_1.1.1.202309131626/tools/bin/../lib/gcc/arm-none-eabi/11.3.1/../../../../arm-none-eabi/lib/thumb/v7-m/nofp\libc_nano.a(libc_a-nano-vfscanf_float.o)
                                          0x6 (size before relaxing)
 .rodata._dtoa_r.str1.1
                0x000000000803c837       0x8d D:/Program Files/STM32CubeIDE_1.10.1/STM32CubeIDE/plugins/com.st.stm32cube.ide.mcu.externaltools.gnu-tools-for-stm32.11.3.rel1.win32_1.1.1.202309131626/tools/bin/../lib/gcc/arm-none-eabi/11.3.1/../../../../arm-none-eabi/lib/thumb/v7-m/nofp\libc_nano.a(libc_a-dtoa.o)
                                         0x8f (size before relaxing)
 .rodata._Balloc.str1.1
                0x000000000803c8c4       0x59 D:/Program Files/STM32CubeIDE_1.10.1/STM32CubeIDE/plugins/com.st.stm32cube.ide.mcu.externaltools.gnu-tools-for-stm32.11.3.rel1.win32_1.1.1.202309131626/tools/bin/../lib/gcc/arm-none-eabi/11.3.1/../../../../arm-none-eabi/lib/thumb/v7-m/nofp\libc_nano.a(libc_a-mprec.o)
                                         0x70 (size before relaxing)
 .rodata.__multadd.str1.1
                0x000000000803c91d       0x11 D:/Program Files/STM32CubeIDE_1.10.1/STM32CubeIDE/plugins/com.st.stm32cube.ide.mcu.externaltools.gnu-tools-for-stm32.11.3.rel1.win32_1.1.1.202309131626/tools/bin/../lib/gcc/arm-none-eabi/11.3.1/../../../../arm-none-eabi/lib/thumb/v7-m/nofp\libc_nano.a(libc_a-mprec.o)
 *fill*         0x000000000803c91d        0x3 
 .rodata.__mprec_bigtens
                0x000000000803c920       0x28 D:/Program Files/STM32CubeIDE_1.10.1/STM32CubeIDE/plugins/com.st.stm32cube.ide.mcu.externaltools.gnu-tools-for-stm32.11.3.rel1.win32_1.1.1.202309131626/tools/bin/../lib/gcc/arm-none-eabi/11.3.1/../../../../arm-none-eabi/lib/thumb/v7-m/nofp\libc_nano.a(libc_a-mprec.o)
                0x000000000803c920                __mprec_bigtens
 .rodata.__mprec_tens
                0x000000000803c948       0xc8 D:/Program Files/STM32CubeIDE_1.10.1/STM32CubeIDE/plugins/com.st.stm32cube.ide.mcu.externaltools.gnu-tools-for-stm32.11.3.rel1.win32_1.1.1.202309131626/tools/bin/../lib/gcc/arm-none-eabi/11.3.1/../../../../arm-none-eabi/lib/thumb/v7-m/nofp\libc_nano.a(libc_a-mprec.o)
                0x000000000803c948                __mprec_tens
 .rodata.p05.0  0x000000000803ca10        0xc D:/Program Files/STM32CubeIDE_1.10.1/STM32CubeIDE/plugins/com.st.stm32cube.ide.mcu.externaltools.gnu-tools-for-stm32.11.3.rel1.win32_1.1.1.202309131626/tools/bin/../lib/gcc/arm-none-eabi/11.3.1/../../../../arm-none-eabi/lib/thumb/v7-m/nofp\libc_nano.a(libc_a-mprec.o)
 .rodata._strtod_l.str1.1
                0x000000000803ca1c       0x59 D:/Program Files/STM32CubeIDE_1.10.1/STM32CubeIDE/plugins/com.st.stm32cube.ide.mcu.externaltools.gnu-tools-for-stm32.11.3.rel1.win32_1.1.1.202309131626/tools/bin/../lib/gcc/arm-none-eabi/11.3.1/../../../../arm-none-eabi/lib/thumb/v7-m/nofp\libc_nano.a(libc_a-strtod.o)
                                          0xf (size before relaxing)
 .rodata.fpi.1  0x000000000803ca1c       0x14 D:/Program Files/STM32CubeIDE_1.10.1/STM32CubeIDE/plugins/com.st.stm32cube.ide.mcu.externaltools.gnu-tools-for-stm32.11.3.rel1.win32_1.1.1.202309131626/tools/bin/../lib/gcc/arm-none-eabi/11.3.1/../../../../arm-none-eabi/lib/thumb/v7-m/nofp\libc_nano.a(libc_a-strtod.o)
 .rodata.fpinan.0
                0x000000000803ca30       0x14 D:/Program Files/STM32CubeIDE_1.10.1/STM32CubeIDE/plugins/com.st.stm32cube.ide.mcu.externaltools.gnu-tools-for-stm32.11.3.rel1.win32_1.1.1.202309131626/tools/bin/../lib/gcc/arm-none-eabi/11.3.1/../../../../arm-none-eabi/lib/thumb/v7-m/nofp\libc_nano.a(libc_a-strtod.o)
 *fill*         0x000000000803ca44        0x4 
 .rodata.tinytens
                0x000000000803ca48       0x28 D:/Program Files/STM32CubeIDE_1.10.1/STM32CubeIDE/plugins/com.st.stm32cube.ide.mcu.externaltools.gnu-tools-for-stm32.11.3.rel1.win32_1.1.1.202309131626/tools/bin/../lib/gcc/arm-none-eabi/11.3.1/../../../../arm-none-eabi/lib/thumb/v7-m/nofp\libc_nano.a(libc_a-strtod.o)
 .rodata._ctype_
                0x000000000803ca70      0x101 D:/Program Files/STM32CubeIDE_1.10.1/STM32CubeIDE/plugins/com.st.stm32cube.ide.mcu.externaltools.gnu-tools-for-stm32.11.3.rel1.win32_1.1.1.202309131626/tools/bin/../lib/gcc/arm-none-eabi/11.3.1/../../../../arm-none-eabi/lib/thumb/v7-m/nofp\libc_nano.a(libc_a-ctype_.o)
                0x000000000803ca70                _ctype_
 .rodata._svfprintf_r.str1.1
                0x000000000803cb71       0x11 D:/Program Files/STM32CubeIDE_1.10.1/STM32CubeIDE/plugins/com.st.stm32cube.ide.mcu.externaltools.gnu-tools-for-stm32.11.3.rel1.win32_1.1.1.202309131626/tools/bin/../lib/gcc/arm-none-eabi/11.3.1/../../../../arm-none-eabi/lib/thumb/v7-m/nofp\libc_nano.a(libc_a-nano-svfprintf.o)
 .rodata._vfprintf_r.str1.1
                0x000000000803cb82       0x11 D:/Program Files/STM32CubeIDE_1.10.1/STM32CubeIDE/plugins/com.st.stm32cube.ide.mcu.externaltools.gnu-tools-for-stm32.11.3.rel1.win32_1.1.1.202309131626/tools/bin/../lib/gcc/arm-none-eabi/11.3.1/../../../../arm-none-eabi/lib/thumb/v7-m/nofp\libc_nano.a(libc_a-nano-vfprintf.o)
 .rodata._setlocale_r.str1.1
                0x000000000803cb82        0x8 D:/Program Files/STM32CubeIDE_1.10.1/STM32CubeIDE/plugins/com.st.stm32cube.ide.mcu.externaltools.gnu-tools-for-stm32.11.3.rel1.win32_1.1.1.202309131626/tools/bin/../lib/gcc/arm-none-eabi/11.3.1/../../../../arm-none-eabi/lib/thumb/v7-m/nofp\libc_nano.a(libc_a-locale.o)
                                          0x9 (size before relaxing)
 .rodata.str1.1
                0x000000000803cb8a        0x2 D:/Program Files/STM32CubeIDE_1.10.1/STM32CubeIDE/plugins/com.st.stm32cube.ide.mcu.externaltools.gnu-tools-for-stm32.11.3.rel1.win32_1.1.1.202309131626/tools/bin/../lib/gcc/arm-none-eabi/11.3.1/../../../../arm-none-eabi/lib/thumb/v7-m/nofp\libc_nano.a(libc_a-locale.o)
 .rodata.__assert_func.str1.1
                0x000000000803cb8a       0x3c D:/Program Files/STM32CubeIDE_1.10.1/STM32CubeIDE/plugins/com.st.stm32cube.ide.mcu.externaltools.gnu-tools-for-stm32.11.3.rel1.win32_1.1.1.202309131626/tools/bin/../lib/gcc/arm-none-eabi/11.3.1/../../../../arm-none-eabi/lib/thumb/v7-m/nofp\libc_nano.a(libc_a-assert.o)
                                         0x3d (size before relaxing)
 .rodata.__gethex.str1.1
                0x000000000803cbc6       0x60 D:/Program Files/STM32CubeIDE_1.10.1/STM32CubeIDE/plugins/com.st.stm32cube.ide.mcu.externaltools.gnu-tools-for-stm32.11.3.rel1.win32_1.1.1.202309131626/tools/bin/../lib/gcc/arm-none-eabi/11.3.1/../../../../arm-none-eabi/lib/thumb/v7-m/nofp\libc_nano.a(libc_a-gdtoa-gethex.o)
                                         0x73 (size before relaxing)
                0x000000000803cc28                . = ALIGN (0x4)
 *fill*         0x000000000803cc26        0x2 

.rel.dyn        0x000000000803cc28        0x0
 .rel.iplt      0x000000000803cc28        0x0 D:/Program Files/STM32CubeIDE_1.10.1/STM32CubeIDE/plugins/com.st.stm32cube.ide.mcu.externaltools.gnu-tools-for-stm32.11.3.rel1.win32_1.1.1.202309131626/tools/bin/../lib/gcc/arm-none-eabi/11.3.1/thumb/v7-m/nofp/crtbegin.o

.ARM.extab      0x000000000803cc28        0x0
                0x000000000803cc28                . = ALIGN (0x4)
 *(.ARM.extab* .gnu.linkonce.armextab.*)
                0x000000000803cc28                . = ALIGN (0x4)

.ARM            0x000000000803cc28        0x0
                0x000000000803cc28                . = ALIGN (0x4)
                0x000000000803cc28                __exidx_start = .
 *(.ARM.exidx*)
                0x000000000803cc28                __exidx_end = .
                0x000000000803cc28                . = ALIGN (0x4)

.preinit_array  0x000000000803cc28        0x0
                0x000000000803cc28                . = ALIGN (0x4)
                0x000000000803cc28                PROVIDE (__preinit_array_start = .)
 *(.preinit_array*)
                0x000000000803cc28                PROVIDE (__preinit_array_end = .)
                0x000000000803cc28                . = ALIGN (0x4)

.init_array     0x000000000803cc28        0x4
                0x000000000803cc28                . = ALIGN (0x4)
                0x000000000803cc28                PROVIDE (__init_array_start = .)
 *(SORT_BY_NAME(.init_array.*))
 *(.init_array*)
 .init_array    0x000000000803cc28        0x4 D:/Program Files/STM32CubeIDE_1.10.1/STM32CubeIDE/plugins/com.st.stm32cube.ide.mcu.externaltools.gnu-tools-for-stm32.11.3.rel1.win32_1.1.1.202309131626/tools/bin/../lib/gcc/arm-none-eabi/11.3.1/thumb/v7-m/nofp/crtbegin.o
                0x000000000803cc2c                PROVIDE (__init_array_end = .)
                0x000000000803cc2c                . = ALIGN (0x4)

.fini_array     0x000000000803cc2c        0x4
                0x000000000803cc2c                . = ALIGN (0x4)
                [!provide]                        PROVIDE (__fini_array_start = .)
 *(SORT_BY_NAME(.fini_array.*))
 *(.fini_array*)
 .fini_array    0x000000000803cc2c        0x4 D:/Program Files/STM32CubeIDE_1.10.1/STM32CubeIDE/plugins/com.st.stm32cube.ide.mcu.externaltools.gnu-tools-for-stm32.11.3.rel1.win32_1.1.1.202309131626/tools/bin/../lib/gcc/arm-none-eabi/11.3.1/thumb/v7-m/nofp/crtbegin.o
                [!provide]                        PROVIDE (__fini_array_end = .)
                0x000000000803cc30                . = ALIGN (0x4)
