
Tank_Dual_Pro.elf:     file format elf32-littlearm

Sections:
Idx Name          Size      VMA       LMA       File off  Algn
  0 .isr_vector   000001e4  08000000  08000000  00010000  2**0
                  CONTENTS, ALLOC, LOAD, READONLY, DATA
  1 .text         0000fab8  080001f0  080001f0  000101f0  2**4
                  CONTENTS, ALLOC, LOAD, READONLY, CODE
  2 .rodata       0002cf80  0800fca8  0800fca8  0001fca8  2**3
                  CONTENTS, ALLOC, LOAD, READONLY, DATA
  3 .ARM.extab    00000000  0803cc28  0803cc28  000502bc  2**0
                  CONTENTS
  4 .ARM          00000000  0803cc28  0803cc28  000502bc  2**0
                  CONTENTS
  5 .preinit_array 00000000  0803cc28  0803cc28  000502bc  2**0
                  CONTENTS, ALLOC, LOAD, DATA
  6 .init_array   00000004  0803cc28  0803cc28  0004cc28  2**2
                  CONTENTS, ALLOC, LOAD, DATA
  7 .fini_array   00000004  0803cc2c  0803cc2c  0004cc2c  2**2
                  CONTENTS, ALLOC, LOAD, DATA
  8 .data         000002b0  20000000  0803cc30  00050000  2**2
                  CONTENTS, ALLOC, LOAD, DATA
  9 .nzds         0000000c  200002b0  0803cee0  000502b0  2**2
                  CONTENTS, ALLOC, LOAD, DATA
 10 .bss          00007078  200002bc  0803ceec  000502bc  2**2
                  ALLOC
 11 ._user_heap_stack 00000604  20007334  0803ceec  00057334  2**0
                  ALLOC
 12 .ARM.attributes 00000029  00000000  00000000  000502bc  2**0
                  CONTENTS, READONLY
 13 .comment      00000043  00000000  00000000  000502e5  2**0
                  CONTENTS, READONLY
 14 .debug_info   0003390e  00000000  00000000  00050328  2**0
                  CONTENTS, READONLY, DEBUGGING, OCTETS
 15 .debug_abbrev 00008783  00000000  00000000  00083c36  2**0
                  CONTENTS, READONLY, DEBUGGING, OCTETS
 16 .debug_loclists 00010869  00000000  00000000  0008c3b9  2**0
                  CONTENTS, READONLY, DEBUGGING, OCTETS
 17 .debug_aranges 000024f8  00000000  00000000  0009cc28  2**3
                  CONTENTS, READONLY, DEBUGGING, OCTETS
 18 .debug_rnglists 000020fa  00000000  00000000  0009f120  2**0
                  CONTENTS, READONLY, DEBUGGING, OCTETS
 19 .debug_macro  0001aeae  00000000  00000000  000a121a  2**0
                  CONTENTS, READONLY, DEBUGGING, OCTETS
 20 .debug_line   00035363  00000000  00000000  000bc0c8  2**0
                  CONTENTS, READONLY, DEBUGGING, OCTETS
 21 .debug_str    0006aa62  00000000  00000000  000f142b  2**0
                  CONTENTS, READONLY, DEBUGGING, OCTETS
 22 .debug_frame  00007fbc  00000000  00000000  0015be90  2**2
                  CONTENTS, READONLY, DEBUGGING, OCTETS
 23 .debug_line_str 00000090  00000000  00000000  00163e4c  2**0
                  CONTENTS, READONLY, DEBUGGING, OCTETS

Disassembly of section .text:

080001f0 <__do_global_dtors_aux>:
 80001f0:	b510      	push	{r4, lr}
 80001f2:	4c05      	ldr	r4, [pc, #20]	; (8000208 <__do_global_dtors_aux+0x18>)
 80001f4:	7823      	ldrb	r3, [r4, #0]
 80001f6:	b933      	cbnz	r3, 8000206 <__do_global_dtors_aux+0x16>
 80001f8:	4b04      	ldr	r3, [pc, #16]	; (800020c <__do_global_dtors_aux+0x1c>)
 80001fa:	b113      	cbz	r3, 8000202 <__do_global_dtors_aux+0x12>
 80001fc:	4804      	ldr	r0, [pc, #16]	; (8000210 <__do_global_dtors_aux+0x20>)
 80001fe:	f3af 8000 	nop.w
 8000202:	2301      	movs	r3, #1
 8000204:	7023      	strb	r3, [r4, #0]
 8000206:	bd10      	pop	{r4, pc}
 8000208:	200002bc 	.word	0x200002bc
 800020c:	00000000 	.word	0x00000000
 8000210:	0800fc90 	.word	0x0800fc90

08000214 <frame_dummy>:
 8000214:	b508      	push	{r3, lr}
 8000216:	4b03      	ldr	r3, [pc, #12]	; (8000224 <frame_dummy+0x10>)
 8000218:	b11b      	cbz	r3, 8000222 <frame_dummy+0xe>
 800021a:	4903      	ldr	r1, [pc, #12]	; (8000228 <frame_dummy+0x14>)
 800021c:	4803      	ldr	r0, [pc, #12]	; (800022c <frame_dummy+0x18>)
 800021e:	f3af 8000 	nop.w
 8000222:	bd08      	pop	{r3, pc}
 8000224:	00000000 	.word	0x00000000
 8000228:	200002c0 	.word	0x200002c0
 800022c:	0800fc90 	.word	0x0800fc90

08000230 <strlen>:
 8000230:	4603      	mov	r3, r0
 8000232:	f813 2b01 	ldrb.w	r2, [r3], #1
 8000236:	2a00      	cmp	r2, #0
 8000238:	d1fb      	bne.n	8000232 <strlen+0x2>
 800023a:	1a18      	subs	r0, r3, r0
 800023c:	3801      	subs	r0, #1
 800023e:	4770      	bx	lr

08000240 <__aeabi_drsub>:
 8000240:	f081 4100 	eor.w	r1, r1, #2147483648	; 0x80000000
 8000244:	e002      	b.n	800024c <__adddf3>
 8000246:	bf00      	nop

08000248 <__aeabi_dsub>:
 8000248:	f083 4300 	eor.w	r3, r3, #2147483648	; 0x80000000

0800024c <__adddf3>:
 800024c:	b530      	push	{r4, r5, lr}
 800024e:	ea4f 0441 	mov.w	r4, r1, lsl #1
 8000252:	ea4f 0543 	mov.w	r5, r3, lsl #1
 8000256:	ea94 0f05 	teq	r4, r5
 800025a:	bf08      	it	eq
 800025c:	ea90 0f02 	teqeq	r0, r2
 8000260:	bf1f      	itttt	ne
 8000262:	ea54 0c00 	orrsne.w	ip, r4, r0
 8000266:	ea55 0c02 	orrsne.w	ip, r5, r2
 800026a:	ea7f 5c64 	mvnsne.w	ip, r4, asr #21
 800026e:	ea7f 5c65 	mvnsne.w	ip, r5, asr #21
 8000272:	f000 80e2 	beq.w	800043a <__adddf3+0x1ee>
 8000276:	ea4f 5454 	mov.w	r4, r4, lsr #21
 800027a:	ebd4 5555 	rsbs	r5, r4, r5, lsr #21
 800027e:	bfb8      	it	lt
 8000280:	426d      	neglt	r5, r5
 8000282:	dd0c      	ble.n	800029e <__adddf3+0x52>
 8000284:	442c      	add	r4, r5
 8000286:	ea80 0202 	eor.w	r2, r0, r2
 800028a:	ea81 0303 	eor.w	r3, r1, r3
 800028e:	ea82 0000 	eor.w	r0, r2, r0
 8000292:	ea83 0101 	eor.w	r1, r3, r1
 8000296:	ea80 0202 	eor.w	r2, r0, r2
 800029a:	ea81 0303 	eor.w	r3, r1, r3
 800029e:	2d36      	cmp	r5, #54	; 0x36
 80002a0:	bf88      	it	hi
 80002a2:	bd30      	pophi	{r4, r5, pc}
 80002a4:	f011 4f00 	tst.w	r1, #2147483648	; 0x80000000
 80002a8:	ea4f 3101 	mov.w	r1, r1, lsl #12
 80002ac:	f44f 1c80 	mov.w	ip, #1048576	; 0x100000
 80002b0:	ea4c 3111 	orr.w	r1, ip, r1, lsr #12
 80002b4:	d002      	beq.n	80002bc <__adddf3+0x70>
 80002b6:	4240      	negs	r0, r0
 80002b8:	eb61 0141 	sbc.w	r1, r1, r1, lsl #1
 80002bc:	f013 4f00 	tst.w	r3, #2147483648	; 0x80000000
 80002c0:	ea4f 3303 	mov.w	r3, r3, lsl #12
 80002c4:	ea4c 3313 	orr.w	r3, ip, r3, lsr #12
 80002c8:	d002      	beq.n	80002d0 <__adddf3+0x84>
 80002ca:	4252      	negs	r2, r2
 80002cc:	eb63 0343 	sbc.w	r3, r3, r3, lsl #1
 80002d0:	ea94 0f05 	teq	r4, r5
 80002d4:	f000 80a7 	beq.w	8000426 <__adddf3+0x1da>
 80002d8:	f1a4 0401 	sub.w	r4, r4, #1
 80002dc:	f1d5 0e20 	rsbs	lr, r5, #32
 80002e0:	db0d      	blt.n	80002fe <__adddf3+0xb2>
 80002e2:	fa02 fc0e 	lsl.w	ip, r2, lr
 80002e6:	fa22 f205 	lsr.w	r2, r2, r5
 80002ea:	1880      	adds	r0, r0, r2
 80002ec:	f141 0100 	adc.w	r1, r1, #0
 80002f0:	fa03 f20e 	lsl.w	r2, r3, lr
 80002f4:	1880      	adds	r0, r0, r2
 80002f6:	fa43 f305 	asr.w	r3, r3, r5
 80002fa:	4159      	adcs	r1, r3
 80002fc:	e00e      	b.n	800031c <__adddf3+0xd0>
 80002fe:	f1a5 0520 	sub.w	r5, r5, #32
 8000302:	f10e 0e20 	add.w	lr, lr, #32
 8000306:	2a01      	cmp	r2, #1
 8000308:	fa03 fc0e 	lsl.w	ip, r3, lr
 800030c:	bf28      	it	cs
 800030e:	f04c 0c02 	orrcs.w	ip, ip, #2
 8000312:	fa43 f305 	asr.w	r3, r3, r5
 8000316:	18c0      	adds	r0, r0, r3
 8000318:	eb51 71e3 	adcs.w	r1, r1, r3, asr #31
 800031c:	f001 4500 	and.w	r5, r1, #2147483648	; 0x80000000
 8000320:	d507      	bpl.n	8000332 <__adddf3+0xe6>
 8000322:	f04f 0e00 	mov.w	lr, #0
 8000326:	f1dc 0c00 	rsbs	ip, ip, #0
 800032a:	eb7e 0000 	sbcs.w	r0, lr, r0
 800032e:	eb6e 0101 	sbc.w	r1, lr, r1
 8000332:	f5b1 1f80 	cmp.w	r1, #1048576	; 0x100000
 8000336:	d31b      	bcc.n	8000370 <__adddf3+0x124>
 8000338:	f5b1 1f00 	cmp.w	r1, #2097152	; 0x200000
 800033c:	d30c      	bcc.n	8000358 <__adddf3+0x10c>
 800033e:	0849      	lsrs	r1, r1, #1
 8000340:	ea5f 0030 	movs.w	r0, r0, rrx
 8000344:	ea4f 0c3c 	mov.w	ip, ip, rrx
 8000348:	f104 0401 	add.w	r4, r4, #1
 800034c:	ea4f 5244 	mov.w	r2, r4, lsl #21
 8000350:	f512 0f80 	cmn.w	r2, #4194304	; 0x400000
 8000354:	f080 809a 	bcs.w	800048c <__adddf3+0x240>
 8000358:	f1bc 4f00 	cmp.w	ip, #2147483648	; 0x80000000
 800035c:	bf08      	it	eq
 800035e:	ea5f 0c50 	movseq.w	ip, r0, lsr #1
 8000362:	f150 0000 	adcs.w	r0, r0, #0
 8000366:	eb41 5104 	adc.w	r1, r1, r4, lsl #20
 800036a:	ea41 0105 	orr.w	r1, r1, r5
 800036e:	bd30      	pop	{r4, r5, pc}
 8000370:	ea5f 0c4c 	movs.w	ip, ip, lsl #1
 8000374:	4140      	adcs	r0, r0
 8000376:	eb41 0101 	adc.w	r1, r1, r1
 800037a:	3c01      	subs	r4, #1
 800037c:	bf28      	it	cs
 800037e:	f5b1 1f80 	cmpcs.w	r1, #1048576	; 0x100000
 8000382:	d2e9      	bcs.n	8000358 <__adddf3+0x10c>
 8000384:	f091 0f00 	teq	r1, #0
 8000388:	bf04      	itt	eq
 800038a:	4601      	moveq	r1, r0
 800038c:	2000      	moveq	r0, #0
 800038e:	fab1 f381 	clz	r3, r1
 8000392:	bf08      	it	eq
 8000394:	3320      	addeq	r3, #32
 8000396:	f1a3 030b 	sub.w	r3, r3, #11
 800039a:	f1b3 0220 	subs.w	r2, r3, #32
 800039e:	da0c      	bge.n	80003ba <__adddf3+0x16e>
 80003a0:	320c      	adds	r2, #12
 80003a2:	dd08      	ble.n	80003b6 <__adddf3+0x16a>
 80003a4:	f102 0c14 	add.w	ip, r2, #20
 80003a8:	f1c2 020c 	rsb	r2, r2, #12
 80003ac:	fa01 f00c 	lsl.w	r0, r1, ip
 80003b0:	fa21 f102 	lsr.w	r1, r1, r2
 80003b4:	e00c      	b.n	80003d0 <__adddf3+0x184>
 80003b6:	f102 0214 	add.w	r2, r2, #20
 80003ba:	bfd8      	it	le
 80003bc:	f1c2 0c20 	rsble	ip, r2, #32
 80003c0:	fa01 f102 	lsl.w	r1, r1, r2
 80003c4:	fa20 fc0c 	lsr.w	ip, r0, ip
 80003c8:	bfdc      	itt	le
 80003ca:	ea41 010c 	orrle.w	r1, r1, ip
 80003ce:	4090      	lslle	r0, r2
 80003d0:	1ae4      	subs	r4, r4, r3
 80003d2:	bfa2      	ittt	ge
 80003d4:	eb01 5104 	addge.w	r1, r1, r4, lsl #20
 80003d8:	4329      	orrge	r1, r5
 80003da:	bd30      	popge	{r4, r5, pc}
 80003dc:	ea6f 0404 	mvn.w	r4, r4
 80003e0:	3c1f      	subs	r4, #31
 80003e2:	da1c      	bge.n	800041e <__adddf3+0x1d2>
 80003e4:	340c      	adds	r4, #12
 80003e6:	dc0e      	bgt.n	8000406 <__adddf3+0x1ba>
 80003e8:	f104 0414 	add.w	r4, r4, #20
 80003ec:	f1c4 0220 	rsb	r2, r4, #32
 80003f0:	fa20 f004 	lsr.w	r0, r0, r4
 80003f4:	fa01 f302 	lsl.w	r3, r1, r2
 80003f8:	ea40 0003 	orr.w	r0, r0, r3
 80003fc:	fa21 f304 	lsr.w	r3, r1, r4
 8000400:	ea45 0103 	orr.w	r1, r5, r3
 8000404:	bd30      	pop	{r4, r5, pc}
 8000406:	f1c4 040c 	rsb	r4, r4, #12
 800040a:	f1c4 0220 	rsb	r2, r4, #32
 800040e:	fa20 f002 	lsr.w	r0, r0, r2
 8000412:	fa01 f304 	lsl.w	r3, r1, r4
 8000416:	ea40 0003 	orr.w	r0, r0, r3
 800041a:	4629      	mov	r1, r5
 800041c:	bd30      	pop	{r4, r5, pc}
 800041e:	fa21 f004 	lsr.w	r0, r1, r4
 8000422:	4629      	mov	r1, r5
 8000424:	bd30      	pop	{r4, r5, pc}
 8000426:	f094 0f00 	teq	r4, #0
 800042a:	f483 1380 	eor.w	r3, r3, #1048576	; 0x100000
 800042e:	bf06      	itte	eq
 8000430:	f481 1180 	eoreq.w	r1, r1, #1048576	; 0x100000
 8000434:	3401      	addeq	r4, #1
 8000436:	3d01      	subne	r5, #1
 8000438:	e74e      	b.n	80002d8 <__adddf3+0x8c>
 800043a:	ea7f 5c64 	mvns.w	ip, r4, asr #21
 800043e:	bf18      	it	ne
 8000440:	ea7f 5c65 	mvnsne.w	ip, r5, asr #21
 8000444:	d029      	beq.n	800049a <__adddf3+0x24e>
 8000446:	ea94 0f05 	teq	r4, r5
 800044a:	bf08      	it	eq
 800044c:	ea90 0f02 	teqeq	r0, r2
 8000450:	d005      	beq.n	800045e <__adddf3+0x212>
 8000452:	ea54 0c00 	orrs.w	ip, r4, r0
 8000456:	bf04      	itt	eq
 8000458:	4619      	moveq	r1, r3
 800045a:	4610      	moveq	r0, r2
 800045c:	bd30      	pop	{r4, r5, pc}
 800045e:	ea91 0f03 	teq	r1, r3
 8000462:	bf1e      	ittt	ne
 8000464:	2100      	movne	r1, #0
 8000466:	2000      	movne	r0, #0
 8000468:	bd30      	popne	{r4, r5, pc}
 800046a:	ea5f 5c54 	movs.w	ip, r4, lsr #21
 800046e:	d105      	bne.n	800047c <__adddf3+0x230>
 8000470:	0040      	lsls	r0, r0, #1
 8000472:	4149      	adcs	r1, r1
 8000474:	bf28      	it	cs
 8000476:	f041 4100 	orrcs.w	r1, r1, #2147483648	; 0x80000000
 800047a:	bd30      	pop	{r4, r5, pc}
 800047c:	f514 0480 	adds.w	r4, r4, #4194304	; 0x400000
 8000480:	bf3c      	itt	cc
 8000482:	f501 1180 	addcc.w	r1, r1, #1048576	; 0x100000
 8000486:	bd30      	popcc	{r4, r5, pc}
 8000488:	f001 4500 	and.w	r5, r1, #2147483648	; 0x80000000
 800048c:	f045 41fe 	orr.w	r1, r5, #2130706432	; 0x7f000000
 8000490:	f441 0170 	orr.w	r1, r1, #15728640	; 0xf00000
 8000494:	f04f 0000 	mov.w	r0, #0
 8000498:	bd30      	pop	{r4, r5, pc}
 800049a:	ea7f 5c64 	mvns.w	ip, r4, asr #21
 800049e:	bf1a      	itte	ne
 80004a0:	4619      	movne	r1, r3
 80004a2:	4610      	movne	r0, r2
 80004a4:	ea7f 5c65 	mvnseq.w	ip, r5, asr #21
 80004a8:	bf1c      	itt	ne
 80004aa:	460b      	movne	r3, r1
 80004ac:	4602      	movne	r2, r0
 80004ae:	ea50 3401 	orrs.w	r4, r0, r1, lsl #12
 80004b2:	bf06      	itte	eq
 80004b4:	ea52 3503 	orrseq.w	r5, r2, r3, lsl #12
 80004b8:	ea91 0f03 	teqeq	r1, r3
 80004bc:	f441 2100 	orrne.w	r1, r1, #524288	; 0x80000
 80004c0:	bd30      	pop	{r4, r5, pc}
 80004c2:	bf00      	nop

080004c4 <__aeabi_ui2d>:
 80004c4:	f090 0f00 	teq	r0, #0
 80004c8:	bf04      	itt	eq
 80004ca:	2100      	moveq	r1, #0
 80004cc:	4770      	bxeq	lr
 80004ce:	b530      	push	{r4, r5, lr}
 80004d0:	f44f 6480 	mov.w	r4, #1024	; 0x400
 80004d4:	f104 0432 	add.w	r4, r4, #50	; 0x32
 80004d8:	f04f 0500 	mov.w	r5, #0
 80004dc:	f04f 0100 	mov.w	r1, #0
 80004e0:	e750      	b.n	8000384 <__adddf3+0x138>
 80004e2:	bf00      	nop

080004e4 <__aeabi_i2d>:
 80004e4:	f090 0f00 	teq	r0, #0
 80004e8:	bf04      	itt	eq
 80004ea:	2100      	moveq	r1, #0
 80004ec:	4770      	bxeq	lr
 80004ee:	b530      	push	{r4, r5, lr}
 80004f0:	f44f 6480 	mov.w	r4, #1024	; 0x400
 80004f4:	f104 0432 	add.w	r4, r4, #50	; 0x32
 80004f8:	f010 4500 	ands.w	r5, r0, #2147483648	; 0x80000000
 80004fc:	bf48      	it	mi
 80004fe:	4240      	negmi	r0, r0
 8000500:	f04f 0100 	mov.w	r1, #0
 8000504:	e73e      	b.n	8000384 <__adddf3+0x138>
 8000506:	bf00      	nop

08000508 <__aeabi_f2d>:
 8000508:	0042      	lsls	r2, r0, #1
 800050a:	ea4f 01e2 	mov.w	r1, r2, asr #3
 800050e:	ea4f 0131 	mov.w	r1, r1, rrx
 8000512:	ea4f 7002 	mov.w	r0, r2, lsl #28
 8000516:	bf1f      	itttt	ne
 8000518:	f012 437f 	andsne.w	r3, r2, #4278190080	; 0xff000000
 800051c:	f093 4f7f 	teqne	r3, #4278190080	; 0xff000000
 8000520:	f081 5160 	eorne.w	r1, r1, #939524096	; 0x38000000
 8000524:	4770      	bxne	lr
 8000526:	f032 427f 	bics.w	r2, r2, #4278190080	; 0xff000000
 800052a:	bf08      	it	eq
 800052c:	4770      	bxeq	lr
 800052e:	f093 4f7f 	teq	r3, #4278190080	; 0xff000000
 8000532:	bf04      	itt	eq
 8000534:	f441 2100 	orreq.w	r1, r1, #524288	; 0x80000
 8000538:	4770      	bxeq	lr
 800053a:	b530      	push	{r4, r5, lr}
 800053c:	f44f 7460 	mov.w	r4, #896	; 0x380
 8000540:	f001 4500 	and.w	r5, r1, #2147483648	; 0x80000000
 8000544:	f021 4100 	bic.w	r1, r1, #2147483648	; 0x80000000
 8000548:	e71c      	b.n	8000384 <__adddf3+0x138>
 800054a:	bf00      	nop

0800054c <__aeabi_ul2d>:
 800054c:	ea50 0201 	orrs.w	r2, r0, r1
 8000550:	bf08      	it	eq
 8000552:	4770      	bxeq	lr
 8000554:	b530      	push	{r4, r5, lr}
 8000556:	f04f 0500 	mov.w	r5, #0
 800055a:	e00a      	b.n	8000572 <__aeabi_l2d+0x16>

0800055c <__aeabi_l2d>:
 800055c:	ea50 0201 	orrs.w	r2, r0, r1
 8000560:	bf08      	it	eq
 8000562:	4770      	bxeq	lr
 8000564:	b530      	push	{r4, r5, lr}
 8000566:	f011 4500 	ands.w	r5, r1, #2147483648	; 0x80000000
 800056a:	d502      	bpl.n	8000572 <__aeabi_l2d+0x16>
 800056c:	4240      	negs	r0, r0
 800056e:	eb61 0141 	sbc.w	r1, r1, r1, lsl #1
 8000572:	f44f 6480 	mov.w	r4, #1024	; 0x400
 8000576:	f104 0432 	add.w	r4, r4, #50	; 0x32
 800057a:	ea5f 5c91 	movs.w	ip, r1, lsr #22
 800057e:	f43f aed8 	beq.w	8000332 <__adddf3+0xe6>
 8000582:	f04f 0203 	mov.w	r2, #3
 8000586:	ea5f 0cdc 	movs.w	ip, ip, lsr #3
 800058a:	bf18      	it	ne
 800058c:	3203      	addne	r2, #3
 800058e:	ea5f 0cdc 	movs.w	ip, ip, lsr #3
 8000592:	bf18      	it	ne
 8000594:	3203      	addne	r2, #3
 8000596:	eb02 02dc 	add.w	r2, r2, ip, lsr #3
 800059a:	f1c2 0320 	rsb	r3, r2, #32
 800059e:	fa00 fc03 	lsl.w	ip, r0, r3
 80005a2:	fa20 f002 	lsr.w	r0, r0, r2
 80005a6:	fa01 fe03 	lsl.w	lr, r1, r3
 80005aa:	ea40 000e 	orr.w	r0, r0, lr
 80005ae:	fa21 f102 	lsr.w	r1, r1, r2
 80005b2:	4414      	add	r4, r2
 80005b4:	e6bd      	b.n	8000332 <__adddf3+0xe6>
 80005b6:	bf00      	nop

080005b8 <__aeabi_dmul>:
 80005b8:	b570      	push	{r4, r5, r6, lr}
 80005ba:	f04f 0cff 	mov.w	ip, #255	; 0xff
 80005be:	f44c 6ce0 	orr.w	ip, ip, #1792	; 0x700
 80005c2:	ea1c 5411 	ands.w	r4, ip, r1, lsr #20
 80005c6:	bf1d      	ittte	ne
 80005c8:	ea1c 5513 	andsne.w	r5, ip, r3, lsr #20
 80005cc:	ea94 0f0c 	teqne	r4, ip
 80005d0:	ea95 0f0c 	teqne	r5, ip
 80005d4:	f000 f8de 	bleq	8000794 <__aeabi_dmul+0x1dc>
 80005d8:	442c      	add	r4, r5
 80005da:	ea81 0603 	eor.w	r6, r1, r3
 80005de:	ea21 514c 	bic.w	r1, r1, ip, lsl #21
 80005e2:	ea23 534c 	bic.w	r3, r3, ip, lsl #21
 80005e6:	ea50 3501 	orrs.w	r5, r0, r1, lsl #12
 80005ea:	bf18      	it	ne
 80005ec:	ea52 3503 	orrsne.w	r5, r2, r3, lsl #12
 80005f0:	f441 1180 	orr.w	r1, r1, #1048576	; 0x100000
 80005f4:	f443 1380 	orr.w	r3, r3, #1048576	; 0x100000
 80005f8:	d038      	beq.n	800066c <__aeabi_dmul+0xb4>
 80005fa:	fba0 ce02 	umull	ip, lr, r0, r2
 80005fe:	f04f 0500 	mov.w	r5, #0
 8000602:	fbe1 e502 	umlal	lr, r5, r1, r2
 8000606:	f006 4200 	and.w	r2, r6, #2147483648	; 0x80000000
 800060a:	fbe0 e503 	umlal	lr, r5, r0, r3
 800060e:	f04f 0600 	mov.w	r6, #0
 8000612:	fbe1 5603 	umlal	r5, r6, r1, r3
 8000616:	f09c 0f00 	teq	ip, #0
 800061a:	bf18      	it	ne
 800061c:	f04e 0e01 	orrne.w	lr, lr, #1
 8000620:	f1a4 04ff 	sub.w	r4, r4, #255	; 0xff
 8000624:	f5b6 7f00 	cmp.w	r6, #512	; 0x200
 8000628:	f564 7440 	sbc.w	r4, r4, #768	; 0x300
 800062c:	d204      	bcs.n	8000638 <__aeabi_dmul+0x80>
 800062e:	ea5f 0e4e 	movs.w	lr, lr, lsl #1
 8000632:	416d      	adcs	r5, r5
 8000634:	eb46 0606 	adc.w	r6, r6, r6
 8000638:	ea42 21c6 	orr.w	r1, r2, r6, lsl #11
 800063c:	ea41 5155 	orr.w	r1, r1, r5, lsr #21
 8000640:	ea4f 20c5 	mov.w	r0, r5, lsl #11
 8000644:	ea40 505e 	orr.w	r0, r0, lr, lsr #21
 8000648:	ea4f 2ece 	mov.w	lr, lr, lsl #11
 800064c:	f1b4 0cfd 	subs.w	ip, r4, #253	; 0xfd
 8000650:	bf88      	it	hi
 8000652:	f5bc 6fe0 	cmphi.w	ip, #1792	; 0x700
 8000656:	d81e      	bhi.n	8000696 <__aeabi_dmul+0xde>
 8000658:	f1be 4f00 	cmp.w	lr, #2147483648	; 0x80000000
 800065c:	bf08      	it	eq
 800065e:	ea5f 0e50 	movseq.w	lr, r0, lsr #1
 8000662:	f150 0000 	adcs.w	r0, r0, #0
 8000666:	eb41 5104 	adc.w	r1, r1, r4, lsl #20
 800066a:	bd70      	pop	{r4, r5, r6, pc}
 800066c:	f006 4600 	and.w	r6, r6, #2147483648	; 0x80000000
 8000670:	ea46 0101 	orr.w	r1, r6, r1
 8000674:	ea40 0002 	orr.w	r0, r0, r2
 8000678:	ea81 0103 	eor.w	r1, r1, r3
 800067c:	ebb4 045c 	subs.w	r4, r4, ip, lsr #1
 8000680:	bfc2      	ittt	gt
 8000682:	ebd4 050c 	rsbsgt	r5, r4, ip
 8000686:	ea41 5104 	orrgt.w	r1, r1, r4, lsl #20
 800068a:	bd70      	popgt	{r4, r5, r6, pc}
 800068c:	f441 1180 	orr.w	r1, r1, #1048576	; 0x100000
 8000690:	f04f 0e00 	mov.w	lr, #0
 8000694:	3c01      	subs	r4, #1
 8000696:	f300 80ab 	bgt.w	80007f0 <__aeabi_dmul+0x238>
 800069a:	f114 0f36 	cmn.w	r4, #54	; 0x36
 800069e:	bfde      	ittt	le
 80006a0:	2000      	movle	r0, #0
 80006a2:	f001 4100 	andle.w	r1, r1, #2147483648	; 0x80000000
 80006a6:	bd70      	pople	{r4, r5, r6, pc}
 80006a8:	f1c4 0400 	rsb	r4, r4, #0
 80006ac:	3c20      	subs	r4, #32
 80006ae:	da35      	bge.n	800071c <__aeabi_dmul+0x164>
 80006b0:	340c      	adds	r4, #12
 80006b2:	dc1b      	bgt.n	80006ec <__aeabi_dmul+0x134>
 80006b4:	f104 0414 	add.w	r4, r4, #20
 80006b8:	f1c4 0520 	rsb	r5, r4, #32
 80006bc:	fa00 f305 	lsl.w	r3, r0, r5
 80006c0:	fa20 f004 	lsr.w	r0, r0, r4
 80006c4:	fa01 f205 	lsl.w	r2, r1, r5
 80006c8:	ea40 0002 	orr.w	r0, r0, r2
 80006cc:	f001 4200 	and.w	r2, r1, #2147483648	; 0x80000000
 80006d0:	f021 4100 	bic.w	r1, r1, #2147483648	; 0x80000000
 80006d4:	eb10 70d3 	adds.w	r0, r0, r3, lsr #31
 80006d8:	fa21 f604 	lsr.w	r6, r1, r4
 80006dc:	eb42 0106 	adc.w	r1, r2, r6
 80006e0:	ea5e 0e43 	orrs.w	lr, lr, r3, lsl #1
 80006e4:	bf08      	it	eq
 80006e6:	ea20 70d3 	biceq.w	r0, r0, r3, lsr #31
 80006ea:	bd70      	pop	{r4, r5, r6, pc}
 80006ec:	f1c4 040c 	rsb	r4, r4, #12
 80006f0:	f1c4 0520 	rsb	r5, r4, #32
 80006f4:	fa00 f304 	lsl.w	r3, r0, r4
 80006f8:	fa20 f005 	lsr.w	r0, r0, r5
 80006fc:	fa01 f204 	lsl.w	r2, r1, r4
 8000700:	ea40 0002 	orr.w	r0, r0, r2
 8000704:	f001 4100 	and.w	r1, r1, #2147483648	; 0x80000000
 8000708:	eb10 70d3 	adds.w	r0, r0, r3, lsr #31
 800070c:	f141 0100 	adc.w	r1, r1, #0
 8000710:	ea5e 0e43 	orrs.w	lr, lr, r3, lsl #1
 8000714:	bf08      	it	eq
 8000716:	ea20 70d3 	biceq.w	r0, r0, r3, lsr #31
 800071a:	bd70      	pop	{r4, r5, r6, pc}
 800071c:	f1c4 0520 	rsb	r5, r4, #32
 8000720:	fa00 f205 	lsl.w	r2, r0, r5
 8000724:	ea4e 0e02 	orr.w	lr, lr, r2
 8000728:	fa20 f304 	lsr.w	r3, r0, r4
 800072c:	fa01 f205 	lsl.w	r2, r1, r5
 8000730:	ea43 0302 	orr.w	r3, r3, r2
 8000734:	fa21 f004 	lsr.w	r0, r1, r4
 8000738:	f001 4100 	and.w	r1, r1, #2147483648	; 0x80000000
 800073c:	fa21 f204 	lsr.w	r2, r1, r4
 8000740:	ea20 0002 	bic.w	r0, r0, r2
 8000744:	eb00 70d3 	add.w	r0, r0, r3, lsr #31
 8000748:	ea5e 0e43 	orrs.w	lr, lr, r3, lsl #1
 800074c:	bf08      	it	eq
 800074e:	ea20 70d3 	biceq.w	r0, r0, r3, lsr #31
 8000752:	bd70      	pop	{r4, r5, r6, pc}
 8000754:	f094 0f00 	teq	r4, #0
 8000758:	d10f      	bne.n	800077a <__aeabi_dmul+0x1c2>
 800075a:	f001 4600 	and.w	r6, r1, #2147483648	; 0x80000000
 800075e:	0040      	lsls	r0, r0, #1
 8000760:	eb41 0101 	adc.w	r1, r1, r1
 8000764:	f411 1f80 	tst.w	r1, #1048576	; 0x100000
 8000768:	bf08      	it	eq
 800076a:	3c01      	subeq	r4, #1
 800076c:	d0f7      	beq.n	800075e <__aeabi_dmul+0x1a6>
 800076e:	ea41 0106 	orr.w	r1, r1, r6
 8000772:	f095 0f00 	teq	r5, #0
 8000776:	bf18      	it	ne
 8000778:	4770      	bxne	lr
 800077a:	f003 4600 	and.w	r6, r3, #2147483648	; 0x80000000
 800077e:	0052      	lsls	r2, r2, #1
 8000780:	eb43 0303 	adc.w	r3, r3, r3
 8000784:	f413 1f80 	tst.w	r3, #1048576	; 0x100000
 8000788:	bf08      	it	eq
 800078a:	3d01      	subeq	r5, #1
 800078c:	d0f7      	beq.n	800077e <__aeabi_dmul+0x1c6>
 800078e:	ea43 0306 	orr.w	r3, r3, r6
 8000792:	4770      	bx	lr
 8000794:	ea94 0f0c 	teq	r4, ip
 8000798:	ea0c 5513 	and.w	r5, ip, r3, lsr #20
 800079c:	bf18      	it	ne
 800079e:	ea95 0f0c 	teqne	r5, ip
 80007a2:	d00c      	beq.n	80007be <__aeabi_dmul+0x206>
 80007a4:	ea50 0641 	orrs.w	r6, r0, r1, lsl #1
 80007a8:	bf18      	it	ne
 80007aa:	ea52 0643 	orrsne.w	r6, r2, r3, lsl #1
 80007ae:	d1d1      	bne.n	8000754 <__aeabi_dmul+0x19c>
 80007b0:	ea81 0103 	eor.w	r1, r1, r3
 80007b4:	f001 4100 	and.w	r1, r1, #2147483648	; 0x80000000
 80007b8:	f04f 0000 	mov.w	r0, #0
 80007bc:	bd70      	pop	{r4, r5, r6, pc}
 80007be:	ea50 0641 	orrs.w	r6, r0, r1, lsl #1
 80007c2:	bf06      	itte	eq
 80007c4:	4610      	moveq	r0, r2
 80007c6:	4619      	moveq	r1, r3
 80007c8:	ea52 0643 	orrsne.w	r6, r2, r3, lsl #1
 80007cc:	d019      	beq.n	8000802 <__aeabi_dmul+0x24a>
 80007ce:	ea94 0f0c 	teq	r4, ip
 80007d2:	d102      	bne.n	80007da <__aeabi_dmul+0x222>
 80007d4:	ea50 3601 	orrs.w	r6, r0, r1, lsl #12
 80007d8:	d113      	bne.n	8000802 <__aeabi_dmul+0x24a>
 80007da:	ea95 0f0c 	teq	r5, ip
 80007de:	d105      	bne.n	80007ec <__aeabi_dmul+0x234>
 80007e0:	ea52 3603 	orrs.w	r6, r2, r3, lsl #12
 80007e4:	bf1c      	itt	ne
 80007e6:	4610      	movne	r0, r2
 80007e8:	4619      	movne	r1, r3
 80007ea:	d10a      	bne.n	8000802 <__aeabi_dmul+0x24a>
 80007ec:	ea81 0103 	eor.w	r1, r1, r3
 80007f0:	f001 4100 	and.w	r1, r1, #2147483648	; 0x80000000
 80007f4:	f041 41fe 	orr.w	r1, r1, #2130706432	; 0x7f000000
 80007f8:	f441 0170 	orr.w	r1, r1, #15728640	; 0xf00000
 80007fc:	f04f 0000 	mov.w	r0, #0
 8000800:	bd70      	pop	{r4, r5, r6, pc}
 8000802:	f041 41fe 	orr.w	r1, r1, #2130706432	; 0x7f000000
 8000806:	f441 0178 	orr.w	r1, r1, #16252928	; 0xf80000
 800080a:	bd70      	pop	{r4, r5, r6, pc}

0800080c <__aeabi_ddiv>:
 800080c:	b570      	push	{r4, r5, r6, lr}
 800080e:	f04f 0cff 	mov.w	ip, #255	; 0xff
 8000812:	f44c 6ce0 	orr.w	ip, ip, #1792	; 0x700
 8000816:	ea1c 5411 	ands.w	r4, ip, r1, lsr #20
 800081a:	bf1d      	ittte	ne
 800081c:	ea1c 5513 	andsne.w	r5, ip, r3, lsr #20
 8000820:	ea94 0f0c 	teqne	r4, ip
 8000824:	ea95 0f0c 	teqne	r5, ip
 8000828:	f000 f8a7 	bleq	800097a <__aeabi_ddiv+0x16e>
 800082c:	eba4 0405 	sub.w	r4, r4, r5
 8000830:	ea81 0e03 	eor.w	lr, r1, r3
 8000834:	ea52 3503 	orrs.w	r5, r2, r3, lsl #12
 8000838:	ea4f 3101 	mov.w	r1, r1, lsl #12
 800083c:	f000 8088 	beq.w	8000950 <__aeabi_ddiv+0x144>
 8000840:	ea4f 3303 	mov.w	r3, r3, lsl #12
 8000844:	f04f 5580 	mov.w	r5, #268435456	; 0x10000000
 8000848:	ea45 1313 	orr.w	r3, r5, r3, lsr #4
 800084c:	ea43 6312 	orr.w	r3, r3, r2, lsr #24
 8000850:	ea4f 2202 	mov.w	r2, r2, lsl #8
 8000854:	ea45 1511 	orr.w	r5, r5, r1, lsr #4
 8000858:	ea45 6510 	orr.w	r5, r5, r0, lsr #24
 800085c:	ea4f 2600 	mov.w	r6, r0, lsl #8
 8000860:	f00e 4100 	and.w	r1, lr, #2147483648	; 0x80000000
 8000864:	429d      	cmp	r5, r3
 8000866:	bf08      	it	eq
 8000868:	4296      	cmpeq	r6, r2
 800086a:	f144 04fd 	adc.w	r4, r4, #253	; 0xfd
 800086e:	f504 7440 	add.w	r4, r4, #768	; 0x300
 8000872:	d202      	bcs.n	800087a <__aeabi_ddiv+0x6e>
 8000874:	085b      	lsrs	r3, r3, #1
 8000876:	ea4f 0232 	mov.w	r2, r2, rrx
 800087a:	1ab6      	subs	r6, r6, r2
 800087c:	eb65 0503 	sbc.w	r5, r5, r3
 8000880:	085b      	lsrs	r3, r3, #1
 8000882:	ea4f 0232 	mov.w	r2, r2, rrx
 8000886:	f44f 1080 	mov.w	r0, #1048576	; 0x100000
 800088a:	f44f 2c00 	mov.w	ip, #524288	; 0x80000
 800088e:	ebb6 0e02 	subs.w	lr, r6, r2
 8000892:	eb75 0e03 	sbcs.w	lr, r5, r3
 8000896:	bf22      	ittt	cs
 8000898:	1ab6      	subcs	r6, r6, r2
 800089a:	4675      	movcs	r5, lr
 800089c:	ea40 000c 	orrcs.w	r0, r0, ip
 80008a0:	085b      	lsrs	r3, r3, #1
 80008a2:	ea4f 0232 	mov.w	r2, r2, rrx
 80008a6:	ebb6 0e02 	subs.w	lr, r6, r2
 80008aa:	eb75 0e03 	sbcs.w	lr, r5, r3
 80008ae:	bf22      	ittt	cs
 80008b0:	1ab6      	subcs	r6, r6, r2
 80008b2:	4675      	movcs	r5, lr
 80008b4:	ea40 005c 	orrcs.w	r0, r0, ip, lsr #1
 80008b8:	085b      	lsrs	r3, r3, #1
 80008ba:	ea4f 0232 	mov.w	r2, r2, rrx
 80008be:	ebb6 0e02 	subs.w	lr, r6, r2
 80008c2:	eb75 0e03 	sbcs.w	lr, r5, r3
 80008c6:	bf22      	ittt	cs
 80008c8:	1ab6      	subcs	r6, r6, r2
 80008ca:	4675      	movcs	r5, lr
 80008cc:	ea40 009c 	orrcs.w	r0, r0, ip, lsr #2
 80008d0:	085b      	lsrs	r3, r3, #1
 80008d2:	ea4f 0232 	mov.w	r2, r2, rrx
 80008d6:	ebb6 0e02 	subs.w	lr, r6, r2
 80008da:	eb75 0e03 	sbcs.w	lr, r5, r3
 80008de:	bf22      	ittt	cs
 80008e0:	1ab6      	subcs	r6, r6, r2
 80008e2:	4675      	movcs	r5, lr
 80008e4:	ea40 00dc 	orrcs.w	r0, r0, ip, lsr #3
 80008e8:	ea55 0e06 	orrs.w	lr, r5, r6
 80008ec:	d018      	beq.n	8000920 <__aeabi_ddiv+0x114>
 80008ee:	ea4f 1505 	mov.w	r5, r5, lsl #4
 80008f2:	ea45 7516 	orr.w	r5, r5, r6, lsr #28
 80008f6:	ea4f 1606 	mov.w	r6, r6, lsl #4
 80008fa:	ea4f 03c3 	mov.w	r3, r3, lsl #3
 80008fe:	ea43 7352 	orr.w	r3, r3, r2, lsr #29
 8000902:	ea4f 02c2 	mov.w	r2, r2, lsl #3
 8000906:	ea5f 1c1c 	movs.w	ip, ip, lsr #4
 800090a:	d1c0      	bne.n	800088e <__aeabi_ddiv+0x82>
 800090c:	f411 1f80 	tst.w	r1, #1048576	; 0x100000
 8000910:	d10b      	bne.n	800092a <__aeabi_ddiv+0x11e>
 8000912:	ea41 0100 	orr.w	r1, r1, r0
 8000916:	f04f 0000 	mov.w	r0, #0
 800091a:	f04f 4c00 	mov.w	ip, #2147483648	; 0x80000000
 800091e:	e7b6      	b.n	800088e <__aeabi_ddiv+0x82>
 8000920:	f411 1f80 	tst.w	r1, #1048576	; 0x100000
 8000924:	bf04      	itt	eq
 8000926:	4301      	orreq	r1, r0
 8000928:	2000      	moveq	r0, #0
 800092a:	f1b4 0cfd 	subs.w	ip, r4, #253	; 0xfd
 800092e:	bf88      	it	hi
 8000930:	f5bc 6fe0 	cmphi.w	ip, #1792	; 0x700
 8000934:	f63f aeaf 	bhi.w	8000696 <__aeabi_dmul+0xde>
 8000938:	ebb5 0c03 	subs.w	ip, r5, r3
 800093c:	bf04      	itt	eq
 800093e:	ebb6 0c02 	subseq.w	ip, r6, r2
 8000942:	ea5f 0c50 	movseq.w	ip, r0, lsr #1
 8000946:	f150 0000 	adcs.w	r0, r0, #0
 800094a:	eb41 5104 	adc.w	r1, r1, r4, lsl #20
 800094e:	bd70      	pop	{r4, r5, r6, pc}
 8000950:	f00e 4e00 	and.w	lr, lr, #2147483648	; 0x80000000
 8000954:	ea4e 3111 	orr.w	r1, lr, r1, lsr #12
 8000958:	eb14 045c 	adds.w	r4, r4, ip, lsr #1
 800095c:	bfc2      	ittt	gt
 800095e:	ebd4 050c 	rsbsgt	r5, r4, ip
 8000962:	ea41 5104 	orrgt.w	r1, r1, r4, lsl #20
 8000966:	bd70      	popgt	{r4, r5, r6, pc}
 8000968:	f441 1180 	orr.w	r1, r1, #1048576	; 0x100000
 800096c:	f04f 0e00 	mov.w	lr, #0
 8000970:	3c01      	subs	r4, #1
 8000972:	e690      	b.n	8000696 <__aeabi_dmul+0xde>
 8000974:	ea45 0e06 	orr.w	lr, r5, r6
 8000978:	e68d      	b.n	8000696 <__aeabi_dmul+0xde>
 800097a:	ea0c 5513 	and.w	r5, ip, r3, lsr #20
 800097e:	ea94 0f0c 	teq	r4, ip
 8000982:	bf08      	it	eq
 8000984:	ea95 0f0c 	teqeq	r5, ip
 8000988:	f43f af3b 	beq.w	8000802 <__aeabi_dmul+0x24a>
 800098c:	ea94 0f0c 	teq	r4, ip
 8000990:	d10a      	bne.n	80009a8 <__aeabi_ddiv+0x19c>
 8000992:	ea50 3401 	orrs.w	r4, r0, r1, lsl #12
 8000996:	f47f af34 	bne.w	8000802 <__aeabi_dmul+0x24a>
 800099a:	ea95 0f0c 	teq	r5, ip
 800099e:	f47f af25 	bne.w	80007ec <__aeabi_dmul+0x234>
 80009a2:	4610      	mov	r0, r2
 80009a4:	4619      	mov	r1, r3
 80009a6:	e72c      	b.n	8000802 <__aeabi_dmul+0x24a>
 80009a8:	ea95 0f0c 	teq	r5, ip
 80009ac:	d106      	bne.n	80009bc <__aeabi_ddiv+0x1b0>
 80009ae:	ea52 3503 	orrs.w	r5, r2, r3, lsl #12
 80009b2:	f43f aefd 	beq.w	80007b0 <__aeabi_dmul+0x1f8>
 80009b6:	4610      	mov	r0, r2
 80009b8:	4619      	mov	r1, r3
 80009ba:	e722      	b.n	8000802 <__aeabi_dmul+0x24a>
 80009bc:	ea50 0641 	orrs.w	r6, r0, r1, lsl #1
 80009c0:	bf18      	it	ne
 80009c2:	ea52 0643 	orrsne.w	r6, r2, r3, lsl #1
 80009c6:	f47f aec5 	bne.w	8000754 <__aeabi_dmul+0x19c>
 80009ca:	ea50 0441 	orrs.w	r4, r0, r1, lsl #1
 80009ce:	f47f af0d 	bne.w	80007ec <__aeabi_dmul+0x234>
 80009d2:	ea52 0543 	orrs.w	r5, r2, r3, lsl #1
 80009d6:	f47f aeeb 	bne.w	80007b0 <__aeabi_dmul+0x1f8>
 80009da:	e712      	b.n	8000802 <__aeabi_dmul+0x24a>

080009dc <__gedf2>:
 80009dc:	f04f 3cff 	mov.w	ip, #4294967295
 80009e0:	e006      	b.n	80009f0 <__cmpdf2+0x4>
 80009e2:	bf00      	nop

080009e4 <__ledf2>:
 80009e4:	f04f 0c01 	mov.w	ip, #1
 80009e8:	e002      	b.n	80009f0 <__cmpdf2+0x4>
 80009ea:	bf00      	nop

080009ec <__cmpdf2>:
 80009ec:	f04f 0c01 	mov.w	ip, #1
 80009f0:	f84d cd04 	str.w	ip, [sp, #-4]!
 80009f4:	ea4f 0c41 	mov.w	ip, r1, lsl #1
 80009f8:	ea7f 5c6c 	mvns.w	ip, ip, asr #21
 80009fc:	ea4f 0c43 	mov.w	ip, r3, lsl #1
 8000a00:	bf18      	it	ne
 8000a02:	ea7f 5c6c 	mvnsne.w	ip, ip, asr #21
 8000a06:	d01b      	beq.n	8000a40 <__cmpdf2+0x54>
 8000a08:	b001      	add	sp, #4
 8000a0a:	ea50 0c41 	orrs.w	ip, r0, r1, lsl #1
 8000a0e:	bf0c      	ite	eq
 8000a10:	ea52 0c43 	orrseq.w	ip, r2, r3, lsl #1
 8000a14:	ea91 0f03 	teqne	r1, r3
 8000a18:	bf02      	ittt	eq
 8000a1a:	ea90 0f02 	teqeq	r0, r2
 8000a1e:	2000      	moveq	r0, #0
 8000a20:	4770      	bxeq	lr
 8000a22:	f110 0f00 	cmn.w	r0, #0
 8000a26:	ea91 0f03 	teq	r1, r3
 8000a2a:	bf58      	it	pl
 8000a2c:	4299      	cmppl	r1, r3
 8000a2e:	bf08      	it	eq
 8000a30:	4290      	cmpeq	r0, r2
 8000a32:	bf2c      	ite	cs
 8000a34:	17d8      	asrcs	r0, r3, #31
 8000a36:	ea6f 70e3 	mvncc.w	r0, r3, asr #31
 8000a3a:	f040 0001 	orr.w	r0, r0, #1
 8000a3e:	4770      	bx	lr
 8000a40:	ea4f 0c41 	mov.w	ip, r1, lsl #1
 8000a44:	ea7f 5c6c 	mvns.w	ip, ip, asr #21
 8000a48:	d102      	bne.n	8000a50 <__cmpdf2+0x64>
 8000a4a:	ea50 3c01 	orrs.w	ip, r0, r1, lsl #12
 8000a4e:	d107      	bne.n	8000a60 <__cmpdf2+0x74>
 8000a50:	ea4f 0c43 	mov.w	ip, r3, lsl #1
 8000a54:	ea7f 5c6c 	mvns.w	ip, ip, asr #21
 8000a58:	d1d6      	bne.n	8000a08 <__cmpdf2+0x1c>
 8000a5a:	ea52 3c03 	orrs.w	ip, r2, r3, lsl #12
 8000a5e:	d0d3      	beq.n	8000a08 <__cmpdf2+0x1c>
 8000a60:	f85d 0b04 	ldr.w	r0, [sp], #4
 8000a64:	4770      	bx	lr
 8000a66:	bf00      	nop

08000a68 <__aeabi_cdrcmple>:
 8000a68:	4684      	mov	ip, r0
 8000a6a:	4610      	mov	r0, r2
 8000a6c:	4662      	mov	r2, ip
 8000a6e:	468c      	mov	ip, r1
 8000a70:	4619      	mov	r1, r3
 8000a72:	4663      	mov	r3, ip
 8000a74:	e000      	b.n	8000a78 <__aeabi_cdcmpeq>
 8000a76:	bf00      	nop

08000a78 <__aeabi_cdcmpeq>:
 8000a78:	b501      	push	{r0, lr}
 8000a7a:	f7ff ffb7 	bl	80009ec <__cmpdf2>
 8000a7e:	2800      	cmp	r0, #0
 8000a80:	bf48      	it	mi
 8000a82:	f110 0f00 	cmnmi.w	r0, #0
 8000a86:	bd01      	pop	{r0, pc}

08000a88 <__aeabi_dcmpeq>:
 8000a88:	f84d ed08 	str.w	lr, [sp, #-8]!
 8000a8c:	f7ff fff4 	bl	8000a78 <__aeabi_cdcmpeq>
 8000a90:	bf0c      	ite	eq
 8000a92:	2001      	moveq	r0, #1
 8000a94:	2000      	movne	r0, #0
 8000a96:	f85d fb08 	ldr.w	pc, [sp], #8
 8000a9a:	bf00      	nop

08000a9c <__aeabi_dcmplt>:
 8000a9c:	f84d ed08 	str.w	lr, [sp, #-8]!
 8000aa0:	f7ff ffea 	bl	8000a78 <__aeabi_cdcmpeq>
 8000aa4:	bf34      	ite	cc
 8000aa6:	2001      	movcc	r0, #1
 8000aa8:	2000      	movcs	r0, #0
 8000aaa:	f85d fb08 	ldr.w	pc, [sp], #8
 8000aae:	bf00      	nop

08000ab0 <__aeabi_dcmple>:
 8000ab0:	f84d ed08 	str.w	lr, [sp, #-8]!
 8000ab4:	f7ff ffe0 	bl	8000a78 <__aeabi_cdcmpeq>
 8000ab8:	bf94      	ite	ls
 8000aba:	2001      	movls	r0, #1
 8000abc:	2000      	movhi	r0, #0
 8000abe:	f85d fb08 	ldr.w	pc, [sp], #8
 8000ac2:	bf00      	nop

08000ac4 <__aeabi_dcmpge>:
 8000ac4:	f84d ed08 	str.w	lr, [sp, #-8]!
 8000ac8:	f7ff ffce 	bl	8000a68 <__aeabi_cdrcmple>
 8000acc:	bf94      	ite	ls
 8000ace:	2001      	movls	r0, #1
 8000ad0:	2000      	movhi	r0, #0
 8000ad2:	f85d fb08 	ldr.w	pc, [sp], #8
 8000ad6:	bf00      	nop

08000ad8 <__aeabi_dcmpgt>:
 8000ad8:	f84d ed08 	str.w	lr, [sp, #-8]!
 8000adc:	f7ff ffc4 	bl	8000a68 <__aeabi_cdrcmple>
 8000ae0:	bf34      	ite	cc
 8000ae2:	2001      	movcc	r0, #1
 8000ae4:	2000      	movcs	r0, #0
 8000ae6:	f85d fb08 	ldr.w	pc, [sp], #8
 8000aea:	bf00      	nop

08000aec <__aeabi_dcmpun>:
 8000aec:	ea4f 0c41 	mov.w	ip, r1, lsl #1
 8000af0:	ea7f 5c6c 	mvns.w	ip, ip, asr #21
 8000af4:	d102      	bne.n	8000afc <__aeabi_dcmpun+0x10>
 8000af6:	ea50 3c01 	orrs.w	ip, r0, r1, lsl #12
 8000afa:	d10a      	bne.n	8000b12 <__aeabi_dcmpun+0x26>
 8000afc:	ea4f 0c43 	mov.w	ip, r3, lsl #1
 8000b00:	ea7f 5c6c 	mvns.w	ip, ip, asr #21
 8000b04:	d102      	bne.n	8000b0c <__aeabi_dcmpun+0x20>
 8000b06:	ea52 3c03 	orrs.w	ip, r2, r3, lsl #12
 8000b0a:	d102      	bne.n	8000b12 <__aeabi_dcmpun+0x26>
 8000b0c:	f04f 0000 	mov.w	r0, #0
 8000b10:	4770      	bx	lr
 8000b12:	f04f 0001 	mov.w	r0, #1
 8000b16:	4770      	bx	lr

08000b18 <__aeabi_d2iz>:
 8000b18:	ea4f 0241 	mov.w	r2, r1, lsl #1
 8000b1c:	f512 1200 	adds.w	r2, r2, #2097152	; 0x200000
 8000b20:	d215      	bcs.n	8000b4e <__aeabi_d2iz+0x36>
 8000b22:	d511      	bpl.n	8000b48 <__aeabi_d2iz+0x30>
 8000b24:	f46f 7378 	mvn.w	r3, #992	; 0x3e0
 8000b28:	ebb3 5262 	subs.w	r2, r3, r2, asr #21
 8000b2c:	d912      	bls.n	8000b54 <__aeabi_d2iz+0x3c>
 8000b2e:	ea4f 23c1 	mov.w	r3, r1, lsl #11
 8000b32:	f043 4300 	orr.w	r3, r3, #2147483648	; 0x80000000
 8000b36:	ea43 5350 	orr.w	r3, r3, r0, lsr #21
 8000b3a:	f011 4f00 	tst.w	r1, #2147483648	; 0x80000000
 8000b3e:	fa23 f002 	lsr.w	r0, r3, r2
 8000b42:	bf18      	it	ne
 8000b44:	4240      	negne	r0, r0
 8000b46:	4770      	bx	lr
 8000b48:	f04f 0000 	mov.w	r0, #0
 8000b4c:	4770      	bx	lr
 8000b4e:	ea50 3001 	orrs.w	r0, r0, r1, lsl #12
 8000b52:	d105      	bne.n	8000b60 <__aeabi_d2iz+0x48>
 8000b54:	f011 4000 	ands.w	r0, r1, #2147483648	; 0x80000000
 8000b58:	bf08      	it	eq
 8000b5a:	f06f 4000 	mvneq.w	r0, #2147483648	; 0x80000000
 8000b5e:	4770      	bx	lr
 8000b60:	f04f 0000 	mov.w	r0, #0
 8000b64:	4770      	bx	lr
 8000b66:	bf00      	nop

08000b68 <__aeabi_d2uiz>:
 8000b68:	004a      	lsls	r2, r1, #1
 8000b6a:	d211      	bcs.n	8000b90 <__aeabi_d2uiz+0x28>
 8000b6c:	f512 1200 	adds.w	r2, r2, #2097152	; 0x200000
 8000b70:	d211      	bcs.n	8000b96 <__aeabi_d2uiz+0x2e>
 8000b72:	d50d      	bpl.n	8000b90 <__aeabi_d2uiz+0x28>
 8000b74:	f46f 7378 	mvn.w	r3, #992	; 0x3e0
 8000b78:	ebb3 5262 	subs.w	r2, r3, r2, asr #21
 8000b7c:	d40e      	bmi.n	8000b9c <__aeabi_d2uiz+0x34>
 8000b7e:	ea4f 23c1 	mov.w	r3, r1, lsl #11
 8000b82:	f043 4300 	orr.w	r3, r3, #2147483648	; 0x80000000
 8000b86:	ea43 5350 	orr.w	r3, r3, r0, lsr #21
 8000b8a:	fa23 f002 	lsr.w	r0, r3, r2
 8000b8e:	4770      	bx	lr
 8000b90:	f04f 0000 	mov.w	r0, #0
 8000b94:	4770      	bx	lr
 8000b96:	ea50 3001 	orrs.w	r0, r0, r1, lsl #12
 8000b9a:	d102      	bne.n	8000ba2 <__aeabi_d2uiz+0x3a>
 8000b9c:	f04f 30ff 	mov.w	r0, #4294967295
 8000ba0:	4770      	bx	lr
 8000ba2:	f04f 0000 	mov.w	r0, #0
 8000ba6:	4770      	bx	lr

08000ba8 <__aeabi_d2f>:
 8000ba8:	ea4f 0241 	mov.w	r2, r1, lsl #1
 8000bac:	f1b2 43e0 	subs.w	r3, r2, #1879048192	; 0x70000000
 8000bb0:	bf24      	itt	cs
 8000bb2:	f5b3 1c00 	subscs.w	ip, r3, #2097152	; 0x200000
 8000bb6:	f1dc 5cfe 	rsbscs	ip, ip, #532676608	; 0x1fc00000
 8000bba:	d90d      	bls.n	8000bd8 <__aeabi_d2f+0x30>
 8000bbc:	f001 4c00 	and.w	ip, r1, #2147483648	; 0x80000000
 8000bc0:	ea4f 02c0 	mov.w	r2, r0, lsl #3
 8000bc4:	ea4c 7050 	orr.w	r0, ip, r0, lsr #29
 8000bc8:	f1b2 4f00 	cmp.w	r2, #2147483648	; 0x80000000
 8000bcc:	eb40 0083 	adc.w	r0, r0, r3, lsl #2
 8000bd0:	bf08      	it	eq
 8000bd2:	f020 0001 	biceq.w	r0, r0, #1
 8000bd6:	4770      	bx	lr
 8000bd8:	f011 4f80 	tst.w	r1, #1073741824	; 0x40000000
 8000bdc:	d121      	bne.n	8000c22 <__aeabi_d2f+0x7a>
 8000bde:	f113 7238 	adds.w	r2, r3, #48234496	; 0x2e00000
 8000be2:	bfbc      	itt	lt
 8000be4:	f001 4000 	andlt.w	r0, r1, #2147483648	; 0x80000000
 8000be8:	4770      	bxlt	lr
 8000bea:	f441 1180 	orr.w	r1, r1, #1048576	; 0x100000
 8000bee:	ea4f 5252 	mov.w	r2, r2, lsr #21
 8000bf2:	f1c2 0218 	rsb	r2, r2, #24
 8000bf6:	f1c2 0c20 	rsb	ip, r2, #32
 8000bfa:	fa10 f30c 	lsls.w	r3, r0, ip
 8000bfe:	fa20 f002 	lsr.w	r0, r0, r2
 8000c02:	bf18      	it	ne
 8000c04:	f040 0001 	orrne.w	r0, r0, #1
 8000c08:	ea4f 23c1 	mov.w	r3, r1, lsl #11
 8000c0c:	ea4f 23d3 	mov.w	r3, r3, lsr #11
 8000c10:	fa03 fc0c 	lsl.w	ip, r3, ip
 8000c14:	ea40 000c 	orr.w	r0, r0, ip
 8000c18:	fa23 f302 	lsr.w	r3, r3, r2
 8000c1c:	ea4f 0343 	mov.w	r3, r3, lsl #1
 8000c20:	e7cc      	b.n	8000bbc <__aeabi_d2f+0x14>
 8000c22:	ea7f 5362 	mvns.w	r3, r2, asr #21
 8000c26:	d107      	bne.n	8000c38 <__aeabi_d2f+0x90>
 8000c28:	ea50 3301 	orrs.w	r3, r0, r1, lsl #12
 8000c2c:	bf1e      	ittt	ne
 8000c2e:	f04f 40fe 	movne.w	r0, #2130706432	; 0x7f000000
 8000c32:	f440 0040 	orrne.w	r0, r0, #12582912	; 0xc00000
 8000c36:	4770      	bxne	lr
 8000c38:	f001 4000 	and.w	r0, r1, #2147483648	; 0x80000000
 8000c3c:	f040 40fe 	orr.w	r0, r0, #2130706432	; 0x7f000000
 8000c40:	f440 0000 	orr.w	r0, r0, #8388608	; 0x800000
 8000c44:	4770      	bx	lr
 8000c46:	bf00      	nop

08000c48 <__aeabi_frsub>:
 8000c48:	f080 4000 	eor.w	r0, r0, #2147483648	; 0x80000000
 8000c4c:	e002      	b.n	8000c54 <__addsf3>
 8000c4e:	bf00      	nop

08000c50 <__aeabi_fsub>:
 8000c50:	f081 4100 	eor.w	r1, r1, #2147483648	; 0x80000000

08000c54 <__addsf3>:
 8000c54:	0042      	lsls	r2, r0, #1
 8000c56:	bf1f      	itttt	ne
 8000c58:	ea5f 0341 	movsne.w	r3, r1, lsl #1
 8000c5c:	ea92 0f03 	teqne	r2, r3
 8000c60:	ea7f 6c22 	mvnsne.w	ip, r2, asr #24
 8000c64:	ea7f 6c23 	mvnsne.w	ip, r3, asr #24
 8000c68:	d06a      	beq.n	8000d40 <__addsf3+0xec>
 8000c6a:	ea4f 6212 	mov.w	r2, r2, lsr #24
 8000c6e:	ebd2 6313 	rsbs	r3, r2, r3, lsr #24
 8000c72:	bfc1      	itttt	gt
 8000c74:	18d2      	addgt	r2, r2, r3
 8000c76:	4041      	eorgt	r1, r0
 8000c78:	4048      	eorgt	r0, r1
 8000c7a:	4041      	eorgt	r1, r0
 8000c7c:	bfb8      	it	lt
 8000c7e:	425b      	neglt	r3, r3
 8000c80:	2b19      	cmp	r3, #25
 8000c82:	bf88      	it	hi
 8000c84:	4770      	bxhi	lr
 8000c86:	f010 4f00 	tst.w	r0, #2147483648	; 0x80000000
 8000c8a:	f440 0000 	orr.w	r0, r0, #8388608	; 0x800000
 8000c8e:	f020 407f 	bic.w	r0, r0, #4278190080	; 0xff000000
 8000c92:	bf18      	it	ne
 8000c94:	4240      	negne	r0, r0
 8000c96:	f011 4f00 	tst.w	r1, #2147483648	; 0x80000000
 8000c9a:	f441 0100 	orr.w	r1, r1, #8388608	; 0x800000
 8000c9e:	f021 417f 	bic.w	r1, r1, #4278190080	; 0xff000000
 8000ca2:	bf18      	it	ne
 8000ca4:	4249      	negne	r1, r1
 8000ca6:	ea92 0f03 	teq	r2, r3
 8000caa:	d03f      	beq.n	8000d2c <__addsf3+0xd8>
 8000cac:	f1a2 0201 	sub.w	r2, r2, #1
 8000cb0:	fa41 fc03 	asr.w	ip, r1, r3
 8000cb4:	eb10 000c 	adds.w	r0, r0, ip
 8000cb8:	f1c3 0320 	rsb	r3, r3, #32
 8000cbc:	fa01 f103 	lsl.w	r1, r1, r3
 8000cc0:	f000 4300 	and.w	r3, r0, #2147483648	; 0x80000000
 8000cc4:	d502      	bpl.n	8000ccc <__addsf3+0x78>
 8000cc6:	4249      	negs	r1, r1
 8000cc8:	eb60 0040 	sbc.w	r0, r0, r0, lsl #1
 8000ccc:	f5b0 0f00 	cmp.w	r0, #8388608	; 0x800000
 8000cd0:	d313      	bcc.n	8000cfa <__addsf3+0xa6>
 8000cd2:	f1b0 7f80 	cmp.w	r0, #16777216	; 0x1000000
 8000cd6:	d306      	bcc.n	8000ce6 <__addsf3+0x92>
 8000cd8:	0840      	lsrs	r0, r0, #1
 8000cda:	ea4f 0131 	mov.w	r1, r1, rrx
 8000cde:	f102 0201 	add.w	r2, r2, #1
 8000ce2:	2afe      	cmp	r2, #254	; 0xfe
 8000ce4:	d251      	bcs.n	8000d8a <__addsf3+0x136>
 8000ce6:	f1b1 4f00 	cmp.w	r1, #2147483648	; 0x80000000
 8000cea:	eb40 50c2 	adc.w	r0, r0, r2, lsl #23
 8000cee:	bf08      	it	eq
 8000cf0:	f020 0001 	biceq.w	r0, r0, #1
 8000cf4:	ea40 0003 	orr.w	r0, r0, r3
 8000cf8:	4770      	bx	lr
 8000cfa:	0049      	lsls	r1, r1, #1
 8000cfc:	eb40 0000 	adc.w	r0, r0, r0
 8000d00:	3a01      	subs	r2, #1
 8000d02:	bf28      	it	cs
 8000d04:	f5b0 0f00 	cmpcs.w	r0, #8388608	; 0x800000
 8000d08:	d2ed      	bcs.n	8000ce6 <__addsf3+0x92>
 8000d0a:	fab0 fc80 	clz	ip, r0
 8000d0e:	f1ac 0c08 	sub.w	ip, ip, #8
 8000d12:	ebb2 020c 	subs.w	r2, r2, ip
 8000d16:	fa00 f00c 	lsl.w	r0, r0, ip
 8000d1a:	bfaa      	itet	ge
 8000d1c:	eb00 50c2 	addge.w	r0, r0, r2, lsl #23
 8000d20:	4252      	neglt	r2, r2
 8000d22:	4318      	orrge	r0, r3
 8000d24:	bfbc      	itt	lt
 8000d26:	40d0      	lsrlt	r0, r2
 8000d28:	4318      	orrlt	r0, r3
 8000d2a:	4770      	bx	lr
 8000d2c:	f092 0f00 	teq	r2, #0
 8000d30:	f481 0100 	eor.w	r1, r1, #8388608	; 0x800000
 8000d34:	bf06      	itte	eq
 8000d36:	f480 0000 	eoreq.w	r0, r0, #8388608	; 0x800000
 8000d3a:	3201      	addeq	r2, #1
 8000d3c:	3b01      	subne	r3, #1
 8000d3e:	e7b5      	b.n	8000cac <__addsf3+0x58>
 8000d40:	ea4f 0341 	mov.w	r3, r1, lsl #1
 8000d44:	ea7f 6c22 	mvns.w	ip, r2, asr #24
 8000d48:	bf18      	it	ne
 8000d4a:	ea7f 6c23 	mvnsne.w	ip, r3, asr #24
 8000d4e:	d021      	beq.n	8000d94 <__addsf3+0x140>
 8000d50:	ea92 0f03 	teq	r2, r3
 8000d54:	d004      	beq.n	8000d60 <__addsf3+0x10c>
 8000d56:	f092 0f00 	teq	r2, #0
 8000d5a:	bf08      	it	eq
 8000d5c:	4608      	moveq	r0, r1
 8000d5e:	4770      	bx	lr
 8000d60:	ea90 0f01 	teq	r0, r1
 8000d64:	bf1c      	itt	ne
 8000d66:	2000      	movne	r0, #0
 8000d68:	4770      	bxne	lr
 8000d6a:	f012 4f7f 	tst.w	r2, #4278190080	; 0xff000000
 8000d6e:	d104      	bne.n	8000d7a <__addsf3+0x126>
 8000d70:	0040      	lsls	r0, r0, #1
 8000d72:	bf28      	it	cs
 8000d74:	f040 4000 	orrcs.w	r0, r0, #2147483648	; 0x80000000
 8000d78:	4770      	bx	lr
 8000d7a:	f112 7200 	adds.w	r2, r2, #33554432	; 0x2000000
 8000d7e:	bf3c      	itt	cc
 8000d80:	f500 0000 	addcc.w	r0, r0, #8388608	; 0x800000
 8000d84:	4770      	bxcc	lr
 8000d86:	f000 4300 	and.w	r3, r0, #2147483648	; 0x80000000
 8000d8a:	f043 40fe 	orr.w	r0, r3, #2130706432	; 0x7f000000
 8000d8e:	f440 0000 	orr.w	r0, r0, #8388608	; 0x800000
 8000d92:	4770      	bx	lr
 8000d94:	ea7f 6222 	mvns.w	r2, r2, asr #24
 8000d98:	bf16      	itet	ne
 8000d9a:	4608      	movne	r0, r1
 8000d9c:	ea7f 6323 	mvnseq.w	r3, r3, asr #24
 8000da0:	4601      	movne	r1, r0
 8000da2:	0242      	lsls	r2, r0, #9
 8000da4:	bf06      	itte	eq
 8000da6:	ea5f 2341 	movseq.w	r3, r1, lsl #9
 8000daa:	ea90 0f01 	teqeq	r0, r1
 8000dae:	f440 0080 	orrne.w	r0, r0, #4194304	; 0x400000
 8000db2:	4770      	bx	lr

08000db4 <__aeabi_ui2f>:
 8000db4:	f04f 0300 	mov.w	r3, #0
 8000db8:	e004      	b.n	8000dc4 <__aeabi_i2f+0x8>
 8000dba:	bf00      	nop

08000dbc <__aeabi_i2f>:
 8000dbc:	f010 4300 	ands.w	r3, r0, #2147483648	; 0x80000000
 8000dc0:	bf48      	it	mi
 8000dc2:	4240      	negmi	r0, r0
 8000dc4:	ea5f 0c00 	movs.w	ip, r0
 8000dc8:	bf08      	it	eq
 8000dca:	4770      	bxeq	lr
 8000dcc:	f043 4396 	orr.w	r3, r3, #1258291200	; 0x4b000000
 8000dd0:	4601      	mov	r1, r0
 8000dd2:	f04f 0000 	mov.w	r0, #0
 8000dd6:	e01c      	b.n	8000e12 <__aeabi_l2f+0x2a>

08000dd8 <__aeabi_ul2f>:
 8000dd8:	ea50 0201 	orrs.w	r2, r0, r1
 8000ddc:	bf08      	it	eq
 8000dde:	4770      	bxeq	lr
 8000de0:	f04f 0300 	mov.w	r3, #0
 8000de4:	e00a      	b.n	8000dfc <__aeabi_l2f+0x14>
 8000de6:	bf00      	nop

08000de8 <__aeabi_l2f>:
 8000de8:	ea50 0201 	orrs.w	r2, r0, r1
 8000dec:	bf08      	it	eq
 8000dee:	4770      	bxeq	lr
 8000df0:	f011 4300 	ands.w	r3, r1, #2147483648	; 0x80000000
 8000df4:	d502      	bpl.n	8000dfc <__aeabi_l2f+0x14>
 8000df6:	4240      	negs	r0, r0
 8000df8:	eb61 0141 	sbc.w	r1, r1, r1, lsl #1
 8000dfc:	ea5f 0c01 	movs.w	ip, r1
 8000e00:	bf02      	ittt	eq
 8000e02:	4684      	moveq	ip, r0
 8000e04:	4601      	moveq	r1, r0
 8000e06:	2000      	moveq	r0, #0
 8000e08:	f043 43b6 	orr.w	r3, r3, #1526726656	; 0x5b000000
 8000e0c:	bf08      	it	eq
 8000e0e:	f1a3 5380 	subeq.w	r3, r3, #268435456	; 0x10000000
 8000e12:	f5a3 0300 	sub.w	r3, r3, #8388608	; 0x800000
 8000e16:	fabc f28c 	clz	r2, ip
 8000e1a:	3a08      	subs	r2, #8
 8000e1c:	eba3 53c2 	sub.w	r3, r3, r2, lsl #23
 8000e20:	db10      	blt.n	8000e44 <__aeabi_l2f+0x5c>
 8000e22:	fa01 fc02 	lsl.w	ip, r1, r2
 8000e26:	4463      	add	r3, ip
 8000e28:	fa00 fc02 	lsl.w	ip, r0, r2
 8000e2c:	f1c2 0220 	rsb	r2, r2, #32
 8000e30:	f1bc 4f00 	cmp.w	ip, #2147483648	; 0x80000000
 8000e34:	fa20 f202 	lsr.w	r2, r0, r2
 8000e38:	eb43 0002 	adc.w	r0, r3, r2
 8000e3c:	bf08      	it	eq
 8000e3e:	f020 0001 	biceq.w	r0, r0, #1
 8000e42:	4770      	bx	lr
 8000e44:	f102 0220 	add.w	r2, r2, #32
 8000e48:	fa01 fc02 	lsl.w	ip, r1, r2
 8000e4c:	f1c2 0220 	rsb	r2, r2, #32
 8000e50:	ea50 004c 	orrs.w	r0, r0, ip, lsl #1
 8000e54:	fa21 f202 	lsr.w	r2, r1, r2
 8000e58:	eb43 0002 	adc.w	r0, r3, r2
 8000e5c:	bf08      	it	eq
 8000e5e:	ea20 70dc 	biceq.w	r0, r0, ip, lsr #31
 8000e62:	4770      	bx	lr

08000e64 <__aeabi_fmul>:
 8000e64:	f04f 0cff 	mov.w	ip, #255	; 0xff
 8000e68:	ea1c 52d0 	ands.w	r2, ip, r0, lsr #23
 8000e6c:	bf1e      	ittt	ne
 8000e6e:	ea1c 53d1 	andsne.w	r3, ip, r1, lsr #23
 8000e72:	ea92 0f0c 	teqne	r2, ip
 8000e76:	ea93 0f0c 	teqne	r3, ip
 8000e7a:	d06f      	beq.n	8000f5c <__aeabi_fmul+0xf8>
 8000e7c:	441a      	add	r2, r3
 8000e7e:	ea80 0c01 	eor.w	ip, r0, r1
 8000e82:	0240      	lsls	r0, r0, #9
 8000e84:	bf18      	it	ne
 8000e86:	ea5f 2141 	movsne.w	r1, r1, lsl #9
 8000e8a:	d01e      	beq.n	8000eca <__aeabi_fmul+0x66>
 8000e8c:	f04f 6300 	mov.w	r3, #134217728	; 0x8000000
 8000e90:	ea43 1050 	orr.w	r0, r3, r0, lsr #5
 8000e94:	ea43 1151 	orr.w	r1, r3, r1, lsr #5
 8000e98:	fba0 3101 	umull	r3, r1, r0, r1
 8000e9c:	f00c 4000 	and.w	r0, ip, #2147483648	; 0x80000000
 8000ea0:	f5b1 0f00 	cmp.w	r1, #8388608	; 0x800000
 8000ea4:	bf3e      	ittt	cc
 8000ea6:	0049      	lslcc	r1, r1, #1
 8000ea8:	ea41 71d3 	orrcc.w	r1, r1, r3, lsr #31
 8000eac:	005b      	lslcc	r3, r3, #1
 8000eae:	ea40 0001 	orr.w	r0, r0, r1
 8000eb2:	f162 027f 	sbc.w	r2, r2, #127	; 0x7f
 8000eb6:	2afd      	cmp	r2, #253	; 0xfd
 8000eb8:	d81d      	bhi.n	8000ef6 <__aeabi_fmul+0x92>
 8000eba:	f1b3 4f00 	cmp.w	r3, #2147483648	; 0x80000000
 8000ebe:	eb40 50c2 	adc.w	r0, r0, r2, lsl #23
 8000ec2:	bf08      	it	eq
 8000ec4:	f020 0001 	biceq.w	r0, r0, #1
 8000ec8:	4770      	bx	lr
 8000eca:	f090 0f00 	teq	r0, #0
 8000ece:	f00c 4c00 	and.w	ip, ip, #2147483648	; 0x80000000
 8000ed2:	bf08      	it	eq
 8000ed4:	0249      	lsleq	r1, r1, #9
 8000ed6:	ea4c 2050 	orr.w	r0, ip, r0, lsr #9
 8000eda:	ea40 2051 	orr.w	r0, r0, r1, lsr #9
 8000ede:	3a7f      	subs	r2, #127	; 0x7f
 8000ee0:	bfc2      	ittt	gt
 8000ee2:	f1d2 03ff 	rsbsgt	r3, r2, #255	; 0xff
 8000ee6:	ea40 50c2 	orrgt.w	r0, r0, r2, lsl #23
 8000eea:	4770      	bxgt	lr
 8000eec:	f440 0000 	orr.w	r0, r0, #8388608	; 0x800000
 8000ef0:	f04f 0300 	mov.w	r3, #0
 8000ef4:	3a01      	subs	r2, #1
 8000ef6:	dc5d      	bgt.n	8000fb4 <__aeabi_fmul+0x150>
 8000ef8:	f112 0f19 	cmn.w	r2, #25
 8000efc:	bfdc      	itt	le
 8000efe:	f000 4000 	andle.w	r0, r0, #2147483648	; 0x80000000
 8000f02:	4770      	bxle	lr
 8000f04:	f1c2 0200 	rsb	r2, r2, #0
 8000f08:	0041      	lsls	r1, r0, #1
 8000f0a:	fa21 f102 	lsr.w	r1, r1, r2
 8000f0e:	f1c2 0220 	rsb	r2, r2, #32
 8000f12:	fa00 fc02 	lsl.w	ip, r0, r2
 8000f16:	ea5f 0031 	movs.w	r0, r1, rrx
 8000f1a:	f140 0000 	adc.w	r0, r0, #0
 8000f1e:	ea53 034c 	orrs.w	r3, r3, ip, lsl #1
 8000f22:	bf08      	it	eq
 8000f24:	ea20 70dc 	biceq.w	r0, r0, ip, lsr #31
 8000f28:	4770      	bx	lr
 8000f2a:	f092 0f00 	teq	r2, #0
 8000f2e:	f000 4c00 	and.w	ip, r0, #2147483648	; 0x80000000
 8000f32:	bf02      	ittt	eq
 8000f34:	0040      	lsleq	r0, r0, #1
 8000f36:	f410 0f00 	tsteq.w	r0, #8388608	; 0x800000
 8000f3a:	3a01      	subeq	r2, #1
 8000f3c:	d0f9      	beq.n	8000f32 <__aeabi_fmul+0xce>
 8000f3e:	ea40 000c 	orr.w	r0, r0, ip
 8000f42:	f093 0f00 	teq	r3, #0
 8000f46:	f001 4c00 	and.w	ip, r1, #2147483648	; 0x80000000
 8000f4a:	bf02      	ittt	eq
 8000f4c:	0049      	lsleq	r1, r1, #1
 8000f4e:	f411 0f00 	tsteq.w	r1, #8388608	; 0x800000
 8000f52:	3b01      	subeq	r3, #1
 8000f54:	d0f9      	beq.n	8000f4a <__aeabi_fmul+0xe6>
 8000f56:	ea41 010c 	orr.w	r1, r1, ip
 8000f5a:	e78f      	b.n	8000e7c <__aeabi_fmul+0x18>
 8000f5c:	ea0c 53d1 	and.w	r3, ip, r1, lsr #23
 8000f60:	ea92 0f0c 	teq	r2, ip
 8000f64:	bf18      	it	ne
 8000f66:	ea93 0f0c 	teqne	r3, ip
 8000f6a:	d00a      	beq.n	8000f82 <__aeabi_fmul+0x11e>
 8000f6c:	f030 4c00 	bics.w	ip, r0, #2147483648	; 0x80000000
 8000f70:	bf18      	it	ne
 8000f72:	f031 4c00 	bicsne.w	ip, r1, #2147483648	; 0x80000000
 8000f76:	d1d8      	bne.n	8000f2a <__aeabi_fmul+0xc6>
 8000f78:	ea80 0001 	eor.w	r0, r0, r1
 8000f7c:	f000 4000 	and.w	r0, r0, #2147483648	; 0x80000000
 8000f80:	4770      	bx	lr
 8000f82:	f090 0f00 	teq	r0, #0
 8000f86:	bf17      	itett	ne
 8000f88:	f090 4f00 	teqne	r0, #2147483648	; 0x80000000
 8000f8c:	4608      	moveq	r0, r1
 8000f8e:	f091 0f00 	teqne	r1, #0
 8000f92:	f091 4f00 	teqne	r1, #2147483648	; 0x80000000
 8000f96:	d014      	beq.n	8000fc2 <__aeabi_fmul+0x15e>
 8000f98:	ea92 0f0c 	teq	r2, ip
 8000f9c:	d101      	bne.n	8000fa2 <__aeabi_fmul+0x13e>
 8000f9e:	0242      	lsls	r2, r0, #9
 8000fa0:	d10f      	bne.n	8000fc2 <__aeabi_fmul+0x15e>
 8000fa2:	ea93 0f0c 	teq	r3, ip
 8000fa6:	d103      	bne.n	8000fb0 <__aeabi_fmul+0x14c>
 8000fa8:	024b      	lsls	r3, r1, #9
 8000faa:	bf18      	it	ne
 8000fac:	4608      	movne	r0, r1
 8000fae:	d108      	bne.n	8000fc2 <__aeabi_fmul+0x15e>
 8000fb0:	ea80 0001 	eor.w	r0, r0, r1
 8000fb4:	f000 4000 	and.w	r0, r0, #2147483648	; 0x80000000
 8000fb8:	f040 40fe 	orr.w	r0, r0, #2130706432	; 0x7f000000
 8000fbc:	f440 0000 	orr.w	r0, r0, #8388608	; 0x800000
 8000fc0:	4770      	bx	lr
 8000fc2:	f040 40fe 	orr.w	r0, r0, #2130706432	; 0x7f000000
 8000fc6:	f440 0040 	orr.w	r0, r0, #12582912	; 0xc00000
 8000fca:	4770      	bx	lr

08000fcc <__aeabi_fdiv>:
 8000fcc:	f04f 0cff 	mov.w	ip, #255	; 0xff
 8000fd0:	ea1c 52d0 	ands.w	r2, ip, r0, lsr #23
 8000fd4:	bf1e      	ittt	ne
 8000fd6:	ea1c 53d1 	andsne.w	r3, ip, r1, lsr #23
 8000fda:	ea92 0f0c 	teqne	r2, ip
 8000fde:	ea93 0f0c 	teqne	r3, ip
 8000fe2:	d069      	beq.n	80010b8 <__aeabi_fdiv+0xec>
 8000fe4:	eba2 0203 	sub.w	r2, r2, r3
 8000fe8:	ea80 0c01 	eor.w	ip, r0, r1
 8000fec:	0249      	lsls	r1, r1, #9
 8000fee:	ea4f 2040 	mov.w	r0, r0, lsl #9
 8000ff2:	d037      	beq.n	8001064 <__aeabi_fdiv+0x98>
 8000ff4:	f04f 5380 	mov.w	r3, #268435456	; 0x10000000
 8000ff8:	ea43 1111 	orr.w	r1, r3, r1, lsr #4
 8000ffc:	ea43 1310 	orr.w	r3, r3, r0, lsr #4
 8001000:	f00c 4000 	and.w	r0, ip, #2147483648	; 0x80000000
 8001004:	428b      	cmp	r3, r1
 8001006:	bf38      	it	cc
 8001008:	005b      	lslcc	r3, r3, #1
 800100a:	f142 027d 	adc.w	r2, r2, #125	; 0x7d
 800100e:	f44f 0c00 	mov.w	ip, #8388608	; 0x800000
 8001012:	428b      	cmp	r3, r1
 8001014:	bf24      	itt	cs
 8001016:	1a5b      	subcs	r3, r3, r1
 8001018:	ea40 000c 	orrcs.w	r0, r0, ip
 800101c:	ebb3 0f51 	cmp.w	r3, r1, lsr #1
 8001020:	bf24      	itt	cs
 8001022:	eba3 0351 	subcs.w	r3, r3, r1, lsr #1
 8001026:	ea40 005c 	orrcs.w	r0, r0, ip, lsr #1
 800102a:	ebb3 0f91 	cmp.w	r3, r1, lsr #2
 800102e:	bf24      	itt	cs
 8001030:	eba3 0391 	subcs.w	r3, r3, r1, lsr #2
 8001034:	ea40 009c 	orrcs.w	r0, r0, ip, lsr #2
 8001038:	ebb3 0fd1 	cmp.w	r3, r1, lsr #3
 800103c:	bf24      	itt	cs
 800103e:	eba3 03d1 	subcs.w	r3, r3, r1, lsr #3
 8001042:	ea40 00dc 	orrcs.w	r0, r0, ip, lsr #3
 8001046:	011b      	lsls	r3, r3, #4
 8001048:	bf18      	it	ne
 800104a:	ea5f 1c1c 	movsne.w	ip, ip, lsr #4
 800104e:	d1e0      	bne.n	8001012 <__aeabi_fdiv+0x46>
 8001050:	2afd      	cmp	r2, #253	; 0xfd
 8001052:	f63f af50 	bhi.w	8000ef6 <__aeabi_fmul+0x92>
 8001056:	428b      	cmp	r3, r1
 8001058:	eb40 50c2 	adc.w	r0, r0, r2, lsl #23
 800105c:	bf08      	it	eq
 800105e:	f020 0001 	biceq.w	r0, r0, #1
 8001062:	4770      	bx	lr
 8001064:	f00c 4c00 	and.w	ip, ip, #2147483648	; 0x80000000
 8001068:	ea4c 2050 	orr.w	r0, ip, r0, lsr #9
 800106c:	327f      	adds	r2, #127	; 0x7f
 800106e:	bfc2      	ittt	gt
 8001070:	f1d2 03ff 	rsbsgt	r3, r2, #255	; 0xff
 8001074:	ea40 50c2 	orrgt.w	r0, r0, r2, lsl #23
 8001078:	4770      	bxgt	lr
 800107a:	f440 0000 	orr.w	r0, r0, #8388608	; 0x800000
 800107e:	f04f 0300 	mov.w	r3, #0
 8001082:	3a01      	subs	r2, #1
 8001084:	e737      	b.n	8000ef6 <__aeabi_fmul+0x92>
 8001086:	f092 0f00 	teq	r2, #0
 800108a:	f000 4c00 	and.w	ip, r0, #2147483648	; 0x80000000
 800108e:	bf02      	ittt	eq
 8001090:	0040      	lsleq	r0, r0, #1
 8001092:	f410 0f00 	tsteq.w	r0, #8388608	; 0x800000
 8001096:	3a01      	subeq	r2, #1
 8001098:	d0f9      	beq.n	800108e <__aeabi_fdiv+0xc2>
 800109a:	ea40 000c 	orr.w	r0, r0, ip
 800109e:	f093 0f00 	teq	r3, #0
 80010a2:	f001 4c00 	and.w	ip, r1, #2147483648	; 0x80000000
 80010a6:	bf02      	ittt	eq
 80010a8:	0049      	lsleq	r1, r1, #1
 80010aa:	f411 0f00 	tsteq.w	r1, #8388608	; 0x800000
 80010ae:	3b01      	subeq	r3, #1
 80010b0:	d0f9      	beq.n	80010a6 <__aeabi_fdiv+0xda>
 80010b2:	ea41 010c 	orr.w	r1, r1, ip
 80010b6:	e795      	b.n	8000fe4 <__aeabi_fdiv+0x18>
 80010b8:	ea0c 53d1 	and.w	r3, ip, r1, lsr #23
 80010bc:	ea92 0f0c 	teq	r2, ip
 80010c0:	d108      	bne.n	80010d4 <__aeabi_fdiv+0x108>
 80010c2:	0242      	lsls	r2, r0, #9
 80010c4:	f47f af7d 	bne.w	8000fc2 <__aeabi_fmul+0x15e>
 80010c8:	ea93 0f0c 	teq	r3, ip
 80010cc:	f47f af70 	bne.w	8000fb0 <__aeabi_fmul+0x14c>
 80010d0:	4608      	mov	r0, r1
 80010d2:	e776      	b.n	8000fc2 <__aeabi_fmul+0x15e>
 80010d4:	ea93 0f0c 	teq	r3, ip
 80010d8:	d104      	bne.n	80010e4 <__aeabi_fdiv+0x118>
 80010da:	024b      	lsls	r3, r1, #9
 80010dc:	f43f af4c 	beq.w	8000f78 <__aeabi_fmul+0x114>
 80010e0:	4608      	mov	r0, r1
 80010e2:	e76e      	b.n	8000fc2 <__aeabi_fmul+0x15e>
 80010e4:	f030 4c00 	bics.w	ip, r0, #2147483648	; 0x80000000
 80010e8:	bf18      	it	ne
 80010ea:	f031 4c00 	bicsne.w	ip, r1, #2147483648	; 0x80000000
 80010ee:	d1ca      	bne.n	8001086 <__aeabi_fdiv+0xba>
 80010f0:	f030 4200 	bics.w	r2, r0, #2147483648	; 0x80000000
 80010f4:	f47f af5c 	bne.w	8000fb0 <__aeabi_fmul+0x14c>
 80010f8:	f031 4300 	bics.w	r3, r1, #2147483648	; 0x80000000
 80010fc:	f47f af3c 	bne.w	8000f78 <__aeabi_fmul+0x114>
 8001100:	e75f      	b.n	8000fc2 <__aeabi_fmul+0x15e>
 8001102:	bf00      	nop

08001104 <__gesf2>:
 8001104:	f04f 3cff 	mov.w	ip, #4294967295
 8001108:	e006      	b.n	8001118 <__cmpsf2+0x4>
 800110a:	bf00      	nop

0800110c <__lesf2>:
 800110c:	f04f 0c01 	mov.w	ip, #1
 8001110:	e002      	b.n	8001118 <__cmpsf2+0x4>
 8001112:	bf00      	nop

08001114 <__cmpsf2>:
 8001114:	f04f 0c01 	mov.w	ip, #1
 8001118:	f84d cd04 	str.w	ip, [sp, #-4]!
 800111c:	ea4f 0240 	mov.w	r2, r0, lsl #1
 8001120:	ea4f 0341 	mov.w	r3, r1, lsl #1
 8001124:	ea7f 6c22 	mvns.w	ip, r2, asr #24
 8001128:	bf18      	it	ne
 800112a:	ea7f 6c23 	mvnsne.w	ip, r3, asr #24
 800112e:	d011      	beq.n	8001154 <__cmpsf2+0x40>
 8001130:	b001      	add	sp, #4
 8001132:	ea52 0c53 	orrs.w	ip, r2, r3, lsr #1
 8001136:	bf18      	it	ne
 8001138:	ea90 0f01 	teqne	r0, r1
 800113c:	bf58      	it	pl
 800113e:	ebb2 0003 	subspl.w	r0, r2, r3
 8001142:	bf88      	it	hi
 8001144:	17c8      	asrhi	r0, r1, #31
 8001146:	bf38      	it	cc
 8001148:	ea6f 70e1 	mvncc.w	r0, r1, asr #31
 800114c:	bf18      	it	ne
 800114e:	f040 0001 	orrne.w	r0, r0, #1
 8001152:	4770      	bx	lr
 8001154:	ea7f 6c22 	mvns.w	ip, r2, asr #24
 8001158:	d102      	bne.n	8001160 <__cmpsf2+0x4c>
 800115a:	ea5f 2c40 	movs.w	ip, r0, lsl #9
 800115e:	d105      	bne.n	800116c <__cmpsf2+0x58>
 8001160:	ea7f 6c23 	mvns.w	ip, r3, asr #24
 8001164:	d1e4      	bne.n	8001130 <__cmpsf2+0x1c>
 8001166:	ea5f 2c41 	movs.w	ip, r1, lsl #9
 800116a:	d0e1      	beq.n	8001130 <__cmpsf2+0x1c>
 800116c:	f85d 0b04 	ldr.w	r0, [sp], #4
 8001170:	4770      	bx	lr
 8001172:	bf00      	nop

08001174 <__aeabi_cfrcmple>:
 8001174:	4684      	mov	ip, r0
 8001176:	4608      	mov	r0, r1
 8001178:	4661      	mov	r1, ip
 800117a:	e7ff      	b.n	800117c <__aeabi_cfcmpeq>

0800117c <__aeabi_cfcmpeq>:
 800117c:	b50f      	push	{r0, r1, r2, r3, lr}
 800117e:	f7ff ffc9 	bl	8001114 <__cmpsf2>
 8001182:	2800      	cmp	r0, #0
 8001184:	bf48      	it	mi
 8001186:	f110 0f00 	cmnmi.w	r0, #0
 800118a:	bd0f      	pop	{r0, r1, r2, r3, pc}

0800118c <__aeabi_fcmpeq>:
 800118c:	f84d ed08 	str.w	lr, [sp, #-8]!
 8001190:	f7ff fff4 	bl	800117c <__aeabi_cfcmpeq>
 8001194:	bf0c      	ite	eq
 8001196:	2001      	moveq	r0, #1
 8001198:	2000      	movne	r0, #0
 800119a:	f85d fb08 	ldr.w	pc, [sp], #8
 800119e:	bf00      	nop

080011a0 <__aeabi_fcmplt>:
 80011a0:	f84d ed08 	str.w	lr, [sp, #-8]!
 80011a4:	f7ff ffea 	bl	800117c <__aeabi_cfcmpeq>
 80011a8:	bf34      	ite	cc
 80011aa:	2001      	movcc	r0, #1
 80011ac:	2000      	movcs	r0, #0
 80011ae:	f85d fb08 	ldr.w	pc, [sp], #8
 80011b2:	bf00      	nop

080011b4 <__aeabi_fcmple>:
 80011b4:	f84d ed08 	str.w	lr, [sp, #-8]!
 80011b8:	f7ff ffe0 	bl	800117c <__aeabi_cfcmpeq>
 80011bc:	bf94      	ite	ls
 80011be:	2001      	movls	r0, #1
 80011c0:	2000      	movhi	r0, #0
 80011c2:	f85d fb08 	ldr.w	pc, [sp], #8
 80011c6:	bf00      	nop

080011c8 <__aeabi_fcmpge>:
 80011c8:	f84d ed08 	str.w	lr, [sp, #-8]!
 80011cc:	f7ff ffd2 	bl	8001174 <__aeabi_cfrcmple>
 80011d0:	bf94      	ite	ls
 80011d2:	2001      	movls	r0, #1
 80011d4:	2000      	movhi	r0, #0
 80011d6:	f85d fb08 	ldr.w	pc, [sp], #8
 80011da:	bf00      	nop

080011dc <__aeabi_fcmpgt>:
 80011dc:	f84d ed08 	str.w	lr, [sp, #-8]!
 80011e0:	f7ff ffc8 	bl	8001174 <__aeabi_cfrcmple>
 80011e4:	bf34      	ite	cc
 80011e6:	2001      	movcc	r0, #1
 80011e8:	2000      	movcs	r0, #0
 80011ea:	f85d fb08 	ldr.w	pc, [sp], #8
 80011ee:	bf00      	nop

080011f0 <__aeabi_f2iz>:
 80011f0:	ea4f 0240 	mov.w	r2, r0, lsl #1
 80011f4:	f1b2 4ffe 	cmp.w	r2, #2130706432	; 0x7f000000
 80011f8:	d30f      	bcc.n	800121a <__aeabi_f2iz+0x2a>
 80011fa:	f04f 039e 	mov.w	r3, #158	; 0x9e
 80011fe:	ebb3 6212 	subs.w	r2, r3, r2, lsr #24
 8001202:	d90d      	bls.n	8001220 <__aeabi_f2iz+0x30>
 8001204:	ea4f 2300 	mov.w	r3, r0, lsl #8
 8001208:	f043 4300 	orr.w	r3, r3, #2147483648	; 0x80000000
 800120c:	f010 4f00 	tst.w	r0, #2147483648	; 0x80000000
 8001210:	fa23 f002 	lsr.w	r0, r3, r2
 8001214:	bf18      	it	ne
 8001216:	4240      	negne	r0, r0
 8001218:	4770      	bx	lr
 800121a:	f04f 0000 	mov.w	r0, #0
 800121e:	4770      	bx	lr
 8001220:	f112 0f61 	cmn.w	r2, #97	; 0x61
 8001224:	d101      	bne.n	800122a <__aeabi_f2iz+0x3a>
 8001226:	0242      	lsls	r2, r0, #9
 8001228:	d105      	bne.n	8001236 <__aeabi_f2iz+0x46>
 800122a:	f010 4000 	ands.w	r0, r0, #2147483648	; 0x80000000
 800122e:	bf08      	it	eq
 8001230:	f06f 4000 	mvneq.w	r0, #2147483648	; 0x80000000
 8001234:	4770      	bx	lr
 8001236:	f04f 0000 	mov.w	r0, #0
 800123a:	4770      	bx	lr

0800123c <__aeabi_f2uiz>:
 800123c:	0042      	lsls	r2, r0, #1
 800123e:	d20e      	bcs.n	800125e <__aeabi_f2uiz+0x22>
 8001240:	f1b2 4ffe 	cmp.w	r2, #2130706432	; 0x7f000000
 8001244:	d30b      	bcc.n	800125e <__aeabi_f2uiz+0x22>
 8001246:	f04f 039e 	mov.w	r3, #158	; 0x9e
 800124a:	ebb3 6212 	subs.w	r2, r3, r2, lsr #24
 800124e:	d409      	bmi.n	8001264 <__aeabi_f2uiz+0x28>
 8001250:	ea4f 2300 	mov.w	r3, r0, lsl #8
 8001254:	f043 4300 	orr.w	r3, r3, #2147483648	; 0x80000000
 8001258:	fa23 f002 	lsr.w	r0, r3, r2
 800125c:	4770      	bx	lr
 800125e:	f04f 0000 	mov.w	r0, #0
 8001262:	4770      	bx	lr
 8001264:	f112 0f61 	cmn.w	r2, #97	; 0x61
 8001268:	d101      	bne.n	800126e <__aeabi_f2uiz+0x32>
 800126a:	0242      	lsls	r2, r0, #9
 800126c:	d102      	bne.n	8001274 <__aeabi_f2uiz+0x38>
 800126e:	f04f 30ff 	mov.w	r0, #4294967295
 8001272:	4770      	bx	lr
 8001274:	f04f 0000 	mov.w	r0, #0
 8001278:	4770      	bx	lr
 800127a:	bf00      	nop

0800127c <__aeabi_d2lz>:
 800127c:	b538      	push	{r3, r4, r5, lr}
 800127e:	4605      	mov	r5, r0
 8001280:	460c      	mov	r4, r1
 8001282:	2200      	movs	r2, #0
 8001284:	2300      	movs	r3, #0
 8001286:	4628      	mov	r0, r5
 8001288:	4621      	mov	r1, r4
 800128a:	f7ff fc07 	bl	8000a9c <__aeabi_dcmplt>
 800128e:	b928      	cbnz	r0, 800129c <__aeabi_d2lz+0x20>
 8001290:	4628      	mov	r0, r5
 8001292:	4621      	mov	r1, r4
 8001294:	e8bd 4038 	ldmia.w	sp!, {r3, r4, r5, lr}
 8001298:	f000 b80a 	b.w	80012b0 <__aeabi_d2ulz>
 800129c:	4628      	mov	r0, r5
 800129e:	f104 4100 	add.w	r1, r4, #2147483648	; 0x80000000
 80012a2:	f000 f805 	bl	80012b0 <__aeabi_d2ulz>
 80012a6:	4240      	negs	r0, r0
 80012a8:	eb61 0141 	sbc.w	r1, r1, r1, lsl #1
 80012ac:	bd38      	pop	{r3, r4, r5, pc}
 80012ae:	bf00      	nop

080012b0 <__aeabi_d2ulz>:
 80012b0:	b5d0      	push	{r4, r6, r7, lr}
 80012b2:	2200      	movs	r2, #0
 80012b4:	4b0b      	ldr	r3, [pc, #44]	; (80012e4 <__aeabi_d2ulz+0x34>)
 80012b6:	4606      	mov	r6, r0
 80012b8:	460f      	mov	r7, r1
 80012ba:	f7ff f97d 	bl	80005b8 <__aeabi_dmul>
 80012be:	f7ff fc53 	bl	8000b68 <__aeabi_d2uiz>
 80012c2:	4604      	mov	r4, r0
 80012c4:	f7ff f8fe 	bl	80004c4 <__aeabi_ui2d>
 80012c8:	2200      	movs	r2, #0
 80012ca:	4b07      	ldr	r3, [pc, #28]	; (80012e8 <__aeabi_d2ulz+0x38>)
 80012cc:	f7ff f974 	bl	80005b8 <__aeabi_dmul>
 80012d0:	4602      	mov	r2, r0
 80012d2:	460b      	mov	r3, r1
 80012d4:	4630      	mov	r0, r6
 80012d6:	4639      	mov	r1, r7
 80012d8:	f7fe ffb6 	bl	8000248 <__aeabi_dsub>
 80012dc:	f7ff fc44 	bl	8000b68 <__aeabi_d2uiz>
 80012e0:	4621      	mov	r1, r4
 80012e2:	bdd0      	pop	{r4, r6, r7, pc}
 80012e4:	3df00000 	.word	0x3df00000
 80012e8:	41f00000 	.word	0x41f00000

080012ec <__set_FAULTMASK>:
 *
 * Set the fault mask register
 */
void __set_FAULTMASK(uint32_t faultMask)
{
  __ASM volatile ("MSR faultmask, %0" : : "r" (faultMask) );
 80012ec:	f380 8813 	msr	FAULTMASK, r0
}
 80012f0:	4770      	bx	lr
	...

080012f4 <Reset_Handler>:
  .weak  Reset_Handler
  .type  Reset_Handler, %function
Reset_Handler:  

/* Copy the data segment initializers from flash to SRAM */  
  movs  r1, #0
 80012f4:	2100      	movs	r1, #0
  b  LoopCopyDataInit
 80012f6:	e003      	b.n	8001300 <LoopCopyDataInit>

080012f8 <CopyDataInit>:

CopyDataInit:
  ldr  r3, =_sidata
 80012f8:	4b0a      	ldr	r3, [pc, #40]	; (8001324 <LoopFillZerobss+0x10>)
  ldr  r3, [r3, r1]
 80012fa:	585b      	ldr	r3, [r3, r1]
  str  r3, [r0, r1]
 80012fc:	5043      	str	r3, [r0, r1]
  adds  r1, r1, #4
 80012fe:	3104      	adds	r1, #4

08001300 <LoopCopyDataInit>:
    
LoopCopyDataInit:
  ldr  r0, =_sdata
 8001300:	4809      	ldr	r0, [pc, #36]	; (8001328 <LoopFillZerobss+0x14>)
  ldr  r3, =_edata
 8001302:	4b0a      	ldr	r3, [pc, #40]	; (800132c <LoopFillZerobss+0x18>)
  adds  r2, r0, r1
 8001304:	1842      	adds	r2, r0, r1
  cmp  r2, r3
 8001306:	429a      	cmp	r2, r3
  bcc  CopyDataInit
 8001308:	d3f6      	bcc.n	80012f8 <CopyDataInit>
  ldr  r2, =_sbss
 800130a:	4a09      	ldr	r2, [pc, #36]	; (8001330 <LoopFillZerobss+0x1c>)
  b  LoopFillZerobss
 800130c:	e002      	b.n	8001314 <LoopFillZerobss>

0800130e <FillZerobss>:
/* Zero fill the bss segment. */  
FillZerobss:
  movs  r3, #0
 800130e:	2300      	movs	r3, #0
  str  r3, [r2], #4
 8001310:	f842 3b04 	str.w	r3, [r2], #4

08001314 <LoopFillZerobss>:
    
LoopFillZerobss:
  ldr  r3, = _ebss
 8001314:	4b07      	ldr	r3, [pc, #28]	; (8001334 <LoopFillZerobss+0x20>)
  cmp  r2, r3
 8001316:	429a      	cmp	r2, r3
  bcc  FillZerobss
 8001318:	d3f9      	bcc.n	800130e <FillZerobss>
/* Call the clock system intitialization function.*/
  bl  SystemInit   
 800131a:	f000 f80f 	bl	800133c <SystemInit>
/* Call the application's entry point.*/
  bl  main
 800131e:	f009 f86b 	bl	800a3f8 <main>
  bx  lr    
 8001322:	4770      	bx	lr
  ldr  r3, =_sidata
 8001324:	0803cc30 	.word	0x0803cc30
  ldr  r0, =_sdata
 8001328:	20000000 	.word	0x20000000
  ldr  r3, =_edata
 800132c:	200002b0 	.word	0x200002b0
  ldr  r2, =_sbss
 8001330:	200002bc 	.word	0x200002bc
  ldr  r3, = _ebss
 8001334:	20007334 	.word	0x20007334

08001338 <ADC1_2_IRQHandler>:
 * @retval None       
*/
    .section  .text.Default_Handler,"ax",%progbits
Default_Handler:
Infinite_Loop:
  b  Infinite_Loop
 8001338:	e7fe      	b.n	8001338 <ADC1_2_IRQHandler>
	...

0800133c <SystemInit>:
  */
void SystemInit (void)
{
  /* Reset the RCC clock configuration to the default reset state(for debug purpose) */
  /* Set HSION bit */
  RCC->CR |= (uint32_t)0x00000001;
 800133c:	4b37      	ldr	r3, [pc, #220]	; (800141c <SystemInit+0xe0>)
{
 800133e:	b082      	sub	sp, #8
  RCC->CR |= (uint32_t)0x00000001;
 8001340:	681a      	ldr	r2, [r3, #0]
 8001342:	f042 0201 	orr.w	r2, r2, #1
 8001346:	601a      	str	r2, [r3, #0]

  /* Reset SW, HPRE, PPRE1, PPRE2, ADCPRE and MCO bits */
#ifndef STM32F10X_CL
  RCC->CFGR &= (uint32_t)0xF8FF0000;
 8001348:	6859      	ldr	r1, [r3, #4]
 800134a:	4a35      	ldr	r2, [pc, #212]	; (8001420 <SystemInit+0xe4>)
 800134c:	400a      	ands	r2, r1
 800134e:	605a      	str	r2, [r3, #4]
#else
  RCC->CFGR &= (uint32_t)0xF0FF0000;
#endif /* STM32F10X_CL */   
  
  /* Reset HSEON, CSSON and PLLON bits */
  RCC->CR &= (uint32_t)0xFEF6FFFF;
 8001350:	681a      	ldr	r2, [r3, #0]
 8001352:	f022 7284 	bic.w	r2, r2, #17301504	; 0x1080000
 8001356:	f422 3280 	bic.w	r2, r2, #65536	; 0x10000
 800135a:	601a      	str	r2, [r3, #0]

  /* Reset HSEBYP bit */
  RCC->CR &= (uint32_t)0xFFFBFFFF;
 800135c:	681a      	ldr	r2, [r3, #0]
 800135e:	f422 2280 	bic.w	r2, r2, #262144	; 0x40000
 8001362:	601a      	str	r2, [r3, #0]

  /* Reset PLLSRC, PLLXTPRE, PLLMUL and USBPRE/OTGFSPRE bits */
  RCC->CFGR &= (uint32_t)0xFF80FFFF;
 8001364:	685a      	ldr	r2, [r3, #4]
 8001366:	f422 02fe 	bic.w	r2, r2, #8323072	; 0x7f0000
 800136a:	605a      	str	r2, [r3, #4]

  /* Reset CFGR2 register */
  RCC->CFGR2 = 0x00000000;      
#else
  /* Disable all interrupts and clear pending bits  */
  RCC->CIR = 0x009F0000;
 800136c:	f44f 021f 	mov.w	r2, #10420224	; 0x9f0000
 8001370:	609a      	str	r2, [r3, #8]
  * @param  None
  * @retval None
  */
static void SetSysClockTo72(void)
{
  __IO uint32_t StartUpCounter = 0, HSEStatus = 0;
 8001372:	2200      	movs	r2, #0
 8001374:	9200      	str	r2, [sp, #0]
 8001376:	9201      	str	r2, [sp, #4]
  
  /* SYSCLK, HCLK, PCLK2 and PCLK1 configuration ---------------------------*/    
  /* Enable HSE */    
  RCC->CR |= ((uint32_t)RCC_CR_HSEON);
 8001378:	681a      	ldr	r2, [r3, #0]
 800137a:	f442 3280 	orr.w	r2, r2, #65536	; 0x10000
 800137e:	601a      	str	r2, [r3, #0]
 
  /* Wait till HSE is ready and if Time out is reached exit */
  do
  {
    HSEStatus = RCC->CR & RCC_CR_HSERDY;
 8001380:	681a      	ldr	r2, [r3, #0]
 8001382:	f402 3200 	and.w	r2, r2, #131072	; 0x20000
 8001386:	9201      	str	r2, [sp, #4]
    StartUpCounter++;  
 8001388:	9a00      	ldr	r2, [sp, #0]
 800138a:	3201      	adds	r2, #1
 800138c:	9200      	str	r2, [sp, #0]
  } while((HSEStatus == 0) && (StartUpCounter != HSE_STARTUP_TIMEOUT));
 800138e:	9a01      	ldr	r2, [sp, #4]
 8001390:	b91a      	cbnz	r2, 800139a <SystemInit+0x5e>
 8001392:	9a00      	ldr	r2, [sp, #0]
 8001394:	f5b2 6fa0 	cmp.w	r2, #1280	; 0x500
 8001398:	d1f2      	bne.n	8001380 <SystemInit+0x44>

  if ((RCC->CR & RCC_CR_HSERDY) != RESET)
 800139a:	681a      	ldr	r2, [r3, #0]
 800139c:	f412 3200 	ands.w	r2, r2, #131072	; 0x20000
  {
    HSEStatus = (uint32_t)0x01;
 80013a0:	bf18      	it	ne
 80013a2:	2201      	movne	r2, #1
  }
  else
  {
    HSEStatus = (uint32_t)0x00;
 80013a4:	9201      	str	r2, [sp, #4]
  }  

  if (HSEStatus == (uint32_t)0x01)
 80013a6:	9a01      	ldr	r2, [sp, #4]
 80013a8:	2a01      	cmp	r2, #1
 80013aa:	d130      	bne.n	800140e <SystemInit+0xd2>
  {
    /* Enable Prefetch Buffer */
    FLASH->ACR |= FLASH_ACR_PRFTBE;
 80013ac:	4a1d      	ldr	r2, [pc, #116]	; (8001424 <SystemInit+0xe8>)
 80013ae:	6811      	ldr	r1, [r2, #0]
 80013b0:	f041 0110 	orr.w	r1, r1, #16
 80013b4:	6011      	str	r1, [r2, #0]

    /* Flash 2 wait state */
    FLASH->ACR &= (uint32_t)((uint32_t)~FLASH_ACR_LATENCY);
 80013b6:	6811      	ldr	r1, [r2, #0]
 80013b8:	f021 0103 	bic.w	r1, r1, #3
 80013bc:	6011      	str	r1, [r2, #0]
    FLASH->ACR |= (uint32_t)FLASH_ACR_LATENCY_2;    
 80013be:	6811      	ldr	r1, [r2, #0]
 80013c0:	f041 0102 	orr.w	r1, r1, #2
 80013c4:	6011      	str	r1, [r2, #0]

 
    /* HCLK = SYSCLK */
    RCC->CFGR |= (uint32_t)RCC_CFGR_HPRE_DIV1;
 80013c6:	685a      	ldr	r2, [r3, #4]
 80013c8:	605a      	str	r2, [r3, #4]
      
    /* PCLK2 = HCLK */
    RCC->CFGR |= (uint32_t)RCC_CFGR_PPRE2_DIV1;
 80013ca:	685a      	ldr	r2, [r3, #4]
 80013cc:	605a      	str	r2, [r3, #4]
    
    /* PCLK1 = HCLK */
    RCC->CFGR |= (uint32_t)RCC_CFGR_PPRE1_DIV2;
 80013ce:	685a      	ldr	r2, [r3, #4]
 80013d0:	f442 6280 	orr.w	r2, r2, #1024	; 0x400
 80013d4:	605a      	str	r2, [r3, #4]
    RCC->CFGR &= (uint32_t)~(RCC_CFGR_PLLXTPRE | RCC_CFGR_PLLSRC | RCC_CFGR_PLLMULL);
    RCC->CFGR |= (uint32_t)(RCC_CFGR_PLLXTPRE_PREDIV1 | RCC_CFGR_PLLSRC_PREDIV1 | 
                            RCC_CFGR_PLLMULL9); 
#else    
    /*  PLL configuration: PLLCLK = HSE * 9 = 72 MHz */
    RCC->CFGR &= (uint32_t)((uint32_t)~(RCC_CFGR_PLLSRC | RCC_CFGR_PLLXTPRE |
 80013d6:	685a      	ldr	r2, [r3, #4]
 80013d8:	f422 127c 	bic.w	r2, r2, #4128768	; 0x3f0000
 80013dc:	605a      	str	r2, [r3, #4]
                                        RCC_CFGR_PLLMULL));
    RCC->CFGR |= (uint32_t)(RCC_CFGR_PLLSRC_HSE | RCC_CFGR_PLLMULL9);
 80013de:	685a      	ldr	r2, [r3, #4]
 80013e0:	f442 12e8 	orr.w	r2, r2, #1900544	; 0x1d0000
 80013e4:	605a      	str	r2, [r3, #4]
#endif /* STM32F10X_CL */

    /* Enable PLL */
    RCC->CR |= RCC_CR_PLLON;
 80013e6:	681a      	ldr	r2, [r3, #0]
 80013e8:	f042 7280 	orr.w	r2, r2, #16777216	; 0x1000000
 80013ec:	601a      	str	r2, [r3, #0]

    /* Wait till PLL is ready */
    while((RCC->CR & RCC_CR_PLLRDY) == 0)
 80013ee:	681a      	ldr	r2, [r3, #0]
 80013f0:	0192      	lsls	r2, r2, #6
 80013f2:	d5fc      	bpl.n	80013ee <SystemInit+0xb2>
    {
    }
    
    /* Select PLL as system clock source */
    RCC->CFGR &= (uint32_t)((uint32_t)~(RCC_CFGR_SW));
 80013f4:	685a      	ldr	r2, [r3, #4]
 80013f6:	f022 0203 	bic.w	r2, r2, #3
 80013fa:	605a      	str	r2, [r3, #4]
    RCC->CFGR |= (uint32_t)RCC_CFGR_SW_PLL;    
 80013fc:	685a      	ldr	r2, [r3, #4]
 80013fe:	f042 0202 	orr.w	r2, r2, #2
 8001402:	605a      	str	r2, [r3, #4]

    /* Wait till PLL is used as system clock source */
    while ((RCC->CFGR & (uint32_t)RCC_CFGR_SWS) != (uint32_t)0x08)
 8001404:	685a      	ldr	r2, [r3, #4]
 8001406:	f002 020c 	and.w	r2, r2, #12
 800140a:	2a08      	cmp	r2, #8
 800140c:	d1fa      	bne.n	8001404 <SystemInit+0xc8>
  SCB->VTOR = FLASH_BASE | VECT_TAB_OFFSET; /* Vector Table Relocation in Internal FLASH. */
 800140e:	f04f 6200 	mov.w	r2, #134217728	; 0x8000000
 8001412:	4b05      	ldr	r3, [pc, #20]	; (8001428 <SystemInit+0xec>)
 8001414:	609a      	str	r2, [r3, #8]
}
 8001416:	b002      	add	sp, #8
 8001418:	4770      	bx	lr
 800141a:	bf00      	nop
 800141c:	40021000 	.word	0x40021000
 8001420:	f8ff0000 	.word	0xf8ff0000
 8001424:	40022000 	.word	0x40022000
 8001428:	e000ed00 	.word	0xe000ed00

0800142c <ADCx_Init>:
  * @brief  ADC初始化
  * @param  无
  * @retval 无
  */
void ADCx_Init(void)
{
 800142c:	b530      	push	{r4, r5, lr}
	ADC_GPIO_APBxClock_FUN ( ADC_GPIO_CLK, ENABLE );
 800142e:	2101      	movs	r1, #1
{
 8001430:	b091      	sub	sp, #68	; 0x44
	ADC_GPIO_APBxClock_FUN ( ADC_GPIO_CLK, ENABLE );
 8001432:	2004      	movs	r0, #4
 8001434:	f007 fc5a 	bl	8008cec <RCC_APB2PeriphClockCmd>
	GPIO_InitStructure.GPIO_Mode = GPIO_Mode_AIN;
 8001438:	2400      	movs	r4, #0
	GPIO_InitStructure.GPIO_Pin = 	ADC_PIN1|ADC_PIN2;
 800143a:	2330      	movs	r3, #48	; 0x30
	GPIO_Init(ADC_PORT, &GPIO_InitStructure);				
 800143c:	4838      	ldr	r0, [pc, #224]	; (8001520 <ADCx_Init+0xf4>)
 800143e:	a905      	add	r1, sp, #20
	GPIO_InitStructure.GPIO_Pin = 	ADC_PIN1|ADC_PIN2;
 8001440:	f8ad 3014 	strh.w	r3, [sp, #20]
	GPIO_InitStructure.GPIO_Mode = GPIO_Mode_AIN;
 8001444:	f88d 4017 	strb.w	r4, [sp, #23]
	GPIO_Init(ADC_PORT, &GPIO_InitStructure);				
 8001448:	f007 fa6e 	bl	8008928 <GPIO_Init>
	RCC_AHBPeriphClockCmd(ADC_DMA_CLK, ENABLE);
 800144c:	2101      	movs	r1, #1
 800144e:	4608      	mov	r0, r1
 8001450:	f007 fc40 	bl	8008cd4 <RCC_AHBPeriphClockCmd>
	ADC_APBxClock_FUN ( ADC_CLK, ENABLE );
 8001454:	2101      	movs	r1, #1
 8001456:	f44f 7000 	mov.w	r0, #512	; 0x200
 800145a:	f007 fc47 	bl	8008cec <RCC_APB2PeriphClockCmd>
	DMA_DeInit(ADC_DMA_CHANNEL);
 800145e:	4831      	ldr	r0, [pc, #196]	; (8001524 <ADCx_Init+0xf8>)
 8001460:	f007 f8bc 	bl	80085dc <DMA_DeInit>
	DMA_InitStructure.DMA_PeripheralBaseAddr = ( u32 ) ( & ( ADC_x->DR ) );
 8001464:	4b30      	ldr	r3, [pc, #192]	; (8001528 <ADCx_Init+0xfc>)
	DMA_InitStructure.DMA_PeripheralDataSize = DMA_PeripheralDataSize_HalfWord;
 8001466:	2280      	movs	r2, #128	; 0x80
	DMA_InitStructure.DMA_PeripheralBaseAddr = ( u32 ) ( & ( ADC_x->DR ) );
 8001468:	9305      	str	r3, [sp, #20]
	DMA_InitStructure.DMA_MemoryBaseAddr = (u32)ADC_ConvertedValue;
 800146a:	4b30      	ldr	r3, [pc, #192]	; (800152c <ADCx_Init+0x100>)
	DMA_InitStructure.DMA_Mode = DMA_Mode_Circular;	
 800146c:	f44f 6180 	mov.w	r1, #1024	; 0x400
	DMA_InitStructure.DMA_DIR = DMA_DIR_PeripheralSRC;
 8001470:	e9cd 3406 	strd	r3, r4, [sp, #24]
	DMA_InitStructure.DMA_PeripheralDataSize = DMA_PeripheralDataSize_HalfWord;
 8001474:	f44f 7380 	mov.w	r3, #256	; 0x100
 8001478:	e9cd 230a 	strd	r2, r3, [sp, #40]	; 0x28
	DMA_InitStructure.DMA_Mode = DMA_Mode_Circular;	
 800147c:	2320      	movs	r3, #32
	DMA_InitStructure.DMA_BufferSize = NOFCHANEL;
 800147e:	2502      	movs	r5, #2
	DMA_InitStructure.DMA_Mode = DMA_Mode_Circular;	
 8001480:	e9cd 130c 	strd	r1, r3, [sp, #48]	; 0x30
	DMA_InitStructure.DMA_Priority = DMA_Priority_Medium;
 8001484:	f44f 5380 	mov.w	r3, #4096	; 0x1000
	DMA_Init(ADC_DMA_CHANNEL, &DMA_InitStructure);
 8001488:	4826      	ldr	r0, [pc, #152]	; (8001524 <ADCx_Init+0xf8>)
 800148a:	a905      	add	r1, sp, #20
	DMA_InitStructure.DMA_M2M = DMA_M2M_Disable;
 800148c:	e9cd 340e 	strd	r3, r4, [sp, #56]	; 0x38
	DMA_InitStructure.DMA_PeripheralInc = DMA_PeripheralInc_Disable;
 8001490:	e9cd 5408 	strd	r5, r4, [sp, #32]
	DMA_Init(ADC_DMA_CHANNEL, &DMA_InitStructure);
 8001494:	f007 f91c 	bl	80086d0 <DMA_Init>
	DMA_Cmd(ADC_DMA_CHANNEL , ENABLE);
 8001498:	2101      	movs	r1, #1
 800149a:	4822      	ldr	r0, [pc, #136]	; (8001524 <ADCx_Init+0xf8>)
 800149c:	f007 f936 	bl	800870c <DMA_Cmd>
	ADC_InitStructure.ADC_ScanConvMode = ENABLE ; 
 80014a0:	f240 1301 	movw	r3, #257	; 0x101
 80014a4:	f8ad 3004 	strh.w	r3, [sp, #4]
	ADC_InitStructure.ADC_ExternalTrigConv = ADC_ExternalTrigConv_None;
 80014a8:	f44f 2360 	mov.w	r3, #917504	; 0xe0000
	ADC_Init(ADC_x, &ADC_InitStructure);
 80014ac:	4669      	mov	r1, sp
 80014ae:	4820      	ldr	r0, [pc, #128]	; (8001530 <ADCx_Init+0x104>)
	ADC_InitStructure.ADC_DataAlign = ADC_DataAlign_Right;
 80014b0:	e9cd 3402 	strd	r3, r4, [sp, #8]
	ADC_InitStructure.ADC_Mode = ADC_Mode_Independent;
 80014b4:	9400      	str	r4, [sp, #0]
	ADC_InitStructure.ADC_NbrOfChannel = NOFCHANEL;	
 80014b6:	f88d 5010 	strb.w	r5, [sp, #16]
	ADC_Init(ADC_x, &ADC_InitStructure);
 80014ba:	f006 fe9f 	bl	80081fc <ADC_Init>
	RCC_ADCCLKConfig(RCC_PCLK2_Div8); 
 80014be:	f44f 4040 	mov.w	r0, #49152	; 0xc000
 80014c2:	f007 fbbd 	bl	8008c40 <RCC_ADCCLKConfig>
	ADC_RegularChannelConfig(ADC_x, ADC_CHANNEL1, 1, ADC_SampleTime_55Cycles5);     // 舵机电源电压采样
 80014c6:	2305      	movs	r3, #5
 80014c8:	2201      	movs	r2, #1
 80014ca:	2104      	movs	r1, #4
 80014cc:	4818      	ldr	r0, [pc, #96]	; (8001530 <ADCx_Init+0x104>)
 80014ce:	f006 fee6 	bl	800829e <ADC_RegularChannelConfig>
	ADC_RegularChannelConfig(ADC_x, ADC_CHANNEL2, 2, ADC_SampleTime_55Cycles5);			// 主电源电压采样
 80014d2:	2305      	movs	r3, #5
 80014d4:	462a      	mov	r2, r5
 80014d6:	4619      	mov	r1, r3
 80014d8:	4815      	ldr	r0, [pc, #84]	; (8001530 <ADCx_Init+0x104>)
 80014da:	f006 fee0 	bl	800829e <ADC_RegularChannelConfig>
	ADC_DMACmd(ADC_x, ENABLE);
 80014de:	2101      	movs	r1, #1
 80014e0:	4813      	ldr	r0, [pc, #76]	; (8001530 <ADCx_Init+0x104>)
 80014e2:	f006 feb8 	bl	8008256 <ADC_DMACmd>
	ADC_Cmd(ADC_x, ENABLE);
 80014e6:	2101      	movs	r1, #1
 80014e8:	4811      	ldr	r0, [pc, #68]	; (8001530 <ADCx_Init+0x104>)
 80014ea:	f006 feab 	bl	8008244 <ADC_Cmd>
	ADC_ResetCalibration(ADC_x);
 80014ee:	4810      	ldr	r0, [pc, #64]	; (8001530 <ADCx_Init+0x104>)
 80014f0:	f006 feba 	bl	8008268 <ADC_ResetCalibration>
	while(ADC_GetResetCalibrationStatus(ADC_x));
 80014f4:	4c0e      	ldr	r4, [pc, #56]	; (8001530 <ADCx_Init+0x104>)
 80014f6:	4620      	mov	r0, r4
 80014f8:	f006 febb 	bl	8008272 <ADC_GetResetCalibrationStatus>
 80014fc:	2800      	cmp	r0, #0
 80014fe:	d1fa      	bne.n	80014f6 <ADCx_Init+0xca>
	ADC_StartCalibration(ADC_x);
 8001500:	480b      	ldr	r0, [pc, #44]	; (8001530 <ADCx_Init+0x104>)
 8001502:	f006 feba 	bl	800827a <ADC_StartCalibration>
	while(ADC_GetCalibrationStatus(ADC_x));
 8001506:	4c0a      	ldr	r4, [pc, #40]	; (8001530 <ADCx_Init+0x104>)
 8001508:	4620      	mov	r0, r4
 800150a:	f006 febb 	bl	8008284 <ADC_GetCalibrationStatus>
 800150e:	2800      	cmp	r0, #0
 8001510:	d1fa      	bne.n	8001508 <ADCx_Init+0xdc>
	ADC_SoftwareStartConvCmd(ADC_x, ENABLE);
 8001512:	2101      	movs	r1, #1
 8001514:	4806      	ldr	r0, [pc, #24]	; (8001530 <ADCx_Init+0x104>)
 8001516:	f006 feb9 	bl	800828c <ADC_SoftwareStartConvCmd>
	ADCx_GPIO_Config();
	ADCx_Mode_Config();
}
 800151a:	b011      	add	sp, #68	; 0x44
 800151c:	bd30      	pop	{r4, r5, pc}
 800151e:	bf00      	nop
 8001520:	40010800 	.word	0x40010800
 8001524:	40020008 	.word	0x40020008
 8001528:	4001244c 	.word	0x4001244c
 800152c:	200002d8 	.word	0x200002d8
 8001530:	40012400 	.word	0x40012400

08001534 <ak8963Init>:
{
	if (isInit)
		return;

	I2Cx = i2cPort;
	devAddr = AK8963_ADDRESS_00;
 8001534:	220c      	movs	r2, #12
	I2Cx = i2cPort;
 8001536:	4b02      	ldr	r3, [pc, #8]	; (8001540 <ak8963Init+0xc>)
 8001538:	6018      	str	r0, [r3, #0]
	devAddr = AK8963_ADDRESS_00;
 800153a:	4b02      	ldr	r3, [pc, #8]	; (8001544 <ak8963Init+0x10>)
 800153c:	701a      	strb	r2, [r3, #0]
}
 800153e:	4770      	bx	lr
 8001540:	200002e4 	.word	0x200002e4
 8001544:	200002ee 	.word	0x200002ee

08001548 <ak8963TestConnection>:
/** Verify the I2C connection.
 * Make sure the device is connected and responds as expected.
 * @return True if connection is valid, false otherwise
 */
bool ak8963TestConnection()
{
 8001548:	b510      	push	{r4, lr}
	if (i2cdevReadByte(I2Cx, devAddr, AK8963_RA_WIA, buffer) == 1)
 800154a:	4908      	ldr	r1, [pc, #32]	; (800156c <ak8963TestConnection+0x24>)
 800154c:	4c08      	ldr	r4, [pc, #32]	; (8001570 <ak8963TestConnection+0x28>)
 800154e:	4809      	ldr	r0, [pc, #36]	; (8001574 <ak8963TestConnection+0x2c>)
 8001550:	4623      	mov	r3, r4
 8001552:	2200      	movs	r2, #0
 8001554:	7809      	ldrb	r1, [r1, #0]
 8001556:	6800      	ldr	r0, [r0, #0]
 8001558:	f000 f9c2 	bl	80018e0 <i2cdevReadByte>
 800155c:	b120      	cbz	r0, 8001568 <ak8963TestConnection+0x20>
	{
		return (buffer[0] == 0x48);
 800155e:	7820      	ldrb	r0, [r4, #0]
 8001560:	f1a0 0348 	sub.w	r3, r0, #72	; 0x48
 8001564:	4258      	negs	r0, r3
 8001566:	4158      	adcs	r0, r3
	}
	return false;
}
 8001568:	bd10      	pop	{r4, pc}
 800156a:	bf00      	nop
 800156c:	200002ee 	.word	0x200002ee
 8001570:	200002e8 	.word	0x200002e8
 8001574:	200002e4 	.word	0x200002e4

08001578 <ak8963SetMode>:
{
	i2cdevReadByte(I2Cx, devAddr, AK8963_RA_CNTL, buffer);
	return buffer[0];
}
void ak8963SetMode(u8 mode)
{
 8001578:	4603      	mov	r3, r0
	i2cdevWriteByte(I2Cx, devAddr, AK8963_RA_CNTL, mode);
 800157a:	4903      	ldr	r1, [pc, #12]	; (8001588 <ak8963SetMode+0x10>)
 800157c:	4803      	ldr	r0, [pc, #12]	; (800158c <ak8963SetMode+0x14>)
 800157e:	220a      	movs	r2, #10
 8001580:	7809      	ldrb	r1, [r1, #0]
 8001582:	6800      	ldr	r0, [r0, #0]
 8001584:	f000 b9cf 	b.w	8001926 <i2cdevWriteByte>
 8001588:	200002ee 	.word	0x200002ee
 800158c:	200002e4 	.word	0x200002e4

08001590 <TIM6_IRQHandler>:
	TIM_Cmd(TIM6, DISABLE);
}


void TIM6_IRQHandler(void)
{
 8001590:	b508      	push	{r3, lr}
	if(TIM_GetITStatus(TIM6,TIM_IT_Update)!=RESET)
 8001592:	2101      	movs	r1, #1
 8001594:	4806      	ldr	r0, [pc, #24]	; (80015b0 <TIM6_IRQHandler+0x20>)
 8001596:	f007 fef9 	bl	800938c <TIM_GetITStatus>
 800159a:	b140      	cbz	r0, 80015ae <TIM6_IRQHandler+0x1e>
	{
		TIM_ClearITPendingBit(TIM6,TIM_IT_Update); // 清除中断标志位
 800159c:	2101      	movs	r1, #1
 800159e:	4804      	ldr	r0, [pc, #16]	; (80015b0 <TIM6_IRQHandler+0x20>)
 80015a0:	f007 feff 	bl	80093a2 <TIM_ClearITPendingBit>
		TOGGLE_BUZZER;
 80015a4:	4a03      	ldr	r2, [pc, #12]	; (80015b4 <TIM6_IRQHandler+0x24>)
 80015a6:	68d3      	ldr	r3, [r2, #12]
 80015a8:	f483 5380 	eor.w	r3, r3, #4096	; 0x1000
 80015ac:	60d3      	str	r3, [r2, #12]
	}
}
 80015ae:	bd08      	pop	{r3, pc}
 80015b0:	40001000 	.word	0x40001000
 80015b4:	40010800 	.word	0x40010800

080015b8 <CAN_Mode_Init>:
// Fpclk1的时钟在初始化的时候设置为36M,如果设置CAN_Mode_Init(CAN_SJW_1tq,CAN_BS2_8tq,CAN_BS1_9tq,4,CAN_Mode_LoopBack);
// 则波特率为:36M/((8+9+1)*4)=500Kbps
// 返回值:0,初始化OK;
//		   其他,初始化失败;
uint8_t CAN_Mode_Init(uint8_t tsjw, uint8_t tbs2, uint8_t tbs1, uint16_t brp, uint8_t mode)
{ 
 80015b8:	e92d 43f0 	stmdb	sp!, {r4, r5, r6, r7, r8, r9, lr}
 80015bc:	4680      	mov	r8, r0
 80015be:	b089      	sub	sp, #36	; 0x24
 80015c0:	460e      	mov	r6, r1
	CAN_FilterInitTypeDef  	CAN_FilterInitStructure;
#if CAN_RX0_INT_ENABLE 
	NVIC_InitTypeDef  		NVIC_InitStructure;
#endif

	RCC_APB2PeriphClockCmd(RCC_APB2Periph_GPIOB, ENABLE);//使能PORTA时钟	                   											 
 80015c2:	2008      	movs	r0, #8
 80015c4:	2101      	movs	r1, #1
{ 
 80015c6:	4617      	mov	r7, r2
 80015c8:	461d      	mov	r5, r3
	RCC_APB1PeriphClockCmd(RCC_APB1Periph_CAN1, ENABLE);//使能CAN1时钟	

	GPIO_InitStructure.GPIO_Pin = GPIO_Pin_9;
	GPIO_InitStructure.GPIO_Speed = GPIO_Speed_50MHz;
	GPIO_InitStructure.GPIO_Mode = GPIO_Mode_AF_PP;	//复用推挽
	GPIO_Init(GPIOB, &GPIO_InitStructure);			//初始化IO
 80015ca:	4c20      	ldr	r4, [pc, #128]	; (800164c <CAN_Mode_Init+0x94>)
	RCC_APB2PeriphClockCmd(RCC_APB2Periph_GPIOB, ENABLE);//使能PORTA时钟	                   											 
 80015cc:	f007 fb8e 	bl	8008cec <RCC_APB2PeriphClockCmd>
	RCC_APB1PeriphClockCmd(RCC_APB1Periph_CAN1, ENABLE);//使能CAN1时钟	
 80015d0:	2101      	movs	r1, #1
 80015d2:	f04f 7000 	mov.w	r0, #33554432	; 0x2000000
 80015d6:	f007 fb95 	bl	8008d04 <RCC_APB1PeriphClockCmd>
	GPIO_InitStructure.GPIO_Pin = GPIO_Pin_9;
 80015da:	4b1d      	ldr	r3, [pc, #116]	; (8001650 <CAN_Mode_Init+0x98>)
	GPIO_Init(GPIOB, &GPIO_InitStructure);			//初始化IO
 80015dc:	4669      	mov	r1, sp
 80015de:	4620      	mov	r0, r4

	GPIO_InitStructure.GPIO_Pin = GPIO_Pin_8;
 80015e0:	f44f 7980 	mov.w	r9, #256	; 0x100
	GPIO_InitStructure.GPIO_Pin = GPIO_Pin_9;
 80015e4:	9300      	str	r3, [sp, #0]
	GPIO_Init(GPIOB, &GPIO_InitStructure);			//初始化IO
 80015e6:	f007 f99f 	bl	8008928 <GPIO_Init>
	GPIO_InitStructure.GPIO_Mode = GPIO_Mode_IPU;	//上拉输入
 80015ea:	2348      	movs	r3, #72	; 0x48
	GPIO_Init(GPIOB, &GPIO_InitStructure);			//初始化IO
 80015ec:	4620      	mov	r0, r4
	
	GPIO_PinRemapConfig(GPIO_Remap1_CAN1, ENABLE);

	//CAN单元设置
	CAN_InitStructure.CAN_TTCM=DISABLE;			//非时间触发通信模式  
 80015ee:	2400      	movs	r4, #0
	GPIO_Init(GPIOB, &GPIO_InitStructure);			//初始化IO
 80015f0:	4669      	mov	r1, sp
	GPIO_InitStructure.GPIO_Mode = GPIO_Mode_IPU;	//上拉输入
 80015f2:	f88d 3003 	strb.w	r3, [sp, #3]
	GPIO_InitStructure.GPIO_Pin = GPIO_Pin_8;
 80015f6:	f8ad 9000 	strh.w	r9, [sp]
	GPIO_Init(GPIOB, &GPIO_InitStructure);			//初始化IO
 80015fa:	f007 f995 	bl	8008928 <GPIO_Init>
	GPIO_PinRemapConfig(GPIO_Remap1_CAN1, ENABLE);
 80015fe:	2101      	movs	r1, #1
 8001600:	f44f 10ea 	mov.w	r0, #1916928	; 0x1d4000
 8001604:	f007 f9f0 	bl	80089e8 <GPIO_PinRemapConfig>
	CAN_InitStructure.CAN_ABOM=DISABLE;			//软件自动离线管理	 
	CAN_InitStructure.CAN_AWUM=DISABLE;			//睡眠模式通过软件唤醒(清除CAN->MCR的SLEEP位)
	CAN_InitStructure.CAN_NART=ENABLE;			//禁止报文自动传送 
	CAN_InitStructure.CAN_RFLM=DISABLE;		 	//报文不锁定,新的覆盖旧的  
	CAN_InitStructure.CAN_TXFP=DISABLE;			//优先级由报文标识符决定 
	CAN_InitStructure.CAN_Mode= mode;	        //模式设置： mode:0,普通模式;1,回环模式; 
 8001608:	f89d 3040 	ldrb.w	r3, [sp, #64]	; 0x40
	//设置波特率
	CAN_InitStructure.CAN_SJW=tsjw;				//重新同步跳跃宽度(Tsjw)为tsjw+1个时间单位  CAN_SJW_1tq	 CAN_SJW_2tq CAN_SJW_3tq CAN_SJW_4tq
	CAN_InitStructure.CAN_BS1=tbs1; 			//Tbs1=tbs1+1个时间单位CAN_BS1_1tq ~CAN_BS1_16tq
	CAN_InitStructure.CAN_BS2=tbs2;				//Tbs2=tbs2+1个时间单位CAN_BS2_1tq ~	CAN_BS2_8tq
	CAN_InitStructure.CAN_Prescaler=brp;        //分频系数(Fdiv)为brp+1	
	CAN_Init(CAN1, &CAN_InitStructure);        	//初始化CAN1 
 800160c:	a901      	add	r1, sp, #4
 800160e:	4811      	ldr	r0, [pc, #68]	; (8001654 <CAN_Mode_Init+0x9c>)
	CAN_InitStructure.CAN_Mode= mode;	        //模式设置： mode:0,普通模式;1,回环模式; 
 8001610:	f88d 3006 	strb.w	r3, [sp, #6]
	CAN_InitStructure.CAN_TTCM=DISABLE;			//非时间触发通信模式  
 8001614:	f8ad 400a 	strh.w	r4, [sp, #10]
	CAN_InitStructure.CAN_AWUM=DISABLE;			//睡眠模式通过软件唤醒(清除CAN->MCR的SLEEP位)
 8001618:	f8cd 900c 	str.w	r9, [sp, #12]
	CAN_InitStructure.CAN_SJW=tsjw;				//重新同步跳跃宽度(Tsjw)为tsjw+1个时间单位  CAN_SJW_1tq	 CAN_SJW_2tq CAN_SJW_3tq CAN_SJW_4tq
 800161c:	f88d 8007 	strb.w	r8, [sp, #7]
	CAN_InitStructure.CAN_BS1=tbs1; 			//Tbs1=tbs1+1个时间单位CAN_BS1_1tq ~CAN_BS1_16tq
 8001620:	f88d 7008 	strb.w	r7, [sp, #8]
	CAN_InitStructure.CAN_BS2=tbs2;				//Tbs2=tbs2+1个时间单位CAN_BS2_1tq ~	CAN_BS2_8tq
 8001624:	f88d 6009 	strb.w	r6, [sp, #9]
	CAN_InitStructure.CAN_Prescaler=brp;        //分频系数(Fdiv)为brp+1	
 8001628:	f8ad 5004 	strh.w	r5, [sp, #4]
	CAN_Init(CAN1, &CAN_InitStructure);        	//初始化CAN1 
 800162c:	f006 fe7c 	bl	8008328 <CAN_Init>

	CAN_FilterInitStructure.CAN_FilterNumber=0;	//过滤器0
	CAN_FilterInitStructure.CAN_FilterMode=CAN_FilterMode_IdMask; 	//屏蔽位模式
	CAN_FilterInitStructure.CAN_FilterScale=CAN_FilterScale_32bit; 	//32位宽 
 8001630:	f240 1301 	movw	r3, #257	; 0x101
	CAN_FilterInitStructure.CAN_FilterMaskIdHigh=0x0000;//32位MASK
	CAN_FilterInitStructure.CAN_FilterMaskIdLow=0x0000;
	CAN_FilterInitStructure.CAN_FilterFIFOAssignment=CAN_Filter_FIFO0;//过滤器0关联到FIFO0
	CAN_FilterInitStructure.CAN_FilterActivation=ENABLE;//激活过滤器0

	CAN_FilterInit(&CAN_FilterInitStructure);			//滤波器初始化
 8001634:	a804      	add	r0, sp, #16
	CAN_FilterInitStructure.CAN_FilterMaskIdHigh=0x0000;//32位MASK
 8001636:	e9cd 4404 	strd	r4, r4, [sp, #16]
	CAN_FilterInitStructure.CAN_FilterFIFOAssignment=CAN_Filter_FIFO0;//过滤器0关联到FIFO0
 800163a:	9406      	str	r4, [sp, #24]
	CAN_FilterInitStructure.CAN_FilterScale=CAN_FilterScale_32bit; 	//32位宽 
 800163c:	f8ad 301c 	strh.w	r3, [sp, #28]
	CAN_FilterInit(&CAN_FilterInitStructure);			//滤波器初始化
 8001640:	f006 fedc 	bl	80083fc <CAN_FilterInit>
	NVIC_InitStructure.NVIC_IRQChannelSubPriority = 0;            // 次优先级为0
	NVIC_InitStructure.NVIC_IRQChannelCmd = ENABLE;
	NVIC_Init(&NVIC_InitStructure);
#endif
	return 0;
}   
 8001644:	4620      	mov	r0, r4
 8001646:	b009      	add	sp, #36	; 0x24
 8001648:	e8bd 83f0 	ldmia.w	sp!, {r4, r5, r6, r7, r8, r9, pc}
 800164c:	40010c00 	.word	0x40010c00
 8001650:	18030200 	.word	0x18030200
 8001654:	40006400 	.word	0x40006400

08001658 <CanSendMsg>:
// len:数据长度(最大为8)				     
// msg:数据指针,最大为8个字节.
// 返回值:0,成功;
//			 其他,失败;
uint8_t CanSendMsg(uint8_t* msg, uint8_t len)
{	
 8001658:	b5f0      	push	{r4, r5, r6, r7, lr}
	uint8_t mbox;
	uint16_t i = 0;
	CanTxMsg TxMessage;
	TxMessage.StdId = 0x12;						// 标准标识符 
 800165a:	2312      	movs	r3, #18
	TxMessage.ExtId = 0x12;						// 设置扩展标示符 
	TxMessage.IDE = CAN_Id_Standard; 	// 标准帧
 800165c:	2400      	movs	r4, #0
{	
 800165e:	b087      	sub	sp, #28
 8001660:	460a      	mov	r2, r1
	TxMessage.RTR = CAN_RTR_Data;			// 数据帧
	TxMessage.DLC = len;							// 要发送的数据长度
 8001662:	f88d 100e 	strb.w	r1, [sp, #14]
	
	for(i = 0; i < len; i++)
	{
		TxMessage.Data[i] = msg[i];
 8001666:	4601      	mov	r1, r0
 8001668:	f10d 000f 	add.w	r0, sp, #15
	TxMessage.ExtId = 0x12;						// 设置扩展标示符 
 800166c:	e9cd 3301 	strd	r3, r3, [sp, #4]
	TxMessage.IDE = CAN_Id_Standard; 	// 标准帧
 8001670:	f8ad 400c 	strh.w	r4, [sp, #12]
		TxMessage.Data[i] = msg[i];
 8001674:	f00a fffb 	bl	800c66e <memcpy>
	}
	
	mbox = CAN_Transmit(CAN1, &TxMessage);
 8001678:	480c      	ldr	r0, [pc, #48]	; (80016ac <CanSendMsg+0x54>)
 800167a:	a901      	add	r1, sp, #4
 800167c:	f006 ff30 	bl	80084e0 <CAN_Transmit>
 8001680:	4606      	mov	r6, r0
	
	i = 0; 
	while((CAN_TransmitStatus(CAN1, mbox) == CAN_TxStatus_Failed)&&(i < 0XFFF))
 8001682:	4f0a      	ldr	r7, [pc, #40]	; (80016ac <CanSendMsg+0x54>)
 8001684:	4631      	mov	r1, r6
 8001686:	4638      	mov	r0, r7
 8001688:	b2a5      	uxth	r5, r4
 800168a:	f006 ff7b 	bl	8008584 <CAN_TransmitStatus>
 800168e:	b930      	cbnz	r0, 800169e <CanSendMsg+0x46>
 8001690:	3401      	adds	r4, #1
 8001692:	f5b4 5f80 	cmp.w	r4, #4096	; 0x1000
 8001696:	d1f5      	bne.n	8001684 <CanSendMsg+0x2c>
		i++;	//等待发送结束
	}
	
	if(i >= 0XFFF)
	{
		return 1;
 8001698:	2001      	movs	r0, #1
	}
	
	return 0;	 
}
 800169a:	b007      	add	sp, #28
 800169c:	bdf0      	pop	{r4, r5, r6, r7, pc}
		return 1;
 800169e:	f640 73ff 	movw	r3, #4095	; 0xfff
 80016a2:	1aeb      	subs	r3, r5, r3
 80016a4:	4258      	negs	r0, r3
 80016a6:	4158      	adcs	r0, r3
 80016a8:	e7f7      	b.n	800169a <CanSendMsg+0x42>
 80016aa:	bf00      	nop
 80016ac:	40006400 	.word	0x40006400

080016b0 <Delay_Init>:
// 初始化延迟函数
// 当使用OS的时候,此函数会初始化OS的时钟节拍
// SYSTICK的时钟固定为AHB时钟的1/8
// SYSCLK: 系统时钟频率
void Delay_Init(uint8_t SYSCLK)
{
 80016b0:	b510      	push	{r4, lr}
 80016b2:	4604      	mov	r4, r0
//如果需要支持OS
#if SYSTEM_SUPPORT_OS
	uint32_t reload;
#endif
	
 	SysTick_CLKSourceConfig(SysTick_CLKSource_HCLK);
 80016b4:	2004      	movs	r0, #4
 80016b6:	f006 fd95 	bl	80081e4 <SysTick_CLKSourceConfig>
	// 不论是否使用OS, fac_us都需要使用
	fac_us = SYSCLK;
 80016ba:	4b0a      	ldr	r3, [pc, #40]	; (80016e4 <Delay_Init+0x34>)
	
	// 根configTICK_RATE_HZ定溢出时间
	// reload为24位寄存器,最大值:16777216, 在72M下, 约合0.233017s左右	
	reload *= 1000000 /configTICK_RATE_HZ;
	
	fac_ms = 1000/configTICK_RATE_HZ;			//代表OS可以延时的最少单位	   
 80016bc:	2201      	movs	r2, #1
	fac_us = SYSCLK;
 80016be:	601c      	str	r4, [r3, #0]
	reload *= 1000000 /configTICK_RATE_HZ;
 80016c0:	f44f 737a 	mov.w	r3, #1000	; 0x3e8
 80016c4:	435c      	muls	r4, r3
	fac_ms = 1000/configTICK_RATE_HZ;			//代表OS可以延时的最少单位	   
 80016c6:	4b08      	ldr	r3, [pc, #32]	; (80016e8 <Delay_Init+0x38>)
 80016c8:	801a      	strh	r2, [r3, #0]
	SysTick->CTRL |= SysTick_CTRL_TICKINT_Msk;//开启SYSTICK中断
 80016ca:	f04f 23e0 	mov.w	r3, #3758153728	; 0xe000e000
 80016ce:	691a      	ldr	r2, [r3, #16]
 80016d0:	f042 0202 	orr.w	r2, r2, #2
 80016d4:	611a      	str	r2, [r3, #16]
	SysTick->LOAD = reload; 					//每1/delay_ostickspersec秒中断一次	
 80016d6:	615c      	str	r4, [r3, #20]
	SysTick->CTRL |= SysTick_CTRL_ENABLE_Msk;	//开启SYSTICK    
 80016d8:	691a      	ldr	r2, [r3, #16]
 80016da:	f042 0201 	orr.w	r2, r2, #1
 80016de:	611a      	str	r2, [r3, #16]
#else
	fac_ms = (uint16_t)fac_us * 1000;				//非OS下,代表每个ms需要的systick时钟数   
#endif
}
 80016e0:	bd10      	pop	{r4, pc}
 80016e2:	bf00      	nop
 80016e4:	200002f4 	.word	0x200002f4
 80016e8:	200002f0 	.word	0x200002f0

080016ec <delay_us>:
#if SYSTEM_SUPPORT_OS 						//如果需要支持OS.
//延时nus
//nus:要延时的us数.	
//nus:0~44739242(最大值即2^32/fac_us@fac_us=96)	    								   
void delay_us(uint32_t nus)
{		
 80016ec:	b570      	push	{r4, r5, r6, lr}
	uint32_t ticks;
	uint32_t told, tnow, tcnt = 0;
	uint32_t reload = SysTick->LOAD;				//LOAD的值	    	 
	ticks = nus * fac_us; 						//需要的节拍数 
 80016ee:	4b0b      	ldr	r3, [pc, #44]	; (800171c <delay_us+0x30>)
	uint32_t reload = SysTick->LOAD;				//LOAD的值	    	 
 80016f0:	f04f 24e0 	mov.w	r4, #3758153728	; 0xe000e000
	ticks = nus * fac_us; 						//需要的节拍数 
 80016f4:	681b      	ldr	r3, [r3, #0]
	uint32_t reload = SysTick->LOAD;				//LOAD的值	    	 
 80016f6:	6965      	ldr	r5, [r4, #20]
	ticks = nus * fac_us; 						//需要的节拍数 
 80016f8:	4358      	muls	r0, r3
	uint32_t told, tnow, tcnt = 0;
 80016fa:	2300      	movs	r3, #0
	told = SysTick->VAL;        				//刚进入时的计数器值
 80016fc:	69a1      	ldr	r1, [r4, #24]
	while(1)
	{
		tnow = SysTick->VAL;	
 80016fe:	69a2      	ldr	r2, [r4, #24]
		if(tnow != told)
 8001700:	4291      	cmp	r1, r2
 8001702:	d0fc      	beq.n	80016fe <delay_us+0x12>
		{	    
			if(tnow<told)tcnt+=told-tnow;	//这里注意一下SYSTICK是一个递减的计数器就可以了.
 8001704:	bf95      	itete	ls
 8001706:	1aae      	subls	r6, r5, r2
 8001708:	185b      	addhi	r3, r3, r1
 800170a:	199b      	addls	r3, r3, r6
 800170c:	1a9b      	subhi	r3, r3, r2
			else tcnt+=reload-tnow+told;	    
 800170e:	bf98      	it	ls
 8001710:	185b      	addls	r3, r3, r1
			told=tnow;
			if(tcnt>=ticks)break;			//时间超过/等于要延迟的时间,则退出.
 8001712:	4283      	cmp	r3, r0
 8001714:	d300      	bcc.n	8001718 <delay_us+0x2c>
		}  
	};											    
}
 8001716:	bd70      	pop	{r4, r5, r6, pc}
 8001718:	4611      	mov	r1, r2
 800171a:	e7f0      	b.n	80016fe <delay_us+0x12>
 800171c:	200002f4 	.word	0x200002f4

08001720 <delay_ms>:

//延时nms
//nms:要延时的ms数
//nms:0~65535
void delay_ms(uint16_t nms)
{	
 8001720:	b538      	push	{r3, r4, r5, lr}
 8001722:	4604      	mov	r4, r0
	if(xTaskGetSchedulerState()!=taskSCHEDULER_NOT_STARTED)//系统已经运行	    
 8001724:	f006 f81e 	bl	8007764 <xTaskGetSchedulerState>
 8001728:	2801      	cmp	r0, #1
 800172a:	d00d      	beq.n	8001748 <delay_ms+0x28>
	{		 
		if(nms >= fac_ms)						//延时的时间大于OS的最少时间周期 
 800172c:	4d0a      	ldr	r5, [pc, #40]	; (8001758 <delay_ms+0x38>)
 800172e:	8828      	ldrh	r0, [r5, #0]
 8001730:	42a0      	cmp	r0, r4
 8001732:	d803      	bhi.n	800173c <delay_ms+0x1c>
		{ 
   			vTaskDelay(nms / fac_ms);	 		//FreeRTOS延时
 8001734:	fbb4 f0f0 	udiv	r0, r4, r0
 8001738:	f005 fea0 	bl	800747c <vTaskDelay>
		}
		nms %= fac_ms;						//OS已经无法提供这么小的延时了,采用普通方式延时    
 800173c:	882b      	ldrh	r3, [r5, #0]
 800173e:	fbb4 f2f3 	udiv	r2, r4, r3
 8001742:	fb03 4412 	mls	r4, r3, r2, r4
 8001746:	b2a4      	uxth	r4, r4
	}
	
	delay_us((uint32_t)(nms * 1000));				//普通方式延时
 8001748:	f44f 707a 	mov.w	r0, #1000	; 0x3e8
 800174c:	4360      	muls	r0, r4
}
 800174e:	e8bd 4038 	ldmia.w	sp!, {r3, r4, r5, lr}
	delay_us((uint32_t)(nms * 1000));				//普通方式延时
 8001752:	f7ff bfcb 	b.w	80016ec <delay_us>
 8001756:	bf00      	nop
 8001758:	200002f0 	.word	0x200002f0

0800175c <SaveConfigData>:
	
	FLASH_Status FLASHStatus = FLASH_COMPLETE;	//记录每次擦除的结果	
	bool programStatus = true;									//记录整个测试结果
	
	
	uint8_t config[CONFIG_DATA_SIZE] = {0};
 800175c:	2300      	movs	r3, #0
{
 800175e:	b5f0      	push	{r4, r5, r6, r7, lr}
 8001760:	b085      	sub	sp, #20
	uint8_t config[CONFIG_DATA_SIZE] = {0};
 8001762:	9303      	str	r3, [sp, #12]
	// 无线地址
	config[0] = configParam.radio.addr[0];
	config[1] = configParam.radio.addr[1];
	config[2] = configParam.radio.addr[2];
	config[3] = configParam.radio.addr[3];
	config[4] = configParam.radio.addr[4];
 8001764:	4b2a      	ldr	r3, [pc, #168]	; (8001810 <SaveConfigData+0xb4>)
	config[6] = configParam.fs_mark;
	config[7] = configParam.fs_mark >> 8;
	config[8] = configParam.fs_mark >> 16;
	config[9] = configParam.fs_mark >> 24;
	
	checkSum = CRC_Table(config, CONFIG_DATA_SIZE - 2);
 8001766:	a801      	add	r0, sp, #4
	config[4] = configParam.radio.addr[4];
 8001768:	7a1a      	ldrb	r2, [r3, #8]
	config[0] = configParam.radio.addr[0];
 800176a:	6859      	ldr	r1, [r3, #4]
	config[4] = configParam.radio.addr[4];
 800176c:	f88d 2008 	strb.w	r2, [sp, #8]
	config[5] = configParam.radio.channel;
 8001770:	789a      	ldrb	r2, [r3, #2]
	config[0] = configParam.radio.addr[0];
 8001772:	9101      	str	r1, [sp, #4]
	config[5] = configParam.radio.channel;
 8001774:	f88d 2009 	strb.w	r2, [sp, #9]
	config[6] = configParam.fs_mark;
 8001778:	68da      	ldr	r2, [r3, #12]
 800177a:	899b      	ldrh	r3, [r3, #12]
	checkSum = CRC_Table(config, CONFIG_DATA_SIZE - 2);
 800177c:	210a      	movs	r1, #10
	config[6] = configParam.fs_mark;
 800177e:	f8ad 300a 	strh.w	r3, [sp, #10]
	config[8] = configParam.fs_mark >> 16;
 8001782:	0c13      	lsrs	r3, r2, #16
	config[9] = configParam.fs_mark >> 24;
 8001784:	0e12      	lsrs	r2, r2, #24
	config[8] = configParam.fs_mark >> 16;
 8001786:	f88d 300c 	strb.w	r3, [sp, #12]
	config[9] = configParam.fs_mark >> 24;
 800178a:	f88d 200d 	strb.w	r2, [sp, #13]
	checkSum = CRC_Table(config, CONFIG_DATA_SIZE - 2);
 800178e:	f008 fd9b 	bl	800a2c8 <CRC_Table>
	config[10] = checkSum;
 8001792:	f8ad 000e 	strh.w	r0, [sp, #14]
	config[11] = checkSum >> 8;
	

  /* 解锁 */
  FLASH_Unlock();
 8001796:	f007 f83b 	bl	8008810 <FLASH_Unlock>

  /* 清空所有标志位 */
  FLASH_ClearFlag(FLASH_FLAG_EOP | FLASH_FLAG_PGERR | FLASH_FLAG_WRPRTERR);	
 800179a:	2034      	movs	r0, #52	; 0x34
 800179c:	f007 f84c 	bl	8008838 <FLASH_ClearFlag>

  /* 按页擦除*/
	FLASHStatus = FLASH_ErasePage(WRITE_START_ADDR);
 80017a0:	ac01      	add	r4, sp, #4
 80017a2:	481c      	ldr	r0, [pc, #112]	; (8001814 <SaveConfigData+0xb8>)
 80017a4:	f007 f874 	bl	8008890 <FLASH_ErasePage>
 80017a8:	4626      	mov	r6, r4
  
  /* 向内部FLASH写入数据 */
  address = WRITE_START_ADDR;
 80017aa:	4f1a      	ldr	r7, [pc, #104]	; (8001814 <SaveConfigData+0xb8>)
 80017ac:	4d1a      	ldr	r5, [pc, #104]	; (8001818 <SaveConfigData+0xbc>)
	i = 0;

  while((i < CONFIG_DATA_SIZE) && (FLASHStatus == FLASH_COMPLETE))
 80017ae:	2804      	cmp	r0, #4
 80017b0:	d111      	bne.n	80017d6 <SaveConfigData+0x7a>
  {
		data = 0;
		data = config[i] | (config[i + 1] << 8) | (config[i + 2] << 16) | (config[i + 3] << 24);
 80017b2:	78b3      	ldrb	r3, [r6, #2]
 80017b4:	7872      	ldrb	r2, [r6, #1]
 80017b6:	041b      	lsls	r3, r3, #16
 80017b8:	ea43 2302 	orr.w	r3, r3, r2, lsl #8
 80017bc:	7832      	ldrb	r2, [r6, #0]
 80017be:	78f1      	ldrb	r1, [r6, #3]
 80017c0:	4313      	orrs	r3, r2
    FLASHStatus = FLASH_ProgramWord(address, data);
 80017c2:	4638      	mov	r0, r7
 80017c4:	ea43 6101 	orr.w	r1, r3, r1, lsl #24
    address += 4;
 80017c8:	3704      	adds	r7, #4
    FLASHStatus = FLASH_ProgramWord(address, data);
 80017ca:	f007 f881 	bl	80088d0 <FLASH_ProgramWord>
  while((i < CONFIG_DATA_SIZE) && (FLASHStatus == FLASH_COMPLETE))
 80017ce:	42af      	cmp	r7, r5
 80017d0:	f106 0604 	add.w	r6, r6, #4
 80017d4:	d1eb      	bne.n	80017ae <SaveConfigData+0x52>
		i += 4;
  }

  FLASH_Lock();
 80017d6:	f007 f827 	bl	8008828 <FLASH_Lock>
  
  /* 检查写入的数据是否正确 */
  address = WRITE_START_ADDR;
 80017da:	4a0e      	ldr	r2, [pc, #56]	; (8001814 <SaveConfigData+0xb8>)
	i = 0;

  while((i < CONFIG_DATA_SIZE) && (programStatus != false))
  {
		data = config[i] | (config[i + 1] << 8) | (config[i + 2] << 16) | (config[i + 3] << 24);
 80017dc:	78a3      	ldrb	r3, [r4, #2]
 80017de:	7861      	ldrb	r1, [r4, #1]
 80017e0:	041b      	lsls	r3, r3, #16
 80017e2:	ea43 2301 	orr.w	r3, r3, r1, lsl #8
 80017e6:	7821      	ldrb	r1, [r4, #0]
		
    if((*(__IO uint32_t*) address) != data)
 80017e8:	f852 0b04 	ldr.w	r0, [r2], #4
		data = config[i] | (config[i + 1] << 8) | (config[i + 2] << 16) | (config[i + 3] << 24);
 80017ec:	430b      	orrs	r3, r1
 80017ee:	78e1      	ldrb	r1, [r4, #3]
  while((i < CONFIG_DATA_SIZE) && (programStatus != false))
 80017f0:	42aa      	cmp	r2, r5
		data = config[i] | (config[i + 1] << 8) | (config[i + 2] << 16) | (config[i + 3] << 24);
 80017f2:	ea43 6301 	orr.w	r3, r3, r1, lsl #24
  while((i < CONFIG_DATA_SIZE) && (programStatus != false))
 80017f6:	d006      	beq.n	8001806 <SaveConfigData+0xaa>
 80017f8:	4298      	cmp	r0, r3
 80017fa:	f104 0404 	add.w	r4, r4, #4
 80017fe:	d0ed      	beq.n	80017dc <SaveConfigData+0x80>
 8001800:	2000      	movs	r0, #0
		i += 4;
  }
	
	return programStatus;
	
}
 8001802:	b005      	add	sp, #20
 8001804:	bdf0      	pop	{r4, r5, r6, r7, pc}
    if((*(__IO uint32_t*) address) != data)
 8001806:	1ac3      	subs	r3, r0, r3
 8001808:	4258      	negs	r0, r3
 800180a:	4158      	adcs	r0, r3
 800180c:	e7f9      	b.n	8001802 <SaveConfigData+0xa6>
 800180e:	bf00      	nop
 8001810:	200045a8 	.word	0x200045a8
 8001814:	0803f800 	.word	0x0803f800
 8001818:	0803f80c 	.word	0x0803f80c

0800181c <LoadConfigData>:
{
 800181c:	b530      	push	{r4, r5, lr}
	uint8_t config[CONFIG_DATA_SIZE] = {0};
 800181e:	2500      	movs	r5, #0
{
 8001820:	b085      	sub	sp, #20
	uint8_t config[CONFIG_DATA_SIZE] = {0};
 8001822:	e9cd 5501 	strd	r5, r5, [sp, #4]
		data = *(__IO uint32_t*) address;
 8001826:	4b1a      	ldr	r3, [pc, #104]	; (8001890 <LoadConfigData+0x74>)
	uint8_t config[CONFIG_DATA_SIZE] = {0};
 8001828:	9503      	str	r5, [sp, #12]
		data = *(__IO uint32_t*) address;
 800182a:	f8d3 2800 	ldr.w	r2, [r3, #2048]	; 0x800
	checkSum = CRC_Table(config, CONFIG_DATA_SIZE - 2);
 800182e:	210a      	movs	r1, #10
		config[i]			= data;
 8001830:	9201      	str	r2, [sp, #4]
		data = *(__IO uint32_t*) address;
 8001832:	f8d3 2804 	ldr.w	r2, [r3, #2052]	; 0x804
	checkSum = CRC_Table(config, CONFIG_DATA_SIZE - 2);
 8001836:	a801      	add	r0, sp, #4
		config[i]			= data;
 8001838:	9202      	str	r2, [sp, #8]
		data = *(__IO uint32_t*) address;
 800183a:	f8d3 3808 	ldr.w	r3, [r3, #2056]	; 0x808
		config[i + 3] = data >> 24;
 800183e:	4c15      	ldr	r4, [pc, #84]	; (8001894 <LoadConfigData+0x78>)
		config[i]			= data;
 8001840:	9303      	str	r3, [sp, #12]
	checkSum = CRC_Table(config, CONFIG_DATA_SIZE - 2);
 8001842:	f008 fd41 	bl	800a2c8 <CRC_Table>
	if((config[10] != (checkSum & 0xFF)) || (config[11] != (checkSum >> 8)))
 8001846:	f89d 200e 	ldrb.w	r2, [sp, #14]
 800184a:	b2c3      	uxtb	r3, r0
 800184c:	429a      	cmp	r2, r3
 800184e:	d105      	bne.n	800185c <LoadConfigData+0x40>
 8001850:	f89d 300f 	ldrb.w	r3, [sp, #15]
 8001854:	f3c0 200f 	ubfx	r0, r0, #8, #16
 8001858:	4283      	cmp	r3, r0
 800185a:	d00a      	beq.n	8001872 <LoadConfigData+0x56>
		printf("Error: Loading config data from flash failed!\nLoading default parameters and saving them to flash!");
 800185c:	480e      	ldr	r0, [pc, #56]	; (8001898 <LoadConfigData+0x7c>)
 800185e:	f00a fd2f 	bl	800c2c0 <iprintf>
		configParam = configParamDefault;
 8001862:	4b0e      	ldr	r3, [pc, #56]	; (800189c <LoadConfigData+0x80>)
 8001864:	cb0f      	ldmia	r3, {r0, r1, r2, r3}
 8001866:	e884 000f 	stmia.w	r4, {r0, r1, r2, r3}
		SaveConfigData();
 800186a:	f7ff ff77 	bl	800175c <SaveConfigData>
}
 800186e:	b005      	add	sp, #20
 8001870:	bd30      	pop	{r4, r5, pc}
		configParam.radio.addr[4] = config[4];
 8001872:	f89d 3008 	ldrb.w	r3, [sp, #8]
		configParam.radio.addr[0] = config[0];
 8001876:	9a01      	ldr	r2, [sp, #4]
		configParam.radio.addr[4] = config[4];
 8001878:	7223      	strb	r3, [r4, #8]
		configParam.radio.channel = config[5];
 800187a:	f89d 3009 	ldrb.w	r3, [sp, #9]
		configParam.radio.addr[0] = config[0];
 800187e:	6062      	str	r2, [r4, #4]
		configParam.radio.channel = config[5];
 8001880:	70a3      	strb	r3, [r4, #2]
		configParam.fs_mark = config[9] << 24;
 8001882:	f89d 300d 	ldrb.w	r3, [sp, #13]
		configParam.radio.dataRate = RADIO_DATARATE;
 8001886:	70e5      	strb	r5, [r4, #3]
		configParam.fs_mark = config[9] << 24;
 8001888:	061b      	lsls	r3, r3, #24
 800188a:	60e3      	str	r3, [r4, #12]
}
 800188c:	e7ef      	b.n	800186e <LoadConfigData+0x52>
 800188e:	bf00      	nop
 8001890:	0803f000 	.word	0x0803f000
 8001894:	200045a8 	.word	0x200045a8
 8001898:	0800fca8 	.word	0x0800fca8
 800189c:	200000b0 	.word	0x200000b0

080018a0 <i2cdevInit>:

/**
 * IIC器件初始化
 */
int i2cdevInit(I2C_Dev *dev)
{
 80018a0:	b508      	push	{r3, lr}
	i2cdrvInit(dev);
 80018a2:	f000 f9e7 	bl	8001c74 <i2cdrvInit>

	return true;
}
 80018a6:	2001      	movs	r0, #1
 80018a8:	bd08      	pop	{r3, pc}

080018aa <i2cdevRead>:
}
/**
 * IIC读取外设多个字节
 */
bool i2cdevRead(I2C_Dev *dev, uint8_t devAddress, uint8_t memAddress, uint16_t len, uint8_t *data)
{
 80018aa:	b530      	push	{r4, r5, lr}
	I2cMessage message;

	if (memAddress == I2CDEV_NO_MEM_ADDR)
 80018ac:	2aff      	cmp	r2, #255	; 0xff
{
 80018ae:	b08b      	sub	sp, #44	; 0x2c
 80018b0:	4604      	mov	r4, r0
 80018b2:	9d0e      	ldr	r5, [sp, #56]	; 0x38
	if (memAddress == I2CDEV_NO_MEM_ADDR)
 80018b4:	d10a      	bne.n	80018cc <i2cdevRead+0x22>
	{
		i2cdrvCreateMessage(&message, devAddress, i2cRead, len, data);
 80018b6:	2201      	movs	r2, #1
 80018b8:	9500      	str	r5, [sp, #0]
 80018ba:	a805      	add	r0, sp, #20
 80018bc:	f000 f9dc 	bl	8001c78 <i2cdrvCreateMessage>
	else
	{
		i2cdrvCreateMessageIntAddr(&message, devAddress, false, memAddress, i2cRead, len, data);
	}

	return i2cdrvMessageTransfer(dev, &message);
 80018c0:	4620      	mov	r0, r4
 80018c2:	a905      	add	r1, sp, #20
 80018c4:	f000 f9f6 	bl	8001cb4 <i2cdrvMessageTransfer>
}
 80018c8:	b00b      	add	sp, #44	; 0x2c
 80018ca:	bd30      	pop	{r4, r5, pc}
		i2cdrvCreateMessageIntAddr(&message, devAddress, false, memAddress, i2cRead, len, data);
 80018cc:	e9cd 3501 	strd	r3, r5, [sp, #4]
 80018d0:	2301      	movs	r3, #1
 80018d2:	a805      	add	r0, sp, #20
 80018d4:	9300      	str	r3, [sp, #0]
 80018d6:	4613      	mov	r3, r2
 80018d8:	2200      	movs	r2, #0
 80018da:	f000 f9db 	bl	8001c94 <i2cdrvCreateMessageIntAddr>
 80018de:	e7ef      	b.n	80018c0 <i2cdevRead+0x16>

080018e0 <i2cdevReadByte>:
{
 80018e0:	b507      	push	{r0, r1, r2, lr}
	return i2cdevRead(dev, devAddress, memAddress, 1, data);
 80018e2:	9300      	str	r3, [sp, #0]
 80018e4:	2301      	movs	r3, #1
 80018e6:	f7ff ffe0 	bl	80018aa <i2cdevRead>
}
 80018ea:	b003      	add	sp, #12
 80018ec:	f85d fb04 	ldr.w	pc, [sp], #4

080018f0 <i2cdevWrite>:
}
/**
 * IIC写入外设多个字节
 */
bool i2cdevWrite(I2C_Dev *dev, uint8_t devAddress, uint8_t memAddress, uint16_t len, uint8_t *data)
{
 80018f0:	b530      	push	{r4, r5, lr}
 80018f2:	4614      	mov	r4, r2
 80018f4:	b08b      	sub	sp, #44	; 0x2c
	I2cMessage message;

	if (memAddress == I2CDEV_NO_MEM_ADDR)
 80018f6:	2cff      	cmp	r4, #255	; 0xff
{
 80018f8:	4605      	mov	r5, r0
 80018fa:	980e      	ldr	r0, [sp, #56]	; 0x38
	if (memAddress == I2CDEV_NO_MEM_ADDR)
 80018fc:	d10a      	bne.n	8001914 <i2cdevWrite+0x24>
	{
		i2cdrvCreateMessage(&message, devAddress, i2cWrite, len, data);
 80018fe:	9000      	str	r0, [sp, #0]
 8001900:	2200      	movs	r2, #0
 8001902:	a805      	add	r0, sp, #20
 8001904:	f000 f9b8 	bl	8001c78 <i2cdrvCreateMessage>
	else
	{
		i2cdrvCreateMessageIntAddr(&message, devAddress, false, memAddress, i2cWrite, len, data);
	}

	return i2cdrvMessageTransfer(dev, &message);
 8001908:	4628      	mov	r0, r5
 800190a:	a905      	add	r1, sp, #20
 800190c:	f000 f9d2 	bl	8001cb4 <i2cdrvMessageTransfer>
}
 8001910:	b00b      	add	sp, #44	; 0x2c
 8001912:	bd30      	pop	{r4, r5, pc}
		i2cdrvCreateMessageIntAddr(&message, devAddress, false, memAddress, i2cWrite, len, data);
 8001914:	2200      	movs	r2, #0
 8001916:	e9cd 3001 	strd	r3, r0, [sp, #4]
 800191a:	9200      	str	r2, [sp, #0]
 800191c:	4623      	mov	r3, r4
 800191e:	a805      	add	r0, sp, #20
 8001920:	f000 f9b8 	bl	8001c94 <i2cdrvCreateMessageIntAddr>
 8001924:	e7f0      	b.n	8001908 <i2cdevWrite+0x18>

08001926 <i2cdevWriteByte>:
{
 8001926:	b51f      	push	{r0, r1, r2, r3, r4, lr}
 8001928:	f88d 300f 	strb.w	r3, [sp, #15]
	return i2cdevWrite(dev, devAddress, memAddress, 1, &data);
 800192c:	f10d 030f 	add.w	r3, sp, #15
 8001930:	9300      	str	r3, [sp, #0]
 8001932:	2301      	movs	r3, #1
 8001934:	f7ff ffdc 	bl	80018f0 <i2cdevWrite>
}
 8001938:	b005      	add	sp, #20
 800193a:	f85d fb04 	ldr.w	pc, [sp], #4

0800193e <i2cdevWriteBit>:
{
 800193e:	e92d 43f7 	stmdb	sp!, {r0, r1, r2, r4, r5, r6, r7, r8, r9, lr}
 8001942:	4698      	mov	r8, r3
    byte = (data != 0) ? (byte | (1 << bitNum)) : (byte & ~(1 << bitNum));
 8001944:	2401      	movs	r4, #1
{
 8001946:	f89d 9028 	ldrb.w	r9, [sp, #40]	; 0x28
    i2cdevReadByte(dev, devAddress, memAddress, &byte);
 800194a:	f10d 0307 	add.w	r3, sp, #7
{
 800194e:	4605      	mov	r5, r0
 8001950:	460e      	mov	r6, r1
 8001952:	4617      	mov	r7, r2
    byte = (data != 0) ? (byte | (1 << bitNum)) : (byte & ~(1 << bitNum));
 8001954:	fa04 f408 	lsl.w	r4, r4, r8
    i2cdevReadByte(dev, devAddress, memAddress, &byte);
 8001958:	f7ff ffc2 	bl	80018e0 <i2cdevReadByte>
    byte = (data != 0) ? (byte | (1 << bitNum)) : (byte & ~(1 << bitNum));
 800195c:	f89d 3007 	ldrb.w	r3, [sp, #7]
 8001960:	f1b9 0f00 	cmp.w	r9, #0
 8001964:	d00b      	beq.n	800197e <i2cdevWriteBit+0x40>
 8001966:	4323      	orrs	r3, r4
 8001968:	b2db      	uxtb	r3, r3
    return i2cdevWriteByte(dev, devAddress, memAddress, byte);
 800196a:	463a      	mov	r2, r7
 800196c:	4631      	mov	r1, r6
 800196e:	4628      	mov	r0, r5
    byte = (data != 0) ? (byte | (1 << bitNum)) : (byte & ~(1 << bitNum));
 8001970:	f88d 3007 	strb.w	r3, [sp, #7]
    return i2cdevWriteByte(dev, devAddress, memAddress, byte);
 8001974:	f7ff ffd7 	bl	8001926 <i2cdevWriteByte>
}
 8001978:	b003      	add	sp, #12
 800197a:	e8bd 83f0 	ldmia.w	sp!, {r4, r5, r6, r7, r8, r9, pc}
    byte = (data != 0) ? (byte | (1 << bitNum)) : (byte & ~(1 << bitNum));
 800197e:	ea23 0304 	bic.w	r3, r3, r4
 8001982:	e7f2      	b.n	800196a <i2cdevWriteBit+0x2c>

08001984 <i2cdevWriteBits>:
{
 8001984:	e92d 41f3 	stmdb	sp!, {r0, r1, r4, r5, r6, r7, r8, lr}
 8001988:	461c      	mov	r4, r3
	if ((status = i2cdevReadByte(dev, devAddress, memAddress, &byte)) == true)
 800198a:	f10d 0307 	add.w	r3, sp, #7
{
 800198e:	4605      	mov	r5, r0
 8001990:	460e      	mov	r6, r1
 8001992:	4617      	mov	r7, r2
 8001994:	f89d 8020 	ldrb.w	r8, [sp, #32]
	if ((status = i2cdevReadByte(dev, devAddress, memAddress, &byte)) == true)
 8001998:	f7ff ffa2 	bl	80018e0 <i2cdevReadByte>
 800199c:	b1c0      	cbz	r0, 80019d0 <i2cdevWriteBits+0x4c>
		uint8_t mask = ((1 << length) - 1) << (bitStart - length + 1);
 800199e:	eba4 0308 	sub.w	r3, r4, r8
 80019a2:	2401      	movs	r4, #1
		data <<= (bitStart - length + 1); // shift data into correct position
 80019a4:	f89d 2024 	ldrb.w	r2, [sp, #36]	; 0x24
		uint8_t mask = ((1 << length) - 1) << (bitStart - length + 1);
 80019a8:	fa04 f408 	lsl.w	r4, r4, r8
 80019ac:	3301      	adds	r3, #1
 80019ae:	3c01      	subs	r4, #1
 80019b0:	409c      	lsls	r4, r3
		data <<= (bitStart - length + 1); // shift data into correct position
 80019b2:	409a      	lsls	r2, r3
		byte &= ~(mask); // zero all important bits in existing byte
 80019b4:	f89d 3007 	ldrb.w	r3, [sp, #7]
		data <<= (bitStart - length + 1); // shift data into correct position
 80019b8:	b2d2      	uxtb	r2, r2
		data &= mask; // zero all non-important bits in data
 80019ba:	4022      	ands	r2, r4
		byte &= ~(mask); // zero all important bits in existing byte
 80019bc:	ea23 0304 	bic.w	r3, r3, r4
		byte |= data; // combine data with existing byte
 80019c0:	4313      	orrs	r3, r2
		status = i2cdevWriteByte(dev, devAddress, memAddress, byte);
 80019c2:	4631      	mov	r1, r6
 80019c4:	463a      	mov	r2, r7
 80019c6:	4628      	mov	r0, r5
		byte |= data; // combine data with existing byte
 80019c8:	f88d 3007 	strb.w	r3, [sp, #7]
		status = i2cdevWriteByte(dev, devAddress, memAddress, byte);
 80019cc:	f7ff ffab 	bl	8001926 <i2cdevWriteByte>
}
 80019d0:	b002      	add	sp, #8
 80019d2:	e8bd 81f0 	ldmia.w	sp!, {r4, r5, r6, r7, r8, pc}

080019d6 <i2cdrvClearDMA>:
}
/**
 * 清除DMA中断标志
 */
static void i2cdrvClearDMA(I2cDrv* i2c)
{
 80019d6:	b510      	push	{r4, lr}
 80019d8:	4604      	mov	r4, r0
	DMA_Cmd(i2c->def->dmaRxStream, DISABLE);
 80019da:	6803      	ldr	r3, [r0, #0]
 80019dc:	2100      	movs	r1, #0
 80019de:	6c18      	ldr	r0, [r3, #64]	; 0x40
 80019e0:	f006 fe94 	bl	800870c <DMA_Cmd>
	DMA_ClearITPendingBit(i2c->def->dmaRxTCFlag);
 80019e4:	6823      	ldr	r3, [r4, #0]
 80019e6:	6c98      	ldr	r0, [r3, #72]	; 0x48
 80019e8:	f006 febc 	bl	8008764 <DMA_ClearITPendingBit>
	I2C_DMACmd(i2c->def->i2cPort, DISABLE);
 80019ec:	6823      	ldr	r3, [r4, #0]
 80019ee:	2100      	movs	r1, #0
 80019f0:	6818      	ldr	r0, [r3, #0]
 80019f2:	f007 f8c3 	bl	8008b7c <I2C_DMACmd>
	I2C_DMALastTransferCmd(i2c->def->i2cPort, DISABLE);
 80019f6:	6823      	ldr	r3, [r4, #0]
 80019f8:	2100      	movs	r1, #0
 80019fa:	6818      	ldr	r0, [r3, #0]
 80019fc:	f007 f8ca 	bl	8008b94 <I2C_DMALastTransferCmd>
	DMA_ITConfig(i2c->def->dmaRxStream, DMA_IT_TC | DMA_IT_TE, DISABLE);
 8001a00:	6823      	ldr	r3, [r4, #0]
 8001a02:	2200      	movs	r2, #0
//	DMA_Cmd(i2c->def->dmaTxStream, DISABLE);
//	DMA_ClearITPendingBit(i2c->def->dmaTxTCFlag);
//	I2C_DMACmd(i2c->def->i2cPort, DISABLE);
//	I2C_DMALastTransferCmd(i2c->def->i2cPort, DISABLE);
//	DMA_ITConfig(i2c->def->dmaTxStream, DMA_IT_TC | DMA_IT_TE, DISABLE);
}
 8001a04:	e8bd 4010 	ldmia.w	sp!, {r4, lr}
	DMA_ITConfig(i2c->def->dmaRxStream, DMA_IT_TC | DMA_IT_TE, DISABLE);
 8001a08:	210a      	movs	r1, #10
 8001a0a:	6c18      	ldr	r0, [r3, #64]	; 0x40
 8001a0c:	f006 be89 	b.w	8008722 <DMA_ITConfig>

08001a10 <i2cNotifyClient.constprop.0>:
	portBASE_TYPE xHigherPriorityTaskWoken = pdFALSE;
 8001a10:	2300      	movs	r3, #0
static void i2cNotifyClient(I2cDrv* i2c)
 8001a12:	b507      	push	{r0, r1, r2, lr}
	portBASE_TYPE xHigherPriorityTaskWoken = pdFALSE;
 8001a14:	9301      	str	r3, [sp, #4]
	xSemaphoreGiveFromISR(i2c->isBusFreeSemaphore, &xHigherPriorityTaskWoken);
 8001a16:	4b0a      	ldr	r3, [pc, #40]	; (8001a40 <i2cNotifyClient.constprop.0+0x30>)
 8001a18:	a901      	add	r1, sp, #4
 8001a1a:	6a18      	ldr	r0, [r3, #32]
 8001a1c:	f005 f8e6 	bl	8006bec <xQueueGiveFromISR>
	portYIELD_FROM_ISR(xHigherPriorityTaskWoken);
 8001a20:	9b01      	ldr	r3, [sp, #4]
 8001a22:	b14b      	cbz	r3, 8001a38 <i2cNotifyClient.constprop.0+0x28>
 8001a24:	f04f 23e0 	mov.w	r3, #3758153728	; 0xe000e000
 8001a28:	f04f 5280 	mov.w	r2, #268435456	; 0x10000000
 8001a2c:	f8c3 2d04 	str.w	r2, [r3, #3332]	; 0xd04
 8001a30:	f3bf 8f4f 	dsb	sy
 8001a34:	f3bf 8f6f 	isb	sy
}
 8001a38:	b003      	add	sp, #12
 8001a3a:	f85d fb04 	ldr.w	pc, [sp], #4
 8001a3e:	bf00      	nop
 8001a40:	20000000 	.word	0x20000000

08001a44 <i2cTryNextMessage.constprop.0>:
	i2c->def->i2cPort->CR1 = (I2C_CR1_STOP | I2C_CR1_PE);
 8001a44:	f240 2101 	movw	r1, #513	; 0x201
 8001a48:	4b05      	ldr	r3, [pc, #20]	; (8001a60 <i2cTryNextMessage.constprop.0+0x1c>)
 8001a4a:	681a      	ldr	r2, [r3, #0]
 8001a4c:	6812      	ldr	r2, [r2, #0]
 8001a4e:	8011      	strh	r1, [r2, #0]
	I2C_ITConfig(i2c->def->i2cPort, I2C_IT_EVT | I2C_IT_BUF, DISABLE);
 8001a50:	681b      	ldr	r3, [r3, #0]
 8001a52:	2200      	movs	r2, #0
 8001a54:	f44f 61c0 	mov.w	r1, #1536	; 0x600
 8001a58:	6818      	ldr	r0, [r3, #0]
 8001a5a:	f007 b8b3 	b.w	8008bc4 <I2C_ITConfig>
 8001a5e:	bf00      	nop
 8001a60:	20000000 	.word	0x20000000

08001a64 <i2cdrvRoughLoopDelay.constprop.0>:
	volatile uint32_t delay = 0;
 8001a64:	2300      	movs	r3, #0
	for(delay = 0; delay < I2CDEV_LOOPS_PER_US * us; ++delay) { };
 8001a66:	f242 720f 	movw	r2, #9999	; 0x270f
static inline void i2cdrvRoughLoopDelay(uint32_t us)
 8001a6a:	b082      	sub	sp, #8
	volatile uint32_t delay = 0;
 8001a6c:	9301      	str	r3, [sp, #4]
	for(delay = 0; delay < I2CDEV_LOOPS_PER_US * us; ++delay) { };
 8001a6e:	9301      	str	r3, [sp, #4]
 8001a70:	9b01      	ldr	r3, [sp, #4]
 8001a72:	4293      	cmp	r3, r2
 8001a74:	d901      	bls.n	8001a7a <i2cdrvRoughLoopDelay.constprop.0+0x16>
}
 8001a76:	b002      	add	sp, #8
 8001a78:	4770      	bx	lr
	for(delay = 0; delay < I2CDEV_LOOPS_PER_US * us; ++delay) { };
 8001a7a:	9b01      	ldr	r3, [sp, #4]
 8001a7c:	3301      	adds	r3, #1
 8001a7e:	9301      	str	r3, [sp, #4]
 8001a80:	e7f6      	b.n	8001a70 <i2cdrvRoughLoopDelay.constprop.0+0xc>
	...

08001a84 <i2cdrvInitBus>:
{
 8001a84:	e92d 43f0 	stmdb	sp!, {r4, r5, r6, r7, r8, r9, lr}
 8001a88:	4604      	mov	r4, r0
	RCC_APB2PeriphClockCmd(i2c->def->gpioSDAPerif, ENABLE);
 8001a8a:	6803      	ldr	r3, [r0, #0]
{
 8001a8c:	b089      	sub	sp, #36	; 0x24
	RCC_APB2PeriphClockCmd(i2c->def->gpioSDAPerif, ENABLE);
 8001a8e:	6a58      	ldr	r0, [r3, #36]	; 0x24
 8001a90:	2101      	movs	r1, #1
 8001a92:	f007 f92b 	bl	8008cec <RCC_APB2PeriphClockCmd>
	RCC_APB2PeriphClockCmd(i2c->def->gpioSCLPerif, ENABLE);
 8001a96:	6823      	ldr	r3, [r4, #0]
 8001a98:	2101      	movs	r1, #1
 8001a9a:	6958      	ldr	r0, [r3, #20]
 8001a9c:	f007 f926 	bl	8008cec <RCC_APB2PeriphClockCmd>
	RCC_APB1PeriphClockCmd(i2c->def->i2cPerif, ENABLE);	
 8001aa0:	6823      	ldr	r3, [r4, #0]
 8001aa2:	2101      	movs	r1, #1
 8001aa4:	6858      	ldr	r0, [r3, #4]
 8001aa6:	f007 f92d 	bl	8008d04 <RCC_APB1PeriphClockCmd>
	GPIO_StructInit(&GPIO_InitStructure);
 8001aaa:	a802      	add	r0, sp, #8
 8001aac:	f006 ff8b 	bl	80089c6 <GPIO_StructInit>
	GPIO_InitStructure.GPIO_Speed = GPIO_Speed_50MHz;
 8001ab0:	f241 4303 	movw	r3, #5123	; 0x1403
 8001ab4:	f8ad 300a 	strh.w	r3, [sp, #10]
	GPIO_InitStructure.GPIO_Pin = i2c->def->gpioSCLPin; // SCL
 8001ab8:	6823      	ldr	r3, [r4, #0]
	GPIO_Init(i2c->def->gpioSCLPort, &GPIO_InitStructure);
 8001aba:	a902      	add	r1, sp, #8
	GPIO_InitStructure.GPIO_Pin = i2c->def->gpioSCLPin; // SCL
 8001abc:	69da      	ldr	r2, [r3, #28]
	GPIO_Init(i2c->def->gpioSCLPort, &GPIO_InitStructure);
 8001abe:	6998      	ldr	r0, [r3, #24]
	GPIO_InitStructure.GPIO_Pin = i2c->def->gpioSCLPin; // SCL
 8001ac0:	f8ad 2008 	strh.w	r2, [sp, #8]
	GPIO_Init(i2c->def->gpioSCLPort, &GPIO_InitStructure);
 8001ac4:	f006 ff30 	bl	8008928 <GPIO_Init>
	GPIO_InitStructure.GPIO_Pin =  i2c->def->gpioSDAPin; // SDA
 8001ac8:	6823      	ldr	r3, [r4, #0]
	GPIO_Init(i2c->def->gpioSDAPort, &GPIO_InitStructure);
 8001aca:	a902      	add	r1, sp, #8
	GPIO_InitStructure.GPIO_Pin =  i2c->def->gpioSDAPin; // SDA
 8001acc:	6ada      	ldr	r2, [r3, #44]	; 0x2c
	GPIO_Init(i2c->def->gpioSDAPort, &GPIO_InitStructure);
 8001ace:	6a98      	ldr	r0, [r3, #40]	; 0x28
	GPIO_InitStructure.GPIO_Pin =  i2c->def->gpioSDAPin; // SDA
 8001ad0:	f8ad 2008 	strh.w	r2, [sp, #8]
	GPIO_Init(i2c->def->gpioSDAPort, &GPIO_InitStructure);
 8001ad4:	f006 ff28 	bl	8008928 <GPIO_Init>
	i2cdrvdevUnlockBus(i2c->def->gpioSCLPort, i2c->def->gpioSDAPort, i2c->def->gpioSCLPin, i2c->def->gpioSDAPin);
 8001ad8:	6823      	ldr	r3, [r4, #0]
 8001ada:	6a9f      	ldr	r7, [r3, #40]	; 0x28
 8001adc:	f8b3 802c 	ldrh.w	r8, [r3, #44]	; 0x2c
	GPIO_SetBits(portSDA, pinSDA);
 8001ae0:	4638      	mov	r0, r7
 8001ae2:	4641      	mov	r1, r8
	i2cdrvdevUnlockBus(i2c->def->gpioSCLPort, i2c->def->gpioSDAPort, i2c->def->gpioSCLPin, i2c->def->gpioSDAPin);
 8001ae4:	699d      	ldr	r5, [r3, #24]
 8001ae6:	8b9e      	ldrh	r6, [r3, #28]
	GPIO_SetBits(portSDA, pinSDA);
 8001ae8:	f006 ff7a 	bl	80089e0 <GPIO_SetBits>
	while(GPIO_ReadInputDataBit(portSDA, pinSDA) == Bit_RESET)
 8001aec:	4641      	mov	r1, r8
 8001aee:	4638      	mov	r0, r7
 8001af0:	f006 ff70 	bl	80089d4 <GPIO_ReadInputDataBit>
		GPIO_SetBits(portSCL, pinSCL);
 8001af4:	4631      	mov	r1, r6
	while(GPIO_ReadInputDataBit(portSDA, pinSDA) == Bit_RESET)
 8001af6:	2800      	cmp	r0, #0
 8001af8:	f000 809a 	beq.w	8001c30 <i2cdrvInitBus+0x1ac>
	GPIO_SetBits(portSCL, pinSCL);
 8001afc:	4628      	mov	r0, r5
 8001afe:	f006 ff6f 	bl	80089e0 <GPIO_SetBits>
	GPIO_ResetBits(portSDA, pinSDA);
 8001b02:	4641      	mov	r1, r8
 8001b04:	4638      	mov	r0, r7
	i2cdrvRoughLoopDelay(I2CDEV_LOOPS_PER_US);
 8001b06:	f7ff ffad 	bl	8001a64 <i2cdrvRoughLoopDelay.constprop.0>
	GPIO_ResetBits(portSDA, pinSDA);
 8001b0a:	f006 ff6b 	bl	80089e4 <GPIO_ResetBits>
	GPIO_ResetBits(portSDA, pinSDA);
 8001b0e:	4641      	mov	r1, r8
 8001b10:	4638      	mov	r0, r7
	i2cdrvRoughLoopDelay(I2CDEV_LOOPS_PER_US);
 8001b12:	f7ff ffa7 	bl	8001a64 <i2cdrvRoughLoopDelay.constprop.0>
	GPIO_ResetBits(portSDA, pinSDA);
 8001b16:	f006 ff65 	bl	80089e4 <GPIO_ResetBits>
	GPIO_SetBits(portSDA, pinSDA);
 8001b1a:	4641      	mov	r1, r8
 8001b1c:	4638      	mov	r0, r7
	i2cdrvRoughLoopDelay(I2CDEV_LOOPS_PER_US);
 8001b1e:	f7ff ffa1 	bl	8001a64 <i2cdrvRoughLoopDelay.constprop.0>
	GPIO_SetBits(portSDA, pinSDA);
 8001b22:	f006 ff5d 	bl	80089e0 <GPIO_SetBits>
	GPIO_SetBits(portSCL, pinSCL);
 8001b26:	4631      	mov	r1, r6
 8001b28:	4628      	mov	r0, r5
 8001b2a:	f006 ff59 	bl	80089e0 <GPIO_SetBits>
	GPIO_WAIT_FOR_HIGH(portSCL, pinSCL, I2CDEV_LOOPS_PER_MS);
 8001b2e:	f8df 9138 	ldr.w	r9, [pc, #312]	; 8001c68 <i2cdrvInitBus+0x1e4>
 8001b32:	4631      	mov	r1, r6
 8001b34:	4628      	mov	r0, r5
 8001b36:	f006 ff4d 	bl	80089d4 <GPIO_ReadInputDataBit>
 8001b3a:	b910      	cbnz	r0, 8001b42 <i2cdrvInitBus+0xbe>
 8001b3c:	f1b9 0901 	subs.w	r9, r9, #1
 8001b40:	d1f7      	bne.n	8001b32 <i2cdrvInitBus+0xae>
 8001b42:	4d49      	ldr	r5, [pc, #292]	; (8001c68 <i2cdrvInitBus+0x1e4>)
	GPIO_WAIT_FOR_HIGH(portSDA, pinSDA, I2CDEV_LOOPS_PER_MS);
 8001b44:	4641      	mov	r1, r8
 8001b46:	4638      	mov	r0, r7
 8001b48:	f006 ff44 	bl	80089d4 <GPIO_ReadInputDataBit>
 8001b4c:	b908      	cbnz	r0, 8001b52 <i2cdrvInitBus+0xce>
 8001b4e:	3d01      	subs	r5, #1
 8001b50:	d1f8      	bne.n	8001b44 <i2cdrvInitBus+0xc0>
	GPIO_InitStructure.GPIO_Mode = GPIO_Mode_AF_OD;
 8001b52:	231c      	movs	r3, #28
 8001b54:	f88d 300b 	strb.w	r3, [sp, #11]
	GPIO_InitStructure.GPIO_Pin = i2c->def->gpioSCLPin; // SCL
 8001b58:	6823      	ldr	r3, [r4, #0]
	GPIO_Init(i2c->def->gpioSCLPort, &GPIO_InitStructure);
 8001b5a:	a902      	add	r1, sp, #8
	GPIO_InitStructure.GPIO_Pin = i2c->def->gpioSCLPin; // SCL
 8001b5c:	69da      	ldr	r2, [r3, #28]
	GPIO_Init(i2c->def->gpioSCLPort, &GPIO_InitStructure);
 8001b5e:	6998      	ldr	r0, [r3, #24]
	GPIO_InitStructure.GPIO_Pin = i2c->def->gpioSCLPin; // SCL
 8001b60:	f8ad 2008 	strh.w	r2, [sp, #8]
	GPIO_Init(i2c->def->gpioSCLPort, &GPIO_InitStructure);
 8001b64:	f006 fee0 	bl	8008928 <GPIO_Init>
	GPIO_InitStructure.GPIO_Pin =  i2c->def->gpioSDAPin; // SDA
 8001b68:	6823      	ldr	r3, [r4, #0]
	GPIO_Init(i2c->def->gpioSDAPort, &GPIO_InitStructure);
 8001b6a:	a902      	add	r1, sp, #8
	GPIO_InitStructure.GPIO_Pin =  i2c->def->gpioSDAPin; // SDA
 8001b6c:	6ada      	ldr	r2, [r3, #44]	; 0x2c
	GPIO_Init(i2c->def->gpioSDAPort, &GPIO_InitStructure);
 8001b6e:	6a98      	ldr	r0, [r3, #40]	; 0x28
	GPIO_InitStructure.GPIO_Pin =  i2c->def->gpioSDAPin; // SDA
 8001b70:	f8ad 2008 	strh.w	r2, [sp, #8]
	GPIO_Init(i2c->def->gpioSDAPort, &GPIO_InitStructure);
 8001b74:	f006 fed8 	bl	8008928 <GPIO_Init>
	I2C_DeInit(i2c->def->i2cPort);
 8001b78:	6823      	ldr	r3, [r4, #0]
	NVIC_InitStructure.NVIC_IRQChannelPreemptionPriority = 7;
 8001b7a:	2707      	movs	r7, #7
	I2C_DeInit(i2c->def->i2cPort);
 8001b7c:	6818      	ldr	r0, [r3, #0]
 8001b7e:	f006 ff79 	bl	8008a74 <I2C_DeInit>
	I2C_InitStructure.I2C_OwnAddress1 = I2C_SLAVE_ADDRESS7;
 8001b82:	4a3a      	ldr	r2, [pc, #232]	; (8001c6c <i2cdrvInitBus+0x1e8>)
 8001b84:	4b3a      	ldr	r3, [pc, #232]	; (8001c70 <i2cdrvInitBus+0x1ec>)
	NVIC_InitStructure.NVIC_IRQChannelSubPriority = 0;
 8001b86:	f44f 7680 	mov.w	r6, #256	; 0x100
	I2C_InitStructure.I2C_OwnAddress1 = I2C_SLAVE_ADDRESS7;
 8001b8a:	e9cd 2305 	strd	r2, r3, [sp, #20]
	I2C_InitStructure.I2C_AcknowledgedAddress = I2C_AcknowledgedAddress_7bit;
 8001b8e:	f44f 4380 	mov.w	r3, #16384	; 0x4000
 8001b92:	f8ad 301c 	strh.w	r3, [sp, #28]
	I2C_InitStructure.I2C_ClockSpeed = i2c->def->i2cClockSpeed;
 8001b96:	6823      	ldr	r3, [r4, #0]
	I2C_Init(i2c->def->i2cPort, &I2C_InitStructure);
 8001b98:	a904      	add	r1, sp, #16
	I2C_InitStructure.I2C_ClockSpeed = i2c->def->i2cClockSpeed;
 8001b9a:	691a      	ldr	r2, [r3, #16]
	i2c->rxDMAStruct.DMA_MemoryBaseAddr = 0;
 8001b9c:	2500      	movs	r5, #0
	I2C_InitStructure.I2C_ClockSpeed = i2c->def->i2cClockSpeed;
 8001b9e:	9204      	str	r2, [sp, #16]
	I2C_Init(i2c->def->i2cPort, &I2C_InitStructure);
 8001ba0:	6818      	ldr	r0, [r3, #0]
 8001ba2:	f006 ff81 	bl	8008aa8 <I2C_Init>
	I2C_ITConfig(i2c->def->i2cPort, I2C_IT_ERR, ENABLE);
 8001ba6:	6823      	ldr	r3, [r4, #0]
 8001ba8:	2201      	movs	r2, #1
 8001baa:	f44f 7180 	mov.w	r1, #256	; 0x100
 8001bae:	6818      	ldr	r0, [r3, #0]
 8001bb0:	f007 f808 	bl	8008bc4 <I2C_ITConfig>
	NVIC_InitStructure.NVIC_IRQChannel = i2c->def->i2cEVIRQn;
 8001bb4:	6823      	ldr	r3, [r4, #0]
	NVIC_Init(&NVIC_InitStructure);
 8001bb6:	a801      	add	r0, sp, #4
	NVIC_InitStructure.NVIC_IRQChannel = i2c->def->i2cEVIRQn;
 8001bb8:	689b      	ldr	r3, [r3, #8]
	NVIC_InitStructure.NVIC_IRQChannelPreemptionPriority = 7;
 8001bba:	f88d 7005 	strb.w	r7, [sp, #5]
	NVIC_InitStructure.NVIC_IRQChannel = i2c->def->i2cEVIRQn;
 8001bbe:	f88d 3004 	strb.w	r3, [sp, #4]
	NVIC_InitStructure.NVIC_IRQChannelSubPriority = 0;
 8001bc2:	f8ad 6006 	strh.w	r6, [sp, #6]
	NVIC_Init(&NVIC_InitStructure);
 8001bc6:	f006 fadb 	bl	8008180 <NVIC_Init>
	NVIC_InitStructure.NVIC_IRQChannel = i2c->def->i2cERIRQn;
 8001bca:	6823      	ldr	r3, [r4, #0]
	NVIC_Init(&NVIC_InitStructure);
 8001bcc:	a801      	add	r0, sp, #4
	NVIC_InitStructure.NVIC_IRQChannel = i2c->def->i2cERIRQn;
 8001bce:	68db      	ldr	r3, [r3, #12]
 8001bd0:	f88d 3004 	strb.w	r3, [sp, #4]
	NVIC_Init(&NVIC_InitStructure);
 8001bd4:	f006 fad4 	bl	8008180 <NVIC_Init>
	RCC_AHBPeriphClockCmd(i2c->def->dmaPerif, ENABLE);
 8001bd8:	6823      	ldr	r3, [r4, #0]
 8001bda:	2101      	movs	r1, #1
 8001bdc:	6b98      	ldr	r0, [r3, #56]	; 0x38
 8001bde:	f007 f879 	bl	8008cd4 <RCC_AHBPeriphClockCmd>
	i2c->rxDMAStruct.DMA_PeripheralBaseAddr = (uint32_t)&i2c->def->i2cPort->DR;
 8001be2:	6822      	ldr	r2, [r4, #0]
	NVIC_Init(&NVIC_InitStructure);
 8001be4:	a803      	add	r0, sp, #12
	i2c->rxDMAStruct.DMA_PeripheralBaseAddr = (uint32_t)&i2c->def->i2cPort->DR;
 8001be6:	6813      	ldr	r3, [r2, #0]
	i2c->rxDMAStruct.DMA_DIR = DMA_DIR_PeripheralSRC;
 8001be8:	e9c4 550b 	strd	r5, r5, [r4, #44]	; 0x2c
	i2c->rxDMAStruct.DMA_PeripheralBaseAddr = (uint32_t)&i2c->def->i2cPort->DR;
 8001bec:	3310      	adds	r3, #16
 8001bee:	62a3      	str	r3, [r4, #40]	; 0x28
	i2c->rxDMAStruct.DMA_MemoryInc = DMA_MemoryInc_Enable;
 8001bf0:	2380      	movs	r3, #128	; 0x80
	i2c->rxDMAStruct.DMA_PeripheralDataSize = DMA_PeripheralDataSize_Byte;
 8001bf2:	e9c4 350f 	strd	r3, r5, [r4, #60]	; 0x3c
	i2c->rxDMAStruct.DMA_Priority = DMA_Priority_High;
 8001bf6:	f44f 5300 	mov.w	r3, #8192	; 0x2000
	i2c->rxDMAStruct.DMA_PeripheralInc = DMA_PeripheralInc_Disable;
 8001bfa:	e9c4 550d 	strd	r5, r5, [r4, #52]	; 0x34
	i2c->rxDMAStruct.DMA_Mode = DMA_Mode_Normal;
 8001bfe:	e9c4 5511 	strd	r5, r5, [r4, #68]	; 0x44
	i2c->rxDMAStruct.DMA_Priority = DMA_Priority_High;
 8001c02:	64e3      	str	r3, [r4, #76]	; 0x4c
	NVIC_InitStructure.NVIC_IRQChannel = i2c->def->dmaRxIRQ;
 8001c04:	6c53      	ldr	r3, [r2, #68]	; 0x44
	NVIC_InitStructure.NVIC_IRQChannelPreemptionPriority = 7;
 8001c06:	f88d 700d 	strb.w	r7, [sp, #13]
	NVIC_InitStructure.NVIC_IRQChannel = i2c->def->dmaRxIRQ;
 8001c0a:	f88d 300c 	strb.w	r3, [sp, #12]
	NVIC_InitStructure.NVIC_IRQChannelSubPriority = 0;
 8001c0e:	f8ad 600e 	strh.w	r6, [sp, #14]
	NVIC_Init(&NVIC_InitStructure);
 8001c12:	f006 fab5 	bl	8008180 <NVIC_Init>
	i2c->isBusFreeSemaphore = xSemaphoreCreateBinary();
 8001c16:	2203      	movs	r2, #3
 8001c18:	4629      	mov	r1, r5
 8001c1a:	2001      	movs	r0, #1
 8001c1c:	f004 fe88 	bl	8006930 <xQueueGenericCreate>
 8001c20:	6220      	str	r0, [r4, #32]
	i2c->isBusFreeMutex = xSemaphoreCreateMutex();
 8001c22:	2001      	movs	r0, #1
 8001c24:	f004 ff66 	bl	8006af4 <xQueueCreateMutex>
 8001c28:	6260      	str	r0, [r4, #36]	; 0x24
}
 8001c2a:	b009      	add	sp, #36	; 0x24
 8001c2c:	e8bd 83f0 	ldmia.w	sp!, {r4, r5, r6, r7, r8, r9, pc}
		GPIO_SetBits(portSCL, pinSCL);
 8001c30:	4628      	mov	r0, r5
 8001c32:	f006 fed5 	bl	80089e0 <GPIO_SetBits>
		GPIO_WAIT_FOR_HIGH(portSCL, pinSCL, I2CDEV_LOOPS_PER_MS);
 8001c36:	f8df 9030 	ldr.w	r9, [pc, #48]	; 8001c68 <i2cdrvInitBus+0x1e4>
 8001c3a:	4631      	mov	r1, r6
 8001c3c:	4628      	mov	r0, r5
 8001c3e:	f006 fec9 	bl	80089d4 <GPIO_ReadInputDataBit>
 8001c42:	b910      	cbnz	r0, 8001c4a <i2cdrvInitBus+0x1c6>
 8001c44:	f1b9 0901 	subs.w	r9, r9, #1
 8001c48:	d1f7      	bne.n	8001c3a <i2cdrvInitBus+0x1b6>
		GPIO_ResetBits(portSCL, pinSCL);
 8001c4a:	4631      	mov	r1, r6
 8001c4c:	4628      	mov	r0, r5
		i2cdrvRoughLoopDelay(I2CDEV_LOOPS_PER_US);
 8001c4e:	f7ff ff09 	bl	8001a64 <i2cdrvRoughLoopDelay.constprop.0>
		GPIO_ResetBits(portSCL, pinSCL);
 8001c52:	f006 fec7 	bl	80089e4 <GPIO_ResetBits>
		GPIO_SetBits(portSCL, pinSCL);
 8001c56:	4631      	mov	r1, r6
 8001c58:	4628      	mov	r0, r5
		i2cdrvRoughLoopDelay(I2CDEV_LOOPS_PER_US);
 8001c5a:	f7ff ff03 	bl	8001a64 <i2cdrvRoughLoopDelay.constprop.0>
		GPIO_SetBits(portSCL, pinSCL);
 8001c5e:	f006 febf 	bl	80089e0 <GPIO_SetBits>
		i2cdrvRoughLoopDelay(I2CDEV_LOOPS_PER_US);
 8001c62:	f7ff feff 	bl	8001a64 <i2cdrvRoughLoopDelay.constprop.0>
 8001c66:	e741      	b.n	8001aec <i2cdrvInitBus+0x68>
 8001c68:	000186a1 	.word	0x000186a1
 8001c6c:	bfff0000 	.word	0xbfff0000
 8001c70:	04000030 	.word	0x04000030

08001c74 <i2cdrvInit>:
	i2cdrvInitBus(i2c);
 8001c74:	f7ff bf06 	b.w	8001a84 <i2cdrvInitBus>

08001c78 <i2cdrvCreateMessage>:
	message->messageLength = length;
 8001c78:	6003      	str	r3, [r0, #0]
	message->buffer = buffer;
 8001c7a:	9b00      	ldr	r3, [sp, #0]
	message->slaveAddress = slaveAddress;
 8001c7c:	7101      	strb	r1, [r0, #4]
	message->direction = direction;
 8001c7e:	7182      	strb	r2, [r0, #6]
	message->internalAddress = I2C_NO_INTERNAL_ADDRESS;
 8001c80:	f64f 71ff 	movw	r1, #65535	; 0xffff
	message->isInternal16bit = false;
 8001c84:	2200      	movs	r2, #0
	message->buffer = buffer;
 8001c86:	6103      	str	r3, [r0, #16]
	message->nbrOfRetries = I2C_MAX_RETRIES;
 8001c88:	2302      	movs	r3, #2
	message->isInternal16bit = false;
 8001c8a:	7302      	strb	r2, [r0, #12]
	message->internalAddress = I2C_NO_INTERNAL_ADDRESS;
 8001c8c:	81c1      	strh	r1, [r0, #14]
	message->status = i2cAck;
 8001c8e:	71c2      	strb	r2, [r0, #7]
	message->nbrOfRetries = I2C_MAX_RETRIES;
 8001c90:	7143      	strb	r3, [r0, #5]
}
 8001c92:	4770      	bx	lr

08001c94 <i2cdrvCreateMessageIntAddr>:
	message->internalAddress = intAddress;
 8001c94:	81c3      	strh	r3, [r0, #14]
	message->messageLength = length;
 8001c96:	9b01      	ldr	r3, [sp, #4]
	message->slaveAddress = slaveAddress;
 8001c98:	7101      	strb	r1, [r0, #4]
	message->messageLength = length;
 8001c9a:	6003      	str	r3, [r0, #0]
	message->status = i2cAck;
 8001c9c:	2300      	movs	r3, #0
 8001c9e:	71c3      	strb	r3, [r0, #7]
	message->buffer = buffer;
 8001ca0:	9b02      	ldr	r3, [sp, #8]
	message->direction = direction;
 8001ca2:	f89d 1000 	ldrb.w	r1, [sp]
	message->buffer = buffer;
 8001ca6:	6103      	str	r3, [r0, #16]
	message->nbrOfRetries = I2C_MAX_RETRIES;
 8001ca8:	2302      	movs	r3, #2
	message->direction = direction;
 8001caa:	7181      	strb	r1, [r0, #6]
	message->isInternal16bit = IsInternal16;
 8001cac:	7302      	strb	r2, [r0, #12]
	message->nbrOfRetries = I2C_MAX_RETRIES;
 8001cae:	7143      	strb	r3, [r0, #5]
}
 8001cb0:	4770      	bx	lr
	...

08001cb4 <i2cdrvMessageTransfer>:
{
 8001cb4:	b538      	push	{r3, r4, r5, lr}
	xSemaphoreTake(i2c->isBusFreeMutex, portMAX_DELAY); // Protect message data
 8001cb6:	2300      	movs	r3, #0
{
 8001cb8:	460d      	mov	r5, r1
 8001cba:	4604      	mov	r4, r0
	xSemaphoreTake(i2c->isBusFreeMutex, portMAX_DELAY); // Protect message data
 8001cbc:	4619      	mov	r1, r3
 8001cbe:	f04f 32ff 	mov.w	r2, #4294967295
 8001cc2:	6a40      	ldr	r0, [r0, #36]	; 0x24
 8001cc4:	f004 ffec 	bl	8006ca0 <xQueueGenericReceive>
	memcpy((char*)&i2c->txMessage, (char*)message, sizeof(I2cMessage));
 8001cc8:	4629      	mov	r1, r5
 8001cca:	1d23      	adds	r3, r4, #4
 8001ccc:	f105 0214 	add.w	r2, r5, #20
 8001cd0:	f851 0b04 	ldr.w	r0, [r1], #4
 8001cd4:	4291      	cmp	r1, r2
 8001cd6:	f843 0b04 	str.w	r0, [r3], #4
 8001cda:	d1f9      	bne.n	8001cd0 <i2cdrvMessageTransfer+0x1c>
	if (i2c->txMessage.direction == i2cRead)
 8001cdc:	7aa5      	ldrb	r5, [r4, #10]
 8001cde:	2d01      	cmp	r5, #1
 8001ce0:	d10e      	bne.n	8001d00 <i2cdrvMessageTransfer+0x4c>
		DMA_Init(i2c->def->dmaRxStream, &i2c->rxDMAStruct);
 8001ce2:	4621      	mov	r1, r4
		i2c->rxDMAStruct.DMA_BufferSize = i2c->txMessage.messageLength;
 8001ce4:	6863      	ldr	r3, [r4, #4]
 8001ce6:	6363      	str	r3, [r4, #52]	; 0x34
		i2c->rxDMAStruct.DMA_MemoryBaseAddr = (uint32_t)i2c->txMessage.buffer;
 8001ce8:	6963      	ldr	r3, [r4, #20]
 8001cea:	62e3      	str	r3, [r4, #44]	; 0x2c
		DMA_Init(i2c->def->dmaRxStream, &i2c->rxDMAStruct);
 8001cec:	f851 3b28 	ldr.w	r3, [r1], #40
 8001cf0:	6c18      	ldr	r0, [r3, #64]	; 0x40
 8001cf2:	f006 fced 	bl	80086d0 <DMA_Init>
		DMA_Cmd(i2c->def->dmaRxStream, ENABLE);
 8001cf6:	6823      	ldr	r3, [r4, #0]
 8001cf8:	4629      	mov	r1, r5
 8001cfa:	6c18      	ldr	r0, [r3, #64]	; 0x40
 8001cfc:	f006 fd06 	bl	800870c <DMA_Cmd>
	I2C_ITConfig(i2c->def->i2cPort, I2C_IT_BUF, DISABLE);
 8001d00:	6823      	ldr	r3, [r4, #0]
 8001d02:	2200      	movs	r2, #0
 8001d04:	6818      	ldr	r0, [r3, #0]
 8001d06:	f44f 6180 	mov.w	r1, #1024	; 0x400
 8001d0a:	f006 ff5b 	bl	8008bc4 <I2C_ITConfig>
	I2C_ITConfig(i2c->def->i2cPort, I2C_IT_EVT, ENABLE);
 8001d0e:	6823      	ldr	r3, [r4, #0]
 8001d10:	2201      	movs	r2, #1
 8001d12:	6818      	ldr	r0, [r3, #0]
 8001d14:	f44f 7100 	mov.w	r1, #512	; 0x200
 8001d18:	f006 ff54 	bl	8008bc4 <I2C_ITConfig>
	i2c->def->i2cPort->CR1 = (I2C_CR1_START | I2C_CR1_PE);
 8001d1c:	f240 1201 	movw	r2, #257	; 0x101
 8001d20:	6823      	ldr	r3, [r4, #0]
 8001d22:	681b      	ldr	r3, [r3, #0]
 8001d24:	801a      	strh	r2, [r3, #0]
	if (xSemaphoreTake(i2c->isBusFreeSemaphore, I2C_MESSAGE_TIMEOUT) == pdTRUE)
 8001d26:	2300      	movs	r3, #0
 8001d28:	f44f 727a 	mov.w	r2, #1000	; 0x3e8
 8001d2c:	4619      	mov	r1, r3
 8001d2e:	6a20      	ldr	r0, [r4, #32]
 8001d30:	f004 ffb6 	bl	8006ca0 <xQueueGenericReceive>
 8001d34:	2801      	cmp	r0, #1
 8001d36:	d10b      	bne.n	8001d50 <i2cdrvMessageTransfer+0x9c>
		if (i2c->txMessage.status == i2cAck)
 8001d38:	7ae5      	ldrb	r5, [r4, #11]
 8001d3a:	fab5 f585 	clz	r5, r5
 8001d3e:	096d      	lsrs	r5, r5, #5
	xSemaphoreGive(i2c->isBusFreeMutex);
 8001d40:	2300      	movs	r3, #0
 8001d42:	6a60      	ldr	r0, [r4, #36]	; 0x24
 8001d44:	461a      	mov	r2, r3
 8001d46:	4619      	mov	r1, r3
 8001d48:	f004 fe1a 	bl	8006980 <xQueueGenericSend>
}
 8001d4c:	4628      	mov	r0, r5
 8001d4e:	bd38      	pop	{r3, r4, r5, pc}
		i2cdrvClearDMA(i2c);
 8001d50:	4620      	mov	r0, r4
 8001d52:	f7ff fe40 	bl	80019d6 <i2cdrvClearDMA>
	i2cdrvInitBus(i2c);
 8001d56:	4620      	mov	r0, r4
 8001d58:	f7ff fe94 	bl	8001a84 <i2cdrvInitBus>
		printf("Restart I2C... \n");
 8001d5c:	4802      	ldr	r0, [pc, #8]	; (8001d68 <i2cdrvMessageTransfer+0xb4>)
 8001d5e:	f00a fb15 	bl	800c38c <puts>
	bool status = false;
 8001d62:	2500      	movs	r5, #0
 8001d64:	e7ec      	b.n	8001d40 <i2cdrvMessageTransfer+0x8c>
 8001d66:	bf00      	nop
 8001d68:	0800fd0b 	.word	0x0800fd0b

08001d6c <I2C2_ER_IRQHandler>:
//	}
}


void I2C2_ER_IRQHandler(void)
{
 8001d6c:	b510      	push	{r4, lr}
	if (I2C_GetFlagStatus(i2c->def->i2cPort, I2C_FLAG_AF))
 8001d6e:	4c20      	ldr	r4, [pc, #128]	; (8001df0 <I2C2_ER_IRQHandler+0x84>)
 8001d70:	4920      	ldr	r1, [pc, #128]	; (8001df4 <I2C2_ER_IRQHandler+0x88>)
 8001d72:	6823      	ldr	r3, [r4, #0]
 8001d74:	6818      	ldr	r0, [r3, #0]
 8001d76:	f006 ff3c 	bl	8008bf2 <I2C_GetFlagStatus>
 8001d7a:	b170      	cbz	r0, 8001d9a <I2C2_ER_IRQHandler+0x2e>
		if(i2c->txMessage.nbrOfRetries-- > 0)
 8001d7c:	7a63      	ldrb	r3, [r4, #9]
 8001d7e:	1e5a      	subs	r2, r3, #1
 8001d80:	7262      	strb	r2, [r4, #9]
 8001d82:	2b00      	cmp	r3, #0
 8001d84:	d02c      	beq.n	8001de0 <I2C2_ER_IRQHandler+0x74>
			i2c->def->i2cPort->CR1 = (I2C_CR1_START | I2C_CR1_PE);
 8001d86:	f240 1201 	movw	r2, #257	; 0x101
 8001d8a:	6823      	ldr	r3, [r4, #0]
 8001d8c:	681b      	ldr	r3, [r3, #0]
 8001d8e:	801a      	strh	r2, [r3, #0]
		I2C_ClearFlag(i2c->def->i2cPort, I2C_FLAG_AF);
 8001d90:	6823      	ldr	r3, [r4, #0]
 8001d92:	4918      	ldr	r1, [pc, #96]	; (8001df4 <I2C2_ER_IRQHandler+0x88>)
 8001d94:	6818      	ldr	r0, [r3, #0]
 8001d96:	f006 ff46 	bl	8008c26 <I2C_ClearFlag>
	if (I2C_GetFlagStatus(i2c->def->i2cPort, I2C_FLAG_BERR))
 8001d9a:	6823      	ldr	r3, [r4, #0]
 8001d9c:	4916      	ldr	r1, [pc, #88]	; (8001df8 <I2C2_ER_IRQHandler+0x8c>)
 8001d9e:	6818      	ldr	r0, [r3, #0]
 8001da0:	f006 ff27 	bl	8008bf2 <I2C_GetFlagStatus>
 8001da4:	b120      	cbz	r0, 8001db0 <I2C2_ER_IRQHandler+0x44>
		I2C_ClearFlag(i2c->def->i2cPort, I2C_FLAG_BERR);
 8001da6:	6823      	ldr	r3, [r4, #0]
 8001da8:	4913      	ldr	r1, [pc, #76]	; (8001df8 <I2C2_ER_IRQHandler+0x8c>)
 8001daa:	6818      	ldr	r0, [r3, #0]
 8001dac:	f006 ff3b 	bl	8008c26 <I2C_ClearFlag>
	if (I2C_GetFlagStatus(i2c->def->i2cPort, I2C_FLAG_OVR))
 8001db0:	6823      	ldr	r3, [r4, #0]
 8001db2:	4912      	ldr	r1, [pc, #72]	; (8001dfc <I2C2_ER_IRQHandler+0x90>)
 8001db4:	6818      	ldr	r0, [r3, #0]
 8001db6:	f006 ff1c 	bl	8008bf2 <I2C_GetFlagStatus>
 8001dba:	b120      	cbz	r0, 8001dc6 <I2C2_ER_IRQHandler+0x5a>
		I2C_ClearFlag(i2c->def->i2cPort, I2C_FLAG_OVR);
 8001dbc:	6823      	ldr	r3, [r4, #0]
 8001dbe:	490f      	ldr	r1, [pc, #60]	; (8001dfc <I2C2_ER_IRQHandler+0x90>)
 8001dc0:	6818      	ldr	r0, [r3, #0]
 8001dc2:	f006 ff30 	bl	8008c26 <I2C_ClearFlag>
	if (I2C_GetFlagStatus(i2c->def->i2cPort, I2C_FLAG_ARLO))
 8001dc6:	6823      	ldr	r3, [r4, #0]
 8001dc8:	490d      	ldr	r1, [pc, #52]	; (8001e00 <I2C2_ER_IRQHandler+0x94>)
 8001dca:	6818      	ldr	r0, [r3, #0]
 8001dcc:	f006 ff11 	bl	8008bf2 <I2C_GetFlagStatus>
 8001dd0:	b168      	cbz	r0, 8001dee <I2C2_ER_IRQHandler+0x82>
		I2C_ClearFlag(i2c->def->i2cPort,I2C_FLAG_ARLO);
 8001dd2:	6823      	ldr	r3, [r4, #0]
 8001dd4:	490a      	ldr	r1, [pc, #40]	; (8001e00 <I2C2_ER_IRQHandler+0x94>)
 8001dd6:	6818      	ldr	r0, [r3, #0]
	i2cdrvErrorIsrHandler(&sensorsBus);
}
 8001dd8:	e8bd 4010 	ldmia.w	sp!, {r4, lr}
		I2C_ClearFlag(i2c->def->i2cPort,I2C_FLAG_ARLO);
 8001ddc:	f006 bf23 	b.w	8008c26 <I2C_ClearFlag>
			i2c->txMessage.status = i2cNack;
 8001de0:	2301      	movs	r3, #1
 8001de2:	72e3      	strb	r3, [r4, #11]
			i2cNotifyClient(i2c);
 8001de4:	f7ff fe14 	bl	8001a10 <i2cNotifyClient.constprop.0>
			i2cTryNextMessage(i2c);
 8001de8:	f7ff fe2c 	bl	8001a44 <i2cTryNextMessage.constprop.0>
 8001dec:	e7d0      	b.n	8001d90 <I2C2_ER_IRQHandler+0x24>
}
 8001dee:	bd10      	pop	{r4, pc}
 8001df0:	20000000 	.word	0x20000000
 8001df4:	10000400 	.word	0x10000400
 8001df8:	10000100 	.word	0x10000100
 8001dfc:	10000800 	.word	0x10000800
 8001e00:	10000200 	.word	0x10000200

08001e04 <I2C2_EV_IRQHandler>:

void I2C2_EV_IRQHandler(void)
{
 8001e04:	b5f8      	push	{r3, r4, r5, r6, r7, lr}
	SR1 = i2c->def->i2cPort->SR1;
 8001e06:	4c5c      	ldr	r4, [pc, #368]	; (8001f78 <I2C2_EV_IRQHandler+0x174>)
 8001e08:	6825      	ldr	r5, [r4, #0]
 8001e0a:	6828      	ldr	r0, [r5, #0]
 8001e0c:	8a81      	ldrh	r1, [r0, #20]
 8001e0e:	b28b      	uxth	r3, r1
	if (SR1 & I2C_SR1_SB)
 8001e10:	f011 0101 	ands.w	r1, r1, #1
 8001e14:	d01e      	beq.n	8001e54 <I2C2_EV_IRQHandler+0x50>
		i2c->messageIndex = 0;
 8001e16:	2300      	movs	r3, #0
 8001e18:	61a3      	str	r3, [r4, #24]
		if(i2c->txMessage.direction == i2cWrite ||
 8001e1a:	7aa3      	ldrb	r3, [r4, #10]
 8001e1c:	b123      	cbz	r3, 8001e28 <I2C2_EV_IRQHandler+0x24>
 8001e1e:	f64f 73ff 	movw	r3, #65535	; 0xffff
 8001e22:	8a62      	ldrh	r2, [r4, #18]
 8001e24:	429a      	cmp	r2, r3
 8001e26:	d009      	beq.n	8001e3c <I2C2_EV_IRQHandler+0x38>
			I2C_Send7bitAddress(i2c->def->i2cPort, i2c->txMessage.slaveAddress << 1, I2C_Direction_Transmitter);
 8001e28:	2200      	movs	r2, #0
 8001e2a:	7a21      	ldrb	r1, [r4, #8]
 8001e2c:	6828      	ldr	r0, [r5, #0]
 8001e2e:	0049      	lsls	r1, r1, #1
 8001e30:	f001 01fe 	and.w	r1, r1, #254	; 0xfe
	i2cdrvEventIsrHandler(&sensorsBus);
}
 8001e34:	e8bd 40f8 	ldmia.w	sp!, {r3, r4, r5, r6, r7, lr}
			I2C_Send7bitAddress(i2c->def->i2cPort, i2c->txMessage.slaveAddress << 1, I2C_Direction_Receiver);
 8001e38:	f006 bed2 	b.w	8008be0 <I2C_Send7bitAddress>
			I2C_AcknowledgeConfig(i2c->def->i2cPort, ENABLE);
 8001e3c:	2101      	movs	r1, #1
 8001e3e:	6828      	ldr	r0, [r5, #0]
 8001e40:	f006 feb4 	bl	8008bac <I2C_AcknowledgeConfig>
			I2C_Send7bitAddress(i2c->def->i2cPort, i2c->txMessage.slaveAddress << 1, I2C_Direction_Receiver);
 8001e44:	7a21      	ldrb	r1, [r4, #8]
 8001e46:	6823      	ldr	r3, [r4, #0]
 8001e48:	0049      	lsls	r1, r1, #1
 8001e4a:	2201      	movs	r2, #1
 8001e4c:	6818      	ldr	r0, [r3, #0]
 8001e4e:	f001 01fe 	and.w	r1, r1, #254	; 0xfe
 8001e52:	e7ef      	b.n	8001e34 <I2C2_EV_IRQHandler+0x30>
	else if (SR1 & I2C_SR1_ADDR)
 8001e54:	079e      	lsls	r6, r3, #30
 8001e56:	d541      	bpl.n	8001edc <I2C2_EV_IRQHandler+0xd8>
		if(i2c->txMessage.direction == i2cWrite || i2c->txMessage.internalAddress != I2C_NO_INTERNAL_ADDRESS)
 8001e58:	7aa2      	ldrb	r2, [r4, #10]
		i2c->txMessage.internalAddress != I2C_NO_INTERNAL_ADDRESS)
 8001e5a:	8a63      	ldrh	r3, [r4, #18]
		if(i2c->txMessage.direction == i2cWrite || i2c->txMessage.internalAddress != I2C_NO_INTERNAL_ADDRESS)
 8001e5c:	b11a      	cbz	r2, 8001e66 <I2C2_EV_IRQHandler+0x62>
 8001e5e:	f64f 72ff 	movw	r2, #65535	; 0xffff
 8001e62:	4293      	cmp	r3, r2
 8001e64:	d019      	beq.n	8001e9a <I2C2_EV_IRQHandler+0x96>
			SR2 = i2c->def->i2cPort->SR2;                               // clear ADDR
 8001e66:	8b02      	ldrh	r2, [r0, #24]
			if (i2c->txMessage.internalAddress != I2C_NO_INTERNAL_ADDRESS)
 8001e68:	f64f 72ff 	movw	r2, #65535	; 0xffff
 8001e6c:	4293      	cmp	r3, r2
 8001e6e:	d00c      	beq.n	8001e8a <I2C2_EV_IRQHandler+0x86>
				if (i2c->txMessage.isInternal16bit)
 8001e70:	7c22      	ldrb	r2, [r4, #16]
 8001e72:	b182      	cbz	r2, 8001e96 <I2C2_EV_IRQHandler+0x92>
					I2C_SendData(i2c->def->i2cPort, (i2c->txMessage.internalAddress & 0xFF00) >> 8);
 8001e74:	0a19      	lsrs	r1, r3, #8
 8001e76:	f006 feae 	bl	8008bd6 <I2C_SendData>
					I2C_SendData(i2c->def->i2cPort, (i2c->txMessage.internalAddress & 0x00FF));
 8001e7a:	6823      	ldr	r3, [r4, #0]
 8001e7c:	7ca1      	ldrb	r1, [r4, #18]
 8001e7e:	6818      	ldr	r0, [r3, #0]
					I2C_SendData(i2c->def->i2cPort, (i2c->txMessage.internalAddress & 0x00FF));
 8001e80:	f006 fea9 	bl	8008bd6 <I2C_SendData>
				i2c->txMessage.internalAddress = I2C_NO_INTERNAL_ADDRESS;
 8001e84:	f64f 73ff 	movw	r3, #65535	; 0xffff
 8001e88:	8263      	strh	r3, [r4, #18]
			I2C_ITConfig(i2c->def->i2cPort, I2C_IT_BUF, ENABLE);        // allow us to have an EV7
 8001e8a:	2201      	movs	r2, #1
 8001e8c:	6823      	ldr	r3, [r4, #0]
				I2C_ITConfig(i2c->def->i2cPort, I2C_IT_BUF, DISABLE);
 8001e8e:	f44f 6180 	mov.w	r1, #1024	; 0x400
 8001e92:	6818      	ldr	r0, [r3, #0]
 8001e94:	e05d      	b.n	8001f52 <I2C2_EV_IRQHandler+0x14e>
					I2C_SendData(i2c->def->i2cPort, (i2c->txMessage.internalAddress & 0x00FF));
 8001e96:	b2d9      	uxtb	r1, r3
 8001e98:	e7f2      	b.n	8001e80 <I2C2_EV_IRQHandler+0x7c>
			if(i2c->txMessage.messageLength == 1)
 8001e9a:	6863      	ldr	r3, [r4, #4]
 8001e9c:	2b01      	cmp	r3, #1
 8001e9e:	d119      	bne.n	8001ed4 <I2C2_EV_IRQHandler+0xd0>
				I2C_AcknowledgeConfig(i2c->def->i2cPort, DISABLE);
 8001ea0:	f006 fe84 	bl	8008bac <I2C_AcknowledgeConfig>
			I2C_ITConfig(i2c->def->i2cPort, I2C_IT_EVT | I2C_IT_BUF, DISABLE);
 8001ea4:	6823      	ldr	r3, [r4, #0]
 8001ea6:	2200      	movs	r2, #0
 8001ea8:	6818      	ldr	r0, [r3, #0]
 8001eaa:	f44f 61c0 	mov.w	r1, #1536	; 0x600
 8001eae:	f006 fe89 	bl	8008bc4 <I2C_ITConfig>
			DMA_ITConfig(i2c->def->dmaRxStream, DMA_IT_TC | DMA_IT_TE, ENABLE);
 8001eb2:	6823      	ldr	r3, [r4, #0]
 8001eb4:	2201      	movs	r2, #1
 8001eb6:	6c18      	ldr	r0, [r3, #64]	; 0x40
 8001eb8:	210a      	movs	r1, #10
 8001eba:	f006 fc32 	bl	8008722 <DMA_ITConfig>
			I2C_DMACmd(i2c->def->i2cPort, ENABLE); // Enable before ADDR clear
 8001ebe:	6823      	ldr	r3, [r4, #0]
 8001ec0:	2101      	movs	r1, #1
 8001ec2:	6818      	ldr	r0, [r3, #0]
 8001ec4:	f006 fe5a 	bl	8008b7c <I2C_DMACmd>
static __INLINE void __WFI()                      { __ASM volatile ("wfi"); }
static __INLINE void __WFE()                      { __ASM volatile ("wfe"); }
static __INLINE void __SEV()                      { __ASM volatile ("sev"); }
static __INLINE void __ISB()                      { __ASM volatile ("isb"); }
static __INLINE void __DSB()                      { __ASM volatile ("dsb"); }
static __INLINE void __DMB()                      { __ASM volatile ("dmb"); }
 8001ec8:	f3bf 8f5f 	dmb	sy
			SR2 = i2c->def->i2cPort->SR2;    // clear ADDR
 8001ecc:	6823      	ldr	r3, [r4, #0]
 8001ece:	681b      	ldr	r3, [r3, #0]
 8001ed0:	8b1b      	ldrh	r3, [r3, #24]
}
 8001ed2:	bdf8      	pop	{r3, r4, r5, r6, r7, pc}
				I2C_DMALastTransferCmd(i2c->def->i2cPort, ENABLE); // No repetitive start
 8001ed4:	2101      	movs	r1, #1
 8001ed6:	f006 fe5d 	bl	8008b94 <I2C_DMALastTransferCmd>
 8001eda:	e7e3      	b.n	8001ea4 <I2C2_EV_IRQHandler+0xa0>
	else if (SR1 & I2C_SR1_BTF)
 8001edc:	f013 0604 	ands.w	r6, r3, #4
 8001ee0:	d01e      	beq.n	8001f20 <I2C2_EV_IRQHandler+0x11c>
		SR2 = i2c->def->i2cPort->SR2;
 8001ee2:	8b03      	ldrh	r3, [r0, #24]
		if (SR2 & I2C_SR2_TRA) // In write mode?
 8001ee4:	075d      	lsls	r5, r3, #29
 8001ee6:	d50b      	bpl.n	8001f00 <I2C2_EV_IRQHandler+0xfc>
			if (i2c->txMessage.direction == i2cRead) // internal address read
 8001ee8:	7aa3      	ldrb	r3, [r4, #10]
 8001eea:	2b01      	cmp	r3, #1
 8001eec:	d113      	bne.n	8001f16 <I2C2_EV_IRQHandler+0x112>
				i2c->def->i2cPort->CR1 = (I2C_CR1_START | I2C_CR1_PE); // Generate start
 8001eee:	f240 1301 	movw	r3, #257	; 0x101
 8001ef2:	8003      	strh	r3, [r0, #0]
		while (i2c->def->i2cPort->CR1 & 0x0100) { ; }
 8001ef4:	6823      	ldr	r3, [r4, #0]
 8001ef6:	681a      	ldr	r2, [r3, #0]
 8001ef8:	8813      	ldrh	r3, [r2, #0]
 8001efa:	05d9      	lsls	r1, r3, #23
 8001efc:	d4fc      	bmi.n	8001ef8 <I2C2_EV_IRQHandler+0xf4>
 8001efe:	e7e8      	b.n	8001ed2 <I2C2_EV_IRQHandler+0xce>
			i2c->txMessage.buffer[i2c->messageIndex++] = I2C_ReceiveData(i2c->def->i2cPort);
 8001f00:	e9d4 6505 	ldrd	r6, r5, [r4, #20]
 8001f04:	1c6b      	adds	r3, r5, #1
 8001f06:	61a3      	str	r3, [r4, #24]
 8001f08:	f006 fe67 	bl	8008bda <I2C_ReceiveData>
 8001f0c:	5570      	strb	r0, [r6, r5]
			if(i2c->messageIndex == i2c->txMessage.messageLength)
 8001f0e:	69a2      	ldr	r2, [r4, #24]
 8001f10:	6863      	ldr	r3, [r4, #4]
 8001f12:	429a      	cmp	r2, r3
 8001f14:	d1ee      	bne.n	8001ef4 <I2C2_EV_IRQHandler+0xf0>
				i2cNotifyClient(i2c);
 8001f16:	f7ff fd7b 	bl	8001a10 <i2cNotifyClient.constprop.0>
				i2cTryNextMessage(i2c);
 8001f1a:	f7ff fd93 	bl	8001a44 <i2cTryNextMessage.constprop.0>
 8001f1e:	e7e9      	b.n	8001ef4 <I2C2_EV_IRQHandler+0xf0>
	else if (SR1 & I2C_SR1_RXNE) // Should not happen when we use DMA for reception.
 8001f20:	f013 0540 	ands.w	r5, r3, #64	; 0x40
 8001f24:	d00d      	beq.n	8001f42 <I2C2_EV_IRQHandler+0x13e>
		i2c->txMessage.buffer[i2c->messageIndex++] = I2C_ReceiveData(i2c->def->i2cPort);
 8001f26:	e9d4 7505 	ldrd	r7, r5, [r4, #20]
 8001f2a:	1c6b      	adds	r3, r5, #1
 8001f2c:	61a3      	str	r3, [r4, #24]
 8001f2e:	f006 fe54 	bl	8008bda <I2C_ReceiveData>
 8001f32:	5578      	strb	r0, [r7, r5]
		if(i2c->messageIndex == i2c->txMessage.messageLength)
 8001f34:	69a2      	ldr	r2, [r4, #24]
 8001f36:	6863      	ldr	r3, [r4, #4]
 8001f38:	429a      	cmp	r2, r3
 8001f3a:	d1ca      	bne.n	8001ed2 <I2C2_EV_IRQHandler+0xce>
			I2C_ITConfig(i2c->def->i2cPort, I2C_IT_BUF, DISABLE);   // disable RXE to get BTF
 8001f3c:	4632      	mov	r2, r6
 8001f3e:	6823      	ldr	r3, [r4, #0]
 8001f40:	e7a5      	b.n	8001e8e <I2C2_EV_IRQHandler+0x8a>
	else if (SR1 & I2C_SR1_TXE)
 8001f42:	061b      	lsls	r3, r3, #24
 8001f44:	d5c5      	bpl.n	8001ed2 <I2C2_EV_IRQHandler+0xce>
		if (i2c->txMessage.direction == i2cRead)
 8001f46:	7aa3      	ldrb	r3, [r4, #10]
 8001f48:	2b01      	cmp	r3, #1
 8001f4a:	d106      	bne.n	8001f5a <I2C2_EV_IRQHandler+0x156>
			I2C_ITConfig(i2c->def->i2cPort, I2C_IT_BUF, DISABLE);
 8001f4c:	462a      	mov	r2, r5
 8001f4e:	f44f 6180 	mov.w	r1, #1024	; 0x400
}
 8001f52:	e8bd 40f8 	ldmia.w	sp!, {r3, r4, r5, r6, r7, lr}
				I2C_ITConfig(i2c->def->i2cPort, I2C_IT_BUF, DISABLE);
 8001f56:	f006 be35 	b.w	8008bc4 <I2C_ITConfig>
			I2C_SendData(i2c->def->i2cPort, i2c->txMessage.buffer[i2c->messageIndex++]);
 8001f5a:	e9d4 2305 	ldrd	r2, r3, [r4, #20]
 8001f5e:	1c59      	adds	r1, r3, #1
 8001f60:	61a1      	str	r1, [r4, #24]
 8001f62:	5cd1      	ldrb	r1, [r2, r3]
 8001f64:	f006 fe37 	bl	8008bd6 <I2C_SendData>
			if(i2c->messageIndex == i2c->txMessage.messageLength)
 8001f68:	69a2      	ldr	r2, [r4, #24]
 8001f6a:	6863      	ldr	r3, [r4, #4]
 8001f6c:	429a      	cmp	r2, r3
 8001f6e:	d1b0      	bne.n	8001ed2 <I2C2_EV_IRQHandler+0xce>
				I2C_ITConfig(i2c->def->i2cPort, I2C_IT_BUF, DISABLE);
 8001f70:	462a      	mov	r2, r5
 8001f72:	6823      	ldr	r3, [r4, #0]
 8001f74:	e78b      	b.n	8001e8e <I2C2_EV_IRQHandler+0x8a>
 8001f76:	bf00      	nop
 8001f78:	20000000 	.word	0x20000000

08001f7c <DMA1_Channel5_IRQHandler>:

void DMA1_Channel5_IRQHandler(void)
{
 8001f7c:	b510      	push	{r4, lr}
	if (DMA_GetFlagStatus(i2c->def->dmaRxTCFlag)) // Tranasfer complete
 8001f7e:	4c0f      	ldr	r4, [pc, #60]	; (8001fbc <DMA1_Channel5_IRQHandler+0x40>)
 8001f80:	6823      	ldr	r3, [r4, #0]
 8001f82:	6c98      	ldr	r0, [r3, #72]	; 0x48
 8001f84:	f006 fbd6 	bl	8008734 <DMA_GetFlagStatus>
 8001f88:	b130      	cbz	r0, 8001f98 <DMA1_Channel5_IRQHandler+0x1c>
		i2cdrvClearDMA(i2c);
 8001f8a:	4620      	mov	r0, r4
 8001f8c:	f7ff fd23 	bl	80019d6 <i2cdrvClearDMA>
		i2cNotifyClient(i2c);
 8001f90:	f7ff fd3e 	bl	8001a10 <i2cNotifyClient.constprop.0>
		i2cTryNextMessage(i2c);
 8001f94:	f7ff fd56 	bl	8001a44 <i2cTryNextMessage.constprop.0>
	if (DMA_GetFlagStatus(i2c->def->dmaRxTEFlag)) // Transfer error
 8001f98:	6823      	ldr	r3, [r4, #0]
 8001f9a:	6cd8      	ldr	r0, [r3, #76]	; 0x4c
 8001f9c:	f006 fbca 	bl	8008734 <DMA_GetFlagStatus>
 8001fa0:	b158      	cbz	r0, 8001fba <DMA1_Channel5_IRQHandler+0x3e>
		DMA_ClearITPendingBit(i2c->def->dmaRxTEFlag);
 8001fa2:	6823      	ldr	r3, [r4, #0]
 8001fa4:	6cd8      	ldr	r0, [r3, #76]	; 0x4c
 8001fa6:	f006 fbdd 	bl	8008764 <DMA_ClearITPendingBit>
		i2c->txMessage.status = i2cNack;
 8001faa:	2301      	movs	r3, #1
 8001fac:	72e3      	strb	r3, [r4, #11]
		i2cNotifyClient(i2c);
 8001fae:	f7ff fd2f 	bl	8001a10 <i2cNotifyClient.constprop.0>
	i2cdrvDmaIsrHandler(&sensorsBus);
}
 8001fb2:	e8bd 4010 	ldmia.w	sp!, {r4, lr}
		i2cTryNextMessage(i2c);
 8001fb6:	f7ff bd45 	b.w	8001a44 <i2cTryNextMessage.constprop.0>
}
 8001fba:	bd10      	pop	{r4, pc}
 8001fbc:	20000000 	.word	0x20000000

08001fc0 <OLED_WriteCmd>:
}


// 写命令
void OLED_WriteCmd(unsigned char I2C_Command)
{
 8001fc0:	4603      	mov	r3, r0
//	I2C2_WriteByte(0x00, I2C_Command);
//		printf("\nCMD: %x\n", I2C_Command);
	
	i2cdevWriteByte(I2C2_DEV, OLED_ADDRESS >> 1, 0x00, I2C_Command);
 8001fc2:	2200      	movs	r2, #0
 8001fc4:	213c      	movs	r1, #60	; 0x3c
 8001fc6:	4801      	ldr	r0, [pc, #4]	; (8001fcc <OLED_WriteCmd+0xc>)
 8001fc8:	f7ff bcad 	b.w	8001926 <i2cdevWriteByte>
 8001fcc:	20000000 	.word	0x20000000

08001fd0 <OLED_Init>:
//	I2C2_WriteByte(0x40, I2C_Data);
	i2cdevWriteByte(I2C2_DEV, OLED_ADDRESS >> 1, 0x40, I2C_Data);
}

void OLED_Init(void)
{
 8001fd0:	b508      	push	{r3, lr}
	// 延时不可去掉
	delay_ms(500);
 8001fd2:	f44f 70fa 	mov.w	r0, #500	; 0x1f4
 8001fd6:	f7ff fba3 	bl	8001720 <delay_ms>
	delay_ms(500);
 8001fda:	f44f 70fa 	mov.w	r0, #500	; 0x1f4
 8001fde:	f7ff fb9f 	bl	8001720 <delay_ms>
	
	OLED_WriteCmd(0xAE); //display off
 8001fe2:	20ae      	movs	r0, #174	; 0xae
 8001fe4:	f7ff ffec 	bl	8001fc0 <OLED_WriteCmd>
	OLED_WriteCmd(0x20);	//Set Memory Addressing Mode	
 8001fe8:	2020      	movs	r0, #32
 8001fea:	f7ff ffe9 	bl	8001fc0 <OLED_WriteCmd>
	OLED_WriteCmd(0x10);	//00,Horizontal Addressing Mode;01,Vertical Addressing Mode;10,Page Addressing Mode (RESET);11,Invalid
 8001fee:	2010      	movs	r0, #16
 8001ff0:	f7ff ffe6 	bl	8001fc0 <OLED_WriteCmd>
	OLED_WriteCmd(0xb0);	//Set Page Start Address for Page Addressing Mode,0-7
 8001ff4:	20b0      	movs	r0, #176	; 0xb0
 8001ff6:	f7ff ffe3 	bl	8001fc0 <OLED_WriteCmd>
	OLED_WriteCmd(0xc8);	//Set COM Output Scan Direction
 8001ffa:	20c8      	movs	r0, #200	; 0xc8
 8001ffc:	f7ff ffe0 	bl	8001fc0 <OLED_WriteCmd>
	OLED_WriteCmd(0x00); //---set low column address
 8002000:	2000      	movs	r0, #0
 8002002:	f7ff ffdd 	bl	8001fc0 <OLED_WriteCmd>
	OLED_WriteCmd(0x10); //---set high column address
 8002006:	2010      	movs	r0, #16
 8002008:	f7ff ffda 	bl	8001fc0 <OLED_WriteCmd>
	OLED_WriteCmd(0x40); //--set start line address
 800200c:	2040      	movs	r0, #64	; 0x40
 800200e:	f7ff ffd7 	bl	8001fc0 <OLED_WriteCmd>
	OLED_WriteCmd(0x81); //--set contrast control register
 8002012:	2081      	movs	r0, #129	; 0x81
 8002014:	f7ff ffd4 	bl	8001fc0 <OLED_WriteCmd>
	OLED_WriteCmd(0xff); //亮度调节 0x00~0xff
 8002018:	20ff      	movs	r0, #255	; 0xff
 800201a:	f7ff ffd1 	bl	8001fc0 <OLED_WriteCmd>
	OLED_WriteCmd(0xa1); //--set segment re-map 0 to 127
 800201e:	20a1      	movs	r0, #161	; 0xa1
 8002020:	f7ff ffce 	bl	8001fc0 <OLED_WriteCmd>
	OLED_WriteCmd(0xa6); //--set normal display
 8002024:	20a6      	movs	r0, #166	; 0xa6
 8002026:	f7ff ffcb 	bl	8001fc0 <OLED_WriteCmd>
	OLED_WriteCmd(0xa8); //--set multiplex ratio(1 to 64)
 800202a:	20a8      	movs	r0, #168	; 0xa8
 800202c:	f7ff ffc8 	bl	8001fc0 <OLED_WriteCmd>
	OLED_WriteCmd(0x3F); //
 8002030:	203f      	movs	r0, #63	; 0x3f
 8002032:	f7ff ffc5 	bl	8001fc0 <OLED_WriteCmd>
	OLED_WriteCmd(0xa4); //0xa4,Output follows RAM content;0xa5,Output ignores RAM content
 8002036:	20a4      	movs	r0, #164	; 0xa4
 8002038:	f7ff ffc2 	bl	8001fc0 <OLED_WriteCmd>
	OLED_WriteCmd(0xd3); //-set display offset
 800203c:	20d3      	movs	r0, #211	; 0xd3
 800203e:	f7ff ffbf 	bl	8001fc0 <OLED_WriteCmd>
	OLED_WriteCmd(0x00); //-not offset
 8002042:	2000      	movs	r0, #0
 8002044:	f7ff ffbc 	bl	8001fc0 <OLED_WriteCmd>
	OLED_WriteCmd(0xd5); //--set display clock divide ratio/oscillator frequency
 8002048:	20d5      	movs	r0, #213	; 0xd5
 800204a:	f7ff ffb9 	bl	8001fc0 <OLED_WriteCmd>
	OLED_WriteCmd(0xf0); //--set divide ratio
 800204e:	20f0      	movs	r0, #240	; 0xf0
 8002050:	f7ff ffb6 	bl	8001fc0 <OLED_WriteCmd>
	OLED_WriteCmd(0xd9); //--set pre-charge period
 8002054:	20d9      	movs	r0, #217	; 0xd9
 8002056:	f7ff ffb3 	bl	8001fc0 <OLED_WriteCmd>
	OLED_WriteCmd(0x22); //
 800205a:	2022      	movs	r0, #34	; 0x22
 800205c:	f7ff ffb0 	bl	8001fc0 <OLED_WriteCmd>
	OLED_WriteCmd(0xda); //--set com pins hardware configuration
 8002060:	20da      	movs	r0, #218	; 0xda
 8002062:	f7ff ffad 	bl	8001fc0 <OLED_WriteCmd>
	OLED_WriteCmd(0x12);
 8002066:	2012      	movs	r0, #18
 8002068:	f7ff ffaa 	bl	8001fc0 <OLED_WriteCmd>
	OLED_WriteCmd(0xdb); //--set vcomh
 800206c:	20db      	movs	r0, #219	; 0xdb
 800206e:	f7ff ffa7 	bl	8001fc0 <OLED_WriteCmd>
	OLED_WriteCmd(0x20); //0x20,0.77xVcc
 8002072:	2020      	movs	r0, #32
 8002074:	f7ff ffa4 	bl	8001fc0 <OLED_WriteCmd>
	OLED_WriteCmd(0x8d); //--set DC-DC enable
 8002078:	208d      	movs	r0, #141	; 0x8d
 800207a:	f7ff ffa1 	bl	8001fc0 <OLED_WriteCmd>
	OLED_WriteCmd(0x14); //
 800207e:	2014      	movs	r0, #20
 8002080:	f7ff ff9e 	bl	8001fc0 <OLED_WriteCmd>
	OLED_WriteCmd(0xaf); //--turn on oled panel
}
 8002084:	e8bd 4008 	ldmia.w	sp!, {r3, lr}
	OLED_WriteCmd(0xaf); //--turn on oled panel
 8002088:	20af      	movs	r0, #175	; 0xaf
 800208a:	f7ff bf99 	b.w	8001fc0 <OLED_WriteCmd>

0800208e <OLED_SetPos>:
	OLED_WriteCmd(0xaf); //--turn on oled panel
}

// 设置起始点坐标
void OLED_SetPos(unsigned char x, unsigned char y)
{
 800208e:	b510      	push	{r4, lr}
 8002090:	4604      	mov	r4, r0
	OLED_WriteCmd(0xb0+y);
 8002092:	f1a1 0050 	sub.w	r0, r1, #80	; 0x50
 8002096:	b2c0      	uxtb	r0, r0
 8002098:	f7ff ff92 	bl	8001fc0 <OLED_WriteCmd>
	OLED_WriteCmd(((x&0xf0)>>4)|0x10);
 800209c:	0920      	lsrs	r0, r4, #4
 800209e:	f040 0010 	orr.w	r0, r0, #16
 80020a2:	f7ff ff8d 	bl	8001fc0 <OLED_WriteCmd>
	OLED_WriteCmd((x&0x0f));
 80020a6:	f004 000f 	and.w	r0, r4, #15
}
 80020aa:	e8bd 4010 	ldmia.w	sp!, {r4, lr}
	OLED_WriteCmd((x&0x0f));
 80020ae:	f7ff bf87 	b.w	8001fc0 <OLED_WriteCmd>
	...

080020b4 <OLED_CLS>:
	}
}

void OLED_CLS(void)//清屏
{
	uint8_t m, n[128] = {0};
 80020b4:	2100      	movs	r1, #0
{
 80020b6:	b530      	push	{r4, r5, lr}
 80020b8:	b0a3      	sub	sp, #140	; 0x8c
	uint8_t m, n[128] = {0};
 80020ba:	227c      	movs	r2, #124	; 0x7c
 80020bc:	a803      	add	r0, sp, #12
 80020be:	9102      	str	r1, [sp, #8]
 80020c0:	24b0      	movs	r4, #176	; 0xb0
 80020c2:	f00a fa63 	bl	800c58c <memset>
	{
		OLED_WriteCmd(0xb0+m);	//page0-page1
		OLED_WriteCmd(0x00);		//low column start address
		OLED_WriteCmd(0x10);		//high column start address
		
		i2cdevWrite(I2C2_DEV, OLED_ADDRESS >> 1, 0x40, 128, n);
 80020c6:	4d0c      	ldr	r5, [pc, #48]	; (80020f8 <OLED_CLS+0x44>)
		OLED_WriteCmd(0xb0+m);	//page0-page1
 80020c8:	4620      	mov	r0, r4
 80020ca:	f7ff ff79 	bl	8001fc0 <OLED_WriteCmd>
		OLED_WriteCmd(0x00);		//low column start address
 80020ce:	2000      	movs	r0, #0
 80020d0:	f7ff ff76 	bl	8001fc0 <OLED_WriteCmd>
		OLED_WriteCmd(0x10);		//high column start address
 80020d4:	2010      	movs	r0, #16
 80020d6:	f7ff ff73 	bl	8001fc0 <OLED_WriteCmd>
	for(m=0;m<8;m++)
 80020da:	3401      	adds	r4, #1
		i2cdevWrite(I2C2_DEV, OLED_ADDRESS >> 1, 0x40, 128, n);
 80020dc:	ab02      	add	r3, sp, #8
 80020de:	9300      	str	r3, [sp, #0]
 80020e0:	2240      	movs	r2, #64	; 0x40
 80020e2:	2380      	movs	r3, #128	; 0x80
 80020e4:	213c      	movs	r1, #60	; 0x3c
 80020e6:	4628      	mov	r0, r5
	for(m=0;m<8;m++)
 80020e8:	b2e4      	uxtb	r4, r4
		i2cdevWrite(I2C2_DEV, OLED_ADDRESS >> 1, 0x40, 128, n);
 80020ea:	f7ff fc01 	bl	80018f0 <i2cdevWrite>
	for(m=0;m<8;m++)
 80020ee:	2cb8      	cmp	r4, #184	; 0xb8
 80020f0:	d1ea      	bne.n	80020c8 <OLED_CLS+0x14>
	}
}
 80020f2:	b023      	add	sp, #140	; 0x8c
 80020f4:	bd30      	pop	{r4, r5, pc}
 80020f6:	bf00      	nop
 80020f8:	20000000 	.word	0x20000000

080020fc <OLED_ShowStr>:
// Description    : 显示codetab.h中的ASCII字符,有6*8和8*16可选择
//--------------------------------------------------------------
void OLED_ShowStr(unsigned char x, unsigned char y, unsigned char ch[], unsigned char TextSize)
{
	unsigned char c = 0,i = 0,j = 0;
	switch(TextSize)
 80020fc:	2b01      	cmp	r3, #1
{
 80020fe:	e92d 4ff7 	stmdb	sp!, {r0, r1, r2, r4, r5, r6, r7, r8, r9, sl, fp, lr}
 8002102:	4604      	mov	r4, r0
 8002104:	460d      	mov	r5, r1
 8002106:	4617      	mov	r7, r2
	switch(TextSize)
 8002108:	d022      	beq.n	8002150 <OLED_ShowStr+0x54>
 800210a:	2b02      	cmp	r3, #2
 800210c:	d059      	beq.n	80021c2 <OLED_ShowStr+0xc6>
				x += 8;
				j++;
			}
		}break;
	}
}
 800210e:	b003      	add	sp, #12
 8002110:	e8bd 8ff0 	ldmia.w	sp!, {r4, r5, r6, r7, r8, r9, sl, fp, pc}
				if(x > 126)
 8002114:	2c7e      	cmp	r4, #126	; 0x7e
					x = 0;
 8002116:	bf82      	ittt	hi
 8002118:	2400      	movhi	r4, #0
					y++;
 800211a:	3501      	addhi	r5, #1
 800211c:	b2ed      	uxtbhi	r5, r5
				OLED_SetPos(x,y);
 800211e:	4620      	mov	r0, r4
				c = ch[j] - 32;
 8002120:	3b20      	subs	r3, #32
				OLED_SetPos(x,y);
 8002122:	4629      	mov	r1, r5
				c = ch[j] - 32;
 8002124:	b2de      	uxtb	r6, r3
				OLED_SetPos(x,y);
 8002126:	f7ff ffb2 	bl	800208e <OLED_SetPos>
				i2cdevWrite(I2C2_DEV, OLED_ADDRESS >> 1, 0x40, 6, (uint8_t*)&(F6x8[c]));
 800212a:	2306      	movs	r3, #6
 800212c:	fb03 9606 	mla	r6, r3, r6, r9
 8002130:	2240      	movs	r2, #64	; 0x40
 8002132:	213c      	movs	r1, #60	; 0x3c
 8002134:	4650      	mov	r0, sl
 8002136:	9600      	str	r6, [sp, #0]
 8002138:	f7ff fbda 	bl	80018f0 <i2cdevWrite>
				x += 6;
 800213c:	3406      	adds	r4, #6
 800213e:	b2e4      	uxtb	r4, r4
				j++;
 8002140:	f108 0801 	add.w	r8, r8, #1
			while(ch[j] != '\0')
 8002144:	fa5f f388 	uxtb.w	r3, r8
 8002148:	5cfb      	ldrb	r3, [r7, r3]
 800214a:	2b00      	cmp	r3, #0
 800214c:	d1e2      	bne.n	8002114 <OLED_ShowStr+0x18>
 800214e:	e7de      	b.n	800210e <OLED_ShowStr+0x12>
	switch(TextSize)
 8002150:	f04f 0800 	mov.w	r8, #0
				i2cdevWrite(I2C2_DEV, OLED_ADDRESS >> 1, 0x40, 6, (uint8_t*)&(F6x8[c]));
 8002154:	f8df 9078 	ldr.w	r9, [pc, #120]	; 80021d0 <OLED_ShowStr+0xd4>
 8002158:	f8df a078 	ldr.w	sl, [pc, #120]	; 80021d4 <OLED_ShowStr+0xd8>
 800215c:	e7f2      	b.n	8002144 <OLED_ShowStr+0x48>
				if(x > 120)
 800215e:	2c78      	cmp	r4, #120	; 0x78
					x = 0;
 8002160:	bf84      	itt	hi
 8002162:	2400      	movhi	r4, #0
					y++;
 8002164:	3501      	addhi	r5, #1
				c = ch[j] - 32;
 8002166:	f1a6 0620 	sub.w	r6, r6, #32
					y++;
 800216a:	bf88      	it	hi
 800216c:	b2ed      	uxtbhi	r5, r5
				c = ch[j] - 32;
 800216e:	b2f6      	uxtb	r6, r6
				OLED_SetPos(x,y);
 8002170:	4620      	mov	r0, r4
 8002172:	4629      	mov	r1, r5
				i2cdevWrite(I2C2_DEV, OLED_ADDRESS >> 1, 0x40, 8, (uint8_t*)&(F8X16[c*16]));
 8002174:	ea4f 1b06 	mov.w	fp, r6, lsl #4
 8002178:	eb09 1606 	add.w	r6, r9, r6, lsl #4
				OLED_SetPos(x,y);
 800217c:	f7ff ff87 	bl	800208e <OLED_SetPos>
				i2cdevWrite(I2C2_DEV, OLED_ADDRESS >> 1, 0x40, 8, (uint8_t*)&(F8X16[c*16]));
 8002180:	2308      	movs	r3, #8
 8002182:	2240      	movs	r2, #64	; 0x40
 8002184:	213c      	movs	r1, #60	; 0x3c
 8002186:	4650      	mov	r0, sl
 8002188:	9600      	str	r6, [sp, #0]
 800218a:	f7ff fbb1 	bl	80018f0 <i2cdevWrite>
				OLED_SetPos(x,y+1);
 800218e:	1c69      	adds	r1, r5, #1
 8002190:	4620      	mov	r0, r4
 8002192:	b2c9      	uxtb	r1, r1
				i2cdevWrite(I2C2_DEV, OLED_ADDRESS >> 1, 0x40, 8, (uint8_t*)&(F8X16[c*16+8]));
 8002194:	f10b 0b08 	add.w	fp, fp, #8
				OLED_SetPos(x,y+1);
 8002198:	f7ff ff79 	bl	800208e <OLED_SetPos>
				i2cdevWrite(I2C2_DEV, OLED_ADDRESS >> 1, 0x40, 8, (uint8_t*)&(F8X16[c*16+8]));
 800219c:	eb09 030b 	add.w	r3, r9, fp
 80021a0:	9300      	str	r3, [sp, #0]
 80021a2:	2240      	movs	r2, #64	; 0x40
 80021a4:	2308      	movs	r3, #8
 80021a6:	213c      	movs	r1, #60	; 0x3c
 80021a8:	4650      	mov	r0, sl
 80021aa:	f7ff fba1 	bl	80018f0 <i2cdevWrite>
				x += 8;
 80021ae:	3408      	adds	r4, #8
 80021b0:	b2e4      	uxtb	r4, r4
				j++;
 80021b2:	f108 0801 	add.w	r8, r8, #1
			while(ch[j] != '\0')
 80021b6:	fa5f f388 	uxtb.w	r3, r8
 80021ba:	5cfe      	ldrb	r6, [r7, r3]
 80021bc:	2e00      	cmp	r6, #0
 80021be:	d1ce      	bne.n	800215e <OLED_ShowStr+0x62>
 80021c0:	e7a5      	b.n	800210e <OLED_ShowStr+0x12>
	switch(TextSize)
 80021c2:	f04f 0800 	mov.w	r8, #0
				i2cdevWrite(I2C2_DEV, OLED_ADDRESS >> 1, 0x40, 8, (uint8_t*)&(F8X16[c*16]));
 80021c6:	f8df 9010 	ldr.w	r9, [pc, #16]	; 80021d8 <OLED_ShowStr+0xdc>
 80021ca:	f8df a008 	ldr.w	sl, [pc, #8]	; 80021d4 <OLED_ShowStr+0xd8>
 80021ce:	e7f2      	b.n	80021b6 <OLED_ShowStr+0xba>
 80021d0:	0800fe60 	.word	0x0800fe60
 80021d4:	20000000 	.word	0x20000000
 80021d8:	08010088 	.word	0x08010088

080021dc <OLED_DrawBMP>:
// Calls          : 
// Parameters     : x0,y0 -- 起始点坐标(x0:0~127, y0:0~7); x1,y1 -- 起点对角线(结束点)的坐标(x1:1~128,y1:1~8)
// Description    : 显示BMP位图
//--------------------------------------------------------------
void OLED_DrawBMP(unsigned char x0,unsigned char y0,unsigned char x1,unsigned char y1,unsigned char BMP[])
{
 80021dc:	e92d 41f3 	stmdb	sp!, {r0, r1, r4, r5, r6, r7, r8, lr}
 80021e0:	4607      	mov	r7, r0
 80021e2:	460c      	mov	r4, r1
 80021e4:	461d      	mov	r5, r3
	j=0;
	
  if(y1%8==0)
		y = y1/8;
  else
		y = y1/8 + 1;
 80021e6:	9e08      	ldr	r6, [sp, #32]
	for(y=y0;y<y1;y++)
	{
		OLED_SetPos(x0,y);
		
		i2cdevWrite(I2C2_DEV, OLED_ADDRESS >> 1, 0x40, 128, &BMP[j]);
 80021e8:	f8df 8028 	ldr.w	r8, [pc, #40]	; 8002214 <OLED_DrawBMP+0x38>
	for(y=y0;y<y1;y++)
 80021ec:	42ac      	cmp	r4, r5
 80021ee:	d302      	bcc.n	80021f6 <OLED_DrawBMP+0x1a>
//    for(x=x0;x<x1;x++)
//		{
//			OLED_WriteData(BMP[j++]);
//		}
	}
}
 80021f0:	b002      	add	sp, #8
 80021f2:	e8bd 81f0 	ldmia.w	sp!, {r4, r5, r6, r7, r8, pc}
		OLED_SetPos(x0,y);
 80021f6:	4621      	mov	r1, r4
 80021f8:	4638      	mov	r0, r7
 80021fa:	f7ff ff48 	bl	800208e <OLED_SetPos>
	for(y=y0;y<y1;y++)
 80021fe:	3401      	adds	r4, #1
		i2cdevWrite(I2C2_DEV, OLED_ADDRESS >> 1, 0x40, 128, &BMP[j]);
 8002200:	9600      	str	r6, [sp, #0]
 8002202:	2380      	movs	r3, #128	; 0x80
 8002204:	2240      	movs	r2, #64	; 0x40
 8002206:	213c      	movs	r1, #60	; 0x3c
 8002208:	4640      	mov	r0, r8
 800220a:	f7ff fb71 	bl	80018f0 <i2cdevWrite>
	for(y=y0;y<y1;y++)
 800220e:	b2e4      	uxtb	r4, r4
 8002210:	3680      	adds	r6, #128	; 0x80
 8002212:	e7eb      	b.n	80021ec <OLED_DrawBMP+0x10>
 8002214:	20000000 	.word	0x20000000

08002218 <OLED_ShowParm>:
	}
}

// 显示系统参数 
void OLED_ShowParm(void)
{
 8002218:	b510      	push	{r4, lr}
	char volt1[20],volt2[20],distance1[20],distance2[20],motor1[20],motor2[20];

	sprintf(volt2,"Main  Voltage:%5.2f",ADC_ConvertedValueLocal[1]);
 800221a:	4c2b      	ldr	r4, [pc, #172]	; (80022c8 <OLED_ShowParm+0xb0>)
{
 800221c:	b09e      	sub	sp, #120	; 0x78
	sprintf(volt2,"Main  Voltage:%5.2f",ADC_ConvertedValueLocal[1]);
 800221e:	6860      	ldr	r0, [r4, #4]
 8002220:	f7fe f972 	bl	8000508 <__aeabi_f2d>
 8002224:	4602      	mov	r2, r0
 8002226:	460b      	mov	r3, r1
 8002228:	a805      	add	r0, sp, #20
 800222a:	4928      	ldr	r1, [pc, #160]	; (80022cc <OLED_ShowParm+0xb4>)
 800222c:	f00a f8b6 	bl	800c39c <siprintf>
	OLED_ShowStr(0,0,(uint8_t*)(&volt2),1);
 8002230:	2100      	movs	r1, #0
 8002232:	aa05      	add	r2, sp, #20
 8002234:	2301      	movs	r3, #1
 8002236:	4608      	mov	r0, r1
 8002238:	f7ff ff60 	bl	80020fc <OLED_ShowStr>
	
	sprintf(volt1, "Servo Voltage:%5.2f",ADC_ConvertedValueLocal[0]);
 800223c:	6820      	ldr	r0, [r4, #0]
 800223e:	f7fe f963 	bl	8000508 <__aeabi_f2d>
 8002242:	4602      	mov	r2, r0
 8002244:	460b      	mov	r3, r1
 8002246:	4668      	mov	r0, sp
 8002248:	4921      	ldr	r1, [pc, #132]	; (80022d0 <OLED_ShowParm+0xb8>)
 800224a:	f00a f8a7 	bl	800c39c <siprintf>
	OLED_ShowStr(0,1,(uint8_t*)(&volt1),1);
 800224e:	2301      	movs	r3, #1
 8002250:	466a      	mov	r2, sp
 8002252:	4619      	mov	r1, r3
 8002254:	2000      	movs	r0, #0
 8002256:	f7ff ff51 	bl	80020fc <OLED_ShowStr>
	
	sprintf(distance1, "distance1:%5dmm", ultrasonic_distance1);
 800225a:	4b1e      	ldr	r3, [pc, #120]	; (80022d4 <OLED_ShowParm+0xbc>)
 800225c:	491e      	ldr	r1, [pc, #120]	; (80022d8 <OLED_ShowParm+0xc0>)
 800225e:	881a      	ldrh	r2, [r3, #0]
 8002260:	a80a      	add	r0, sp, #40	; 0x28
 8002262:	f00a f89b 	bl	800c39c <siprintf>
	OLED_ShowStr(0, 2, (uint8_t*)(&distance1), 1);
 8002266:	aa0a      	add	r2, sp, #40	; 0x28
 8002268:	2301      	movs	r3, #1
 800226a:	2102      	movs	r1, #2
 800226c:	2000      	movs	r0, #0
 800226e:	f7ff ff45 	bl	80020fc <OLED_ShowStr>
	
	sprintf(distance2, "distance2:%5dmm", ultrasonic_distance2);
 8002272:	4b1a      	ldr	r3, [pc, #104]	; (80022dc <OLED_ShowParm+0xc4>)
	OLED_ShowStr(0, 3, (uint8_t*)(&distance2), 1);
	
	sprintf(motor1,"motor1_pwm:%5d",motorStatus.motor1_pwm);
 8002274:	4c1a      	ldr	r4, [pc, #104]	; (80022e0 <OLED_ShowParm+0xc8>)
	sprintf(distance2, "distance2:%5dmm", ultrasonic_distance2);
 8002276:	881a      	ldrh	r2, [r3, #0]
 8002278:	491a      	ldr	r1, [pc, #104]	; (80022e4 <OLED_ShowParm+0xcc>)
 800227a:	a80f      	add	r0, sp, #60	; 0x3c
 800227c:	f00a f88e 	bl	800c39c <siprintf>
	OLED_ShowStr(0, 3, (uint8_t*)(&distance2), 1);
 8002280:	2301      	movs	r3, #1
 8002282:	aa0f      	add	r2, sp, #60	; 0x3c
 8002284:	2103      	movs	r1, #3
 8002286:	2000      	movs	r0, #0
 8002288:	f7ff ff38 	bl	80020fc <OLED_ShowStr>
	sprintf(motor1,"motor1_pwm:%5d",motorStatus.motor1_pwm);
 800228c:	f9b4 2000 	ldrsh.w	r2, [r4]
 8002290:	4915      	ldr	r1, [pc, #84]	; (80022e8 <OLED_ShowParm+0xd0>)
 8002292:	a814      	add	r0, sp, #80	; 0x50
 8002294:	f00a f882 	bl	800c39c <siprintf>
	OLED_ShowStr(0,4,(uint8_t*)(&motor1),1);
 8002298:	2301      	movs	r3, #1
 800229a:	aa14      	add	r2, sp, #80	; 0x50
 800229c:	2104      	movs	r1, #4
 800229e:	2000      	movs	r0, #0
 80022a0:	f7ff ff2c 	bl	80020fc <OLED_ShowStr>
	
	sprintf(motor2,"motor2_pwm:%5d",motorStatus.motor2_pwm);
 80022a4:	f9b4 2002 	ldrsh.w	r2, [r4, #2]
 80022a8:	4910      	ldr	r1, [pc, #64]	; (80022ec <OLED_ShowParm+0xd4>)
 80022aa:	a819      	add	r0, sp, #100	; 0x64
 80022ac:	f00a f876 	bl	800c39c <siprintf>
	OLED_ShowStr(0,5,(uint8_t*)(&motor2),1);
 80022b0:	2301      	movs	r3, #1
 80022b2:	2105      	movs	r1, #5
 80022b4:	aa19      	add	r2, sp, #100	; 0x64
 80022b6:	2000      	movs	r0, #0
 80022b8:	f7ff ff20 	bl	80020fc <OLED_ShowStr>
	
	vTaskDelay(50);	
 80022bc:	2032      	movs	r0, #50	; 0x32
 80022be:	f005 f8dd 	bl	800747c <vTaskDelay>
}
 80022c2:	b01e      	add	sp, #120	; 0x78
 80022c4:	bd10      	pop	{r4, pc}
 80022c6:	bf00      	nop
 80022c8:	200002dc 	.word	0x200002dc
 80022cc:	0800fdcd 	.word	0x0800fdcd
 80022d0:	0800fde1 	.word	0x0800fde1
 80022d4:	20000334 	.word	0x20000334
 80022d8:	0800fdf5 	.word	0x0800fdf5
 80022dc:	2000033a 	.word	0x2000033a
 80022e0:	200002fc 	.word	0x200002fc
 80022e4:	0800fe05 	.word	0x0800fe05
 80022e8:	0800fe15 	.word	0x0800fe15
 80022ec:	0800fe24 	.word	0x0800fe24

080022f0 <MenuTask>:
{
 80022f0:	e92d 41f0 	stmdb	sp!, {r4, r5, r6, r7, r8, lr}
	while(menu == MPU_INIT)
 80022f4:	4e55      	ldr	r6, [pc, #340]	; (800244c <MenuTask+0x15c>)
{
 80022f6:	f5ad 5da1 	sub.w	sp, sp, #5152	; 0x1420
 80022fa:	b084      	sub	sp, #16
	while(menu == MPU_INIT)
 80022fc:	7833      	ldrb	r3, [r6, #0]
 80022fe:	2b05      	cmp	r3, #5
 8002300:	d00a      	beq.n	8002318 <MenuTask+0x28>
	OLED_Init();
 8002302:	f7ff fe65 	bl	8001fd0 <OLED_Init>
					LED_TOGGLE;
 8002306:	4c52      	ldr	r4, [pc, #328]	; (8002450 <MenuTask+0x160>)
		switch(menu)
 8002308:	7833      	ldrb	r3, [r6, #0]
 800230a:	2b04      	cmp	r3, #4
 800230c:	d8fd      	bhi.n	800230a <MenuTask+0x1a>
 800230e:	e8df f003 	tbb	[pc, r3]
 8002312:	4107      	.short	0x4107
 8002314:	9470      	.short	0x9470
 8002316:	98          	.byte	0x98
 8002317:	00          	.byte	0x00
		vTaskDelay(50);
 8002318:	2032      	movs	r0, #50	; 0x32
 800231a:	f005 f8af 	bl	800747c <vTaskDelay>
 800231e:	e7ed      	b.n	80022fc <MenuTask+0xc>
				res_flash = f_open(&fnew, "1:/res.bin",FA_OPEN_EXISTING | FA_READ); 
 8002320:	494c      	ldr	r1, [pc, #304]	; (8002454 <MenuTask+0x164>)
 8002322:	2201      	movs	r2, #1
 8002324:	f20d 400c 	addw	r0, sp, #1036	; 0x40c
 8002328:	f003 fb8e 	bl	8005a48 <f_open>
 800232c:	4605      	mov	r5, r0
				f_lseek(&fnew, 160*1024);
 800232e:	f44f 3120 	mov.w	r1, #163840	; 0x28000
 8002332:	f20d 400c 	addw	r0, sp, #1036	; 0x40c
 8002336:	f003 fd36 	bl	8005da6 <f_lseek>
				if ( res_flash == FR_OK )
 800233a:	bb1d      	cbnz	r5, 8002384 <MenuTask+0x94>
					while(i--)
 800233c:	f44f 7789 	mov.w	r7, #274	; 0x112
					printf(">>动画资源加载成功...\r\n");
 8002340:	4845      	ldr	r0, [pc, #276]	; (8002458 <MenuTask+0x168>)
 8002342:	f00a f823 	bl	800c38c <puts>
						f_read(&fnew, bmp, 128*8, &fnum);
 8002346:	ab04      	add	r3, sp, #16
 8002348:	f10d 0808 	add.w	r8, sp, #8
 800234c:	1f1d      	subs	r5, r3, #4
					while(i--)
 800234e:	3f01      	subs	r7, #1
 8002350:	d108      	bne.n	8002364 <MenuTask+0x74>
				f_close(&fnew);	
 8002352:	f20d 400c 	addw	r0, sp, #1036	; 0x40c
 8002356:	f003 fd1b 	bl	8005d90 <f_close>
				OLED_CLS();
 800235a:	f7ff feab 	bl	80020b4 <OLED_CLS>
				menu = RUNNING;
 800235e:	2304      	movs	r3, #4
				menu = NOTDRAW;
 8002360:	7033      	strb	r3, [r6, #0]
				break;
 8002362:	e7d1      	b.n	8002308 <MenuTask+0x18>
						f_read(&fnew, bmp, 128*8, &fnum);
 8002364:	4643      	mov	r3, r8
 8002366:	4629      	mov	r1, r5
 8002368:	f44f 6280 	mov.w	r2, #1024	; 0x400
 800236c:	f20d 400c 	addw	r0, sp, #1036	; 0x40c
 8002370:	f003 fc0c 	bl	8005b8c <f_read>
						OLED_DrawBMP(0,0,128,8,(unsigned char *)bmp);
 8002374:	2100      	movs	r1, #0
 8002376:	2308      	movs	r3, #8
 8002378:	2280      	movs	r2, #128	; 0x80
 800237a:	4608      	mov	r0, r1
 800237c:	9500      	str	r5, [sp, #0]
 800237e:	f7ff ff2d 	bl	80021dc <OLED_DrawBMP>
 8002382:	e7e4      	b.n	800234e <MenuTask+0x5e>
					LED_TOGGLE;
 8002384:	68e3      	ldr	r3, [r4, #12]
					printf("!!未发现动画资源....\r\n");
 8002386:	4835      	ldr	r0, [pc, #212]	; (800245c <MenuTask+0x16c>)
					LED_TOGGLE;
 8002388:	f083 0310 	eor.w	r3, r3, #16
 800238c:	60e3      	str	r3, [r4, #12]
					printf("!!未发现动画资源....\r\n");
 800238e:	f009 fffd 	bl	800c38c <puts>
 8002392:	e7de      	b.n	8002352 <MenuTask+0x62>
				res_flash = f_open(&fnew, "1:/res.bin",FA_OPEN_EXISTING | FA_READ); 
 8002394:	2201      	movs	r2, #1
 8002396:	492f      	ldr	r1, [pc, #188]	; (8002454 <MenuTask+0x164>)
 8002398:	f20d 400c 	addw	r0, sp, #1036	; 0x40c
 800239c:	f003 fb54 	bl	8005a48 <f_open>
				if ( res_flash == FR_OK )
 80023a0:	b9f8      	cbnz	r0, 80023e2 <MenuTask+0xf2>
					while(i--)
 80023a2:	27a1      	movs	r7, #161	; 0xa1
					printf(">>动画资源加载成功...\r\n");
 80023a4:	482c      	ldr	r0, [pc, #176]	; (8002458 <MenuTask+0x168>)
 80023a6:	f009 fff1 	bl	800c38c <puts>
						f_read(&fnew, bmp, 128*8, &fnum);
 80023aa:	ab04      	add	r3, sp, #16
 80023ac:	f10d 0808 	add.w	r8, sp, #8
 80023b0:	1f1d      	subs	r5, r3, #4
					while(i--)
 80023b2:	3f01      	subs	r7, #1
 80023b4:	d105      	bne.n	80023c2 <MenuTask+0xd2>
				f_close(&fnew);
 80023b6:	f20d 400c 	addw	r0, sp, #1036	; 0x40c
 80023ba:	f003 fce9 	bl	8005d90 <f_close>
				menu = NOTDRAW;
 80023be:	2303      	movs	r3, #3
 80023c0:	e7ce      	b.n	8002360 <MenuTask+0x70>
						f_read(&fnew, bmp, 128*8, &fnum);
 80023c2:	4643      	mov	r3, r8
 80023c4:	4629      	mov	r1, r5
 80023c6:	f44f 6280 	mov.w	r2, #1024	; 0x400
 80023ca:	f20d 400c 	addw	r0, sp, #1036	; 0x40c
 80023ce:	f003 fbdd 	bl	8005b8c <f_read>
						OLED_DrawBMP(0,0,128,8,(unsigned char *)bmp);
 80023d2:	2100      	movs	r1, #0
 80023d4:	2308      	movs	r3, #8
 80023d6:	2280      	movs	r2, #128	; 0x80
 80023d8:	4608      	mov	r0, r1
 80023da:	9500      	str	r5, [sp, #0]
 80023dc:	f7ff fefe 	bl	80021dc <OLED_DrawBMP>
 80023e0:	e7e7      	b.n	80023b2 <MenuTask+0xc2>
					LED_TOGGLE;
 80023e2:	68e3      	ldr	r3, [r4, #12]
					printf("!!未发现动画资源....\r\n");
 80023e4:	481d      	ldr	r0, [pc, #116]	; (800245c <MenuTask+0x16c>)
					LED_TOGGLE;
 80023e6:	f083 0310 	eor.w	r3, r3, #16
 80023ea:	60e3      	str	r3, [r4, #12]
					printf("!!未发现动画资源....\r\n");
 80023ec:	f009 ffce 	bl	800c38c <puts>
 80023f0:	e7e1      	b.n	80023b6 <MenuTask+0xc6>
				res_flash = f_open(&fnew, "1:/res.bin",FA_OPEN_EXISTING | FA_READ); 
 80023f2:	4918      	ldr	r1, [pc, #96]	; (8002454 <MenuTask+0x164>)
 80023f4:	2201      	movs	r2, #1
 80023f6:	f20d 400c 	addw	r0, sp, #1036	; 0x40c
 80023fa:	f003 fb25 	bl	8005a48 <f_open>
 80023fe:	4605      	mov	r5, r0
				f_lseek(&fnew, 434*1024);
 8002400:	f44f 21d9 	mov.w	r1, #444416	; 0x6c800
 8002404:	f20d 400c 	addw	r0, sp, #1036	; 0x40c
 8002408:	f003 fccd 	bl	8005da6 <f_lseek>
				if ( res_flash == FR_OK )
 800240c:	2d00      	cmp	r5, #0
 800240e:	d1e8      	bne.n	80023e2 <MenuTask+0xf2>
					printf(">>动画资源加载成功...\r\n");
 8002410:	4811      	ldr	r0, [pc, #68]	; (8002458 <MenuTask+0x168>)
 8002412:	f009 ffbb 	bl	800c38c <puts>
						f_read(&fnew, bmp, 128*8, &fnum);
 8002416:	af03      	add	r7, sp, #12
 8002418:	ab04      	add	r3, sp, #16
 800241a:	4639      	mov	r1, r7
 800241c:	f44f 6280 	mov.w	r2, #1024	; 0x400
 8002420:	3b08      	subs	r3, #8
 8002422:	f20d 400c 	addw	r0, sp, #1036	; 0x40c
 8002426:	f003 fbb1 	bl	8005b8c <f_read>
						OLED_DrawBMP(0,0,128,8,(unsigned char *)bmp);
 800242a:	2308      	movs	r3, #8
 800242c:	2280      	movs	r2, #128	; 0x80
 800242e:	4629      	mov	r1, r5
 8002430:	4628      	mov	r0, r5
 8002432:	9700      	str	r7, [sp, #0]
 8002434:	f7ff fed2 	bl	80021dc <OLED_DrawBMP>
					while(i--)
 8002438:	e7bd      	b.n	80023b6 <MenuTask+0xc6>
				vTaskDelay(100);
 800243a:	2064      	movs	r0, #100	; 0x64
				vTaskDelay(50);
 800243c:	f005 f81e 	bl	800747c <vTaskDelay>
				break;
 8002440:	e762      	b.n	8002308 <MenuTask+0x18>
				OLED_ShowParm();
 8002442:	f7ff fee9 	bl	8002218 <OLED_ShowParm>
				vTaskDelay(50);
 8002446:	2032      	movs	r0, #50	; 0x32
 8002448:	e7f8      	b.n	800243c <MenuTask+0x14c>
 800244a:	bf00      	nop
 800244c:	20000080 	.word	0x20000080
 8002450:	40011000 	.word	0x40011000
 8002454:	0800fd95 	.word	0x0800fd95
 8002458:	0800fe33 	.word	0x0800fe33
 800245c:	0800fe4a 	.word	0x0800fe4a

08002460 <UserKey_Init>:
  * @brief  初始化用户键
  * @param  无
  * @retval 无
  */
void UserKey_Init(void)
{		
 8002460:	b507      	push	{r0, r1, r2, lr}
	/*定义一个GPIO_InitTypeDef类型的结构体*/
	GPIO_InitTypeDef GPIO_InitStructure;

	/*开启LED相关的GPIO外设时钟*/
	RCC_APB2PeriphClockCmd(RCC_APB2Periph_GPIOB, ENABLE);
 8002462:	2101      	movs	r1, #1
 8002464:	2008      	movs	r0, #8
 8002466:	f006 fc41 	bl	8008cec <RCC_APB2PeriphClockCmd>

	/*选择要控制的GPIO引脚*/
	GPIO_InitStructure.GPIO_Pin = GPIO_Pin_2;	
 800246a:	4b04      	ldr	r3, [pc, #16]	; (800247c <UserKey_Init+0x1c>)

	/*设置引脚速率为50MHz */   
	GPIO_InitStructure.GPIO_Speed = GPIO_Speed_50MHz; 

	/*调用库函数，初始化GPIO*/
	GPIO_Init(GPIOB, &GPIO_InitStructure);	
 800246c:	4804      	ldr	r0, [pc, #16]	; (8002480 <UserKey_Init+0x20>)
 800246e:	a901      	add	r1, sp, #4
	GPIO_InitStructure.GPIO_Pin = GPIO_Pin_2;	
 8002470:	9301      	str	r3, [sp, #4]
	GPIO_Init(GPIOB, &GPIO_InitStructure);	
 8002472:	f006 fa59 	bl	8008928 <GPIO_Init>
}
 8002476:	b003      	add	sp, #12
 8002478:	f85d fb04 	ldr.w	pc, [sp], #4
 800247c:	28030004 	.word	0x28030004
 8002480:	40010c00 	.word	0x40010c00

08002484 <PowerKey_Init>:
  * @brief  初始化电源键
  * @param  无
  * @retval 无
  */
void PowerKey_Init(void)
{		
 8002484:	b507      	push	{r0, r1, r2, lr}
	/*定义一个GPIO_InitTypeDef类型的结构体*/
	GPIO_InitTypeDef GPIO_InitStructure;

	/*开启LED相关的GPIO外设时钟*/
	RCC_APB2PeriphClockCmd(RCC_APB2Periph_GPIOC, ENABLE);
 8002486:	2101      	movs	r1, #1
 8002488:	2010      	movs	r0, #16
 800248a:	f006 fc2f 	bl	8008cec <RCC_APB2PeriphClockCmd>
	
	/*选择要控制的GPIO引脚*/
	GPIO_InitStructure.GPIO_Pin = GPIO_Pin_1;	
 800248e:	4b04      	ldr	r3, [pc, #16]	; (80024a0 <PowerKey_Init+0x1c>)
	
	/*设置引脚速率为50MHz */   
	GPIO_InitStructure.GPIO_Speed = GPIO_Speed_50MHz; 
	
	/*调用库函数，初始化GPIO*/
	GPIO_Init(GPIOC, &GPIO_InitStructure);	
 8002490:	4804      	ldr	r0, [pc, #16]	; (80024a4 <PowerKey_Init+0x20>)
 8002492:	a901      	add	r1, sp, #4
	GPIO_InitStructure.GPIO_Pin = GPIO_Pin_1;	
 8002494:	9301      	str	r3, [sp, #4]
	GPIO_Init(GPIOC, &GPIO_InitStructure);	
 8002496:	f006 fa47 	bl	8008928 <GPIO_Init>
}
 800249a:	b003      	add	sp, #12
 800249c:	f85d fb04 	ldr.w	pc, [sp], #4
 80024a0:	48030002 	.word	0x48030002
 80024a4:	40011000 	.word	0x40011000

080024a8 <LED_Init>:
  * @brief  初始化控制LED的IO
  * @param  无
  * @retval 无
  */
void LED_Init(void)
{		
 80024a8:	b513      	push	{r0, r1, r4, lr}

		/*设置引脚速率为50MHz */   
		GPIO_InitStructure.GPIO_Speed = GPIO_Speed_50MHz; 

		/*调用库函数，初始化GPIO*/
		GPIO_Init(LED_GPIO_PORT, &GPIO_InitStructure);	
 80024aa:	4c08      	ldr	r4, [pc, #32]	; (80024cc <LED_Init+0x24>)
		RCC_APB2PeriphClockCmd(LED_GPIO_CLK, ENABLE);
 80024ac:	2101      	movs	r1, #1
 80024ae:	2010      	movs	r0, #16
 80024b0:	f006 fc1c 	bl	8008cec <RCC_APB2PeriphClockCmd>
		GPIO_InitStructure.GPIO_Pin = LED_GPIO_PIN;	
 80024b4:	4b06      	ldr	r3, [pc, #24]	; (80024d0 <LED_Init+0x28>)
		GPIO_Init(LED_GPIO_PORT, &GPIO_InitStructure);	
 80024b6:	4620      	mov	r0, r4
 80024b8:	a901      	add	r1, sp, #4
		GPIO_InitStructure.GPIO_Pin = LED_GPIO_PIN;	
 80024ba:	9301      	str	r3, [sp, #4]
		GPIO_Init(LED_GPIO_PORT, &GPIO_InitStructure);	
 80024bc:	f006 fa34 	bl	8008928 <GPIO_Init>

		/* 关闭led灯	*/
		GPIO_SetBits(LED_GPIO_PORT, LED_GPIO_PIN);
 80024c0:	2110      	movs	r1, #16
 80024c2:	4620      	mov	r0, r4
 80024c4:	f006 fa8c 	bl	80089e0 <GPIO_SetBits>
		
}
 80024c8:	b002      	add	sp, #8
 80024ca:	bd10      	pop	{r4, pc}
 80024cc:	40011000 	.word	0x40011000
 80024d0:	10030010 	.word	0x10030010

080024d4 <TIM1_Init>:



// 初始化用于驱动电机1的定时器，以便向A4950电机驱动芯片输出合适的PWM信号
void TIM1_Init(void)
{
 80024d4:	b530      	push	{r4, r5, lr}
	GPIO_InitTypeDef GPIO_InitStructure;
	TIM_TimeBaseInitTypeDef  TIM_TimeBaseStructure;

	// 输出比较通道GPIO 初始化
	RCC_APB2PeriphClockCmd(RCC_APB2Periph_GPIOA | RCC_APB2Periph_TIM1, ENABLE);
 80024d6:	2101      	movs	r1, #1
{
 80024d8:	b089      	sub	sp, #36	; 0x24
	RCC_APB2PeriphClockCmd(RCC_APB2Periph_GPIOA | RCC_APB2Periph_TIM1, ENABLE);
 80024da:	f640 0004 	movw	r0, #2052	; 0x804
 80024de:	f006 fc05 	bl	8008cec <RCC_APB2PeriphClockCmd>
	GPIO_InitStructure.GPIO_Pin =  GPIO_Pin_8 | GPIO_Pin_11;
 80024e2:	4b1a      	ldr	r3, [pc, #104]	; (800254c <TIM1_Init+0x78>)
	GPIO_InitStructure.GPIO_Mode = GPIO_Mode_AF_PP;
	GPIO_InitStructure.GPIO_Speed = GPIO_Speed_50MHz;
	GPIO_Init(GPIOA, &GPIO_InitStructure);
 80024e4:	4669      	mov	r1, sp
 80024e6:	481a      	ldr	r0, [pc, #104]	; (8002550 <TIM1_Init+0x7c>)
	// 时钟分频因子，配置死区时间时需要用到
	TIM_TimeBaseStructure.TIM_ClockDivision=TIM_CKD_DIV1;		
	// 计数器计数模式，设置为向上计数
	TIM_TimeBaseStructure.TIM_CounterMode=TIM_CounterMode_Up;		
	// 重复计数器的值，没用到不用管
	TIM_TimeBaseStructure.TIM_RepetitionCounter=0;	
 80024e8:	2500      	movs	r5, #0
	GPIO_InitStructure.GPIO_Pin =  GPIO_Pin_8 | GPIO_Pin_11;
 80024ea:	9300      	str	r3, [sp, #0]
	GPIO_Init(GPIOA, &GPIO_InitStructure);
 80024ec:	f006 fa1c 	bl	8008928 <GPIO_Init>
	TIM_TimeBaseStructure.TIM_Period = MOTOR_PWM_RESOLUTION;	
 80024f0:	2247      	movs	r2, #71	; 0x47
 80024f2:	f44f 737a 	mov.w	r3, #1000	; 0x3e8
	// 初始化定时器
	TIM_TimeBaseInit(TIM1, &TIM_TimeBaseStructure);
 80024f6:	4c17      	ldr	r4, [pc, #92]	; (8002554 <TIM1_Init+0x80>)
 80024f8:	a901      	add	r1, sp, #4
 80024fa:	4620      	mov	r0, r4
	TIM_TimeBaseStructure.TIM_Period = MOTOR_PWM_RESOLUTION;	
 80024fc:	e9cd 2301 	strd	r2, r3, [sp, #4]
	TIM_TimeBaseStructure.TIM_RepetitionCounter=0;	
 8002500:	f88d 500c 	strb.w	r5, [sp, #12]
	TIM_TimeBaseInit(TIM1, &TIM_TimeBaseStructure);
 8002504:	f006 fcbe 	bl	8008e84 <TIM_TimeBaseInit>
	
	/*--------------------输出比较结构体初始化-------------------*/

	TIM_OCInitTypeDef  TIM_OCInitStructure;
	// 配置为PWM模式1
	TIM_OCInitStructure.TIM_OCMode = TIM_OCMode_PWM1;
 8002508:	4b13      	ldr	r3, [pc, #76]	; (8002558 <TIM1_Init+0x84>)
	// 输出通道电平极性配置
	TIM_OCInitStructure.TIM_OCPolarity = TIM_OCPolarity_High;
	
	// 输出比较通道 1
	TIM_OCInitStructure.TIM_Pulse = MOTOR_DEFAULT_DUTY;
	TIM_OC1Init(TIM1, &TIM_OCInitStructure);
 800250a:	4620      	mov	r0, r4
 800250c:	a904      	add	r1, sp, #16
	TIM_OCInitStructure.TIM_OCMode = TIM_OCMode_PWM1;
 800250e:	9304      	str	r3, [sp, #16]
	TIM_OCInitStructure.TIM_OCPolarity = TIM_OCPolarity_High;
 8002510:	f8ad 5018 	strh.w	r5, [sp, #24]
	TIM_OCInitStructure.TIM_Pulse = MOTOR_DEFAULT_DUTY;
 8002514:	f8ad 5016 	strh.w	r5, [sp, #22]
	TIM_OC1Init(TIM1, &TIM_OCInitStructure);
 8002518:	f006 fcfe 	bl	8008f18 <TIM_OC1Init>
	TIM_OC1PreloadConfig(TIM1, TIM_OCPreload_Enable);
 800251c:	4620      	mov	r0, r4
 800251e:	2108      	movs	r1, #8
 8002520:	f006 fe43 	bl	80091aa <TIM_OC1PreloadConfig>
	
	// 输出比较通道 4
	TIM_OCInitStructure.TIM_Pulse = MOTOR_DEFAULT_DUTY;
	TIM_OC4Init(TIM1, &TIM_OCInitStructure);
 8002524:	4620      	mov	r0, r4
 8002526:	a904      	add	r1, sp, #16
	TIM_OCInitStructure.TIM_Pulse = MOTOR_DEFAULT_DUTY;
 8002528:	f8ad 5016 	strh.w	r5, [sp, #22]
	TIM_OC4Init(TIM1, &TIM_OCInitStructure);
 800252c:	f006 fdb6 	bl	800909c <TIM_OC4Init>
	TIM_OC4PreloadConfig(TIM1, TIM_OCPreload_Enable);
 8002530:	4620      	mov	r0, r4
 8002532:	2108      	movs	r1, #8
 8002534:	f006 fe53 	bl	80091de <TIM_OC4PreloadConfig>
	
	//TIM_ARRPreloadConfig(TIM1, ENABLE);
	// 使能计数器
	TIM_Cmd(TIM1, ENABLE);
 8002538:	4620      	mov	r0, r4
 800253a:	2101      	movs	r1, #1
 800253c:	f006 fdf3 	bl	8009126 <TIM_Cmd>
	
	// 主输出使能，当使用的是通用定时器时，这句不需要
	TIM_CtrlPWMOutputs(TIM1, ENABLE);
 8002540:	2101      	movs	r1, #1
 8002542:	4620      	mov	r0, r4
 8002544:	f006 fdfb 	bl	800913e <TIM_CtrlPWMOutputs>
}
 8002548:	b009      	add	sp, #36	; 0x24
 800254a:	bd30      	pop	{r4, r5, pc}
 800254c:	18030900 	.word	0x18030900
 8002550:	40010800 	.word	0x40010800
 8002554:	40012c00 	.word	0x40012c00
 8002558:	00010060 	.word	0x00010060

0800255c <TIM2_Init>:



// 初始化用于驱动电机2的定时器，以便向A4950电机驱动芯片输出合适的PWM信号
void TIM2_Init(void)
{
 800255c:	b510      	push	{r4, lr}
	GPIO_InitTypeDef GPIO_InitStructure;
	TIM_TimeBaseInitTypeDef  TIM_TimeBaseStructure;
	
	// 输出比较通道GPIO 初始化
	RCC_APB2PeriphClockCmd(RCC_APB2Periph_GPIOA, ENABLE);
 800255e:	2101      	movs	r1, #1
{
 8002560:	b088      	sub	sp, #32
	RCC_APB2PeriphClockCmd(RCC_APB2Periph_GPIOA, ENABLE);
 8002562:	2004      	movs	r0, #4
 8002564:	f006 fbc2 	bl	8008cec <RCC_APB2PeriphClockCmd>
	GPIO_InitStructure.GPIO_Pin =  GPIO_Pin_2 | GPIO_Pin_3;
 8002568:	4b1c      	ldr	r3, [pc, #112]	; (80025dc <TIM2_Init+0x80>)
	GPIO_InitStructure.GPIO_Mode = GPIO_Mode_AF_PP;
	GPIO_InitStructure.GPIO_Speed = GPIO_Speed_50MHz;
	GPIO_Init(GPIOA, &GPIO_InitStructure);
 800256a:	4669      	mov	r1, sp
 800256c:	481c      	ldr	r0, [pc, #112]	; (80025e0 <TIM2_Init+0x84>)
	GPIO_InitStructure.GPIO_Pin =  GPIO_Pin_2 | GPIO_Pin_3;
 800256e:	9300      	str	r3, [sp, #0]
	GPIO_Init(GPIOA, &GPIO_InitStructure);
 8002570:	f006 f9da 	bl	8008928 <GPIO_Init>
	
	// 开启定时器时钟
	RCC_APB1PeriphClockCmd(RCC_APB1Periph_TIM2, ENABLE);
 8002574:	2101      	movs	r1, #1
 8002576:	4608      	mov	r0, r1
 8002578:	f006 fbc4 	bl	8008d04 <RCC_APB1PeriphClockCmd>
	// 时钟分频因子，配置死区时间时需要用到
	TIM_TimeBaseStructure.TIM_ClockDivision=TIM_CKD_DIV1;		
	// 计数器计数模式，设置为向上计数
	TIM_TimeBaseStructure.TIM_CounterMode=TIM_CounterMode_Up;		
	// 重复计数器的值，没用到不用管
	TIM_TimeBaseStructure.TIM_RepetitionCounter=0;	
 800257c:	2400      	movs	r4, #0
	TIM_TimeBaseStructure.TIM_Period = MOTOR_PWM_RESOLUTION;	
 800257e:	2247      	movs	r2, #71	; 0x47
 8002580:	f44f 737a 	mov.w	r3, #1000	; 0x3e8
	// 初始化定时器
	TIM_TimeBaseInit(TIM2, &TIM_TimeBaseStructure);
 8002584:	a901      	add	r1, sp, #4
 8002586:	f04f 4080 	mov.w	r0, #1073741824	; 0x40000000
	TIM_TimeBaseStructure.TIM_Period = MOTOR_PWM_RESOLUTION;	
 800258a:	e9cd 2301 	strd	r2, r3, [sp, #4]
	TIM_TimeBaseStructure.TIM_RepetitionCounter=0;	
 800258e:	f88d 400c 	strb.w	r4, [sp, #12]
	TIM_TimeBaseInit(TIM2, &TIM_TimeBaseStructure);
 8002592:	f006 fc77 	bl	8008e84 <TIM_TimeBaseInit>
	
	/*--------------------输出比较结构体初始化-------------------*/

	TIM_OCInitTypeDef  TIM_OCInitStructure;
	// 配置为PWM模式1
	TIM_OCInitStructure.TIM_OCMode = TIM_OCMode_PWM1;
 8002596:	4b13      	ldr	r3, [pc, #76]	; (80025e4 <TIM2_Init+0x88>)
	// 输出通道电平极性配置
	TIM_OCInitStructure.TIM_OCPolarity = TIM_OCPolarity_High;
	
	// 输出比较通道 3
	TIM_OCInitStructure.TIM_Pulse = MOTOR_DEFAULT_DUTY;
	TIM_OC3Init(TIM2, &TIM_OCInitStructure);
 8002598:	a904      	add	r1, sp, #16
 800259a:	f04f 4080 	mov.w	r0, #1073741824	; 0x40000000
	TIM_OCInitStructure.TIM_OCMode = TIM_OCMode_PWM1;
 800259e:	9304      	str	r3, [sp, #16]
	TIM_OCInitStructure.TIM_OCPolarity = TIM_OCPolarity_High;
 80025a0:	f8ad 4018 	strh.w	r4, [sp, #24]
	TIM_OCInitStructure.TIM_Pulse = MOTOR_DEFAULT_DUTY;
 80025a4:	f8ad 4016 	strh.w	r4, [sp, #22]
	TIM_OC3Init(TIM2, &TIM_OCInitStructure);
 80025a8:	f006 fd3a 	bl	8009020 <TIM_OC3Init>
	TIM_OC3PreloadConfig(TIM2, TIM_OCPreload_Enable);
 80025ac:	2108      	movs	r1, #8
 80025ae:	f04f 4080 	mov.w	r0, #1073741824	; 0x40000000
 80025b2:	f006 fe0c 	bl	80091ce <TIM_OC3PreloadConfig>
	
	// 输出比较通道 4
	TIM_OCInitStructure.TIM_Pulse = MOTOR_DEFAULT_DUTY;
	TIM_OC4Init(TIM2, &TIM_OCInitStructure);
 80025b6:	a904      	add	r1, sp, #16
 80025b8:	f04f 4080 	mov.w	r0, #1073741824	; 0x40000000
	TIM_OCInitStructure.TIM_Pulse = MOTOR_DEFAULT_DUTY;
 80025bc:	f8ad 4016 	strh.w	r4, [sp, #22]
	TIM_OC4Init(TIM2, &TIM_OCInitStructure);
 80025c0:	f006 fd6c 	bl	800909c <TIM_OC4Init>
	TIM_OC4PreloadConfig(TIM2, TIM_OCPreload_Enable);
 80025c4:	2108      	movs	r1, #8
 80025c6:	f04f 4080 	mov.w	r0, #1073741824	; 0x40000000
 80025ca:	f006 fe08 	bl	80091de <TIM_OC4PreloadConfig>
	
	//TIM_ARRPreloadConfig(TIM2, ENABLE);
	
	// 使能计数器
	TIM_Cmd(TIM2, ENABLE);
 80025ce:	2101      	movs	r1, #1
 80025d0:	f04f 4080 	mov.w	r0, #1073741824	; 0x40000000
 80025d4:	f006 fda7 	bl	8009126 <TIM_Cmd>
}
 80025d8:	b008      	add	sp, #32
 80025da:	bd10      	pop	{r4, pc}
 80025dc:	1803000c 	.word	0x1803000c
 80025e0:	40010800 	.word	0x40010800
 80025e4:	00010060 	.word	0x00010060

080025e8 <Motor1_Encoder_Init>:


// 初始化电机1的编码器,这里用了TIM5
void Motor1_Encoder_Init(void)
{
 80025e8:	b570      	push	{r4, r5, r6, lr}
	TIM_TimeBaseInitTypeDef TIM_TimeBaseStructure;  
  TIM_ICInitTypeDef TIM_ICInitStructure;  
  GPIO_InitTypeDef GPIO_InitStructure;
  RCC_APB1PeriphClockCmd(RCC_APB1Periph_TIM5, ENABLE);	// 使能定时器5的时钟
 80025ea:	2101      	movs	r1, #1
{
 80025ec:	b088      	sub	sp, #32
  RCC_APB1PeriphClockCmd(RCC_APB1Periph_TIM5, ENABLE);	// 使能定时器5的时钟
 80025ee:	2008      	movs	r0, #8
 80025f0:	f006 fb88 	bl	8008d04 <RCC_APB1PeriphClockCmd>
	
	/*使能GPIOA和AFIO外设时钟*/
	RCC_APB2PeriphClockCmd(RCC_APB2Periph_GPIOA | RCC_APB2Periph_AFIO, ENABLE);
 80025f4:	2101      	movs	r1, #1
 80025f6:	2005      	movs	r0, #5
 80025f8:	f006 fb78 	bl	8008cec <RCC_APB2PeriphClockCmd>
	
	/*初始化PA0和PA1端口为IN_FLOATING模式*/
	GPIO_InitStructure.GPIO_Pin = GPIO_Pin_0 | GPIO_Pin_1;
	GPIO_InitStructure.GPIO_Mode = GPIO_Mode_IN_FLOATING;
 80025fc:	2304      	movs	r3, #4
	GPIO_InitStructure.GPIO_Pin = GPIO_Pin_0 | GPIO_Pin_1;
 80025fe:	2603      	movs	r6, #3
	GPIO_Init(GPIOA, &GPIO_InitStructure);
 8002600:	eb0d 0103 	add.w	r1, sp, r3
 8002604:	481b      	ldr	r0, [pc, #108]	; (8002674 <Motor1_Encoder_Init+0x8c>)
	GPIO_InitStructure.GPIO_Mode = GPIO_Mode_IN_FLOATING;
 8002606:	f88d 3007 	strb.w	r3, [sp, #7]
	GPIO_InitStructure.GPIO_Pin = GPIO_Pin_0 | GPIO_Pin_1;
 800260a:	f8ad 6004 	strh.w	r6, [sp, #4]
	GPIO_Init(GPIOA, &GPIO_InitStructure);
 800260e:	f006 f98b 	bl	8008928 <GPIO_Init>
	
  TIM_TimeBaseStructInit(&TIM_TimeBaseStructure);
 8002612:	a802      	add	r0, sp, #8
 8002614:	f006 fd76 	bl	8009104 <TIM_TimeBaseStructInit>
  TIM_TimeBaseStructure.TIM_Prescaler = 0;			// 预分频器
  TIM_TimeBaseStructure.TIM_Period = 0xFFFF;		// 设定计数器自动重装值
 8002618:	2500      	movs	r5, #0
 800261a:	f64f 73ff 	movw	r3, #65535	; 0xffff
  TIM_TimeBaseStructure.TIM_ClockDivision = TIM_CKD_DIV1;				// 选择时钟分频：不分频
  TIM_TimeBaseStructure.TIM_CounterMode = TIM_CounterMode_Up;		// TIM向上计数
  TIM_TimeBaseInit(TIM5, &TIM_TimeBaseStructure);
 800261e:	4c16      	ldr	r4, [pc, #88]	; (8002678 <Motor1_Encoder_Init+0x90>)
 8002620:	a902      	add	r1, sp, #8
 8002622:	4620      	mov	r0, r4
  TIM_TimeBaseStructure.TIM_Period = 0xFFFF;		// 设定计数器自动重装值
 8002624:	e9cd 5302 	strd	r5, r3, [sp, #8]
  TIM_TimeBaseInit(TIM5, &TIM_TimeBaseStructure);
 8002628:	f006 fc2c 	bl	8008e84 <TIM_TimeBaseInit>
  TIM_EncoderInterfaceConfig(TIM5, TIM_EncoderMode_TI12, TIM_ICPolarity_Rising, TIM_ICPolarity_Rising);	// 使用编码器模式
 800262c:	462a      	mov	r2, r5
 800262e:	462b      	mov	r3, r5
 8002630:	4631      	mov	r1, r6
 8002632:	4620      	mov	r0, r4
 8002634:	f006 fd9a 	bl	800916c <TIM_EncoderInterfaceConfig>
	
	TIM_ICStructInit(&TIM_ICInitStructure);
 8002638:	a805      	add	r0, sp, #20
 800263a:	f006 fd6c 	bl	8009116 <TIM_ICStructInit>
	TIM_ICInitStructure.TIM_ICFilter = 10;
 800263e:	230a      	movs	r3, #10
	TIM_ICInit(TIM5, &TIM_ICInitStructure);
 8002640:	4620      	mov	r0, r4
 8002642:	a905      	add	r1, sp, #20
	TIM_ICInitStructure.TIM_ICFilter = 10;
 8002644:	f8ad 301c 	strh.w	r3, [sp, #28]
	TIM_ICInit(TIM5, &TIM_ICInitStructure);
 8002648:	f006 fe06 	bl	8009258 <TIM_ICInit>
	
  TIM_ClearFlag(TIM5, TIM_FLAG_Update);				// 清除TIM的更新标志位
 800264c:	4620      	mov	r0, r4
 800264e:	2101      	movs	r1, #1
 8002650:	f006 fe98 	bl	8009384 <TIM_ClearFlag>
  TIM_ITConfig(TIM5, TIM_IT_Update, ENABLE);
 8002654:	2201      	movs	r2, #1
 8002656:	4620      	mov	r0, r4
 8002658:	4611      	mov	r1, r2
 800265a:	f006 fd7e 	bl	800915a <TIM_ITConfig>
	
  TIM_SetCounter(TIM5, 0);		// 清除计数器
 800265e:	4629      	mov	r1, r5
 8002660:	4620      	mov	r0, r4
 8002662:	f006 fdc6 	bl	80091f2 <TIM_SetCounter>
  TIM_Cmd(TIM5, ENABLE); 
 8002666:	2101      	movs	r1, #1
 8002668:	4620      	mov	r0, r4
 800266a:	f006 fd5c 	bl	8009126 <TIM_Cmd>
}
 800266e:	b008      	add	sp, #32
 8002670:	bd70      	pop	{r4, r5, r6, pc}
 8002672:	bf00      	nop
 8002674:	40010800 	.word	0x40010800
 8002678:	40000c00 	.word	0x40000c00

0800267c <Motor2_Encoder_Init>:


// 初始化电机2的编码器,这里用了TIM4
void Motor2_Encoder_Init(void)
{
 800267c:	b530      	push	{r4, r5, lr}
	TIM_TimeBaseInitTypeDef TIM_TimeBaseStructure;  
  TIM_ICInitTypeDef TIM_ICInitStructure;  
  GPIO_InitTypeDef GPIO_InitStructure;
  RCC_APB1PeriphClockCmd(RCC_APB1Periph_TIM4, ENABLE);	// 使能定时器5的时钟
 800267e:	2101      	movs	r1, #1
{
 8002680:	b089      	sub	sp, #36	; 0x24
  RCC_APB1PeriphClockCmd(RCC_APB1Periph_TIM4, ENABLE);	// 使能定时器5的时钟
 8002682:	2004      	movs	r0, #4
 8002684:	f006 fb3e 	bl	8008d04 <RCC_APB1PeriphClockCmd>
	
	/*使能GPIOB和AFIO外设时钟*/
	RCC_APB2PeriphClockCmd(RCC_APB2Periph_GPIOB | RCC_APB2Periph_AFIO, ENABLE);
 8002688:	2101      	movs	r1, #1
 800268a:	2009      	movs	r0, #9
 800268c:	f006 fb2e 	bl	8008cec <RCC_APB2PeriphClockCmd>
	
	/*初始化PB6和PB7端口为IN_FLOATING模式*/
	GPIO_InitStructure.GPIO_Pin = GPIO_Pin_6 | GPIO_Pin_7;
 8002690:	23c0      	movs	r3, #192	; 0xc0
 8002692:	f8ad 3004 	strh.w	r3, [sp, #4]
	GPIO_InitStructure.GPIO_Mode = GPIO_Mode_IN_FLOATING;
 8002696:	2304      	movs	r3, #4
	GPIO_Init(GPIOB, &GPIO_InitStructure);
 8002698:	481b      	ldr	r0, [pc, #108]	; (8002708 <Motor2_Encoder_Init+0x8c>)
 800269a:	eb0d 0103 	add.w	r1, sp, r3
	GPIO_InitStructure.GPIO_Mode = GPIO_Mode_IN_FLOATING;
 800269e:	f88d 3007 	strb.w	r3, [sp, #7]
	GPIO_Init(GPIOB, &GPIO_InitStructure);
 80026a2:	f006 f941 	bl	8008928 <GPIO_Init>
	
  TIM_TimeBaseStructInit(&TIM_TimeBaseStructure);
 80026a6:	a802      	add	r0, sp, #8
 80026a8:	f006 fd2c 	bl	8009104 <TIM_TimeBaseStructInit>
  TIM_TimeBaseStructure.TIM_Prescaler = 0;			// 预分频器
  TIM_TimeBaseStructure.TIM_Period = 0xFFFF;		// 设定计数器自动重装值
 80026ac:	2500      	movs	r5, #0
 80026ae:	f64f 73ff 	movw	r3, #65535	; 0xffff
  TIM_TimeBaseStructure.TIM_ClockDivision = TIM_CKD_DIV1;				// 选择时钟分频：不分频
  TIM_TimeBaseStructure.TIM_CounterMode = TIM_CounterMode_Up;		// TIM向上计数
  TIM_TimeBaseInit(TIM4, &TIM_TimeBaseStructure);
 80026b2:	4c16      	ldr	r4, [pc, #88]	; (800270c <Motor2_Encoder_Init+0x90>)
 80026b4:	a902      	add	r1, sp, #8
 80026b6:	4620      	mov	r0, r4
  TIM_TimeBaseStructure.TIM_Period = 0xFFFF;		// 设定计数器自动重装值
 80026b8:	e9cd 5302 	strd	r5, r3, [sp, #8]
  TIM_TimeBaseInit(TIM4, &TIM_TimeBaseStructure);
 80026bc:	f006 fbe2 	bl	8008e84 <TIM_TimeBaseInit>
  TIM_EncoderInterfaceConfig(TIM4, TIM_EncoderMode_TI12, TIM_ICPolarity_Rising, TIM_ICPolarity_Rising);	// 使用编码器模式
 80026c0:	462a      	mov	r2, r5
 80026c2:	462b      	mov	r3, r5
 80026c4:	2103      	movs	r1, #3
 80026c6:	4620      	mov	r0, r4
 80026c8:	f006 fd50 	bl	800916c <TIM_EncoderInterfaceConfig>
	
	TIM_ICStructInit(&TIM_ICInitStructure);
 80026cc:	a805      	add	r0, sp, #20
 80026ce:	f006 fd22 	bl	8009116 <TIM_ICStructInit>
	TIM_ICInitStructure.TIM_ICFilter = 10;
 80026d2:	230a      	movs	r3, #10
	TIM_ICInit(TIM4, &TIM_ICInitStructure);
 80026d4:	4620      	mov	r0, r4
 80026d6:	a905      	add	r1, sp, #20
	TIM_ICInitStructure.TIM_ICFilter = 10;
 80026d8:	f8ad 301c 	strh.w	r3, [sp, #28]
	TIM_ICInit(TIM4, &TIM_ICInitStructure);
 80026dc:	f006 fdbc 	bl	8009258 <TIM_ICInit>
	
  TIM_ClearFlag(TIM4, TIM_FLAG_Update);				// 清除TIM的更新标志位
 80026e0:	4620      	mov	r0, r4
 80026e2:	2101      	movs	r1, #1
 80026e4:	f006 fe4e 	bl	8009384 <TIM_ClearFlag>
  TIM_ITConfig(TIM4, TIM_IT_Update, ENABLE);
 80026e8:	2201      	movs	r2, #1
 80026ea:	4620      	mov	r0, r4
 80026ec:	4611      	mov	r1, r2
 80026ee:	f006 fd34 	bl	800915a <TIM_ITConfig>
	
  TIM_SetCounter(TIM4, 0);		// 清除计数器
 80026f2:	4629      	mov	r1, r5
 80026f4:	4620      	mov	r0, r4
 80026f6:	f006 fd7c 	bl	80091f2 <TIM_SetCounter>
  TIM_Cmd(TIM4, ENABLE); 
 80026fa:	2101      	movs	r1, #1
 80026fc:	4620      	mov	r0, r4
 80026fe:	f006 fd12 	bl	8009126 <TIM_Cmd>
}
 8002702:	b009      	add	sp, #36	; 0x24
 8002704:	bd30      	pop	{r4, r5, pc}
 8002706:	bf00      	nop
 8002708:	40010c00 	.word	0x40010c00
 800270c:	40000800 	.word	0x40000800

08002710 <TIM5_IRQHandler>:

int16_t motor1_cnt = 0, motor2_cnt = 0;

// 函数功能：TIM5中断服务函数
void TIM5_IRQHandler(void)
{
 8002710:	b508      	push	{r3, lr}
	if(TIM_GetITStatus(TIM5, TIM_IT_Update)!=RESET)
 8002712:	2101      	movs	r1, #1
 8002714:	4805      	ldr	r0, [pc, #20]	; (800272c <TIM5_IRQHandler+0x1c>)
 8002716:	f006 fe39 	bl	800938c <TIM_GetITStatus>
 800271a:	b128      	cbz	r0, 8002728 <TIM5_IRQHandler+0x18>
	{
		TIM_ClearITPendingBit(TIM5, TIM_IT_Update);  // 清除中断标志位
	}	    
}
 800271c:	e8bd 4008 	ldmia.w	sp!, {r3, lr}
		TIM_ClearITPendingBit(TIM5, TIM_IT_Update);  // 清除中断标志位
 8002720:	2101      	movs	r1, #1
 8002722:	4802      	ldr	r0, [pc, #8]	; (800272c <TIM5_IRQHandler+0x1c>)
 8002724:	f006 be3d 	b.w	80093a2 <TIM_ClearITPendingBit>
}
 8002728:	bd08      	pop	{r3, pc}
 800272a:	bf00      	nop
 800272c:	40000c00 	.word	0x40000c00

08002730 <TIM4_IRQHandler>:


// 函数功能：TIM4中断服务函数
void TIM4_IRQHandler(void)
{
 8002730:	b508      	push	{r3, lr}
	if(TIM_GetITStatus(TIM4, TIM_IT_Update)!=RESET)
 8002732:	2101      	movs	r1, #1
 8002734:	4805      	ldr	r0, [pc, #20]	; (800274c <TIM4_IRQHandler+0x1c>)
 8002736:	f006 fe29 	bl	800938c <TIM_GetITStatus>
 800273a:	b128      	cbz	r0, 8002748 <TIM4_IRQHandler+0x18>
	{
		TIM_ClearITPendingBit(TIM4, TIM_IT_Update);  // 清除中断标志位
	}
}
 800273c:	e8bd 4008 	ldmia.w	sp!, {r3, lr}
		TIM_ClearITPendingBit(TIM4, TIM_IT_Update);  // 清除中断标志位
 8002740:	2101      	movs	r1, #1
 8002742:	4802      	ldr	r0, [pc, #8]	; (800274c <TIM4_IRQHandler+0x1c>)
 8002744:	f006 be2d 	b.w	80093a2 <TIM_ClearITPendingBit>
}
 8002748:	bd08      	pop	{r3, pc}
 800274a:	bf00      	nop
 800274c:	40000800 	.word	0x40000800

08002750 <Read_Encoder>:
// 函数功能：读取单位时间内的编码器计数,用于计算电机转速
void Read_Encoder(void)
{
	// 读取电机1脉冲数,注意这里用了short,编码器正反转都不会出错
	motorStatus.motor1_pulse = -(short)TIM5 -> CNT;
	TIM5 -> CNT = 0;
 8002750:	2200      	movs	r2, #0
	motorStatus.motor1_pulse = -(short)TIM5 -> CNT;
 8002752:	4805      	ldr	r0, [pc, #20]	; (8002768 <Read_Encoder+0x18>)
 8002754:	4905      	ldr	r1, [pc, #20]	; (800276c <Read_Encoder+0x1c>)
 8002756:	8c83      	ldrh	r3, [r0, #36]	; 0x24
 8002758:	425b      	negs	r3, r3
 800275a:	818b      	strh	r3, [r1, #12]
	
	motorStatus.motor2_pulse = (short)TIM4 -> CNT;
 800275c:	4b04      	ldr	r3, [pc, #16]	; (8002770 <Read_Encoder+0x20>)
	TIM5 -> CNT = 0;
 800275e:	8482      	strh	r2, [r0, #36]	; 0x24
	motorStatus.motor2_pulse = (short)TIM4 -> CNT;
 8002760:	8c98      	ldrh	r0, [r3, #36]	; 0x24
 8002762:	81c8      	strh	r0, [r1, #14]
	TIM4 -> CNT = 0;
 8002764:	849a      	strh	r2, [r3, #36]	; 0x24
}
 8002766:	4770      	bx	lr
 8002768:	40000c00 	.word	0x40000c00
 800276c:	200002fc 	.word	0x200002fc
 8002770:	40000800 	.word	0x40000800

08002774 <Set_Motor1_PWM>:


// 设置电机1的PWM值：-1000~1000, PWM值为正则正转,为负则反转,为0则停转(滑行)
void Set_Motor1_PWM(int16_t motor1)
{
	if(motor1 > 1000)
 8002774:	f5b0 7f7a 	cmp.w	r0, #1000	; 0x3e8
 8002778:	4b0b      	ldr	r3, [pc, #44]	; (80027a8 <Set_Motor1_PWM+0x34>)
 800277a:	dc0b      	bgt.n	8002794 <Set_Motor1_PWM+0x20>
	{
		motor1 = 1000;
	}
	else if(motor1 < -1000)
 800277c:	f510 7f7a 	cmn.w	r0, #1000	; 0x3e8
 8002780:	db10      	blt.n	80027a4 <Set_Motor1_PWM+0x30>
	{
		motor1 = -1000;
	}
	
	// 左侧电机
	if(motor1 >= 0)				// 正转或停转
 8002782:	2800      	cmp	r0, #0
 8002784:	da08      	bge.n	8002798 <Set_Motor1_PWM+0x24>
		case 1: TIM1->CCR1 = duty; break;
 8002786:	2200      	movs	r2, #0
		Motor_PWM_Duty(2, 0);
	}
	else									// 反转
	{
		Motor_PWM_Duty(1, 0);
		Motor_PWM_Duty(2, -motor1);
 8002788:	4240      	negs	r0, r0
 800278a:	b280      	uxth	r0, r0
		case 1: TIM1->CCR1 = duty; break;
 800278c:	869a      	strh	r2, [r3, #52]	; 0x34
		case 2: TIM1->CCR4 = duty; break;
 800278e:	f8a3 0040 	strh.w	r0, [r3, #64]	; 0x40
	}
}
 8002792:	4770      	bx	lr
		motor1 = 1000;
 8002794:	f44f 707a 	mov.w	r0, #1000	; 0x3e8
		case 2: TIM1->CCR4 = duty; break;
 8002798:	2200      	movs	r2, #0
		Motor_PWM_Duty(1, motor1);
 800279a:	b280      	uxth	r0, r0
		case 1: TIM1->CCR1 = duty; break;
 800279c:	8698      	strh	r0, [r3, #52]	; 0x34
		case 2: TIM1->CCR4 = duty; break;
 800279e:	f8a3 2040 	strh.w	r2, [r3, #64]	; 0x40
 80027a2:	4770      	bx	lr
		motor1 = -1000;
